:020000040800F2
:1000000040070020A1020008771F00081B1D000800
:10001000751F00089106000849250008000000002F
:1000200000000000000000000000000005200008A3
:100030009306000800000000791F00080720000850
:10004000BB020008BB020008BB020008BB0200089C
:10005000BB020008BB020008BB020008BB0200088C
:10006000BB020008BB020008BB020008BB0200087C
:10007000BB020008BB020008BB020008BB0200086C
:10008000BB020008BB020008BB020008BB0200085C
:10009000BB020008BB020008BB020008BB0200084C
:1000A000BB020008BB020008BB020008BB0200083C
:1000B000BB020008BB020008BB020008BB0200082C
:1000C000BB020008BB020008BB020008BB0200081C
:1000D000BB0200083D250008BB020008BB02000867
:1000E000BB020008BB020008BB020008BB020008FC
:1000F000BB020008BB020008BB020008BB020008EC
:10010000BB020008BB020008BB020008BB020008DB
:10011000BB020008BB020008BB020008BB020008CB
:10012000BB020008BB020008BB020008BB020008BB
:10013000BB020008BB020008BB020008BB020008AB
:10014000BB020008BB020008BB020008BB0200089B
:10015000BB020008BB020008BB020008BB0200088B
:10016000BB020008BB020008BB020008BB0200087B
:10017000BB020008BB020008BB0200080000000030
:10018000BB020008BB020008BB020008BB0200085B
:10019000BB020008BB020008BB020008BB0200084B
:1001A000BB020008BB020008BB020008BB0200083B
:1001B000BB020008BB020008BB020008BB0200082B
:1001C000BB020008BB02000800000000BB020008E0
:1001D000BB020008BB020008BB020008BB0200080B
:1001E000BB020008BB020008BB020008BB020008FB
:1001F000BB020008BB02000800F002F800F041F862
:100200000AA090E8000C82448344AAF10107DA4571
:1002100001D100F036F8AFF2090EBAE80F0013F082
:10022000010F18BFFB1A43F00103184740260000D6
:1002300060260000103A24BF78C878C1FAD8520767
:1002400024BF30C830C144BF04680C607047000050
:100250000023002400250026103A28BF78C1FBD8CF
:10026000520728BF30C148BF0B607047642900F0B7
:10027000EF80002070471FB502F0E6FA1FBD10B5F1
:1002800010BD00F0D3F91146FFF7F5FF02F0E8F9D1
:1002900000F0F1F903B4FFF7F2FF03BC02F066F9D6
:1002A0000948804709480047FEE7FEE7FEE7FEE70A
:1002B000FEE7FEE7FEE7FEE7FEE7FEE70448054946
:1002C000054A064B70470000AD200008F901000800
:1002D0004001002040070020400300204003002090
:1002E000704753EA020C00F069802DE9F04B4FF0A3
:1002F0000006002B1FBFB3FA83F503FA05F424FAB6
:1003000005F65E4012BF1643B2FA82F502FA05F412
:10031000C5F120051EBF22FA05FC44EA0C04203575
:1003200056EA044C4FEA144418BF641C4FF000080E
:100330004FF00009904271EB030C39D3002919BF2B
:10034000B1FA81F701FA07F6B0FA80F700FA07F67A
:10035000C7F120071EBF20FA07FC46EA0C0620372B
:10036000B6FBF4FCA7EB0507103F07F01F0BCBF122
:1003700020060CFA0BFB2CFA06F644BFB346002607
:10038000202FA4BF5E464FF0000B5BEA060C08BFAF
:100390004FF0010B19EB0B09ABFB027C48EB060895
:1003A000C01B06FB02CC0BFB03CC71EB0C01C1E7BD
:1003B0000B46024641464846BDE8F08B13B54FF068
:1003C00000004FF00001AFF30080BDE81C40704713
:1003D0000FB4044910B503AA029800F0F9F810BC54
:1003E0005DF814FB000000202DE9F0410E460446A4
:1003F000002020622046E168884730B3252805D0D8
:10040000D4E901219047206A401CF2E7E1682046C8
:1004100000278847050018D0A5F14100192802D807
:1004200020354FF400673246294620462760FFF703
:100430001DFF40B1012804D0F61D26F0070608363E
:10044000D8E7361DD6E72846DAE7206ABDE8F0810E
:100450002DE9F0410646002410687529314616A59D
:1004600010D0AFF30080002802DA404213A507E065
:1004700031688A0701D512A502E0490704D511A504
:10048000012401E0AFF3008000210A2206F12407D5
:1004900009E0B0FBF2FCB0FBF2F302FB1C003030D1
:1004A00078541846491C0028F3D123462A46304682
:1004B000BDE8F04100F033B8000000002D0000005E
:1004C0002B000000200000004FF0000200B5134692
:1004D00094469646203922BFA0E80C50A0E80C5064
:1004E000B1F12001BFF4F7AF090728BFA0E80C5015
:1004F00048BF0CC05DF804EB890028BF40F8042B0E
:1005000008BF704748BF20F8022B11F0804F18BF7A
:1005100000F8012B704770477047704770472DE90E
:10052000F0470D4699469246044600F124080168BA
:10053000880604D5E06921F01001216000E0012067
:10054000A84201DD471B00E00027A1697A1902EBF0
:100550000900081AA0612078C00602D42046AFF333
:100560000080002608E0D4E901211AF8060090472F
:10057000206A401C761C20624E45F4DB2078C006C1
:100580000AD52046AFF3008006E0D4E901213020EF
:100590009047206A401C2062381EA7F10107F4DC56
:1005A00007E0D4E9012118F805009047206A401CB3
:1005B0002062281EA5F10105F3DC2046AFF3008080
:1005C0002078000602D50220BDE8F0870120FBE775
:1005D000074B70B50D467B4400F011F804462846E1
:1005E00000F020F810B14FF0FF3070BD204670BD14
:1005F000E31F000001694A1C02610878704700B5DA
:100600008FB0CDE901310021059105497944CDE94B
:10061000031011466846FFF7E7FE0FB000BD00006B
:10062000E5FFFFFF007B00F080007047754600F09B
:100630002BF8AE4605006946534620F00700854674
:1006400018B020B5FFF73AFEBDE820404FF0000695
:100650004FF000074FF000084FF0000B21F00701AA
:10066000AC46ACE8C009ACE8C009ACE8C009ACE8ED
:10067000C0098D46704710B50446AFF30080204690
:10068000BDE81040FFF706BE00487047DC000020C0
:10069000FEE7704772B6FEE7F0B5D1E90843CD69D1
:1006A0000A68C2B10268254322F4F84213431D438D
:1006B0000560D1E90125D1E903364C692A43456833
:1006C000334389691A43EB0B2243DB030A431A4382
:1006D00042600020F0BDD1E9012ED1E9036CD1E9DF
:1006E000057142EA0E0246EA0C0632433A430A43D7
:1006F00001682A4322431A436FF30E010A43026042
:10070000E7E7426943F6FE739A4342EA41014161D9
:100710000020704770B591E81C00C9686FF01F0594
:1007200006691A4305EB441444EA41210A4306EAE8
:1007300045431A430261002070BD00002DE9F04FCF
:100740008B8A6FF00F05264C4FF07F4BD1F80C9041
:1007500004EB03536FF0FF044FEA042A1AB38668D0
:100760004FEA09321F4FA2F580521A433E403243EE
:100770008260D1E900278E68521E05EB07150F8AAB
:100780002A43C56804EB06240E7E0AEB0743224386
:100790001A430BEB06610A4305F070431A43C2602B
:1007A0000020BDE8F08F91E804110F4E521E0F8A11
:1007B00005EB08152A4304EB0C2C06EB09350E7EDD
:1007C00042EA0C022A4385680AEB074422431A4393
:1007D0000BEB06610A4305F070431A438260DFE7C2
:1007E0000000F0FFFF0F0FFF00F0FFFF2DE9F041C9
:1007F000876D044600F0E4F9064694F835000025BC
:10080000022806D080206065012084F83450BDE8BD
:10081000F0812068016821F01601016020684169BB
:1008200021F080014161206C08B9A06C20B12068E2
:10083000016821F0080101602068016821F00101D0
:1008400001600CE000F0BCF9801B052807D92021CD
:100850006165032084F8350084F83450D7E72068B8
:100860000068C007EED194F85C203F200121904041
:10087000B86084F83510002084F83450C7E790F849
:100880003510022903D080214165012070470521E0
:1008900080F835100068016821F001010160002036
:1008A0007047000070B586B014216846FFF70CFE53
:1008B0002148016800293DD1012505601F480168D4
:1008C00041F001010160006802240C26694600F035
:1008D000010005904FF63F008DE831001848CDE942
:1008E000034600F037F80D2069468DE831001548C1
:1008F000CDE9034600F02EF848F2371069468DE83E
:1009000031001148CDE9034600F024F84FF683701A
:1009100069468DE831000D48CDE9034600F01AF82C
:100920004CF2037069468DE831000948CDE9034671
:1009300000F010F806B070BD040000203838024006
:10094000001402400008024000180240001002405B
:10095000000C02402DE9F84FDFF80CB2012403250A
:100960004FF00F0A00220BF1040E00BF0B6804FACF
:1009700002F63340B34278D10F7907F00307012F15
:1009800001D0022F1AD187684FEA4209D1F80CC072
:1009900005FA09F827EA08070CFA09FC4CEA070CE3
:1009A000C0F808C0476891F804C0B743CCF3001CF6
:1009B0000CFA02FC4CEA070CC0F804C00E79F643AE
:1009C000B6070BD0C6684FEA420C8F6805FA0CF8E0
:1009D00026EA080607FA0CF73743C7600E7906F0D7
:1009E0000306022E12D1D6084FEA427800EB8606A3
:1009F00000960F69D6F820904FEAD8660AFA06FCEE
:100A0000B74029EA0C063743009E37620F79066823
:100A10004FEA420C07F0030705FA0CF807FA0CF747
:100A200026EA0806374307604E6816F4403F1CD09C
:100A30004E4E376847F480473760366822F0030827
:100A4000970706F480460096494E3F0F4644B1464C
:100A5000D6F80868DFF81C810AFA07FC404526EA48
:100A60000C0603D14FF0000C41E076E0DFF808C13E
:100A7000604502D14FF0010C39E0DFF800C160455C
:100A800002D14FF0020C32E0DFF8F4C0604502D131
:100A90004FF0030C2BE0DFF8ECC0604502D14FF0C3
:100AA000040C24E0DFF8E0C0604502D14FF0050CF3
:100AB0001DE0DFF8D8C0604502D14FF0060C16E00B
:100AC000DFF8CCC0604502D14FF0070C0FE0DFF833
:100AD000C4C0604502D14FF0080C08E0DFF8B8C090
:100AE000604502D14FF0090C01E04FF00A0C0CFAFE
:100AF00007FC4CEA060CC9F808C84F68DBF8006030
:100B0000FF0226EA030600D51E437746CBF80060B5
:100B1000D1F804C0DEF800605FEA8C2C26EA0306F8
:100B200000D51E43DFF840C03E60ACF1040C4F68B6
:100B3000DCF80060BF0326EA030600D51E430A4F17
:100B4000CCF80060083FD1F804C03E685FEACC3CB6
:100B500026EA030600D51E433E60521C102AFFF40D
:100B600005AFBDE8F88F0000083C01404438024062
:100B70000030014000000240000402400008024032
:100B8000000C024000100240001402400018024015
:100B9000001C02400020024000240240006908407E
:100BA00000D001207047426921EA02030A4043EA6B
:100BB0000241816170470AB1816170470904FBE716
:100BC00001488068704700001400002002488168D6
:100BD000027811448160704714000020094810B564
:100BE000016841F400710160016841F480710160A5
:100BF000032000F0BFF8002000F006F800F072F8C3
:100C0000002010BD003C024070B50D4D04464FF46D
:100C10007A700C4A29781268B0FBF1F0B2FBF0F060
:100C200000F09CFE48B9102C07D200222146501E2D
:100C300000F080F800206C6070BD012070BD0000E5
:100C40001400002020000020F0B5154C4378211D31
:100C50000A1D23600378F3B143680B60057BC67AF5
:100C6000817A437B2D07847B45EA0665C77B90F834
:100C700009C0067A90F800E045EAC14040EA8340A6
:100C800040EA444040EA074040EA0C2040EA46007F
:100C900040EA0E0001E0002008601060F0BD000096
:100CA00098ED00E0BFF35F8F044800210368034A1A
:100CB00023F48033036070321160704724ED00E04C
:100CC000074A40F00100064970321060086840F49D
:100CD00080300860BFF34F8FBFF36F8F7047000005
:100CE00024ED00E00B4882B0016841F080510160C2
:100CF000006800F0805000900648001D016841F433
:100D000080410160006800F480400090052002B03E
:100D100000F030B840380240002809DB410900F0FB
:100D20001F028900012001F1E0219040C1F800017B
:100D3000704700000E4BF0B41B680D46C3F302234E
:100D4000C3F10706042E00D90426191D072901D274
:100D5000002300E0DB1E012404FA06F19C40491E3A
:100D60002940641E994014402143F0BC01F0EDBBC2
:100D70000CED00E0064900F0070210B54FF6FF0445
:100D80000868044B204040EA02201843086010BD68
:100D90000CED00E00000FA051848F8B5016841F0D4
:100DA000805101600068164C00F08050009020686F
:100DB00040F480302060FFF703FF4FF47A76054659
:100DC00005E000BFFFF7FCFE401BB0420FD8606893
:100DD000C003F7D5206840F400302060FFF7F0FE34
:100DE000054606E0FFF7ECFE401BB04201D90320A8
:100DF000F8BD60688003F5D50020F8BD403802409A
:100E0000007000402DE9F84F04460078DFF8249484
:100E10004FF000063746C0070ED0D9F8001021F475
:100E20000001C9F80010D9F80010626B1143C9F82D
:100E30000010606B00B90126FE4D20688435000368
:100E40000ED5E16B286820F4401008432860E06B61
:100E5000B0F5801F01D010B102E0012600E00127AB
:100E600020684FF4800BC0020CD5216C286820F458
:100E7000400008432860206C584501D1012601E05C
:100E800000B901272068C10100D50126800666D57A
:100E9000E8483830016841F0805101600068DFF8AF
:100EA00098A300F080500090DAF8001041F48071AF
:100EB000CAF80010FFF784FE804605E0FFF780FEC9
:100EC000A0EB080064287DD8DAF80000C005F5D54D
:100ED000DFF8608308F16808D8F8000010F440706B
:100EE0002AD0218E01F44071814225D0D8F800101B
:100EF000D8F8002021F4407142F48032C8F8002074
:100F0000D8F8002022F48032C8F80020C8F8001079
:100F1000D8F80000C0070FD0FFF752FE824607E066
:100F2000FFF74EFEA0EB0A0141F288308142CAD899
:100F3000D8F800008007F3D5206BC0F30121032906
:100F40007ED0D9F8001021F4F811C9F80010228ED3
:100F5000D8F80010C2F30B021143C8F80010207833
:100F6000C00607D5286820F0807028602868A16B2B
:100F7000084328602188AF488830490405D5626E4F
:100F8000016821F44031114301602188090405D52D
:100F9000A26E016821F44021114301602168C90358
:100FA00005D5E26E016821F440111143016021680A
:100FB000890305D5226F016821F4400111430160C6
:100FC000217800E034E1490605D5626C016821F022
:100FD0000301114301602178090605D5A26C01685F
:100FE00021F00C01114301602188C90505D5E26C8F
:100FF000016821F03001114301602188890505D580
:10100000226D016821F0C00111430160218849056A
:1010100005D5626D016821F440711143016021889A
:10102000090505D5A26D016821F4406111430160F5
:101030002188C90407D5E26D016821F4405100E020
:1010400068E0114301602188890405D5226E01689A
:1010500021F44041114301602168490205D5A26F86
:10106000016821F080611143016021684FF0006A3E
:10107000890209D5E26F016821F000611143016026
:10108000E16F514500D1012721680A0700D50127EA
:10109000490305D5626F016821F040711143016079
:1010A0002168090206D5D4F88020016821F080511A
:1010B000114301602168490106D5D4F884200168F4
:1010C00021F00051114301602068000106D5D4F8D9
:1010D0008810286820F00070084328602068C0004D
:1010E00006D5D4F88C10286820F08060084328606A
:1010F000DFF84891012E02D0206880017ED5D9F812
:1011000000004E4620F08060C9F80000FFF758FD4F
:1011100080460FE04A4AD9F80030104023F4F81214
:101120000243C9F8002012E7FFF74AFDA0EB0800D0
:1011300064287DD830680001F6D421783D487C30A1
:10114000C90712D0616B81B9237A62680168D0F84F
:1011500000C09201C1F3014142EA0142CCF30361B4
:1011600042EA016141EA0371016021680A0303D583
:10117000E26BB2F5801F04D0C9021AD5216C594523
:1011800017D16368016894F80CC002689B01C1F331
:10119000014143EA0141C2F3027241EA0C6141EAB2
:1011A000027101602968626A21F01F01521E114319
:1011B00029602168C90110D5238A62680168D0F8C6
:1011C00000C09201C1F3036142EA034242EA0162B4
:1011D000CCF3027142EA01710160216889010CD5EA
:1011E0006168228A237B94F808C0890141EA0241A0
:1011F00041EA036141EA0C71016000E011E03168ED
:10120000B04641F080613160FFF7DAFC064604E049
:10121000FFF7D6FC801B64280AD8D8F8000000012C
:10122000F6D5E7B3D9F800004E4620F0805009E02B
:101230007BE00000083802400070004000380240A7
:10124000FFFCFF0FC9F80000FFF7BAFC074604E0F7
:10125000FFF7B6FCC01B642867D83068C043800025
:10126000F6D5216835480A0301D5E26B1AB1C902E7
:101270001DD5216CD9B963690168277E02689B017D
:10128000C1F3014143EA0143C2F3027143EA076239
:1012900042EA0171016029686FF0FF0300E04BE052
:1012A000A26A21F4F85103EB02221143296021685C
:1012B000890212D5E16F51450FD1238C6269016813
:1012C00007689201C1F3036142EA034242EA016204
:1012D000C7F3027142EA017101602178090716D54E
:1012E00061690268D0F800C08B01277FC2F30362F6
:1012F000CCF3014143EA014141EA026141EA07714D
:1013000001602868E16A20F44030084328603068B2
:1013100040F080503060FFF753FC044608E000BF07
:10132000FFF74EFC001B642802D90320BDE8F88FAC
:101330003068C0438000F3D40020F7E788380240CB
:101340002DE9F04705000F4663D0444E306800F0A9
:101350000F00B84209D2306820F00F0038433060E7
:10136000306800F00F00B84253D128683C4C810728
:1013700012D5400703D5206840F4E050206028785B
:10138000000703D5206840F460402060A968206809
:1013900020F0F000084320602878C0072AD03049A8
:1013A00068680839012810D00968022810D0890718
:1013B00000292EDA216821F0030101432160FFF7A3
:1013C000FFFB804641F288390DE009688903EFE7A9
:1013D0008901EDE7FFF7F4FBA0EB0801494502D9CD
:1013E0000320BDE8F0876868216801F00C01B1EBCB
:1013F000800FEFD1306800F00F00B8420BD9306891
:1014000020F00F0038433060306800F00F00B84221
:1014100001D00120E5E72878400705D5E968206874
:1014200020F4E050084320602878000706D528699A
:10143000216821F4604141EAC000206000F038F8E2
:101440002168084AC1F30311515CC840064908608D
:1014500006480068FFF7D8FB0020C2E7003C0240C6
:101460000838024052280008200000201800002000
:101470000449054809680068044AC1F38221515CA7
:10148000C840704708380240200000206228000849
:101490000449054809680068044AC1F34231515CB7
:1014A000C840704708380240200000206228000829
:1014B000154910B51548096811F00C0213D01449EC
:1014C000042A0FD0082A0ED10F4C241F226823684B
:1014D00002F03F025B0207D52068C0F38810A0FB32
:1014E000010106E0084610BD2168C1F38811A1FB87
:1014F00000010023FEF7F5FE2168C1F30141491CFC
:101500004900B0FBF1F010BD083802400024F4009F
:1015100040787D012DE9F84F04004FF000076ED0B0
:101520002078DFF87CA3AAF10408C007A8F104051D
:101530004CD0DAF800105046C1F38101012908D0DF
:101540000068C0F3810002280AD1D8F800004002E8
:1015500006D52868800339D560680028DFD035E0DB
:101560006068B0F5803F0BD010B1B0F5A02F11D05E
:10157000286820F480302860286820F4802002E069
:10158000286840F480302860606890B1FFF718FB4D
:1015900006460AE0286840F480202860F0E700BF93
:1015A000FFF70EFB801B642872D828688003F7D5EC
:1015B0000CE0FFF705FB064605E000BFFFF700FB68
:1015C000801B6428F0D828688003F7D4207880072F
:1015D00042D5DAF80010504611F00C0F08D0006820
:1015E000C0F3810002280BD1D8F80000400207D4D4
:1015F0002868800718D5E068012800D114E04AE186
:10160000E0680028286817D040F001002860FFF744
:10161000D7FA064605E000BFFFF7D2FA801B022882
:10162000C2D828688007F7D52069296821F0F80119
:1016300041EAC00028600FE020F001002860FFF7B9
:10164000BFFA064605E000BFFFF7BAFA801B022882
:101650001ED828688007F7D42078000729D590483D
:1016600061696C3000298146016812D041F00101A6
:101670000160FFF7A5FA064605E000BFFFF7A0FAF4
:10168000801B022804D8D9F800008007F6D510E0A6
:1016900089E021F001010160FFF792FA064604E0BB
:1016A000FFF78EFA801B02287DD8D9F8000080074A
:1016B000F6D4207840076BD5DFF8E49109F13809BA
:1016C000D9F80000C0000BD4D9F8001041F08051C7
:1016D000C9F80010D9F80000012700F080500090F0
:1016E00070480168C90512D40168834641F48071CD
:1016F0000160FFF765FA064605E000BFFFF760FAF4
:10170000801B64284FD8DBF80000C005F6D5644E76
:10171000A068683601280AD008B1052811D03068C1
:1017200020F001003060306820F0040002E03068F2
:1017300040F001003060A068A0B1FFF741FA834695
:101740000CE0306840F004003060F0E7FFF738FA52
:10175000A0EB0B0141F28830814268D830688007E5
:10176000F4D50EE0FFF72CFA834607E0FFF728FADE
:10177000A0EB0B0141F28830814258D830688007D5
:10178000F4D42FB1D9F8001021F08051C9F800101D
:10179000A069E0B3DAF80010C1F3810102294DD04D
:1017A0000228286800E042E020F08070286003D022
:1017B000FFF706FA04463DE0FFF702FA064604E0AA
:1017C000FFF7FEF9801B022831D828688001F7D482
:1017D000D4E90921DFF8D0C0D4E9070694F8303005
:1017E0004F0894F82C1030430CEB074444EA821263
:1017F000104340EA016040EA0370C8F8000028681E
:1018000040F080702860FFF7DBF9044605E044E013
:10181000FFF7D6F9001B022809D828688001F7D500
:101820003BE000BFFFF7CCF9001B022802D90320E0
:10183000BDE8F88F28688001F4D42EE00128D8F89C
:10184000000028D0E16900F480028A4223D1216A95
:1018500000F03F028A421ED1626A47F6C071014021
:10186000B1EB821F17D1A16A4FF0FF3200F4403371
:1018700002EB5101B3EB014F0DD194F82C1000F0A5
:101880007062B2EB016F06D194F8301000F0E040C6
:10189000B0EB017F01D00120CAE70020C8E70000BB
:1018A00008380240007000400000FFFF70B50400DF
:1018B0000D4603D094F82C0010B107E0012070BD54
:1018C000002084F82D00204600F011F8022084F852
:1018D0002C002068211DFEF7DFFED4E90002294616
:1018E000FEF72CFF012084F82C00002070BDFEF7CD
:1018F000D9BF10B5044690F82C00022804D094F803
:101900002C00012801D0012010BD022084F82C00F9
:101910002068FEF7F6FE012084F82C00002010BDA0
:1019200070B5044690F82C000D46022804D001281A
:1019300003D0052801D0012070BD022084F82C00BE
:101940002068FEF7E7FE2868022805D05FF0010056
:1019500084F82C00002070BD0520F9E7401EB0F18E
:10196000807F10B501D3012010BD4FF0E0246061ED
:101970000F21601700F0E9FD0020A061072121611F
:1019800010BD7047704770472DE9F041026804466A
:10199000002540F60F06D06911689368304205D1E2
:1019A00086067DD58E067BD5616E1CE1994F03F0CE
:1019B00001060F40374373D0C70709D0CF0507D5BD
:1019C00001271762D4F8802042F00102C4F8802079
:1019D00082070AD5DA0708D0276802223A62D4F8CB
:1019E000802042F00402C4F8802042070AD5DA07BA
:1019F00008D0236804221A62D4F8802042F0020240
:101A0000C4F8802002070CD501F02002324308D030
:101A1000236808221A62D4F8802042F00802C4F831
:101A2000802002050BD54A0109D523684FF40062D6
:101A30001A62D4F8802042F02002C4F88020D4F842
:101A40008020002A36D0800605D5880603D5616E31
:101A500009B1204688472168D4F880008968490682
:101A600002D410F0280F27D0204600F0C3FB2068D6
:101A7000806840061BD52068083050E8001F21F020
:101A8000400140E80012002AF5D1206F78B1624988
:101A90000165206FFEF7F3FE00280BD0206F00E0F9
:101AA00010E0016D00E02046BDE8F0410847204607
:101AB000FFF769FFBDE8F0812046FFF764FFC4F837
:101AC0008050F7E7276E2026012F7CD1C7067AD5F4
:101AD000CF0678D51020106220688068400641D576
:101AE000216F086840680004000CE3D0B4F8582067
:101AF0008242DFD9A4F85A00C869B0F5807F2AD0A5
:101B0000216851E8000F20F4807041E80002002AAB
:101B1000F6D12068083050E8001F21F0010140E8AC
:101B20000012002AF5D12068083050E8001F21F08B
:101B3000400140E80012002AF5D1E66725662168D9
:101B400051E8000F20F0100041E80002002AF6D111
:101B5000206FFEF74BFEB4F85800B4F85A10401A44
:101B600081B22BE0B4F85800B4F85A10B4F85A20F7
:101B7000401A81B2002A9DD000299BD0206850E8ED
:101B8000002F22F4907240E80023002BF6D1206849
:101B900000F1080050E8002F22F0010240E8002385
:101BA000002BF4D1E66725666566206850E8002FB3
:101BB00022F0100240E80023002BF6D12046FFF768
:101BC000E0FE77E7FFE7C70208D55B0206D54FF4D2
:101BD000801010622046FFF7D5FE6BE7020606D59F
:101BE0000A0604D5A16E00297FF45DAF62E74006C6
:101BF000E7D54806E5D52046026852E8001F21F0E7
:101C0000400142E80013002BF6D18667856600F09C
:101C100083F84FE720010004E121000810B504001B
:101C200002D0A06F10B107E0012010BD002084F8A1
:101C30007400204600F026F82420A0672068016880
:101C400021F001010160204600F0FAFA0128ECD0F1
:101C5000606A10B1204600F031FA2068416821F432
:101C6000904141602068816821F02A0181602068EC
:101C7000016841F0010101602046BDE8104000F01C
:101C800081BA000010B5AAB00446142124A8FEF7BA
:101C90001BFC90216846FEF717FC1C49206888420F
:101CA00032D140200090002168461191FFF7AAF838
:101CB00008B1FEF7EFFC1648016841F01001016021
:101CC000006800F01000299011481438016841F0B4
:101CD0000101016000680DF1900C022100F001008B
:101CE00029900122032307244FF4C0608CE81F00D1
:101CF000084824A9FEF72EFE032225201146FFF7EF
:101D000019F82520FFF708F82AB010BD001001408F
:101D100044380240000002407047FEE72DE9F047DA
:101D2000314C0128DFF8C4804FF40057DFF8C09031
:101D30004FF001062F4D1DD02078A0B10821284674
:101D4000FEF72CFFC0B104212846FEF727FF98B10B
:101D500039464046FEF722FF70B101214846FEF7A2
:101D60001DFF012808D008212846FEF717FF01288B
:101D700026D037E02670E1E70A2000F0F8FB0020CB
:101D8000207008212846FEF709FF80B1042128466B
:101D9000FEF704FF70B139464046FEF7FFFE58B12A
:101DA00001214846FEF7FAFE012807D01AE001207B
:101DB000BDE8F0870220FBE70320F9E70420F7E7FE
:101DC00004212846FEF7EAFE01280BD13946404699
:101DD000FEF7E4FE012805D101214846FEF7DEFEAC
:101DE00000B926700020E3E7100000200008024040
:101DF00000000240001C0240F0B587B01C2168467C
:101E0000FEF762FB174800250822154F01264FF008
:101E1000400E0221C0E90075C0E90262102404618D
:101E20000C03C0F814E04FF4C07CC0E906C58F0273
:101E30000762CE020623C0E909648DE80E0004257E
:101E40000393CDE9045106916946FFF72FFD08B1D0
:101E5000FEF720FC034800F091F807B0F0BD000049
:101E6000400100A02400002030B587B0142168464E
:101E7000FEF72AFB2D48016841F02001016001684E
:101E800001F020010591016841F0800101600168C5
:101E900001F080010591016841F0040101600168D1
:101EA00001F004010591016841F00201016001683F
:101EB00001F002010591016841F0400101600168F3
:101EC00001F040010591016841F0100101600168D5
:101ED00001F010010591016841F0080101600168FD
:101EE00001F008010591016841F0010101600068FD
:101EF00001220F4D022100F0010005902846FEF757
:101F00005AFE01240C2000218DE81300094869467F
:101F1000FEF720FD02212846CDE90014CDE902415B
:101F20006946FEF717FD07B030BD000030380240AB
:101F300000040240001C02400D48002110B50B4C6B
:101F40000C224FF4E1330460C0E90131C160C0E903
:101F500004128161C16101624162FFF75FFE0028E6
:101F600003D0BDE81040FEF795BB10BD0010014046
:101F700058000020FEE7FEE7704700000023012222
:101F80001846114610B500F021F84FF4FA7000F031
:101F9000FBFA002301221846022100F017F8002363
:101FA00008221846032100F011F801220421002024
:101FB0004FF40C7300F00AF8BDE81040024840F2FC
:101FC0003731FFF796BC0000240000201FB54FF00A
:101FD000000410B1012802D002E0102400E008241F
:101FE0000748CDE902234FF48052CDE90014694639
:101FF000FFF796FC002800D0012004B010BD0000BF
:10200000240000207047FEF7E1BD000030B593B01A
:1020100034216846FEF758FA14210DA8FEF754FA49
:102020002048016841F080510160006800F0805054
:1020300012901D48016841F440410160006802248B
:10204000192300F440401290012008934FF4D875F2
:1020500082050104CDE90642CDE909540B94CDE98E
:10206000000168460C94FFF755FA08B172B6FEE716
:10207000FEF792FE08B172B6FEE70FAD00214FF4F5
:10208000A0524FF4805385E80E000F20CDE90D04D7
:1020900007210DA8FFF754F9002801D072B6FEE71A
:1020A00013B030BD40380240007000400248016863
:1020B00041F470010160704788ED00E090F8241051
:1020C000C90706D00168836A4A6822F400321A43BD
:1020D0004A6090F82410890706D50168C36A4A68E7
:1020E00022F480321A434A6090F82410490706D53A
:1020F0000168036B4A6822F480221A434A6090F810
:102100002410090706D50168436B4A6822F400428F
:102110001A434A6090F82410C90606D50168836BFB
:102120008A6822F480521A438A6090F82410890643
:1021300006D50168C36B8A6822F400521A438A608C
:1021400090F82410490611D50168036C4A6822F4FE
:1021500080121A434A60016CB1F5801F06D10168F4
:10216000436C4A6822F4C0021A434A6090F8241073
:10217000090606D50168826C486820F400201043E7
:1021800048607047F8B500260446C0F88060FEF746
:1021900017FD054620686FF07E470068000708D5E8
:1021A00000222B464FF400112046009700F060F902
:1021B00060B92068006840070AD500222B464FF41A
:1021C00080012046009700F053F908B10320F8BDC4
:1021D0002020A067E0672666002084F87460F8BDC0
:1021E00010B5806B0021A0F85A10A0F85210FFF72C
:1021F000CAFB10BD016851E8002F22F4907241E83B
:102200000023002BF6D10168083151E8002F22F09D
:10221000010241E80023002BF5D1016E012908D10C
:10222000026852E8001F21F0100142E80013002B61
:10223000F6D100212022C267016641667047000086
:102240002DE9F04104460368C2698168D4E904506D
:10225000DFF8F0C17C4E29431F68002510437B4AFC
:10226000014307EA0C070F431F604FF40040216849
:10227000E7684B6823F440533B434B602768A369EE
:10228000216AD7F808C019432CF430630B43BB60B4
:102290002168B1420AD1116811F0030152D001291D
:1022A0007CD0022971D003296ED184E0684B994219
:1022B0000AD1116811F00C0167D0042965D00829F2
:1022C00075D00C2960D176E0624B99420AD1116831
:1022D00011F0300159D010296BD0202967D0302956
:1022E00052D168E05C4B99420AD1116811F0C001EB
:1022F0004BD040295DD0802959D0C02944D15AE023
:10230000564B99420DD1116811F440713DD0B1F591
:10231000807F4ED0B1F5007F49D0B1F5407F33D1F9
:1023200049E04F4B99420FD1116811F4406109D037
:10233000B1F5806F3DD0B1F5006F38D0B1F5406F89
:1023400022D138E0012120E0464B99420DD111689D
:1023500011F4405119D0B1F5805F2AD0B1F5005F7A
:1023600025D0B1F5405F0FD125E03F4B99420BD10D
:10237000116811F4404108D0B1F5804F19D0814265
:1023800015D0B1F5404F16D01021E369374A4FF60A
:10239000EF7683422ED1092949D201E009E006E017
:1023A000DFE801F00B0E11451345454516000221EB
:1023B000EBE70421E9E70821E7E7FFF759F806E032
:1023C000FFF766F803E0104602E0FFF771F878B314
:1023D0006168400000EB5100B0FBF1F0A0F110018A
:1023E000B14224D84FF6F0732168C0F3420218407E
:1023F000104320E009291AD2DFE801F005080B1983
:102400000D1919191000FFF733F806E0FFF740F82F
:1024100003E0104602E0FFF74BF848B1616800EBBB
:102420005100B0FBF1F0A0F11001B14201D901253A
:1024300002E0216880B2C86000206066A06628467D
:10244000BDE8F081F369FFEF0010014090380240D1
:102450000044004000480040004C00400050004054
:102460000014014000780040007C00400024F4008B
:102470002DE9F0479A4617460E460446089D4FF050
:1024800000094FF020084CE0681C4AD0FEF798FB8A
:10249000A0EB0A00A8422AD84DB32068016849077A
:1024A0003FD5C069C04300053BD421684FF40060AC
:1024B0000862216851E8000F20F4D07041E8000262
:1024C000002AF6D12068083050E8001F21F00101F1
:1024D00040E80012002AF5D1C4F8788084F874909E
:1024E000C4F87C80C4F880800320BDE8F0872068B1
:1024F00050E8001F21F4D07140E80012002AF6D104
:102500002068083050E8001F21F0010140E8001267
:10251000002AF5D1C4F8788084F87490C4F87C80DF
:10252000E2E72068C06936EA000004D00020B84223
:10253000AAD00020D9E70120F9E700000148FFF701
:1025400023BA000058000020FEE7090700284FEAE0
:10255000116104DB00F1E02080F80014704700F006
:102560000F0000F1E02080F8141D7047704770B52F
:10257000002405464FF47A7603E0304600F004F874
:10258000641CAC42F9D370BD0B49002270B54FF00A
:10259000E024096865694843A369A1699942FCD0B0
:1025A00002D2A3EB010302E0A5EB010633441A4477
:1025B0000B468242F1D370BD0C0000200349CA696A
:1025C0005206FCD5C2B28A6270470000001001407A
:1025D0002DE9F041002415A02546FDF7F9FE4FF046
:1025E000007600BFA4F1804005606D1C04F58044B6
:1025F000B442F7D34FF040400024056813E000BF19
:10260000A4F18040056874B1BD420AD9E81B401CA2
:102610000004010B0CA0FDF7DBFE04F58044B4427E
:10262000EED3BDE8F0812F46F0E700004578204D5D
:10263000656D6F727920546573743A2020202030C4
:102640004B42200D0A000000534452414D2043618B
:102650007061636974793A25644B420D0A00000089
:102660001FB5002400942546019402940394FEF7BC
:1026700019FB01208DF80C5018228DF808208DF8D8
:10268000095003238DF80D004FF040418DF80000F4
:102690008DF80A508DF80E008DF8015001918DF8DB
:1026A0000B308DF80F006846FEF7CEFA0420FEF7D7
:1026B00007FBBFF34F8FBFF36F8F40480560BFF339
:1026C0004F8FBFF36F8F3E49086840F400300860B9
:1026D000BFF34F8FBFF36F8F394870300560BFF382
:1026E0004F8F001F43F6FF7C0068344D1035C0F358
:1026F0004E32C0F3C9030CEA4216184646EA807708
:102700002F60401EFAD2521EF5D2BFF34F8F0868D9
:1027100040F480300860BFF34F8FBFF36F8FFEF738
:102720005DFAFFF773FCFFF79FFBFFF765FBFFF711
:1027300003FC24A0FDF74CFE28A0FDF749FE2BA0CA
:10274000FDF746FE2CA0FDF743FE30A0FDF740FE4E
:10275000334E0020334F00BF26F81000401CB84213
:10276000FAD3DFF8C4904FF47A780020FFF7D6FA56
:10277000012812D0022815D00A20FFF7F8FE641CA9
:10278000A4B22AA02146FDF723FE4445EDD1002442
:1027900048460221FEF707FAE7E7AA211E20FFF7C5
:1027A00017FFECE75FF0000522A0294636F8152058
:1027B000FDF70EFE6D1CBD42F6D3E0E750EF00E0E2
:1027C00014ED00E00D0A41504F4C4C4F2053544D36
:1027D000333246342F46370D0A000000534452412D
:1027E0004D20544553540D0A00000000323032325F
:1027F0002F372F32350D0A004B4559303A54657347
:1028000074205372616D0D0A000000004B45593170
:102810003A5445535420446174610D0A0D0A000076
:10282000000000C090D003000004024025640D0A9F
:1028300000000000746573747372616D5B25645DE4
:102840003A25640D0A0000004FF04070E1EE100AD6
:1028500070470000000000000000010203040607AA
:102860000809000000000102030400008C28000891
:10287000000000202400000034020008B0280008F6
:10288000240000201C070000500200080000000087
:102890000000000000000000000000000100000037
:1028A0000100000010000000000000000024F400FF
:04000005080001F9F5
:00000001FF
