:020000040800F2
:1000000078090220A1020008C5020008C702000802
:10001000E5440008CB020008CD0200080000000003
:10002000000000000000000000000000CF020008F7
:10003000D102000800000000D3020008D502000829
:10004000D7020008D7020008D7020008D70200082C
:10005000D7020008D702000829060008D7020008C6
:10006000D7020008D7020008D7020008D70200080C
:10007000D7020008D7020008D7020008D7020008FC
:10008000D7020008D7020008D7020008D7020008EC
:10009000D7020008D7020008D7020008D7020008DC
:1000A000D7020008D7020008D7020008D7020008CC
:1000B000D7020008D7020008D7020008D7020008BC
:1000C000D7020008D7020008D7020008D7020008AC
:1000D000D7020008CD4B0008D7020008D70200085D
:1000E000D7020008D7020008D7020008D70200088C
:1000F000D7020008D7020008D7020008D70200087C
:10010000D7020008D7020008D7020008D70200086B
:10011000D7020008D7020008D7020008D70200085B
:10012000D7020008D7020008D7020008D70200084B
:10013000D7020008D7020008D7020008D70200083B
:10014000D7020008D7020008D7020008D70200082B
:10015000D7020008D7020008D7020008D70200081B
:10016000D7020008D7020008D7020008D70200080B
:10017000D7020008D7020008D702000800000000DC
:10018000D7020008D7020008D7020008D7020008EB
:10019000D7020008D7020008D7020008D7020008DB
:1001A000D7020008D7020008D7020008D7020008CB
:1001B000D7020008D7020008D7020008D7020008BB
:1001C000D7020008D702000800000000D70200088C
:1001D000D7020008D7020008D7020008D70200089B
:1001E000D7020008D7020008D7020008D70200088B
:1001F000D7020008D702000800F002F800F041F82A
:100200000AA090E8000C82448344AAF10107DA4571
:1002100001D100F036F8AFF2090EBAE80F0013F082
:10022000010F18BFFB1A43F001031847BC940000EC
:10023000DC940000103A24BF78C878C1FAD852077D
:1002400024BF30C830C144BF04680C607047000050
:100250000023002400250026103A28BF78C1FBD8CF
:10026000520728BF30C148BF0B607047782900F0A3
:100270008780002070471FB504F07CFE1FBD10B5BD
:1002800010BD00F035F91146FFF7F5FF04F08AFDC7
:1002900000F053F903B4FFF7F2FF03BC04F0FEFCD7
:1002A000DFF84000016841F470010160BFF34F8F37
:1002B000DFF83400016821F040410160BFF36F8F27
:1002C0000A480047FEE7FEE7FEE7FEE7FEE7FEE737
:1002D000FEE7FEE7FEE7FEE705480649044A064B4F
:1002E0007047000088ED00E034EF00E0F9010008FD
:1002F000780102207809022078010220704700006E
:100300000FB4044910B503AA029800F0C3F810BC5A
:100310005DF814FB040002202DE9F0410E4604466E
:10032000002020622046E168884730B3252805D0A8
:10033000D4E901219047206A401CF2E7E168204699
:1003400000278847050018D0A5F14100192802D8D8
:1003500020354FF400673246294620462760FFF7D4
:1003600085FF40B1012804D0F61D26F007060836A7
:10037000D8E7361DD6E72846DAE7206ABDE8F081DF
:1003800070B504460D4621461068AFF30080218801
:10039000090502D50F4A7A4402E00E4A7A440E3229
:1003A000002104F1240305E000F00F060009965D2A
:1003B0005E54491C0028F7D120780023000704D59B
:1003C000702D02D009B1022311322046BDE87040E1
:1003D00000F006B8249300007047704770477047DC
:1003E0002DE9F0470D4699469246044600F124084F
:1003F0000168880604D5E06921F01001216000E061
:100400000120A84201DD471B00E00027A1697A19FD
:1004100002EB0900081AA0612078C00602D4204629
:10042000AFF30080002608E0D4E901211AF80600A5
:100430009047206A401C761C20624E45F4DB2078F1
:10044000C0060AD52046AFF3008006E0D4E90121BA
:1004500030209047206A401C2062381EA7F1010717
:10046000F4DC07E0D4E9012118F805009047206A80
:10047000401C2062281EA5F10105F3DC2046AFF3E5
:1004800000802078000602D50220BDE8F087012018
:10049000FBE70000074B70B50D467B4400F011F8F8
:1004A0000446284600F020F810B14FF0FF3070BD30
:1004B000204670BDEB48000001694A1C02610878C3
:1004C000704700B58FB0CDE9013100210591054994
:1004D0007944CDE9031011466846FFF71DFF0FB0C0
:1004E00000BD0000E5FFFFFF007B00F080007047CB
:1004F000754600F02BF8AE4605006946534620F0DD
:100500000700854618B020B5FFF7E6FEBDE820409D
:100510004FF000064FF000074FF000084FF0000BBF
:1005200021F00701AC46ACE8C009ACE8C009ACE872
:10053000C009ACE8C0098D46704710B50446AFF35A
:1005400000802046BDE81040FFF7A4BE0048704779
:100550001401022010B500BF00BF00BF00BF00BFE4
:10056000BFF34F8F00BF00BF00BF00BF00BF00BF81
:10057000BFF36F8F00BF00BF00BF002011490860AC
:100580001148006840F400300F49086000BF00BF08
:1005900000BFBFF34F8F00BF00BF00BF00BF00BF51
:1005A00000BFBFF36F8F00BF00BF00BF00BF03F0ED
:1005B000C9FF04484C30006840F0040001494C3148
:1005C000086010BD50EF00E014ED00E070B50025AC
:1005D000002400220221124800F0B4F81FE001219B
:1005E000104800F0A7F818B1681CC5B200240AE052
:1005F000601CC4B2032C06DD01220221084800F071
:10060000A1F8002070BD1E2004F066FB642D06DBFF
:1006100000220221024800F095F80120F2E7DEE70F
:10062000000402400000024010B5012003490860A8
:10063000FFF7CCFF08B104F041FA10BD143C0140B3
:10064000F0B503460846CD1701EB9575AD10A1EB4B
:100650008505AD062C0E2448006840F48040224DEC
:100660002860CD1701EB9575AE10204D55F826503A
:100670000F26A640B5430846CE1701EB9676B71075
:100680001A4E46F82750CD1701EB9575AE10174D51
:1006900055F8265003FA04F63543CE1701EB96764B
:1006A000B710124E46F827501148006801258D40BA
:1006B00028430F4D286002F0010040B10C480C3077
:1006C000006801258D402843094D0C35286002F053
:1006D000020040B106480830006801258D402843DB
:1006E000034D08352860F0BD443802400838014009
:1006F000003C014030B5CC1000F1200353F8243009
:100700004C07E50E0F24AC40A343CD1000F12004AC
:1007100044F82530CC1000F1200353F824304C0766
:10072000E40E02FA04F42343CD1000F1200444F84F
:10073000253030BD02461069084008B101207047DD
:100740000020FCE702F001030BB1816101E00B0422
:10075000836170472DE9F0470C46DDE90867002109
:1007600000258C4600BF60E04FF0010808FA01F553
:1007700004EA050CAC4557D1D0F800804FEA410A95
:100780004FF0030909FA0AF928EA0908C0F80080BD
:10079000D0F800804FEA410902FA09F948EA09084D
:1007A000C0F80080012A01D0022A27D1D0F80880A1
:1007B0004FEA410A4FF0030909FA0AF928EA090841
:1007C000C0F80880D0F808804FEA410906FA09F914
:1007D00048EA0908C0F80880D0F804904FF00108F2
:1007E00008FA01F829EA0809C0F80490D0F8048052
:1007F00003FA01F948EA0908C0F80480D0F80C802F
:100800004FEA410A4FF0030909FA0AF928EA0908F0
:10081000C0F80C80D0F80C804FEA410907FA09F9BA
:1008200048EA0908C0F80C80491C10299CD3BDE88F
:10083000F087000070B5044600260D4805880D4875
:10084000006818B1204603F0A9F80FE00848408876
:1008500045430021084602F0E3FE03F06DF8002650
:1008600002E005490C80761CAE42FAD370BD000050
:10087000E4000220F40002200000086010B50446E5
:10088000624884716248006850B1204603F0E4F881
:100890005F48C08A5D4908805D48008B488010BD74
:1008A000002C57D1F020594908804FF4A07048809F
:1008B0000846808849F2413188420BD053488088ED
:1008C00045F21031884205D05048808847F289713E
:1008D000884214D12C204D4908812A2048812B20A0
:1008E00088810846808845F21031884206D14FF44D
:1008F000A070464908804FF4F070488081E043487A
:10090000808845F21051884210D14FF430503F4951
:1009100008814FF4285048814FF42C5088814FF4BF
:10092000F07008804FF4487048806AE0374880884B
:1009300041F66311884264D12C20344908812B2070
:1009400048812A2088814FF4F07008804FF4487065
:10095000488056E04FF4A0702C490880F020488071
:100960000846808849F2413188420BD02748808868
:1009700045F21031884205D02448808847F28971B9
:10098000884207D12C20214908812A2048812B2028
:10099000888129E01D48808845F21051884210D195
:1009A0004FF43050194908814FF4285048814FF4D2
:1009B0002C5088814FF4487008804FF4F0704880C4
:1009C00012E01248808841F6631188420CD12C2035
:1009D0000E4908812A2048812B2088814FF44870D5
:1009E00008804FF4F07048800848808845F2103144
:1009F000884206D14FF4F070044908804FF4A0708B
:100A00004880002002F0CCFC00BF48E7E400022050
:100A1000F400022070B504460D46164646480068AC
:100A200028B132462946204603F02CF870BD4348D1
:100A3000808849F2413188420BD04048808845F295
:100A40001031884205D03D48808847F2897188423C
:100A500014D13A49488902F063FF201202F054FF92
:100A6000E0B202F051FF3549888902F059FF28129F
:100A700002F04AFFE8B202F047FF54E02F488088B6
:100A800045F21051884220D12C49488902F048FF94
:100A9000201202F039FF29494989491C88B202F025
:100AA0003FFFE0B202F030FF2449888902F038FFAE
:100AB000281202F029FF21498989491C88B202F0D5
:100AC0002FFFE8B202F020FF2DE01C48808841F69D
:100AD0006311884227D11948807920B917480088C6
:100AE000401E001B84B21549488902F019FF2012EC
:100AF00002F00AFFE0B202F007FF201202F004FF4A
:100B0000E0B202F001FF0D49888902F009FF2812C6
:100B100002F0FAFEE8B202F0F7FE281202F0F4FE4C
:100B2000E8B202F0F1FE0548008905490880891CF9
:100B30000E8000BF7AE70000F4000220E4000220EB
:100B4000FEFF07601CB503F079FBFE49888008466C
:100B5000808840B108468188FBA0FFF7D1FB03F0F5
:100B60005DF802F096BBFC48006840F00200FA49CC
:100B700008600846006840F018000860F648083031
:100B8000006840F00100F4490831086001200221AA
:100B900000230246CDE900102021F048FFF7DAFDDE
:100BA0000120032100230222CDE900104EF2B3718F
:100BB000EB48FFF7CFFD0120032100230222CDE9FE
:100BC00000104FF68071E748FFF7C4FD0C220021AA
:100BD000E348FFF78FFD0C220121E148FFF78AFD72
:100BE0000C220421DE48FFF785FD0C220521DC489C
:100BF000FFF780FD0C220721D948FFF77BFD0C226F
:100C00000821D748FFF776FD0C220921D448FFF7C9
:100C100071FD0C220A21D248FFF76CFD0C220D2138
:100C2000CF48FFF767FD0C220E21CD48FFF762FD8C
:100C30000C220F21CA48FFF75DFD0C220721C9488D
:100C4000FFF758FD0C220821C648FFF753FD0C2280
:100C50000921C448FFF74EFD0C220A21C148FFF7C5
:100C600049FD0C220B21BF48FFF744FD0C22114621
:100C7000BC48FFF73FFD0C220D21BA48FFF73AFDB3
:100C80000C220E21B748FFF735FD0C220F21B54885
:100C9000FFF730FD00204FF0204108604860B24966
:100CA00008604FF02040006840F480504FF0204131
:100CB00008600846006840F4804008600846006804
:100CC00040F01000086008464068486008464068E8
:100CD00040F00F0048600846406840F4A04048607B
:100CE000A1480068C1F804010846D0F8040140F0AA
:100CF0000F00C1F804010846D0F8040140F4706008
:100D0000C1F804010846006840F001000860322084
:100D100003F0E2FFD32002F003FE02F00FFB89494B
:100D2000888002F00BFB8749888002F007FB854929
:100D30008880084680884FF6FF7101EA00208149CB
:100D4000888002F0FBFA7F49898808437D498880C2
:100D50000846808849F2413188427DD0042002F063
:100D6000DFFD02F0EBFA7749888002F0E7FA754977
:100D7000888002F0E3FA73498880084680884FF63D
:100D8000FF7101EA00206F49888002F0D7FA6D49AF
:100D9000898808436B4988800846808848F2525108
:100DA000884203D147F28970664988806548808807
:100DB00047F289718842D0D0D42002F0B1FD02F010
:100DC000BDFA6049888002F0B9FA5E49888002F075
:100DD000B5FA5C498880084680884FF6FF7101EAC1
:100DE00000205849888002F0A9FA564989880843AA
:100DF000544988800846808845F2103188426BD07B
:100E000055214FF4704002F0A1FDAA214FF20100DC
:100E100002F09CFD52214FF2020002F097FD0821E2
:100E20004FF2030002F092FD01214FF2040002F0A4
:100E30008DFD4FF4454002F073FD02F07FFA414909
:100E40008880084680884FF6FF7101EA00203D49FE
:100E500088804CF2015000E03EE002F061FD02F0BB
:100E60006DFA38498988084336498880052003F09F
:100E700033FF34488088B0F5004F03D145F210505D
:100E8000304988802F48808845F21051884223D00D
:100E9000A12002F045FD02F051FA2A49888002F0B3
:100EA0004DFA28498880084680884FF6FF7101EA8C
:100EB00000202449888002F041FA224989880843A9
:100EC000204988800846808845F26171884203D1B4
:100ED00041F663101B4988801A4881881AA0FFF7E1
:100EE0000FFA1848808849F2413188427ED1CF20DC
:100EF00002F016FD002002F007FDC12002F004FD03
:100F0000302002F001FDED2002F00AFD642002F025
:100F1000FBFC032002F0F8FC122002F0F5FC81201B
:100F200002F0F2FCE82002F0FBFC852002F0ECFC71
:100F3000102002F0E9FC7A2002F0E6FCCB2002F05F
:100F4000EFFC13E0E4000220204C43442049443AE3
:100F500025780D0A000000003038024000040240ED
:100F6000000C024000100240040100A0392002F0F1
:100F7000CBFC2C2002F0C8FC002002F0C5FC342081
:100F800002F0C2FC022002F0BFFCF72002F0C8FC15
:100F9000202002F0B9FCEA2002F0C2FC002002F09E
:100FA000B3FC002002F0B0FCC02002F0B9FC1B2012
:100FB00002F0AAFCC12002F0B3FC012002F0A4FC64
:100FC000C52002F0ADFC302002F09EFC302002F083
:100FD0009BFCC72002F0A4FCB72002F095FC362051
:100FE00002F09EFC482002F08FFC00E0ABE03A20CB
:100FF00002F096FC552002F087FCB12002F090FC34
:10100000002002F081FC1A2002F07EFCB62002F0E3
:1010100087FC0A2002F078FCA22002F075FCF22086
:1010200002F07EFC002002F06FFC262002F078FC2B
:10103000012002F069FCE02002F072FC0F2002F0B7
:1010400063FC2A2002F060FC282002F05DFC0820EE
:1010500002F05AFC0E2002F057FC082002F054FC6B
:10106000542002F051FCA92002F04EFC432002F073
:101070004BFC0A2002F048FC0F2002F045FC002047
:1010800002F042FC002002F03FFC002002F03CFC99
:10109000002002F039FCE12002F042FC002002F0C6
:1010A00033FC152002F030FC172002F02DFC072045
:1010B00002F02AFC112002F027FC062002F024FC9A
:1010C0002B2002F021FC562002F01EFC3C2002F0F6
:1010D0001BFC052002F018FC102002F015FC0F206C
:1010E00002F012FC3F2002F00FFC3F2002F00CFC4B
:1010F0000F2002F009FC2B2002F012FC002002F06D
:1011000003FC002002F000FC012002F0FDFB3F2068
:1011100002F0FAFB2A2002F003FC002002F0F4FBAC
:10112000002002F0F1FB002002F0EEFBEF2002F0C5
:10113000EBFB112002F0F4FB782003F0CDFD292019
:1011400002F0EEFB0DE5FE48808847F28971884287
:101150007ED1112002F0E4FB782003F0BDFD3620A3
:1011600002F0DEFB002002F0CFFB3A2002F0D8FBB9
:10117000052002F0C9FBB22002F0D2FB0C2002F0E5
:10118000C3FB0C2002F0C0FB002002F0BDFB3320AB
:1011900002F0BAFB332002F0B7FBB72002F0C0FB2D
:1011A000352002F0B1FBBB2002F0BAFB322002F086
:1011B000ABFBC02002F0B4FB0C2002F0A5FBC22068
:1011C00002F0AEFB012002F09FFBC32002F0A8FB5F
:1011D000102002F099FBC42002F0A2FB202002F0B4
:1011E00093FBC62002F09CFB0F2002F08DFBD02069
:1011F00002F096FBA42002F087FBA12002F084FB02
:10120000E02002F08DFBD02002F07EFB002002F0F7
:101210007BFB022002F078FB072002F075FB0A201E
:1012200002F072FB282002F06FFB322002F06CFB10
:10123000442002F069FB422002F066FB062002F027
:1012400063FB0E2002F060FB122002F05DFB00E069
:1012500054E0142002F058FB172002F055FBE12067
:1012600002F05EFBD02002F04FFB002002F04CFBAE
:10127000022002F049FB072002F046FB0A2002F0A0
:1012800043FB282002F040FB312002F03DFB5420BC
:1012900002F03AFB472002F037FB0E2002F034FB4D
:1012A0001C2002F031FB172002F02EFB1B2002F065
:1012B0002BFB1E2002F028FB2A2002F031FB00202D
:1012C00002F022FB002002F01FFB002002F01CFBBA
:1012D000EF2002F019FB2B2002F022FB002002F08D
:1012E00013FB002002F010FB012002F00DFB3F2059
:1012F00002F00AFB292002F013FB32E490488088B8
:1013000045F21031884240F07C87ED2002F008FB66
:10131000012002F0F9FAFE2002F0F6FAEE2002F0C7
:10132000FFFADE2002F0F0FA212002F0EDFAF120BF
:1013300002F0F6FA012002F0E7FADF2002F0F0FAFC
:10134000102002F0E1FAC42002F0EAFA8F2002F045
:10135000DBFAC62002F0E4FA002002F0D5FAE2201F
:1013600002F0D2FAE22002F0CFFAE22002F0CCFA48
:10137000BF2002F0D5FAAA2002F0C6FAB02002F08F
:10138000CFFA0D2002F0C0FA002002F0BDFA0D20C5
:1013900002F0BAFA002002F0B7FA112002F0B4FA13
:1013A000002002F0B1FA192002F0AEFA002002F09B
:1013B000ABFA212002F0A8FA002002F0A5FA2D20B5
:1013C00002F0A2FA002002F09FFA3D2002F09CFAFF
:1013D000002002F099FA5D2002F096FA002002F057
:1013E00093FA5D2002F090FA002002F08DFAB1200D
:1013F00002F096FA802002F087FA002002F084FAC8
:101400008B2002F081FA002002F07EFA962002F092
:101410007BFA002002F078FAB22002F081FA002074
:1014200002F072FA002002F06FFA022002F06CFA69
:10143000002002F069FA032002F066FA002002F0B0
:1014400063FAB32002F06CFA002002F05DFA00208B
:1014500002F05AFA002002F057FA002002F054FA83
:10146000002002F051FA002002F04EFA002002F0B3
:101470004BFA002002F048FA002002F045FA002062
:1014800002F042FA002002F03FFA002002F03CFA9B
:10149000002002F039FA002002F036FA002002F0B3
:1014A00033FA002002F030FA002002F02DFA00207A
:1014B00002F02AFA002002F027FA002002F024FAB3
:1014C000002002F021FA002002F01EFA002002F0B3
:1014D0001BFA002002F018FAB42002F021FA8B2047
:1014E00002F012FA002002F00FFA962002F00CFA35
:1014F000002002F009FAA12002F006FA002002F012
:1015000003FAB52002F00CFA022002F0FDF90020E7
:1015100002F0FAF9032002F0F7F9002002F0F4F9E2
:10152000042002F0F1F9002002F0EEF9B62002F0FA
:10153000F7F9002002F0E8F9002002F0E5F901E0F7
:10154000E4000220B72002F0EBF9002002F0DCF901
:10155000002002F0D9F93F2002F0D6F9002002F075
:10156000D3F95E2002F0D0F9002002F0CDF964201A
:1015700002F0CAF9002002F0C7F98C2002F0C4F989
:10158000002002F0C1F9AC2002F0BEF9002002F008
:10159000BBF9DC2002F0B8F9002002F0B5F97020A8
:1015A00002F0B2F9002002F0AFF9902002F0ACF99D
:1015B000002002F0A9F9EB2002F0A6F9002002F0C9
:1015C000A3F9DC2002F0A0F9002002F09DF9B82078
:1015D00002F0A6F9002002F097F9002002F094F939
:1015E000002002F091F9002002F08EF9002002F0B4
:1015F0008BF9002002F088F9002002F085F9002024
:1016000002F082F9BA2002F08BF9242002F07CF972
:10161000002002F079F9002002F076F9002002F0B3
:1016200073F9C12002F07CF9202002F06DF900204E
:1016300002F06AF9542002F067F9002002F064F920
:10164000FF2002F061F9002002F05EF9C22002F0F2
:1016500067F90A2002F058F9002002F055F9042039
:1016600002F052F9002002F04FF9C32002F058F9BD
:101670003C2002F049F9002002F046F93A2002F03D
:1016800043F9002002F040F9392002F03DF9002032
:1016900002F03AF9372002F037F9002002F034F96D
:1016A0003C2002F031F9002002F02EF9362002F041
:1016B0002BF9002002F028F9322002F025F9002051
:1016C00002F022F92F2002F01FF9002002F01CF98D
:1016D0002C2002F019F9002002F016F9292002F05E
:1016E00013F9002002F010F9262002F00DF9002075
:1016F00002F00AF9242002F007F9002002F004F9B0
:10170000242002F001F9002002F0FEF8232002F06C
:10171000FBF8002002F0F8F83C2002F0F5F8002079
:1017200002F0F2F8362002F0EFF8002002F0ECF8B8
:10173000322002F0E9F8002002F0E6F82F2002F053
:10174000E3F8002002F0E0F82C2002F0DDF80020A1
:1017500002F0DAF8292002F0D7F8002002F0D4F8DD
:10176000262002F0D1F8002002F0CEF8242002F06A
:10177000CBF8002002F0C8F8242002F0C5F80020C1
:1017800002F0C2F8232002F0BFF8002002F0BCF8FB
:10179000C42002F0C5F8622002F0B6F8002002F082
:1017A000B3F8052002F0B0F8002002F0ADF8842074
:1017B00002F0AAF8002002F0A7F8F02002F0A4F846
:1017C000002002F0A1F8182002F09EF8002002F09C
:1017D0009BF8A42002F098F8002002F095F8182059
:1017E00002F092F8002002F08FF8502002F08CF8FE
:1017F000002002F089F80C2002F086F8002002F0A8
:1018000083F8172002F080F8002002F07DF8952080
:1018100002F07AF8002002F077F8F32002F074F872
:10182000002002F071F8E62002F06EF8002002F0CD
:101830006BF8C52002F074F8322002F065F8002041
:1018400002F062F8442002F05FF8002002F05CF839
:10185000652002F059F8002002F056F8762002F0D8
:1018600053F8002002F050F8882002F04DF80020D4
:1018700002F04AF8C62002F053F8202002F044F8A3
:10188000002002F041F8172002F03EF8002002F09C
:101890003BF8012002F038F8002002F035F8C720AC
:1018A00002F03EF8002002F02FF8002002F02CF8A1
:1018B000002002F029F8002002F026F8C82002F0EB
:1018C0002FF8002002F020F8002002F01DF8002080
:1018D00002F01AF8002002F017F8C92002F020F8F0
:1018E000002002F011F8002002F00EF8002002F0B3
:1018F0000BF8002002F008F8002002F005F80020A4
:1019000002F002F8002001F0FFFF002001F0FCFFD0
:10191000002001F0F9FF002001F0F6FF002001F0A7
:10192000F3FF002001F0F0FF002001F0EDFF0020A8
:1019300001F0EAFF002001F0E7FF002001F0E4FFE2
:10194000E02001F0EDFF162001F0DEFF002001F0A5
:10195000DBFF1C2001F0D8FF002001F0D5FF212083
:1019600001F0D2FF002001F0CFFF362001F0CCFFC4
:10197000002001F0C9FF462001F0C6FF002001F061
:10198000C3FF522001F0C0FF002001F0BDFF642022
:1019900001F0BAFF002001F0B7FF7A2001F0B4FF98
:1019A000002001F0B1FF8B2001F0AEFF002001F01C
:1019B000ABFF992001F0A8FF002001F0A5FFA820AF
:1019C00001F0A2FF002001F09FFFB92001F09CFF71
:1019D000002001F099FFC42001F096FF002001F0E3
:1019E00093FFCA2001F090FF002001F08DFFD2206C
:1019F00001F08AFF002001F087FFD92001F084FF69
:101A0000002001F081FFE02001F07EFF002001F0C6
:101A10007BFFF32001F078FF002001F075FFE1204B
:101A200001F07EFF162001F06FFF002001F06CFF37
:101A30001C2001F069FF002001F066FF222001F068
:101A400063FF002001F060FF362001F05DFF002001
:101A500001F05AFF452001F057FF002001F054FF2C
:101A6000522001F051FF002001F04EFF642001F0F0
:101A70004BFF002001F048FF7A2001F045FF0020D5
:101A800001F042FF8B2001F03FFF002001F03CFFFE
:101A9000992001F039FF002001F036FFA82001F065
:101AA00033FF002001F030FFB92001F02DFF0020AE
:101AB00001F02AFFC42001F027FF002001F024FFDD
:101AC000CA2001F021FF002001F01EFFD22001F00A
:101AD0001BFF002001F018FFD82001F015FF0020A7
:101AE00001F012FFE02001F00FFF002001F00CFFD9
:101AF000F32001F009FF002001F006FFE22001F0D1
:101B00000FFF052001F000FF002001F0FDFE0B207B
:101B100001F0FAFE002001F0F7FE1B2001F0F4FEB8
:101B2000002001F0F1FE342001F0EEFE002001F073
:101B3000EBFE442001F0E8FE002001F0E5FE4F201E
:101B400001F0E2FE002001F0DFFE612001F0DCFE8A
:101B5000002001F0D9FE792001F0D6FE002001F02E
:101B6000D3FE882001F0D0FE002001F0CDFE9720AA
:101B700001F0CAFE002001F0C7FEA62001F0C4FE5D
:101B8000002001F0C1FEB72001F0BEFE002001F0F0
:101B9000BBFEC22001F0B8FE002001F0B5FEC72058
:101BA00001F0B2FE002001F0AFFED12001F0ACFE4A
:101BB000002001F0A9FED62001F0A6FE002001F0D1
:101BC000A3FEDD2001F0A0FE002001F09DFEF32029
:101BD00001F09AFE002001F097FEE32001F0A0FE44
:101BE000052001F091FE002001F08EFE0A2001F098
:101BF0008BFE002001F088FE1C2001F085FE0020F5
:101C000001F082FE332001F07FFE002001F07CFE17
:101C1000442001F079FE002001F076FE502001F012
:101C200073FE002001F070FE622001F06DFE0020C6
:101C300001F06AFE782001F067FE002001F064FEEA
:101C4000882001F061FE002001F05EFE972001F087
:101C50005BFE002001F058FEA62001F055FE00209A
:101C600001F052FEB72001F04FFE002001F04CFEC3
:101C7000C22001F049FE002001F046FEC72001F01D
:101C800043FE002001F040FED12001F03DFE002087
:101C900001F03AFED52001F037FE002001F034FEBD
:101CA000DD2001F031FE002001F02EFEF32001F0D6
:101CB0002BFE002001F028FEE42001F031FE01207F
:101CC00001F022FE002001F01FFE012001F01CFEA9
:101CD000002001F019FE022001F016FE002001F0A4
:101CE00013FE2A2001F010FE002001F00DFE3C2022
:101CF00001F00AFE002001F007FE4B2001F004FE77
:101D0000002001F001FE5D2001F0FEFD002001F049
:101D1000FBFD742001F0F8FD002001F0F5FD8420AA
:101D200001F0F2FD002001F0EFFD932001F0ECFD49
:101D3000002001F0E9FDA22001F0E6FD002001F005
:101D4000E3FDB32001F0E0FD002001F0DDFDBE2049
:101D500001F0DAFD002001F0D7FDC42001F0D4FD30
:101D6000002001F0D1FDCD2001F0CEFD002001F0DA
:101D7000CBFDD32001F0C8FD002001F0C5FDDD2022
:101D800001F0C2FD002001F0BFFDF32001F0BCFD19
:101D9000002001F0B9FDE52001F0C2FD002001F0B6
:101DA000B3FD002001F0B0FD002001F0ADFD0020EA
:101DB00001F0AAFD022001F0A7FD002001F0A4FD22
:101DC000292001F0A1FD002001F09EFD3C2001F042
:101DD0009BFD002001F098FD4B2001F095FD0020B7
:101DE00001F092FD5D2001F08FFD002001F08CFDDF
:101DF000742001F089FD002001F086FD842001F0AF
:101E000083FD002001F080FD932001F07DFD002086
:101E100001F07AFDA22001F077FD002001F074FDB1
:101E2000B32001F071FD002001F06EFDBE2001F035
:101E30006BFD002001F068FDC42001F065FD00206D
:101E400001F062FDCD2001F05FFD002001F05CFD9E
:101E5000D32001F059FD002001F056FDDC2001F0F7
:101E600053FD002001F050FDF32001F04DFD002056
:101E700001F04AFDE62001F053FD112001F044FD80
:101E8000002001F041FD342001F03EFD002001F072
:101E90003BFD562001F038FD002001F035FD762095
:101EA00001F032FD002001F02FFD772001F02CFD24
:101EB000002001F029FD662001F026FD002001F040
:101EC00023FD882001F020FD002001F01DFD992058
:101ED00001F01AFD002001F017FDBB2001F014FDF8
:101EE000002001F011FD992001F00EFD002001F00D
:101EF0000BFD662001F008FD002001F005FD5520D6
:101F000001F002FD002001F0FFFC552001F0FCFC77
:101F1000002001F0F9FC452001F0F6FC002001F062
:101F2000F3FC432001F0F0FC002001F0EDFC442024
:101F300001F0EAFC002001F0E7FCE72001F0F0FCF2
:101F4000322001F0E1FC002001F0DEFC552001F020
:101F5000DBFC002001F0D8FC762001F0D5FC00204D
:101F600001F0D2FC662001F0CFFC002001F0CCFC97
:101F7000672001F0C9FC002001F0C6FC672001F0D9
:101F8000C3FC002001F0C0FC872001F0BDFC002054
:101F900001F0BAFC992001F0B7FC002001F0B4FC7C
:101FA000BB2001F0B1FC002001F0AEFC992001F053
:101FB000ABFC002001F0A8FC772001F0A5FC00207C
:101FC00001F0A2FC442001F09FFC002001F09CFCE9
:101FD000562001F099FC002001F096FC232001F02E
:101FE00093FC002001F090FC332001F08DFC0020D8
:101FF00001F08AFC452001F087FC002001F084FC00
:10200000E82001F08DFC002001F07EFC002001F0B2
:102010007BFC992001F078FC002001F075FC872002
:1020200001F072FC002001F06FFC882001F06CFCD4
:10203000002001F069FC772001F066FC002001F02F
:1020400063FC662001F060FC002001F05DFC88204C
:1020500001F05AFC002001F057FCAA2001F054FCCA
:10206000002001F051FCBB2001F04EFC002001F0EB
:102070004BFC992001F048FC002001F045FC662053
:1020800001F042FC002001F03FFC552001F03CFC37
:10209000002001F039FC552001F036FC002001F051
:1020A00033FC442001F030FC002001F02DFC4420E2
:1020B00001F02AFC002001F027FC552001F024FC4F
:1020C000002001F021FCE92001F02AFCAA2001F007
:1020D0001BFC002001F018FC002001F015FC002082
:1020E00001F012FC002001F01BFCAA2001F00CFC06
:1020F000CF2001F015FC002001F006FC002001F0CB
:1021000003FC002001F000FC002001F0FDFB00209A
:1021100001F0FAFB002001F0F7FB002001F0F4FBD6
:10212000002001F0F1FB002001F0EEFB002001F0A7
:10213000EBFB002001F0E8FB002001F0E5FB0020B4
:1021400001F0E2FB002001F0DFFB002001F0DCFBEE
:10215000002001F0D9FB002001F0D6FBF02001F0B7
:10216000DFFB002001F0D0FB502001F0CDFB002070
:1021700001F0CAFB002001F0C7FB002001F0C4FB06
:10218000F32001F0CDFB002001F0BEFBF92001F0AF
:10219000C7FB062001F0B8FB102001F0B5FB292099
:1021A00001F0B2FB002001F0AFFB3A2001F0B8FBD8
:1021B000552001F0A9FB112001F0B2FB642002F0D0
:1021C0008BFD292001F0ACFB352001F0A9FB00209C
:1021D00001F09AFB512001F0A3FBFF2001F094FBDA
:1021E000532001F09DFB2C2001F08EFB552001F0C7
:1021F00097FB822001F088FB2C2001F091FB01F07D
:1022000048B8FE48808845F2105188427ED1552159
:102210004FF4704001F09AFBAA214FF2010001F047
:1022200095FB52214FF2020001F090FB08214FF282
:10223000030001F08BFB01214FF2040001F086FB4B
:102240000D214FF4304001F081FB0D214BF20100D4
:1022500001F07CFB0D214BF2020001F077FB3421F1
:102260004FF4364001F072FB34214BF2016001F073
:102270006DFB34214BF2026001F068FB0D214FF43D
:10228000314001F063FB0D214BF2011001F05EFBC8
:102290000D214BF2021001F059FB34214FF437406D
:1022A00001F054FB34214BF2017001F04FFB34215B
:1022B0004BF2027001F04AFB00214FF4324001F072
:1022C00045FB00214BF2012001F040FB00214BF2C5
:1022D000022001F03BFB24214FF4384001F036FB93
:1022E00024214BF6010001F031FB24214BF60200C2
:1022F00001F02CFB01214FF43F4001F027FB0F219F
:102300004FF4334001F022FB0F2100E0FEE34BF2DB
:10231000013001F01BFB0F214BF2023001F016FBE4
:1023200034214FF4394001F011FB34214BF60110F8
:1023300001F00CFB34214BF6021001F007FB0821E1
:102340004FF4354001F002FB08214BF2015001F03F
:10235000FDFA08214BF2025001F0F8FA03214FF484
:10236000424001F0F3FA24214FF43A4001F0EEFA32
:1023700024214BF6012001F0E9FA24214BF602203A
:1023800001F0E4FA00214FF43C4001F0DFFA78213B
:102390004BF6014001F0DAFA00214BF6024001F061
:1023A000D5FA00214FF43D4001F0D0FA78214BF6E8
:1023B000015001F0CBFA00214BF6025001F0C6FAB1
:1023C00000214FF43E4001F0C1FA64214BF6016058
:1023D00001F0BCFA00214FF4514001F0B7FA33216B
:1023E0004DF2011001F0B2FA00214DF2021001F09D
:1023F000ADFA34214DF2031001F0A8FA00214DF29C
:10240000041001F0A3FA3A214DF2051001F09EFAF2
:1024100000214DF2061001F099FA4A214DF2071001
:1024200001F094FA00214DF2081001F08FFA5C21BE
:102430004DF2091001F08AFA00214DF20A1001F064
:1024400085FA81214DF20B1001F080FA00214DF246
:102450000C1001F07BFAA6214DF20D1001F076FA76
:1024600000214DF20E1001F071FAE5214DF20F102E
:1024700001F06CFA01214DF2101001F067FA1321FE
:102480004DF2111001F062FA01214DF2121001F02B
:102490005DFA54214DF2131001F058FA01214DF26A
:1024A000141001F053FA82214DF2151001F04EFA8A
:1024B00001214DF2161001F049FACA214DF2171010
:1024C00001F044FA02214DF2181001F03FFA002108
:1024D0004DF2191001F03AFA02214DF21A1001F0F2
:1024E00035FA01214DF21B1001F030FA02214DF2B4
:1024F0001C1001F02BFA34214DF21D1001F026FAC8
:1025000002214DF21E1001F021FA67214DF21F1039
:1025100001F01CFA02214DF2201001F017FA84217B
:102520004DF2211001F012FA02214DF2221001F0B9
:102530000DFAA4214DF2231001F008FA02214DF208
:10254000241001F003FAB7214DF2251001F0FEF935
:1025500002214DF2261001F0F9F9CF214DF227109A
:1025600001F0F4F902214DF2281001F0EFF9DE211B
:102570004DF2291001F0EAF902214DF22A1001F082
:10258000E5F9F2214DF22B1001F0E0F902214DF2B4
:102590002C1001F0DBF9FE214DF22D1001F0D6F9DF
:1025A00003214DF22E1001F0D1F910214DF22F1020
:1025B00001F0CCF903214DF2301001F0C7F93321BD
:1025C0004DF2311001F0C2F903214DF2321001F049
:1025D000BDF96D214DF2331001F0B8F900214FF42F
:1025E000524001F0B3F933214DF2012001F0AEF970
:1025F00000214DF2022001F0A9F901E0E4000220DF
:1026000034214DF2032001F0A1F900214DF2042004
:1026100001F09CF93A214DF2052001F097F90021D3
:102620004DF2062001F092F94A214DF2072001F007
:102630008DF900214DF2082001F088F95C214DF25E
:10264000092001F083F900214DF20A2001F07EF902
:1026500081214DF20B2001F079F900214DF20C207F
:1026600001F074F9A6214DF20D2001F06FF900215F
:102670004DF20E2001F06AF9E5214DF20F2001F034
:1026800065F901214DF2102001F060F913214DF29E
:10269000112001F05BF901214DF2122001F056F9F1
:1026A00054214DF2132001F051F901214DF2142073
:1026B00001F04CF982214DF2152001F047F901217A
:1026C0004DF2162001F042F9CA214DF2172001F017
:1026D0003DF902214DF2182001F038F900214DF2A8
:1026E000192001F033F902214DF21A2001F02EF9E0
:1026F00001214DF21B2001F029F902214DF21C208D
:1027000001F024F934214DF21D2001F01FF90221BE
:102710004DF21E2001F01AF967214DF21F2001F041
:1027200015F902214DF2202001F010F984214DF21B
:10273000212001F00BF902214DF2222001F006F9CF
:10274000A4214DF2232001F001F902214DF22420B1
:1027500001F0FCF8B7214DF2252001F0F7F8022135
:102760004DF2262001F0F2F8CF214DF2272001F0A2
:10277000EDF802214DF2282001F0E8F8DE214DF2BB
:10278000292001F0E3F802214DF22A2001F0DEF8C1
:10279000F2214DF22B2001F0D9F802214DF22C202C
:1027A00001F0D4F8FE214DF22D2001F0CFF80321E5
:1027B0004DF22E2001F0CAF810214DF22F2001F029
:1027C000C5F803214DF2302001F0C0F833214DF25D
:1027D000312001F0BBF803214DF2322001F0B6F8B0
:1027E0006D214DF2332001F0B1F800214FF4534038
:1027F00001F0ACF833214DF2013001F0A7F80021CF
:102800004DF2023001F0A2F834214DF2033001F014
:102810009DF800214DF2043001F098F83A214DF274
:10282000053001F093F800214DF2063001F08EF8EA
:102830004A214DF2073001F089F800214DF20830AD
:1028400001F084F85C214DF2093001F07FF800219D
:102850004DF20A3001F07AF881214DF20B3001F08F
:1028600075F800214DF20C3001F070F8A6214DF200
:102870000D3001F06BF800214DF20E3001F066F8DA
:10288000E5214DF20F3001F061F801214DF21030D9
:1028900001F05CF813214DF2113001F057F80121DD
:1028A0004DF2123001F052F854214DF2133001F084
:1028B0004DF801214DF2143001F048F882214DF21B
:1028C000153001F043F801214DF2163001F03EF8C9
:1028D000CA214DF2173001F039F802214DF21830BB
:1028E00001F034F800214DF2193001F02FF80221E7
:1028F0004DF21A3001F02AF801214DF21B3001F09F
:1029000025F802214DF21C3001F020F834214DF25F
:102910001D3001F01BF802214DF21E3001F016F8B7
:1029200067214DF21F3001F011F802214DF22030E5
:1029300001F00CF884214DF2213001F007F802215A
:102940004DF2223001F002F8A4214DF2233000F0C4
:10295000FDFF02214DF2243000F0F8FFB7214DF2C7
:10296000253000F0F3FF02214DF2263000F0EEFF9B
:10297000CF214DF2273000F0E9FF02214DF228303F
:1029800000F0E4FFDE214DF2293000F0DFFF0221EC
:102990004DF22A3000F0DAFFF2214DF22B3000F038
:1029A000D5FF02214DF22C3000F0D0FFFE214DF278
:1029B0002D3000F0CBFF03214DF22E3000F0C6FF8A
:1029C00010214DF22F3000F0C1FF03214DF23030C5
:1029D00000F0BCFF33214DF2313000F0B7FF03218E
:1029E0004DF2323000F0B2FF6D214DF2333000F085
:1029F000ADFF00214FF4544000F0A8FF33214DF209
:102A0000014000F0A3FF00214DF2024000F09EFFC4
:102A100034214DF2034000F099FF00214DF20440B3
:102A200000F094FF3A214DF2054000F08FFF0021A5
:102A30004DF2064000F08AFF4A214DF2074000F0B7
:102A400085FF00214DF2084000F080FF5C214DF22F
:102A5000094000F07BFF00214DF20A4000F076FFB4
:102A600081214DF20B4000F071FF00214DF20C402E
:102A700000F06CFFA6214DF20D4000F067FF002131
:102A80004DF20E4000F062FFE5214DF20F4000F0E4
:102A90005DFF01214DF2104000F058FF13214DF26F
:102AA000114000F053FF01214DF2124000F04EFFA3
:102AB00054214DF2134000F049FF01214DF2144022
:102AC00000F044FF82214DF2154000F03FFF01214C
:102AD0004DF2164000F03AFFCA214DF2174000F0C7
:102AE00035FF02214DF2184000F030FF00214DF279
:102AF000194000F02BFF02214DF21A4000F026FF92
:102B000001214DF21B4000F021FF00E003E3022110
:102B10004DF21C4000F01AFF34214DF21D4000F030
:102B200015FF02214DF21E4000F010FF67214DF20B
:102B30001F4000F00BFF02214DF2204000F006FF85
:102B400084214DF2214000F001FF02214DF222408C
:102B500000F0FCFEA4214DF2234000F0F7FE02211C
:102B60004DF2244000F0F2FEB7214DF2254000F076
:102B7000EDFE02214DF2264000F0E8FECF214DF29D
:102B8000274000F0E3FE02214DF2284000F0DEFE77
:102B9000DE214DF2294000F0D9FE02214DF22A40FB
:102BA00000F0D4FEF2214DF22B4000F0CFFE0221C6
:102BB0004DF22C4000F0CAFEFE214DF22D4000F0F7
:102BC000C5FE03214DF22E4000F0C0FE10214DF253
:102BD0002F4000F0BBFE03214DF2304000F0B6FE66
:102BE00033214DF2314000F0B1FE03214DF232406D
:102BF00000F0ACFE6D214DF2334000F0A7FE002145
:102C00004FF4554000F0A2FE33214DF2015000F088
:102C10009DFE00214DF2025000F098FE34214DF24D
:102C2000035000F093FE00214DF2045000F08EFEA0
:102C30003A214DF2055000F089FE00214DF2065078
:102C400000F084FE4A214DF2075000F07FFE002183
:102C50004DF2085000F07AFE5C214DF2095000F070
:102C600075FE00214DF20A5000F070FE81214DF2F8
:102C70000B5000F06BFE00214DF20C5000F066FE90
:102C8000A6214DF20D5000F061FE00214DF20E50D4
:102C900000F05CFEE5214DF20F5000F057FE0121DF
:102CA0004DF2105000F052FE13214DF2115000F081
:102CB0004DFE01214DF2125000F048FE54214DF21C
:102CC000135000F043FE01214DF2145000F03EFE7F
:102CD00082214DF2155000F039FE01214DF21650BF
:102CE00000F034FECA214DF2175000F02FFE0221F1
:102CF0004DF2185000F02AFE00214DF2195000F05C
:102D000025FE02214DF21A5000F020FE01214DF265
:102D10001B5000F01BFE02214DF21C5000F016FE6D
:102D200034214DF21D5000F011FE02214DF21E50D3
:102D300000F00CFE67214DF21F5000F007FE02214B
:102D40004DF2205000F002FE84214DF2215000F09F
:102D5000FDFD02214DF2225000F0F8FDA4214DF2BC
:102D6000235000F0F3FD02214DF2245000F0EEFD5F
:102D7000B7214DF2255000F0E9FD02214DF2265019
:102D800000F0E4FDCF214DF2275000F0DFFD0221DD
:102D90004DF2285000F0DAFDDE214DF2295000F00E
:102DA000D5FD02214DF22A5000F0D0FDF2214DF266
:102DB0002B5000F0CBFD02214DF22C5000F0C6FD4F
:102DC000FE214DF22D5000F0C1FD03214DF22E5099
:102DD00000F0BCFD10214DF22F5000F0B7FD032193
:102DE0004DF2305000F0B2FD33214DF2315000F081
:102DF000ADFD03214DF2325000F0A8FD6D214DF2E2
:102E0000335000F0A3FD00214FF4564000F09EFD2A
:102E100033214DF2016000F099FD00214DF2026076
:102E200000F094FD34214DF2036000F08FFD00218D
:102E30004DF2046000F08AFD3A214DF2056000F089
:102E400085FD00214DF2066000F080FD4A214DF223
:102E5000076000F07BFD00214DF2086000F076FD78
:102E60005C214DF2096000F071FD00214DF20A6015
:102E700000F06CFD81214DF20B6000F067FD002138
:102E80004DF20C6000F062FDA6214DF20D6000F0E5
:102E90005DFD00214DF20E6000F058FDE5214DF280
:102EA0000F6000F053FD01214DF2106000F04EFD67
:102EB00013214DF2116000F049FD01214DF2126025
:102EC00000F044FD54214DF2136000F03FFD01215C
:102ED0004DF2146000F03AFD82214DF2156000F0D1
:102EE00035FD01214DF2166000F030FDCA214DF292
:102EF000176000F02BFD02214DF2186000F026FD56
:102F000000214DF2196000F021FD02214DF21A60FE
:102F100000F01CFD01214DF21B6000F017FD0221A5
:102F20004DF21C6000F012FD34214DF21D6000F0E6
:102F30000DFD02214DF21E6000F008FD67214DF2EB
:102F40001F6000F003FD02214DF2206000F0FEFC46
:102F500084214DF2216000F0F9FC02214DF2226043
:102F600000F0F4FCA4214DF2236000F0EFFC0221FC
:102F70004DF2246000F0EAFCB7214DF2256000F02C
:102F8000E5FC02214DF2266000F0E0FCCF214DF27D
:102F9000276000F0DBFC02214DF2286000F0D6FC37
:102FA000DE214DF2296000F0D1FC02214DF22A60B1
:102FB00000F0CCFCF2214DF22B6000F0C7FC0221A6
:102FC0004DF22C6000F0C2FCFE214DF22D6000F0AD
:102FD000BDFC03214DF22E6000F0B8FC10214DF233
:102FE0002F6000F0B3FC03214DF2306000F0AEFC26
:102FF00033214DF2316000F0A9FC03214DF2326023
:1030000000F0A4FC6D214DF2336000F09FFC5521CF
:103010004FF4704000F09AFCAA214FF2010000F03A
:1030200095FC52214FF2020000F090FC08214FF273
:10303000030000F08BFC00214FF2040000F086FC3E
:10304000CC214FF4314000F081FC00214BF2011003
:1030500000F07CFC05214FF4364000F077FC702135
:103060004FF4374000F072FC70214BF2017000F019
:103070006DFC01214FF4384000F068FC03214BF651
:10308000010000F063FC03214BF6020000F05EFC3F
:1030900003214BF6030000F059FC02214FF43C40A1
:1030A00000F054FC00214BF6014000F04FFC0021E1
:1030B0004BF6024000F04AFCD0214FF4494000F0AA
:1030C00045FC02214CF6011000F040FC50214CF66A
:1030D000021000F03BFC50214CF6031000F036FCCF
:1030E00050214CF6041000F031FC00214FF45450F4
:1030F00000F02CFC55214FF4685000F027FC4FF4F1
:10310000885000F00DFC782001F002FE4FF42450AE
:1031100000F006FCBDE08648808841F663118842D5
:10312000F8D1E22000F0FCFB1D2000F0EDFB0220B6
:1031300000F0EAFB042000F0E7FB642001F0E8FD6A
:10314000E02000F0EDFB012000F0DEFB0A2001F0A2
:10315000C3FDE02000F0E4FB032000F0D5FB0C20D1
:1031600001F0BAFD012000F0DBFB0A2001F0B4FD04
:10317000E62000F0D5FB2F2000F0C6FBFF2000F07A
:10318000C3FBFF2000F0C0FBB02000F0C9FB2020F3
:1031900000F0BAFB002000F0B7FB032000F0B4FB06
:1031A00040F21F3000F0B0FB012000F0ADFB40F218
:1031B000DF1000F0A9FB002000F0A6FBB42000F017
:1031C000AFFB042000F0A0FB40F21F4000F09CFB8E
:1031D000002000F099FB2E2000F096FB002000F06C
:1031E00093FB002000F090FB002000F08DFB0020FE
:1031F00000F08AFBB62000F093FB022000F084FB75
:103200004FF4037000F080FB002000F07DFB1720DE
:1032100000F07AFB152000F077FB002000F074FB33
:10322000002000F071FBF02000F07AFB032000F09A
:103230006BFB292000F074FBD02000F071FB002014
:1032400000F062FBBE2000F06BFB052000F05CFB91
:10325000FE2000F059FB012000F056FB002000F09A
:1032600053FB002000F050FB002000F04DFBB82085
:1032700000F056FB032000F047FB012000F044FB68
:10328000BA2000F04DFB012000F03EFB642000F06E
:103290005FF82748808849F2413188421DD0244890
:1032A000808847F28971884217D02148808845F28A
:1032B0001031884211D01E48808845F21051884252
:1032C0000BD01B48808841F66311884205D018480E
:1032D000808847F2897188421CD11648006820F026
:1032E0000F004FF02041C1F804010846D0F8040156
:1032F00020F47060C1F804010846D0F8040140F0E1
:103300000500C1F804010846D0F8040140F4A060AB
:10331000C1F804010020FDF7B1FA0122202106487E
:10332000FDF710FA4FF6FF70FDF784FA1CBD0000A0
:10333000E4000220040100A00004024008B5034894
:1033400000880090BDF8000008BD00000000086083
:1033500000B50246BE2000F0E3FA052000F0D4FAE2
:1033600000EE102AB8EE400B9FED0B1B20EE010B78
:10337000BCEEC00B10EE101A88B200F0C5FA0120A6
:1033800000F0C2FAFF2000F0BFFA002000F0BCFA03
:10339000002000F0B9FA00BD666666666666044005
:1033A000F0B50546002400279C488079012805D106
:1033B0009A48808841F66311884208D197488079FD
:1033C000F0B99648808841F66311884218D1082DDB
:1033D00015D2DFE805F00406080A0C0E10120625C7
:1033E0000DE007250BE0042509E0052507E0012590
:1033F00005E0002503E0032501E0022500BF00BF32
:103400008648808849F24131884217D083488088B5
:1034100045F21031884211D08048808845F2105121
:1034200088420BD07D48808841F66311884205D0E0
:103430007A48808847F2897188427DD1082D1CD254
:10344000DFE805F00406090C0F12151800BF14E0A0
:1034500044F0800411E044F040040EE044F0C00465
:103460000BE044F0200408E044F0600405E044F080
:10347000A00402E044F0E00400BF00BF6748808879
:1034800045F21051884202D14FF4585700E03627D8
:103490006248808845F2103188420DD05F488088AC
:1034A00045F21051884207D05C48808841F663118C
:1034B000884201D044F008042146384600F046FA1C
:1034C0005648808841F6631188421DD004F02000E0
:1034D00068B15248008851494988884214DA4F48F7
:1034E000068840884D490880084646800CE04B48D5
:1034F00000884A494988884206DD4848068840884D
:1035000046490880084646804448808845F2105164
:10351000884254D14149488900F002FA002000F065
:10352000F3F93E494989491C88B200F0F9F90020B5
:1035300000F0EAF9394900E06FE04989891C88B256
:1035400000F0EEF935490988491EC1F30F2000F05B
:10355000DBF932494989C91C88B200F0E1F92F49E9
:103560000978491EC8B200F0CFF92C49888900F0CB
:10357000D7F9002000F0C8F928498989491C88B288
:1035800000F0CEF9002000F0BFF924498989891C98
:1035900088B200F0C5F921494988491EC1F30F20BE
:1035A00000F0B2F91D498989C91C88B200F0B8F948
:1035B0001A498978491EC8B200F0A6F92DE01749CA
:1035C000488900F0ADF9002000F09EF9002000F0DD
:1035D0009BF912490988491EC1F30F2000F094F9A4
:1035E0000E490978491EC8B200F08EF90B49888946
:1035F00000F096F9002000F087F9002000F084F92F
:1036000006494988491EC1F30F2000F07DF903499E
:103610008978491EC8B200F077F9F0BDE4000220B5
:1036200010B502460C464E48808849F24131884226
:103630000BD04B48808845F21031884205D048486D
:10364000808847F28971884214D14549488900F041
:1036500067F9101200F058F9D0B200F055F940495E
:10366000888900F05DF9201200F04EF9E0B200F018
:103670004BF973E03A48808841F66311884247D19C
:1036800037488079A8B936480088401E801A82B22F
:103690003349488900F044F9002000F035F9002052
:1036A00000F032F9101200F02FF9D0B200F02CF92E
:1036B00016E02B49488900F033F9101200F024F984
:1036C000D0B200F021F926490988491EC1F30F2024
:1036D00000F01AF922490978491EC8B200F014F91D
:1036E0001F49888900F01CF9201200F00DF9E0B2A2
:1036F00000F00AF91A494988491EC1F30F2000F069
:1037000003F917498978491EC8B200F0FDF825E091
:103710001348808845F2105188421FD110494889CA
:1037200000F0FEF8101200F0EFF80D494989491C2D
:1037300088B200F0F5F8D0B200F0E6F808498889C0
:1037400000F0EEF8201200F0DFF805498989491CE5
:1037500088B200F0E5F8E0B200F0D6F810BD000045
:10376000E40002202DE9F84F80460F4616461C461D
:10377000BB462046E31704EB5373DB1021464FEAA8
:10378000E47C04EB5C7C4FEAEC0CA4EBCC0CBCF1CD
:10379000000F02D04FF0010C01E04FF0000C634429
:1037A000224604EBD27C4FEA6C0C03FB0CF3DBB239
:1037B0000093A6F12000C6B200255EE00C2C07D1D4
:1037C00006EB46002F4901EB800010F805901BE046
:1037D000102C05D12C4800EB061010F8059013E0D2
:1037E000182C07D106EBC600284901EB800010F821
:1037F000059009E0202C05D1254800EBC61010F8F3
:10380000059001E0BDE8F88F4FF0000A2FE009F0C5
:10381000800030B11F48394602684046FDF7FAF88B
:1038200007E00A9828B91C48394602684046FDF767
:10383000F1F84FEA49604FEA1069781C87B21748DF
:103840004088B84200DCDDE7A7EB0B00A0420AD1BC
:103850005F4608F101001FFA80F8104800884045D3
:1038600000DCCFE706E00AF1010000F0FF0ABAF140
:10387000080FCCDB00BF681CC5B2009885429DDBF9
:1038800000BFBFE77E4F0008F2530008E25900086E
:103890003E6700080C00022010000220E400022015
:1038A0002DE9F84F04460D4690469946DDE90A6732
:1038B00004F0FF0A08EB04001FFA80F809EB05008A
:1038C0001FFA80F916E0444502DB5446A81985B278
:1038D0004D4500DB14E0002000903A78334629463D
:1038E0002046FFF73FFF304606EBD07104EB610145
:1038F0008CB27F1C38787E2802DC38782028E2DA07
:1039000000BFBDE8F88F000001B5BDF800000090D1
:10391000BDF800000149088008BD000000000860F3
:1039200001B5BDF800000090BDF800000149088015
:1039300008BD0000FEFF07600248008902490880B8
:1039400070470000E4000220FEFF0760024A10807A
:10395000921C118070470000FEFF07601CB50D48E7
:10396000006840F002000B49086001200321002399
:103970000246CDE900100848FCF7ECFE01220221C6
:103980000548FCF7DFFE012211460348FCF7DAFE8A
:103990001CBD0000303802400004024018B5044647
:1039A00006480094008B401E83B20448C08A401E23
:1039B00082B20021084600F08DF818BDF400022004
:1039C000F0B503460C461546002100200022214E8A
:1039D000366826F080561F4F3E6001E04E1CB1B2A3
:1039E0001C4E366806F000561EB141F6FF76B14215
:1039F000F4DB41F6FF76B14201D1012029E042EA31
:103A0000831242EA0472134E88363260361D3668DD
:103A100026F440360F4F8C373E603E46366846EA05
:103A200005463E600B4E366846F08056094F3E60B4
:103A300001E04E1CB1B2074E366806F000561EB9C2
:103A400041F6FF76B142F4DB41F6FF76B14200D198
:103A50000220F0BD003802400949487530B9898814
:103A6000074AD18211460988118308E0012806D14E
:103A700003490988024AD182114689881183704717
:103A8000F400022070B5114B5B7D6BB10F4BDB690D
:103A90000E4D2D6805FB01056B430C4D2D7D0C4E25
:103AA00056F82550EA520FE0084B1D685B681B1A58
:103AB0005B1E05FB0313054DED696B43034D2D7D27
:103AC000034E56F82550EA5270BD0000F400022063
:103AD000140002202DE9F04F04460D4616464FF023
:103AE000000CDFF8289199F81590B9F1000F04D077
:103AF0002046294632461F4611E02846DFF80C9141
:103B0000D9F80490A9EB0609A9F101011A46DFF8DA
:103B1000FC90D9F80490A9EB0409A9F10107DFF89A
:103B2000EC90B9F80090A2EB000A0AF1010AA9EBA7
:103B30000A091FFA89F8DFF8D49099F81490DFF891
:103B4000D0A05AF82990DFF8C4A0DAF81CA0DFF85A
:103B5000BCB0DBF800B00BFB010B0AFB0B9EDFF8DF
:103B6000B490D9F8009049F40009DFF8A8A0CAF889
:103B70000090DFF8A490D9F8009029F00109DFF84F
:103B800098A0CAF800904FF44039CAF800904FF05E
:103B90000209CAF83490D146C9F84080C9F83CE01F
:103BA000A7EB010909F10109A2EB000A0AF1010AD8
:103BB00049EA0A49DFF860A0CAF84490DDF8249089
:103BC000CAF83890D146D9F8009049F00109CAF8EE
:103BD000009005E00CF1010CBCF5001F00D308E0DB
:103BE000DFF83490D9F8049009F00209B9F1000F18
:103BF000F0D000BFDFF82090D9F8089049F0020912
:103C0000DFF814A0CAF80890BDE8F08FF400022095
:103C1000140002203038024000B002407FB500247A
:103C2000002500F00BFB054605B97FBD00F03EFE08
:103C3000EF48006840F08060ED490860EC481438B7
:103C4000006840F00200EA4914390860084600683C
:103C500040F4F07008600120022100230246CDE903
:103C600000102021E348FCF775FD0120032100230B
:103C70000222CDE900108102DF48FCF76BFD012034
:103C8000032100230222CDE900104FF40C61DB4830
:103C9000FCF760FD0120032100230222CDE9001082
:103CA0004FF47E41D648FCF755FD01200321002347
:103CB0000222CDE9001040F2F761D248FCF74AFD3C
:103CC0000E220A21CC48FCF715FD0E220621CB4816
:103CD000FCF710FD0E220721C848FCF70BFD0E2251
:103CE0000B21C648FCF706FD0E220921C448FCF74B
:103CF00001FD0E220A21C248FCF7FCFC0E220B211A
:103D0000BF48FCF7F7FC0E220C21BD48FCF7F2FC83
:103D10000E220D21BA48FCF7EDFC0E221146B848E0
:103D2000FCF7E8FC0E220F21B548FCF7E3FC0E225D
:103D30000021B448FCF7DEFC0E220121B148FCF75B
:103D4000D9FC0E220221AF48FCF7D4FC0E2204213C
:103D5000AC48FCF7CFFC0E220521AA48FCF7CAFCB0
:103D60000E220621A748FCF7C5FC0E220721A54814
:103D7000FCF7C0FC0E220921A248FCF7BBFC0E2276
:103D80000A21A048FCF7B6FC44F24230854218D123
:103D90004FF4F0709C4908604FF48870486001202F
:103DA00008814881282088810820C8810520088250
:103DB00008204882022204214FF49070FFF700FE91
:103DC0007EE047F28400854218D14FF448708E4956
:103DD00008604FF4F07048600120088148812E206F
:103DE00088811720C881D2200882162048820122AB
:103DF00003214FF4C670FFF7E3FD61E047F21600C0
:103E0000854219D14FF480607F4908604FF41670E5
:103E1000486014200881032048818C208881142068
:103E2000C881A02008820C204882012202214FF480
:103E3000B470FFF7C5FD43E047F21800854207D193
:103E40004FF4A060704908604FF44870486037E054
:103E500044F28430854219D14FF448706A490860B1
:103E60004FF4F07048605820888128200882302064
:103E700008812020C8810D2048820320488101222A
:103E800003214FF4C670FFF79BFD19E041F21800C3
:103E9000854215D14FF4A0605B4908604FF448702B
:103EA00048608C2088810A2008820881C881488265
:103EB00003204881002203214FF49670FFF780FD14
:103EC000002441F21800854201D14FF0805400BF18
:103ED00000BF00BF4D4804604B484089441E4A481B
:103EE0000089401E44EA00444848103804604648AF
:103EF00040894549C9890844441E434800894249CC
:103F000089890844401E44EA004440480C38046053
:103F10003D4840893C49C98908443B4949680844AF
:103F2000441E394800893849898908443649098836
:103F30000844401E44EA00443448083804603248CB
:103F400040893149C98908442F49496808442E49A4
:103F5000498A0844441E2C4800892B498989084411
:103F60002949098808442849098A0844401E44EA26
:103F700000442648001F04600020244914310860D2
:103F8000012000F0B5F922482249086002201E49AC
:103F9000C861002007210622CDE90002CDE9021008
:103FA0001C48FF2302220168002000F037F8164861
:103FB000808880B200901448008883B200221146A5
:103FC000104600F09FF810480088134908800E48FA
:103FD00080884880002000F085F9012220210548D2
:103FE000FCF7B0FB4FF0FF30FFF7D8FC00BF1CE63A
:103FF000443802400004024000140240001802400D
:10400000001C024000200240F40002201868014019
:10401000000000C014000220E40002202DE9F0415D
:1040200006ACF0CCE0B9DFF878C0CCF80010DFF8CF
:1040300070C0ACF1180CCCF800200CF1040CCCF8DA
:10404000003047EA046CDFF85880A8F11008C8F87F
:1040500000C046EA052C08F10408C8F800C01DE0BD
:10406000DFF83CC00CF1800CCCF80010DFF830C059
:104070000CF1680CCCF800200CF1040CCCF80030EA
:1040800047EA046CDFF8188008F17008C8F800C02F
:1040900046EA052C08F10408C8F800C0BDE8F08124
:1040A000AC680140012910D130B9154A126842F0BC
:1040B0000102134B1A6019E0114A8032126842F073
:1040C00001020F4B80331A6010E079B930B90C4A05
:1040D000126822F001020A4B1A6007E0084A803297
:1040E000126822F00102064B80331A60044A603ADB
:1040F000126842F00102024B603B1A6070470000F8
:10410000846801402DE9F04782460F4690461E46DE
:10411000DDF820900025BAF1000F43D1B8194549C8
:104120000968C1F30B410844040442480068C0F325
:104130000B403844401C20433E497C31086008EB6A
:1041400009003C490968C1F30A01084404043948DC
:104150000068C0F30A004044401C204335498031C8
:10416000086034488830006800F007050DB9042461
:104170000AE0012D01D1032406E0052D01D0062D12
:1041800001D1012400E0022406FB04F0C01C06FB60
:1041900004F140EA01402749A4310860081DC0F835
:1041A000009041E0B81923490968C1F30B41084464
:1041B000040420480068C0F30B403844401C2043EE
:1041C0001C49FC31086008EB09001A490968C1F371
:1041D0000A010844040417480068C0F30A00404478
:1041E000401C20431449086013480830006800F060
:1041F00007050DB904240AE0012D01D1032406E0CE
:10420000052D01D0062D01D1012400E0022406FB7A
:1042100004F0C01C06FB04F140EA014006492431C9
:104220000860081DC0F8009001215046FFF73AFFD2
:10423000BDE8F0870C6801400C6901401CB5002402
:104240002548006840F4A07023490860012000213F
:104250000B460A46CDE9001040212048FCF77AFAC7
:10426000012000210B460A46CDE9001084211C489C
:10427000FCF770FA322000F02FFD40211748FCF7C0
:1042800059FA044604211648FCF754FA44EA40005F
:10429000C4B280211248FCF74DFA44EA8000C4B24F
:1042A000062C16D2DFE804F00306090C0F1244F2C4
:1042B00042301CBD47F28400FBE747F21600F8E7E6
:1042C00047F21800F5E744F28430F2E741F21800B3
:1042D000EFE70020EDE70000303802400018024010
:1042E000002002400149087570470000F4000220D8
:1042F000012806D10749096841F00101054A11600A
:1043000006E028B90349096821F00101014A11605A
:1043100070470000186801400146002002E049088B
:10432000421CD0B20129FAD170470000074800684A
:1043300020F480300549086004487030006820F09F
:1043400001000249703108607047000024ED00E070
:1043500005200549086004487038006840F4803042
:10436000014970390860704794ED00E00EB50020F7
:1043700000900190032302464FF08061029058079D
:1043800000F022F801200022CDE90020032302469C
:10439000C1040290400700F017F801200022CDE987
:1043A00000200323022241060290980700F00CF837
:1043B00000200090019003231A464FF08051029094
:1043C000C80000F001F80EBD2DE9F04F05460C467F
:1043D00016461F46DDE90A9ADDF8248000239B4635
:1043E00004F01F0000B914B90120BDE8F08F204689
:1043F000FFF792FF401E00F0FF0BFFF797FF0C48FE
:104400000660001D056000BF43EA076300BF43EA82
:10441000884343EA494343EA0A4300BF43EA4B0364
:1044200043F00103001D0360FFF792FF0020DCE76B
:1044300098ED00E02DE9F0410746884614461D46F8
:10444000284600F033F8C5F1040007FA00F60F2003
:10445000284100EA0800064306F00F06E21704EBC5
:10446000D2625211920002F1E022D2F800212146DC
:10447000E31704EBD3635B11A4EB431C012303FAA2
:104480000CF31A432046E31704EBD3635B119B0044
:1044900003F1E023C3F800210348005D40EA061061
:1044A00001490855BDE8F08100E400E0014607231A
:1044B00023EA01021202054B18684FF6FF03184069
:1044C000034B18431043014B186070470CED00E09C
:1044D0000000FA054A0A52020243014B1A60704773
:1044E00008ED00E010B5002201210A48FCF72AF986
:1044F00009A0FBF705FF4FF47A7000F0EDFB0CA06C
:10450000FBF7FEFE4FF47A7000F0E6FB00F02CFBA8
:1045100010BD0000000402404D656D2041636365DD
:104520007373204572726F7221210D0A0000000022
:10453000536F6674205265736574696E672E2E2EF4
:104540000D0A000010B50023234C236000BF00BFFC
:1045500000BFBFF34F8F00BF00BF00BF231F18680D
:10456000C0F34E3100BFC0F3C90200BF43F6E07391
:1045700003EA41134FF0404404EA82742343174C8A
:10458000236000BF00BF131EA2F10102EED10B1E7B
:10459000A1F10101E7D100BF00BF00BFBFF34F8F02
:1045A00000BF00BF00BF0C4B703B1B6843F480335F
:1045B000094C703C236000BF00BF00BFBFF34F8FAA
:1045C00000BF00BF00BF00BF00BF00BFBFF36F8FC1
:1045D00000BF00BF00BF10BD84ED00E060EF00E051
:1045E0007CB5002400250026A948006840F00100A1
:1045F000A7490860A6480838006840F07C00A44934
:10460000083908600120032100230222CDE90010AF
:104610000D21A048FCF79EF801200321002302226F
:10462000CDE900104CF203719B48FCF793F8012090
:10463000032100230222CDE900104FF68371974831
:10464000FCF788F80120032100230222CDE90010A5
:104650004FF63F019248FCF77DF80120032100232B
:104660000222CDE9001048F237118E48FCF772F8AB
:104670000C2200218748FCF73DF80C2202218548D6
:10468000FCF738F80C2203218248FCF733F80C229F
:1046900000218148FCF72EF80C2201217E48FCF70E
:1046A00029F80C2208217C48FCF724F80C22092167
:1046B0007948FCF71FF80C220A217748FCF71AF812
:1046C0000C220E217448FCF715F80C220F217248B9
:1046D000FCF710F80C2200217048FCF70BF80C22B4
:1046E00001216E48FCF706F80C2207216B48FCF705
:1046F00001F80C2208216948FBF7FCFF0C22092174
:104700006648FBF7F7FF0C220A216448FBF7F2FF2B
:104710000C220B216148FBF7EDFF0C2211465F488C
:10472000FBF7E8FF0C220D215C48FBF7E3FF0C22AE
:104730000E215A48FBF7DEFF0C220F215748FBF7EA
:10474000D9FF0C2200215648FBF7D4FF0C2201218F
:104750005348FBF7CFFF0C2202215148FBF7CAFF59
:104760000C2203214E48FBF7C5FF0C2204214C48C4
:10477000FBF7C0FF0C2205214948FBF7BBFF0C22C9
:104780000B214748FBF7B6FF0C2211464448FBF7C4
:10479000B1FF0C220D214248FBF7ACFF0C220E2189
:1047A0003F48FBF7A7FF0C220F213D48FBF7A2FF74
:1047B0000C2200213B48FBF79DFF0C2201213948C8
:1047C000FBF798FF0C2202213648FBF793FF0C22DF
:1047D00004213448FBF78EFF0C2205213148FBF7FA
:1047E00089FF0C2208212F48FBF784FF0C220F21A0
:1047F0002C48FBF77FFF44F0010444F0080444F028
:10480000100444F0400444F4C07400BF44F4006455
:1048100044F4805400BF2448046045F0010545F08D
:10482000700545F4C06545F4C04545F4803545F450
:10483000801545F08075C005C0F8485100231A4620
:104840000121184600F054F84FF4FA7000F060FAB5
:1048500000231A460221184600F04AF800230822D5
:104860000321184600F044F846F0030600BF46F066
:10487000300600BF46F4007633460022042110467D
:1048800000F036F84FF4CE600749143108607CBD63
:104890003838024000080240000C0240001002407C
:1048A0000014024000180240400100A010B500248E
:1048B0000E48006820F4C0704FF02041C1F840015C
:1048C0000846D0F8400140F48070C1F8400144F03F
:1048D000030400BF44F0200400BF44F400742346E6
:1048E00000220421104600F003F810BD400100A092
:1048F000F0B504460D46002600212943C4F1040703
:104900000120B840014341EA421141EA43210948EC
:10491000016005E0761CB6F5001F01D30120F0BD53
:1049200004480830006800F020000028F2D100BFE1
:10493000F5E70000500100A02DE9F04104460D46C6
:1049400016461F461548006840F0010013490860EC
:1049500000201249083108601048006810490840DA
:104960000E4908600F48091D0860081F006820F400
:104970008020091F0860002008490C310860FBF7FF
:10498000E9FD3B4632462946204600F00DF800215D
:104990004FF00060FFF79EFDBDE8F0810038024057
:1049A000FFFFF6FE10300024F0B504460D4600214E
:1049B00000203F4E366846F480363D4F3E6001E0B1
:1049C0004E1CB1B23A4E366806F400361EB941F6B6
:1049D000FF76B142F4DB41F6FF76B14201D101200E
:1049E00065E0334E4036366846F08056304F4037EB
:1049F0003E60304E366846F440462E4F3E603E469E
:104A0000366846F480363E603E46366846F40036E8
:104A10003E60274E0836366846F41446244F083761
:104A20003E60234E366826F08076214F3E6045EA90
:104A300084160127C7EB520746EA074646EA036693
:104A400046F480061A4F3F1D3E603E1F366846F012
:104A500080763F1F3E6000BF154E366806F0007638
:104A6000002EF9D0144E366846F48076124F3E6020
:104A70003E46366846F400763E603E46366846F06E
:104A800007063E600A4E0836366826F00306084FD1
:104A900008373E603E46366846F002063E6000BF7C
:104AA000034E0836366806F00C06082EF8D1F0BD25
:104AB0000038024000700040003C024010B526481B
:104AC000006840F4FF702449086000BF01212348BA
:104AD000FBF730FE0028F9D11F48006840F00100C4
:104AE0001D4908601C483030006840F080501A4969
:104AF000303108601A48006840F480701849086036
:104B0000CA20184908605320086016481C380068FD
:104B100000F4704413481C38006820F470401149B8
:104B20001C390860081D006820F47C50091D0860CD
:104B30000B48806840F001000949886009481C382A
:104B40000068204307491C390860FF2005490860B8
:104B500000F012F810BD00001038024000000240C2
:104B60000070004024280040014802490860704756
:104B70000400FA050CED00E000B51148006840F0B3
:104B800004000F4908600F48006840F080500D494C
:104B900008600D48C06840F480700B49C860084642
:104BA000806888600846006840F002000860084697
:104BB000006840F00100086000F048F800BD000007
:104BC00010ED00E040380240007000401C49C96907
:104BD00001F0200109B31A49496AC8B21949098884
:104BE00001F40041C9B91749098801F4804161B154
:104BF0000A2803D00021134A118020E011490988B6
:104C000041F400410F4A118019E00D2806D10D49E9
:104C1000098841F480410B4A118010E00949098854
:104C2000C1F30D01084A505406490988491C054A38
:104C3000118011460988C72901DD002111807047C4
:104C400000100140080002201C00022030BF704705
:104C50001CB51048006840F001000E4908600220B1
:104C600000210B460A46CDE9001001210A48FBF756
:104C700071FDFBF7ABFC08B9FFF720FF0222002112
:104C80000846FBF7DDFC0223062219461846FFF70B
:104C9000D1FB1CBD303802400000024000BF70470D
:104CA0004FF0E021096921F004014FF0E022116189
:104CB000C21700EB5272C2F3C702054B1A704FF4D1
:104CC0007A714143C1F3CF01024A1180704700005D
:104CD000000002200200022070B504464FF4077065
:104CE00094FBF0F0C6B24FF4077094FBF0F100FBB8
:104CF000114085B205E04FF4077000F027F8701EF0
:104D0000C6B2002EF7D115B1284600F01FF870BDCD
:104D100001460D4A12784A434FF0E0235A610022BF
:104D20009A6101221A6100BF4FF0E022106900F081
:104D300001021AB100F48032002AF5D000224FF0AF
:104D4000E0231A619A6170470000022001460D4A73
:104D500012884A434FF0E0235A6100229A610122EF
:104D60001A6100BF4FF0E022106900F001021AB191
:104D700000F48032002AF5D000224FF0E0231A61BF
:104D80009A6170470200022000BF054AD26902F012
:104D90004002002AF9D0C2B2014B9A62704700006B
:104DA000001001401CB501240923022219214FF4EF
:104DB000D870FFF7C1FDD820FFF772FF4FF4E13143
:104DC0006C2000F079F8FEF7C9FDFFF7CFFAFFF786
:104DD0003FFFFFF705FCFBF7B5FE4FF47840204995
:104DE000086020A010210B46C822CDE90010322116
:104DF0001E20FEF755FD20A010210B46C822CDE94C
:104E0000001046211E20FEF74BFD1EA010210B4670
:104E1000C822CDE900105A211E20FEF741FD1DA039
:104E200010210B46C822CDE900106E211E20FEF78E
:104E300037FD1BA010210B46C822CDE900108221AE
:104E40001E20FEF72DFD0AE084F001000446024614
:104E500002211848FBF776FCFA20FFF73DFFF3E745
:104E60000C00022041706F6C6C6F2053544D333234
:104E700046342F4637000000574B555020544553B9
:104E80005400000041544F4D40414C49454E54455B
:104E90004B000000323032322F382F340000000037
:104EA000574B5F55503A5374616E6462792F574B7C
:104EB0005F555000000402407CB505460C46294869
:104EC000684300EB5400B0FBF4F62748006840F05C
:104ED00001002549086024481430006840F01000A3
:104EE0002149143108600120022100230A46CDE93E
:104EF00000104FF4C0611D48FBF72CFC072209216C
:104F00001A48FBF7F7FB07220A211848FBF7F2FBC8
:104F10001748C66000201649086008460068086007
:104F2000084600680860084600680860084600688F
:104F300040F0080008600846006840F0040008607F
:104F40000846006840F02000086002232522032163
:104F50000846FFF76FFA0648006840F00100044970
:104F600008607CBD40420F00303802400000024023
:104F7000001001404FF04070E1EE100A7047000051
:104F800000000000000000000000000000003F40A2
:104F90000000000000000000300040003000400031
:104FA000000009000BC03D000BC03D00090018C007
:104FB00024407FE0224031800000180024C01B0004
:104FC0000D803240018003801C4027401C80074038
:104FD0000040100060000000000000000000000021
:104FE000000000001F8020404020000040202040A2
:104FF0001F8000000000090006001F800600090055
:105000000000040004003F800400040000000010C1
:105010000060000000000000000004000400040024
:105020000400040000000000004000000000000038
:105030000000002001C006003800400000001F8072
:105040002040204020401F800000000010403FC052
:1050500000400000000018C02140224024401840B9
:10506000000010802040244024401B8000000200EB
:105070000D0011003FC0014000003C80244024404E
:105080002440238000001F802440244034400380BB
:1050900000003000200027C03800200000001B80E6
:1050A0002440244024401B8000001C0022C02240D9
:1050B00022401F80000000000000084000000000A7
:1050C000000000000000046000000000000000007C
:1050D00004000A0011002080404009000900090076
:1050E00009000900000000004040208011000A0073
:1050F00004001800200023402400180000001F8036
:105100002040274029401F400000004007C03900D0
:105110000F0001C0004020403FC0244024401B80BD
:1051200000001F80204020402040308000002040B0
:105130003FC0204020401F80000020403FC024404E
:105140002E4030C0000020403FC024402E003000E0
:1051500000000F00108020402240338002002040D9
:105160003FC0040004003FC02040204020403FC01A
:105170002040204000000060202020203FC0200070
:10518000200020403FC024400B0030C02040204081
:105190003FC020400040004000C03FC03C0003C072
:1051A0003C003FC0000020403FC00C4023003FC0F7
:1051B00020001F802040204020401F800000204011
:1051C0003FC024402400180000001F8021402140DF
:1051D00020E01FA0000020403FC02440260019C04E
:1051E000004018C02440244022403180000030009C
:1051F00020403FC020403000000020003F800040A1
:1052000000403F80200020003E0001C00700380021
:105210002000380007C03C0007C0380000002040D4
:1052200039C0060039C0204000002000384007C0C7
:10523000384020000000304021C02640384020C0C7
:105240000000000000007FE040204020000000003F
:1052500070000C000380004000000000402040204F
:105260007FE000000000000020004000200000005F
:1052700000000010001000100010001000100000CE
:105280000000400000000000000000000280054017
:10529000054003C0004020003FC00440044003809C
:1052A00000000000038004400440064000000000AD
:1052B0000380044024403FC00040000003800540BC
:1052C000054003400000000004401FC0244024406B
:1052D0002000000002E00550055006500420204048
:1052E0003FC00440040003C000400000044027C049
:1052F00000400000000000100010041027E0000033
:10530000000020403FC00140070004C0044020408E
:1053100020403FC000400040000007C0040007C01C
:10532000040003C00000044007C00440040003C0A0
:10533000004000000380044004400380000004108B
:1053400007F0045004400380000000000380044084
:10535000045007F00010044007C00240040004009D
:105360000000000006400540054004C000000000A9
:1053700004001F800440004000000400078000403B
:10538000044007C000400400070004C0018006007C
:105390000400060001C0070001C006000000044030
:1053A00006C0010006C0044000000410071004E01D
:1053B0000180060004000000044005C006400440CF
:1053C00000000000000004007BE04020000000001E
:1053D00000000000FFF000000000000040207BE023
:1053E0000400000000004000800040002000200079
:1053F000400000000000000000000000000000006D
:1054000000000000000000001FCC000C00000000A5
:10541000000000000800300060000800300060005C
:105420000000022003FC1E20022003FC1E2002209C
:10543000000000000E1811043FFF10840C780000DB
:1054400000000F0010840F3800C00778188400781F
:10545000000000780F8410C411240E9800E400842A
:105460000008080068007000000000000000000054
:10547000000000000000000007E0181820044002AF
:105480000000000040022004181807E0000000009F
:1054900000000240024001800FF001800240024003
:1054A00000000080008000800FF8008000800080F5
:1054B00000000001000D000E0000000000000000D0
:1054C00000000000008000800080008000800080DC
:1054D00000800000000C000C000000000000000034
:1054E000000000000006001800600180060018009F
:1054F0002000000007F0080810041004080807F056
:1055000000000000080408041FFC00040004000060
:10551000000000000E0C10141024104411840E0C16
:10552000000000000C1810041104110412880C7003
:105530000000000000E00320042408241FFC0024D5
:10554000000000001F9810841104110410881070CE
:105550000000000007F0088811041104188800708A
:10556000000000001C00100010FC13001C001000C4
:10557000000000000E3811441084108411440E38CD
:10558000000000000700088C10441044088807F051
:105590000000000000000000030C030C00000000ED
:1055A00000000000000000010106000000000000F3
:1055B00000000000008001400220041008081004D0
:1055C00000000220022002200220022002200220ED
:1055D00000000000100408080410022001400080B0
:1055E000000000000E001200100C106C10800F0064
:1055F000000003E00C1813E4142417C4082807D093
:1056000000000004003C03C41C40074000E4001CF0
:10561000000410041FFC1104110411040E88007012
:10562000000003E00C1810041004100410081C10F3
:10563000000010041FFC100410041004080807F0F8
:10564000000010041FFC1104110417C410040818F2
:10565000000010041FFC1104110017C01000080006
:10566000000003E00C181004100410441C780040E3
:10567000000010041FFC10840080008010841FFCB8
:1056800010040000100410041FFC1004100400009B
:10569000000000030001100110011FFE10001000A7
:1056A000000010041FFC110403801464181C100473
:1056B000000010041FFC1004000400040004000C8F
:1056C000000010041FFC1F0000FC1F001FFC100442
:1056D000000010041FFC0C04030000E010181FFC65
:1056E000100007F00808100410041004080807F060
:1056F000000010041FFC10841080108010800F0028
:10570000000007F0081810241024101C080A07F2E3
:10571000000010041FFC1104110011C011300E0C08
:10572000000400000E1C11041084108410441C3866
:1057300000001800100010041FFC100410001800D6
:10574000000010001FF810040004000410041FF8EB
:10575000100010001E0011E0001C007013801C00DF
:1057600010001FC0103C00E01F0000E0103C1FC0F4
:1057700000001004180C163401C001C01634180CB7
:10578000100410001C00130400FC13041C00100083
:1057900000000804101C1064108413041C0410186A
:1057A00000000000000000007FFE400240024002B6
:1057B0000000000030000C0003800060001C0003AB
:1057C000000000004002400240027FFE0000000096
:1057D00000000000000020004000400040002000C9
:1057E00000000001000100010001000100010001B2
:1057F0000001000040004000200000000000000008
:10580000000000000098012401440144014400FC10
:10581000000410001FFC00880104010400880070CF
:1058200000000000007000880104010401040088E9
:1058300000000000007000880104010411081FFC32
:105840000004000000F8014401440144014400C880
:1058500000000000010401040FFC110411041100F8
:105860001800000000D601290129012901C90106FB
:10587000000010041FFC008401000100010400FC72
:10588000000400000104190419FC000400040000D5
:1058900000000000000300010101190119FE0000D1
:1058A000000010041FFC0024004001B4010C01049E
:1058B00000000000100410041FFC0004000400009D
:1058C0000000010401FC0104010001FC01040100CD
:1058D00000FC010401FC008401000100010400FC43
:1058E0000004000000F8010401040104010400F8B0
:1058F0000000010101FF008501040104008800701F
:10590000000000000070008801040104010501FF8F
:1059100000010104010401FC008401040100018074
:105920000000000000CC012401240124012401987E
:10593000000000000100010007F80104010400005C
:105940000000010001F8000400040004010801FC4B
:105950000004010001800170000C00100160018052
:10596000010001F0010C003001C00030010C01F019
:10597000010000000104018C00740170018C01041D
:105980000000010101810171000E00180160018019
:10599000010000000184010C013401440184010C68
:1059A0000000000000000000000001003EFC40027A
:1059B00040020000000000000000FFFF00000000A7
:1059C00000000000400240023EFC01000000000018
:1059D00000000000600080008000400040002000C7
:1059E0002000000000000000000000000000000097
:1059F00000000000000000000000000000000000A7
:105A00000000000000000000000000000000000096
:105A100000000000000F80380FFE380F80380000B3
:105A20000000000000000000000000000000000076
:105A30000100000600000C000038000031000006E4
:105A400000000C00003800003000000000000000E2
:105A5000000061800067F807F980006180006180C4
:105A60000061800061800067F807F98000618000B4
:105A7000000000000000000001C0E003E0F006307C
:105A8000080418081FFFFE040E080787F00381E0D2
:105A900000000000000001F000060C0004040806ED
:105AA0000C7001F9C0000E00003BE000EC18070884
:105AB00008040C180003E00000000001E00007F0FB
:105AC00003F818041C0804170807E1D003C0E0001D
:105AD00023B0003C08002008000010000000000077
