:020000040800F2
:10000000F0270220A1020008C5020008C70200086C
:10001000F1460008CB020008CD02000800000000F5
:10002000000000000000000000000000CF020008F7
:10003000D102000800000000D3020008D502000829
:10004000D7020008D7020008D7020008D70200082C
:10005000D7020008D7020008D7020008D70200081C
:10006000D7020008D7020008D7020008D70200080C
:10007000D7020008D7020008D7020008D7020008FC
:10008000D7020008D7020008D7020008D7020008EC
:10009000D7020008D7020008D7020008D7020008DC
:1000A000D7020008D7020008D7020008D7020008CC
:1000B000D7020008D7020008D7020008D7020008BC
:1000C000D7020008D7020008D7020008D7020008AC
:1000D000D7020008D94C0008D7020008D702000850
:1000E000D7020008D7020008D7020008D70200088C
:1000F000D7020008D7020008D7020008D70200087C
:10010000D7020008D7020008D7020008D70200086B
:10011000D7020008D7020008D7020008D70200085B
:10012000D7020008D7020008D7020008D70200084B
:10013000D7020008D7020008D7020008D70200083B
:10014000D7020008D7020008D7020008D70200082B
:10015000D7020008D7020008D7020008D70200081B
:10016000D7020008D7020008D7020008D70200080B
:10017000D7020008D7020008D702000800000000DC
:10018000D7020008D7020008D7020008D7020008EB
:10019000D7020008D7020008D7020008D7020008DB
:1001A000D7020008D7020008D7020008D7020008CB
:1001B000D7020008D7020008D7020008D7020008BB
:1001C000D7020008D702000800000000D70200088C
:1001D000D7020008D7020008D7020008D70200089B
:1001E000D7020008D7020008D7020008D70200088B
:1001F000D7020008D702000800F002F800F041F82A
:100200000AA090E8000C82448344AAF10107DA4571
:1002100001D100F036F8AFF2090EBAE80F0013F082
:10022000010F18BFFB1A43F0010318474097000065
:1002300060970000103A24BF78C878C1FAD85207F6
:1002400024BF30C830C144BF04680C607047000050
:100250000023002400250026103A28BF78C1FBD8CF
:10026000520728BF30C148BF0B607047782900F0A3
:100270008780002070471FB504F0ACFF1FBD10B58C
:1002800010BD00F035F91146FFF7F5FF04F0E8FD69
:1002900000F053F903B4FFF7F2FF03BC04F05CFD78
:1002A000DFF84000016841F470010160BFF34F8F37
:1002B000DFF83400016821F040410160BFF36F8F27
:1002C0000A480047FEE7FEE7FEE7FEE7FEE7FEE737
:1002D000FEE7FEE7FEE7FEE705480649044A064B4F
:1002E0007047000088ED00E034EF00E0F9010008FD
:1002F000F01F0220F0270220F01F022070470000AC
:100300000FB4044910B503AA029800F0C3F810BC5A
:100310005DF814FB040002202DE9F0410E4604466E
:10032000002020622046E168884730B3252805D0A8
:10033000D4E901219047206A401CF2E7E168204699
:1003400000278847050018D0A5F14100192802D8D8
:1003500020354FF400673246294620462760FFF7D4
:1003600085FF40B1012804D0F61D26F007060836A7
:10037000D8E7361DD6E72846DAE7206ABDE8F081DF
:1003800070B504460D4621461068AFF30080218801
:10039000090502D50F4A7A4402E00E4A7A440E3229
:1003A000002104F1240305E000F00F060009965D2A
:1003B0005E54491C0028F7D120780023000704D59B
:1003C000702D02D009B1022311322046BDE87040E1
:1003D00000F006B8A9950000704770477047704755
:1003E0002DE9F0470D4699469246044600F124084F
:1003F0000168880604D5E06921F01001216000E061
:100400000120A84201DD471B00E00027A1697A19FD
:1004100002EB0900081AA0612078C00602D4204629
:10042000AFF30080002608E0D4E901211AF80600A5
:100430009047206A401C761C20624E45F4DB2078F1
:10044000C0060AD52046AFF3008006E0D4E90121BA
:1004500030209047206A401C2062381EA7F1010717
:10046000F4DC07E0D4E9012118F805009047206A80
:10047000401C2062281EA5F10105F3DC2046AFF3E5
:1004800000802078000602D50220BDE8F087012018
:10049000FBE70000074B70B50D467B4400F011F8F8
:1004A0000446284600F020F810B14FF0FF3070BD30
:1004B000204670BDA749000001694A1C0261087806
:1004C000704700B58FB0CDE9013100210591054994
:1004D0007944CDE9031011466846FFF71DFF0FB0C0
:1004E00000BD0000E5FFFFFF007B00F080007047CB
:1004F000754600F02BF8AE4605006946534620F0DD
:100500000700854618B020B5FFF7E6FEBDE820409D
:100510004FF000064FF000074FF000084FF0000BBF
:1005200021F00701AC46ACE8C009ACE8C009ACE872
:10053000C009ACE8C0098D46704710B50446AFF35A
:1005400000802046BDE81040FFF7A4BE0048704779
:10055000901F022010B500BF00BF00BF00BF00BF4A
:10056000BFF34F8F00BF00BF00BF00BF00BF00BF81
:10057000BFF36F8F00BF00BF00BF002011490860AC
:100580001148006840F400300F49086000BF00BF08
:1005900000BFBFF34F8F00BF00BF00BF00BF00BF51
:1005A00000BFBFF36F8F00BF00BF00BF00BF04F0EC
:1005B000CFF804484C30006840F0040001494C3149
:1005C000086010BD50EF00E014ED00E030B5CC1035
:1005D00000F1200353F824304C07E50E0F24AC4003
:1005E000A343CD1000F1200444F82530CC1000F1D5
:1005F000200353F824304C07E40E02FA04F423439A
:10060000CD1000F1200444F8253030BD02461069B9
:10061000084008B1012070470020FCE702F0010308
:100620000BB1816101E00B04836170472DE9F04754
:100630000C46DDE90867002100258C4600BF60E01C
:100640004FF0010808FA01F504EA050CAC4557D152
:10065000D0F800804FEA410A4FF0030909FA0AF97D
:1006600028EA0908C0F80080D0F800804FEA410964
:1006700002FA09F948EA0908C0F80080012A01D005
:10068000022A27D1D0F808804FEA410A4FF0030927
:1006900009FA0AF928EA0908C0F80880D0F80880A1
:1006A0004FEA410906FA09F948EA0908C0F8088042
:1006B000D0F804904FF0010808FA01F829EA080977
:1006C000C0F80490D0F8048003FA01F948EA090858
:1006D000C0F80480D0F80C804FEA410A4FF00309BB
:1006E00009FA0AF928EA0908C0F80C80D0F80C8049
:1006F0004FEA410907FA09F948EA0908C0F80C80ED
:10070000491C10299CD3BDE8F08700001CB5174890
:10071000006840F00100154908600846006840F094
:10072000040008600846006840F08000086002206D
:1007300000210B460A46CDE9001001210C48FFF7C5
:1007400075FF012000210B460A46CDE90010410348
:100750000848FFF76BFF012000210B460A46CDE950
:1007600000100C210448FFF761FF1CBD3038024027
:100770000000024000080240001C024010B5044680
:1007800014B101202D4908702C480078002839D078
:1007900008212B48FFF73AFF80B104212848FFF7D2
:1007A00035FF58B14FF400512648FFF72FFF28B10D
:1007B00001212548FFF72AFF012823D10A2004F050
:1007C000E9FA00201D49087008211D48FFF71EFFA7
:1007D00008B9012010BD04211948FFF717FF08B917
:1007E0000220F7E74FF400511648FFF70FFF08B952
:1007F0000320EFE701211448FFF708FF01281BD170
:100800000420E7E708210E48FFF700FF012813D175
:1008100004210B48FFF7FAFE01280DD141030948D6
:10082000FFF7F4FE012807D101210748FFF7EEFE8C
:1008300010B90120014908700020CBE71C000220FC
:10084000001C0240000802400000024070B504464F
:1008500000260D4805880D48006818B1204603F0B1
:10086000FFF80FE00848408845430021084602F0A1
:10087000EFFE03F0C3F8002602E005490C80761C69
:10088000AE42FAD370BD0000601F0220701F02202C
:100890000000086010B50446624884716248006830
:1008A00050B1204603F03AF95F48C08A5D4908809C
:1008B0005D48008B488010BD002C57D1F02059496D
:1008C00008804FF4A07048800846808849F2413182
:1008D00088420BD05348808845F21031884205D0B9
:1008E0005048808847F28971884214D12C204D49A4
:1008F00008812A2048812B2088810846808845F27B
:100900001031884206D14FF4A070464908804FF458
:10091000F070488081E04348808845F21051884259
:1009200010D14FF430503F4908814FF4285048818E
:100930004FF42C5088814FF4F07008804FF44870C9
:1009400048806AE03748808841F66311884264D164
:100950002C20344908812B2048812A2088814FF49B
:10096000F07008804FF44870488056E04FF4A07053
:100970002C490880F02048800846808849F241319F
:1009800088420BD02748808845F21031884205D034
:100990002448808847F28971884207D12C20214958
:1009A00008812A2048812B20888129E01D488088E1
:1009B00045F21051884210D14FF430501949088146
:1009C0004FF4285048814FF42C5088814FF44870E0
:1009D00008804FF4F070488012E01248808841F699
:1009E000631188420CD12C200E4908812A204881AD
:1009F0002B2088814FF4487008804FF4F0704880B5
:100A00000848808845F21031884206D14FF4F070D2
:100A1000044908804FF4A0704880002002F0D8FC00
:100A200000BF48E7601F0220701F022070B5044617
:100A30000D4616464648006828B1324629462046EB
:100A400003F082F870BD4348808849F24131884202
:100A50000BD04048808845F21031884205D03D488F
:100A6000808847F28971884214D13A49488902F056
:100A7000B9FF201202F0AAFFE0B202F0A7FF354949
:100A8000888902F0AFFF281202F0A0FFE8B202F05E
:100A90009DFF54E02F48808845F21051884220D1B4
:100AA0002C49488902F09EFF201202F08FFF29494D
:100AB0004989491C88B202F095FFE0B202F086FF36
:100AC0002449888902F08EFF281202F07FFF214915
:100AD0008989491C88B202F085FFE8B202F076FFEE
:100AE0002DE01C48808841F66311884227D11948BF
:100AF000807920B917480088401E001B84B2154930
:100B0000488902F06FFF201202F060FFE0B202F0AD
:100B10005DFF201202F05AFFE0B202F057FF0D49CC
:100B2000888902F05FFF281202F050FFE8B202F05D
:100B30004DFF281202F04AFFE8B202F047FF0548D5
:100B4000008905490880891C0E8000BF7AE70000F3
:100B5000701F0220601F0220FEFF07601CB503F01B
:100B6000CFFBFE4988800846808840B108468188CE
:100B7000FBA0FFF7C5FB03F0B3F802F096BBFC48FF
:100B8000006840F00200FA4908600846006840F03A
:100B900018000860F6480830006840F00100F44989
:100BA000083108600120022100230246CDE900102F
:100BB0002021F048FFF73AFD012003210023022203
:100BC000CDE900104EF2B371EB48FFF72FFD012085
:100BD000032100230222CDE900104FF68071E7487F
:100BE000FFF724FD0C220021E348FFF7EFFC0C2265
:100BF0000121E148FFF7EAFC0C220421DE48FFF75F
:100C0000E5FC0C220521DC48FFF7E0FC0C22072163
:100C1000D948FFF7DBFC0C220821D748FFF7D6FCA8
:100C20000C220921D448FFF7D1FC0C220A21D2481A
:100C3000FFF7CCFC0C220D21CF48FFF7C7FC0C229C
:100C40000E21CD48FFF7C2FC0C220F21CA48FFF746
:100C5000BDFC0C220721C948FFF7B8FC0C22082173
:100C6000C648FFF7B3FC0C220921C448FFF7AEFCCD
:100C70000C220A21C148FFF7A9FC0C220B21BF4816
:100C8000FFF7A4FC0C221146BC48FFF79FFC0C2286
:100C90000D21BA48FFF79AFC0C220E21B748FFF746
:100CA00095FC0C220F21B548FFF790FC00204FF077
:100CB000204108604860B24908604FF02040006859
:100CC00040F480504FF0204108600846006840F42E
:100CD000804008600846006840F010000860084640
:100CE000406848600846406840F00F004860084689
:100CF000406840F4A0404860A1480068C1F8040181
:100D00000846D0F8040140F00F00C1F8040108467D
:100D1000D0F8040140F47060C1F80401084600688E
:100D200040F001000860322004F034F8D32002F0D3
:100D300059FE02F01BFB8949888002F017FB8749A6
:100D4000888002F013FB85498880084680884FF62A
:100D5000FF7101EA00208149888002F007FB7F498A
:100D6000898808437D4988800846808849F2413156
:100D700088427DD0042002F035FE02F0F7FA774970
:100D8000888002F0F3FA7549888002F0EFFA73491F
:100D90008880084680884FF6FF7101EA00206F497D
:100DA000888002F0E3FA6D49898808436B4988809E
:100DB0000846808848F25251884203D147F2897030
:100DC000664988806548808847F289718842D0D01A
:100DD000D42002F007FE02F0C9FA6049888002F0D0
:100DE000C5FA5E49888002F0C1FA5C4988800846ED
:100DF00080884FF6FF7101EA00205849888002F090
:100E0000B5FA56498988084354498880084680883D
:100E100045F2103188426BD055214FF4704002F0FA
:100E2000F7FDAA214FF2010002F0F2FD52214FF22C
:100E3000020002F0EDFD08214FF2030002F0E8FD90
:100E400001214FF2040002F0E3FD4FF4454002F0AF
:100E5000C9FD02F08BFA41498880084680884FF628
:100E6000FF7101EA00203D4988804CF2015000E00A
:100E70003EE002F0B7FD02F079FA3849898808436C
:100E800036498880052003F085FF34488088B0F516
:100E9000004F03D145F21050304988802F48808898
:100EA00045F21051884223D0A12002F09BFD02F0B0
:100EB0005DFA2A49888002F059FA28498880084654
:100EC00080884FF6FF7101EA00202449888002F0F3
:100ED0004DFA22498988084320498880084680883D
:100EE00045F26171884203D141F663101B49888045
:100EF0001A4881881AA0FFF703FA1848808849F237
:100F0000413188427ED1CF2002F06CFD002002F0FA
:100F10005DFDC12002F05AFD302002F057FDED20AA
:100F200002F060FD642002F051FD032002F04EFD4E
:100F3000122002F04BFD812002F048FDE82002F073
:100F400051FD852002F042FD102002F03FFD7A2085
:100F500002F03CFDCB2002F045FD13E0601F0220B3
:100F6000204C43442049443A25780D0A00000000F3
:100F70003038024000040240000C024000100240E1
:100F8000040100A0392002F021FD2C2002F01EFDFA
:100F9000002002F01BFD342002F018FD022002F0B8
:100FA00015FDF72002F01EFD202002F00FFDEA20C3
:100FB00002F018FD002002F009FD002002F006FDFD
:100FC000C02002F00FFD1B2002F000FDC12002F046
:100FD00009FD012002F0FAFCC52002F003FD3020DB
:100FE00002F0F4FC302002F0F1FCC72002F0FAFC21
:100FF000B72002F0EBFC362002F0F4FC482002F0AF
:10100000E5FC00E0ABE03A2002F0ECFC552002F0F9
:10101000DDFCB12002F0E6FC002002F0D7FC1A2033
:1010200002F0D4FCB62002F0DDFC0A2002F0CEFC77
:10103000A22002F0CBFCF22002F0D4FC002002F04F
:10104000C5FC262002F0CEFC012002F0BFFCE0200F
:1010500002F0C8FC0F2002F0B9FC2A2002F0B6FC16
:10106000282002F0B3FC082002F0B0FC0E2002F0B1
:10107000ADFC082002F0AAFC542002F0A7FCA92035
:1010800002F0A4FC432002F0A1FC0A2002F09EFC26
:101090000F2002F09BFC002002F098FC002002F0E0
:1010A00095FC002002F092FC002002F08FFCE12071
:1010B00002F098FC002002F089FC152002F086FC6A
:1010C000172002F083FC072002F080FC112002F0C0
:1010D0007DFC062002F07AFC2B2002F077FC5620E3
:1010E00002F074FC3C2002F071FC052002F06EFC62
:1010F000102002F06BFC0F2002F068FC3F2002F091
:1011000065FC3F2002F062FC0F2002F05FFC2B2008
:1011100002F068FC002002F059FC002002F056FCAE
:10112000012002F053FC3F2002F050FC2A2002F084
:1011300059FC002002F04AFC002002F047FC00208D
:1011400002F044FCEF2002F041FC112002F04AFCC6
:10115000782003F01FFE292002F044FC0DE5FE4834
:10116000808847F2897188427ED1112002F03AFCD2
:10117000782003F00FFE362002F034FC002002F04D
:1011800025FC3A2002F02EFC052002F01FFCB220C4
:1011900002F028FC0C2002F019FC0C2002F016FCD6
:1011A000002002F013FC332002F010FC332002F088
:1011B0000DFCB72002F016FC352002F007FCBB2026
:1011C00002F010FC322002F001FCC02002F00AFC08
:1011D0000C2002F0FBFBC22002F004FC012002F014
:1011E000F5FBC32002F0FEFB102002F0EFFBC42051
:1011F00002F0F8FB202002F0E9FBC62002F0F2FB2F
:101200000F2002F0E3FBD02002F0ECFBA42002F060
:10121000DDFBA12002F0DAFBE02002F0E3FBD020AE
:1012200002F0D4FB002002F0D1FB022002F0CEFB42
:10123000072002F0CBFB0A2002F0C8FB282002F0B6
:10124000C5FB322002F0C2FB442002F0BFFB42206B
:1012500002F0BCFB062002F0B9FB0E2002F0B6FB48
:10126000122002F0B3FB00E054E0142002F0AEFBC9
:10127000172002F0ABFBE12002F0B4FBD02002F01B
:10128000A5FB002002F0A2FB022002F09FFB07203A
:1012900002F09CFB0A2002F099FB282002F096FB4A
:1012A000312002F093FB542002F090FB472002F023
:1012B0008DFB0E2002F08AFB1C2002F087FB17201A
:1012C00002F084FB1B2002F081FB1E2002F07EFB5B
:1012D0002A2002F087FB002002F078FB002002F0B9
:1012E00075FB002002F072FBEF2002F06FFB2B2059
:1012F00002F078FB002002F069FB002002F066FBA0
:10130000012002F063FB3F2002F060FB292002F085
:1013100069FB32E49048808845F21031884240F001
:101320007C87ED2002F05EFB012002F04FFBFE20E7
:1013300002F04CFBEE2002F055FBDE2002F046FBF3
:10134000212002F043FBF12002F04CFB012002F0CF
:101350003DFBDF2002F046FB102002F037FBC420EB
:1013600002F040FB8F2002F031FBC62002F03AFB76
:10137000002002F02BFBE22002F028FBE22002F02A
:1013800025FBE22002F022FBBF2002F02BFBAA206B
:1013900002F01CFBB02002F025FB0D2002F016FB32
:1013A000002002F013FB0D2002F010FB002002F0E1
:1013B0000DFB112002F00AFB002002F007FB1920B0
:1013C00002F004FB002002F001FB212002F0FEFAF3
:1013D000002002F0FBFA2D2002F0F8FA002002F0C3
:1013E000F5FA3D2002F0F2FA002002F0EFFA5D205B
:1013F00002F0ECFA002002F0E9FA5D2002F0E6FAD1
:10140000002002F0E3FAB12002F0ECFA802002F0B2
:10141000DDFA002002F0DAFA8B2002F0D7FA002081
:1014200002F0D4FA962002F0D1FA002002F0CEFAAF
:10143000B22002F0D7FA002002F0C8FA002002F031
:10144000C5FA022002F0C2FA002002F0BFFA03201F
:1014500002F0BCFA002002F0B9FAB32002F0C2FA9E
:10146000002002F0B3FA002002F0B0FA002002F0EF
:10147000ADFA002002F0AAFA002002F0A7FA00203C
:1014800002F0A4FA002002F0A1FA002002F09EFA75
:10149000002002F09BFA002002F098FA002002F0EF
:1014A00095FA002002F092FA002002F08FFA002054
:1014B00002F08CFA002002F089FA002002F086FA8D
:1014C000002002F083FA002002F080FA002002F0EF
:1014D0007DFA002002F07AFA002002F077FA00206C
:1014E00002F074FA002002F071FA002002F06EFAA5
:1014F000B42002F077FA8B2002F068FA002002F0A4
:1015000065FA962002F062FA002002F05FFAA1204C
:1015100002F05CFA002002F059FAB52002F062FAFB
:10152000022002F053FA002002F050FA032002F0E9
:101530004DFA002002F04AFA042002F047FA002097
:1015400002F044FAB62002F04DFA002002F03EFA12
:10155000002002F03BFA01E0601F0220B72002F0F9
:1015600041FA002002F032FA002002F02FFA3F2068
:1015700002F02CFA002002F029FA5E2002F026FA8E
:10158000002002F023FA642002F020FA002002F08A
:101590001DFA8C2002F01AFA002002F017FAAC2093
:1015A00002F014FA002002F011FADC2002F00EFA28
:1015B000002002F00BFA702002F008FA002002F07E
:1015C00005FA902002F002FA002002F0FFF9EB2069
:1015D00002F0FCF9002002F0F9F9DC2002F0F6F943
:1015E000002002F0F3F9B82002F0FCF9002002F02C
:1015F000EDF9002002F0EAF9002002F0E7F90020FE
:1016000002F0E4F9002002F0E1F9002002F0DEF936
:10161000002002F0DBF9002002F0D8F9BA2002F035
:10162000E1F9242002F0D2F9002002F0CFF90020E5
:1016300002F0CCF9002002F0C9F9C12002F0D2F981
:10164000202002F0C3F9002002F0C0F9542002F07B
:10165000BDF9002002F0BAF9FF2002F0B7F900202E
:1016600002F0B4F9C22002F0BDF90A2002F0AEF98E
:10167000002002F0ABF9042002F0A8F9002002F0EB
:10168000A5F9C32002F0AEF93C2002F09FF900203A
:1016900002F09CF93A2002F099F9002002F096F944
:1016A000392002F093F9002002F090F9372002F07F
:1016B0008DF9002002F08AF93C2002F087F9002021
:1016C00002F084F9362002F081F9002002F07EF960
:1016D000322002F07BF9002002F078F92F2002F08E
:1016E00075F9002002F072F92C2002F06FF9002049
:1016F00002F06CF9292002F069F9002002F066F985
:10170000262002F063F9002002F060F9242002F0A4
:101710005DF9002002F05AF9242002F057F9002068
:1017200002F054F9232002F051F9002002F04EF9A2
:101730003C2002F04BF9002002F048F9362002F07C
:1017400045F9002002F042F9322002F03FF9002072
:1017500002F03CF92F2002F039F9002002F036F9AE
:101760002C2002F033F9002002F030F9292002F099
:101770002DF9002002F02AF9262002F027F9002096
:1017800002F024F9242002F021F9002002F01EF9D1
:10179000242002F01BF9002002F018F9232002F0A7
:1017A00015F9002002F012F9C42002F01BF96220A2
:1017B00002F00CF9002002F009F9052002F006F908
:1017C000002002F003F9842002F000F9002002F06A
:1017D000FDF8F02002F0FAF8002002F0F7F81820E7
:1017E00002F0F4F8002002F0F1F8A42002F0EEF884
:1017F000002002F0EBF8182002F0E8F8002002F0D8
:10180000E5F8502002F0E2F8002002F0DFF80C20AA
:1018100002F0DCF8002002F0D9F8172002F0D6F828
:10182000002002F0D3F8952002F0D0F8002002F05A
:10183000CDF8F32002F0CAF8002002F0C7F8E62045
:1018400002F0C4F8002002F0C1F8C52002F0CAF886
:10185000322002F0BBF8002002F0B8F8442002F079
:10186000B5F8002002F0B2F8652002F0AFF80020D1
:1018700002F0ACF8762002F0A9F8002002F0A6F8F9
:10188000882002F0A3F8002002F0A0F8C62002F0A1
:10189000A9F8202002F09AF8002002F097F817200B
:1018A00002F094F8002002F091F8012002F08EF886
:1018B000002002F08BF8C72002F094F8002002F01C
:1018C00085F8002002F082F8002002F07FF8002066
:1018D00002F07CF8C82002F085F8002002F076F8CB
:1018E000002002F073F8002002F070F8002002F0EF
:1018F0006DF8C92002F076F8002002F067F80020A9
:1019000002F064F8002002F061F8002002F05EF8B6
:10191000002002F05BF8002002F058F8002002F0EE
:1019200055F8002002F052F8002002F04FF8002095
:1019300002F04CF8002002F049F8002002F046F8CE
:10194000002002F043F8002002F040F8002002F0EE
:101950003DF8002002F03AF8E02002F043F81620AB
:1019600002F034F8002002F031F81C2002F02EF8CA
:10197000002002F02BF8212002F028F8002002F0CD
:1019800025F8362002F022F8002002F01FF8462049
:1019900002F01CF8002002F019F8522002F016F8AC
:1019A000002002F013F8642002F010F8002002F08A
:1019B0000DF87A2002F00AF8002002F007F88B20D8
:1019C00002F004F8002002F001F8992001F0FEFF77
:1019D000002001F0FBFFA82001F0F8FF002001F03B
:1019E000F5FFB92001F0F2FF002001F0EFFFC42065
:1019F00001F0ECFF002001F0E9FFCA2001F0E6FF52
:101A0000002001F0E3FFD22001F0E0FF002001F010
:101A1000DDFFD92001F0DAFF002001F0D7FFE02040
:101A200001F0D4FF002001F0D1FFF32001F0CEFF40
:101A3000002001F0CBFFE12001F0D4FF162001F0DF
:101A4000C5FF002001F0C2FF1C2001F0BFFF0020F5
:101A500001F0BCFF222001F0B9FF002001F0B6FF29
:101A6000362001F0B3FF002001F0B0FF452001F067
:101A7000ADFF002001F0AAFF522001F0A7FF0020D7
:101A800001F0A4FF642001F0A1FF002001F09EFFFF
:101A90007A2001F09BFF002001F098FF8B2001F0DD
:101AA00095FF002001F092FF992001F08FFF0020A8
:101AB00001F08CFFA82001F089FF002001F086FFD3
:101AC000B92001F083FF002001F080FFC42001F065
:101AD0007DFF002001F07AFFCA2001F077FF00208F
:101AE00001F074FFD22001F071FF002001F06EFFC1
:101AF000D82001F06BFF002001F068FFE02001F02A
:101B000065FF002001F062FFF32001F05FFF00207D
:101B100001F05CFFE22001F065FF052001F056FFB7
:101B2000002001F053FF0B2001F050FF002001F0D6
:101B30004DFF1B2001F04AFF002001F047FF342039
:101B400001F044FF002001F041FF442001F03EFF7E
:101B5000002001F03BFF4F2001F038FF002001F092
:101B600035FF612001F032FF002001F02FFF7920C6
:101B700001F02CFF002001F029FF882001F026FF52
:101B8000002001F023FF972001F020FF002001F04A
:101B90001DFFA62001F01AFF002001F017FFB7205B
:101BA00001F014FF002001F011FFC22001F00EFF30
:101BB000002001F00BFFC72001F008FF002001F01A
:101BC00005FFD12001F002FF002001F0FFFED6202A
:101BD00001F0FCFE002001F0F9FEDD2001F0F6FE30
:101BE000002001F0F3FEF32001F0F0FE002001F0F0
:101BF000EDFEE32001F0F6FE052001F0E7FE0020F7
:101C000001F0E4FE0A2001F0E1FE002001F0DEFE1A
:101C10001C2001F0DBFE002001F0D8FE332001F093
:101C2000D5FE002001F0D2FE442001F0CFFE0020BE
:101C300001F0CCFE502001F0C9FE002001F0C6FEEC
:101C4000622001F0C3FE002001F0C0FE782001F008
:101C5000BDFE002001F0BAFE882001F0B7FE002092
:101C600001F0B4FE972001F0B1FE002001F0AEFEBD
:101C7000A62001F0ABFE002001F0A8FEB72001F085
:101C8000A5FE002001F0A2FEC22001F09FFE002070
:101C900001F09CFEC72001F099FE002001F096FEA5
:101CA000D12001F093FE002001F090FED52001F03C
:101CB0008DFE002001F08AFEDD2001F087FE00206D
:101CC00001F084FEF32001F081FE002001F07EFE91
:101CD000E42001F087FE012001F078FE002001F0F1
:101CE00075FE012001F072FE002001F06FFE02205F
:101CF00001F06CFE002001F069FE2A2001F066FE72
:101D0000002001F063FE3C2001F060FE002001F0A5
:101D10005DFE4B2001F05AFE002001F057FE5D20D1
:101D200001F054FE002001F051FE742001F04EFE3F
:101D3000002001F04BFE842001F048FE002001F05D
:101D400045FE932001F042FE002001F03FFEA2205C
:101D500001F03CFE002001F039FEB32001F036FE18
:101D6000002001F033FEBE2001F030FE002001F023
:101D70002DFEC42001F02AFE002001F027FECD2018
:101D800001F024FE002001F021FED32001F01EFE10
:101D9000002001F01BFEDD2001F018FE002001F004
:101DA00015FEF32001F012FE002001F00FFEE520E9
:101DB00001F018FE002001F009FE002001F006FEEF
:101DC000002001F003FE002001F000FE022001F0DF
:101DD000FDFD002001F0FAFD292001F0F7FD0020B3
:101DE00001F0F4FD3C2001F0F1FD002001F0EEFDDA
:101DF0004B2001F0EBFD002001F0E8FD5D2001F03B
:101E0000E5FD002001F0E2FD742001F0DFFD00207F
:101E100001F0DCFD842001F0D9FD002001F0D6FDA9
:101E2000932001F0D3FD002001F0D0FDA22001F0AD
:101E3000CDFD002001F0CAFDB32001F0C7FD002058
:101E400001F0C4FDBE2001F0C1FD002001F0BEFD87
:101E5000C42001F0BBFD002001F0B8FDCD2001F051
:101E6000B5FD002001F0B2FDD32001F0AFFD002050
:101E700001F0ACFDDC2001F0A9FD002001F0A6FD81
:101E8000F32001F0A3FD002001F0A0FDE62001F009
:101E9000A9FD112001F09AFD002001F097FD3420EA
:101EA00001F094FD002001F091FD562001F08EFD1F
:101EB000002001F08BFD762001F088FD002001F06C
:101EC00085FD772001F082FD002001F07FFD662076
:101ED00001F07CFD002001F079FD882001F076FD05
:101EE000002001F073FD992001F070FD002001F049
:101EF0006DFDBB2001F06AFD002001F067FD992017
:101F000001F064FD002001F061FD662001F05EFD3E
:101F1000002001F05BFD552001F058FD002001F08C
:101F200055FD552001F052FD002001F04FFD4520E8
:101F300001F04CFD002001F049FD432001F046FD79
:101F4000002001F043FD442001F040FD002001F09D
:101F50003DFDE72001F046FD322001F037FD002075
:101F600001F034FD552001F031FD002001F02EFD7F
:101F7000762001F02BFD002001F028FD662001F005
:101F800025FD002001F022FD672001F01FFD00204B
:101F900001F01CFD672001F019FD002001F016FD85
:101FA000872001F013FD002001F010FD992001F0C1
:101FB0000DFD002001F00AFDBB2001F007FD00200F
:101FC00001F004FD992001F001FD002001F0FEFC6C
:101FD000772001F0FBFC002001F0F8FC442001F028
:101FE000F5FC002001F0F2FC562001F0EFFC00208F
:101FF00001F0ECFC232001F0E9FC002001F0E6FCFC
:10200000332001F0E3FC002001F0E0FC452001F06A
:10201000DDFC002001F0DAFCE82001F0E3FC002008
:1020200001F0D4FC002001F0D1FC992001F0CEFC9D
:10203000002001F0CBFC872001F0C8FC002001F05B
:10204000C5FC882001F0C2FC002001F0BFFC772015
:1020500001F0BCFC002001F0B9FC662001F0B6FCE8
:10206000002001F0B3FC882001F0B0FC002001F05A
:10207000ADFCAA2001F0AAFC002001F0A7FCBB20C7
:1020800001F0A4FC002001F0A1FC992001F09EFCCD
:10209000002001F09BFC662001F098FC002001F07C
:1020A00095FC552001F092FC002001F08FFC55209A
:1020B00001F08CFC002001F089FC442001F086FC3A
:1020C000002001F083FC442001F080FC002001F09E
:1020D0007DFC552001F07AFC002001F077FCE9201E
:1020E00001F080FCAA2001F071FC002001F06EFCE0
:1020F000002001F06BFC002001F068FC002001F0E2
:1021000071FCAA2001F062FCCF2001F06BFC0020E2
:1021100001F05CFC002001F059FC002001F056FCAD
:10212000002001F053FC002001F050FC002001F0E1
:102130004DFC002001F04AFC002001F047FC00208B
:1021400001F044FC002001F041FC002001F03EFCC5
:10215000002001F03BFC002001F038FC002001F0E1
:1021600035FC002001F032FC002001F02FFC0020A3
:1021700001F02CFCF02001F035FC002001F026FCE1
:10218000502001F023FC002001F020FC002001F091
:102190001DFC002001F01AFCF32001F023FC0020BC
:1021A00001F014FCF92001F01DFC062001F00EFCEA
:1021B000102001F00BFC292001F008FC002001F0A8
:1021C00005FC3A2001F00EFC552001F0FFFB112028
:1021D00001F008FC642002F0DDFD292001F002FC82
:1021E000352001F0FFFB002001F0F0FB512001F051
:1021F000F9FBFF2001F0EAFB532001F0F3FB2C2058
:1022000001F0E4FB552001F0EDFB822001F0DEFB44
:102210002C2001F0E7FB01F048B8FE48808845F229
:10222000105188427ED155214FF4704001F0F0FBEF
:10223000AA214FF2010001F0EBFB52214FF2020004
:1022400001F0E6FB08214FF2030001F0E1FB012160
:102250004FF2040001F0DCFB0D214FF4304001F09F
:10226000D7FB0D214BF2010001F0D2FB0D214BF207
:10227000020001F0CDFB34214FF4364001F0C8FBE1
:1022800034214BF2016001F0C3FB34214BF20260B8
:1022900001F0BEFB0D214FF4314001F0B9FB0D21DF
:1022A0004BF2011001F0B4FB0D214BF2021001F0D2
:1022B000AFFB34214FF4374001F0AAFB34214BF23D
:1022C000017001F0A5FB34214BF2027001F0A0FB7C
:1022D00000214FF4324001F09BFB00214BF2012022
:1022E00001F096FB00214BF2022001F091FB24212A
:1022F0004FF4384001F08CFB24214BF6010001F033
:1023000087FB24214BF6020001F082FB01214FF4F0
:102310003F4001F07DFB0F214FF4334001F078FB8B
:102320000F2100E0FEE34BF2013001F071FB0F21C1
:102330004BF2023001F06CFB34214FF4394001F0D4
:1023400067FB34214BF6011001F062FB34214BF6A0
:10235000021001F05DFB08214FF4354001F058FBFD
:1023600008214BF2015001F053FB08214BF20250BF
:1023700001F04EFB03214FF4424001F049FB2421C0
:102380004FF43A4001F044FB24214BF6012001F0C8
:102390003FFB24214BF6022001F03AFB00214FF4D1
:1023A0003C4001F035FB78214BF6014001F030FB59
:1023B00000214BF6024001F02BFB00214FF43D4081
:1023C00001F026FB78214BF6015001F021FB0021A2
:1023D0004BF6025001F01CFB00214FF43E4001F08F
:1023E00017FB64214BF6016001F012FB00214FF452
:1023F000514001F00DFB33214DF2011001F008FBBB
:1024000000214DF2021001F003FB34214DF20310C4
:1024100001F0FEFA00214DF2041001F0F9FA3A2120
:102420004DF2051001F0F4FA00214DF2061001F012
:10243000EFFA4A214DF2071001F0EAFA00214DF2BD
:10244000081001F0E5FA5C214DF2091001F0E0FA04
:1024500000214DF20A1001F0DBFA81214DF20B1040
:1024600001F0D6FA00214DF20C1001F0D1FAA621AC
:102470004DF20D1001F0CCFA00214DF20E1001F0DA
:10248000C7FAE5214DF20F1001F0C2FA01214DF219
:10249000101001F0BDFA13214DF2111001F0B8FA3D
:1024A00001214DF2121001F0B3FA54214DF2131034
:1024B00001F0AEFA01214DF2141001F0A9FA8221C7
:1024C0004DF2151001F0A4FA01214DF2161001F0A1
:1024D0009FFACA214DF2171001F09AFA02214DF22B
:1024E000181001F095FA00214DF2191001F090FA40
:1024F00002214DF21A1001F08BFA01214DF21B104E
:1025000001F086FA02214DF21C1001F081FA34210B
:102510004DF21D1001F07CFA02214DF21E1001F067
:1025200077FA67214DF21F1001F072FA02214DF285
:10253000201001F06DFA84214DF2211001F068FAAB
:1025400002214DF2221001F063FAA4214DF2231072
:1025500001F05EFA02214DF2241001F059FAB72180
:102560004DF2251001F054FA02214DF2261001F02F
:102570004FFACF214DF2271001F04AFA02214DF215
:10258000281001F045FADE214DF2291001F040FA41
:1025900002214DF22A1001F03BFAF2214DF22B10EC
:1025A00001F036FA02214DF22C1001F031FAFE2131
:1025B0004DF22D1001F02CFA03214DF22E1001F0F6
:1025C00027FA10214DF22F1001F022FA03214DF2CB
:1025D000301001F01DFA33214DF2311001F018FADC
:1025E00003214DF2321001F013FA6D214DF2331038
:1025F00001F00EFA00214FF4524001F009FA3321A4
:102600004DF2012001F004FA00214DF2022001F008
:10261000FFF901E0601F022034214DF2032001F098
:10262000F7F900214DF2042001F0F2F93A214DF2C0
:10263000052001F0EDF900214DF2062001F0E8F946
:102640004A214DF2072001F0E3F900214DF2082064
:1026500001F0DEF95C214DF2092001F0D9F90021E9
:102660004DF20A2001F0D4F981214DF20B2001F046
:10267000CFF900214DF20C2001F0CAF9A6214DF24C
:102680000D2001F0C5F900214DF20E2001F0C0F936
:10269000E5214DF20F2001F0BBF901214DF2102090
:1026A00001F0B6F913214DF2112001F0B1F9012129
:1026B0004DF2122001F0ACF954214DF2132001F03B
:1026C000A7F901214DF2142001F0A2F982214DF267
:1026D000152001F09DF901214DF2162001F098F925
:1026E000CA214DF2172001F093F902214DF2182072
:1026F00001F08EF900214DF2192001F089F9022133
:102700004DF21A2001F084F901214DF21B2001F055
:102710007FF902214DF21C2001F07AF934214DF2AB
:102720001D2001F075F902214DF21E2001F070F913
:1027300067214DF21F2001F06BF902214DF220209C
:1027400001F066F984214DF2212001F061F90221A6
:102750004DF2222001F05CF9A4214DF2232001F07A
:1027600057F902214DF2242001F052F9B7214DF220
:10277000252001F04DF902214DF2262001F048F903
:10278000CF214DF2272001F043F902214DF22820FC
:1027900001F03EF9DE214DF2292001F039F9022144
:1027A0004DF22A2001F034F9F2214DF22B2001F0F4
:1027B0002FF902214DF22C2001F02AF9FE214DF2D1
:1027C0002D2001F025F903214DF22E2001F020F9F2
:1027D00010214DF22F2001F01BF903214DF2302082
:1027E00001F016F933214DF2312001F011F90321E6
:1027F0004DF2322001F00CF96D214DF2332001F041
:1028000007F900214FF4534001F002F933214DF252
:10281000013001F0FDF800214DF2023001F0F8F82E
:1028200034214DF2033001F0F3F800214DF2043071
:1028300001F0EEF83A214DF2053001F0E9F80021FF
:102840004DF2063001F0E4F84A214DF2073001F074
:10285000DFF800214DF2083001F0DAF85C214DF28A
:10286000093001F0D5F800214DF20A3001F0D0F81E
:1028700081214DF20B3001F0CBF800214DF20C30EC
:1028800001F0C6F8A6214DF20D3001F0C1F800218B
:102890004DF20E3001F0BCF8E5214DF20F3001F0A1
:1028A000B7F801214DF2103001F0B2F813214DF2CA
:1028B000113001F0ADF801214DF2123001F0A8F80D
:1028C00054214DF2133001F0A3F801214DF21430E0
:1028D00001F09EF882214DF2153001F099F80121A6
:1028E0004DF2163001F094F8CA214DF2173001F084
:1028F0008FF802214DF2183001F08AF800214DF2D4
:10290000193001F085F802214DF21A3001F080F8FB
:1029100001214DF21B3001F07BF802214DF21C30F9
:1029200001F076F834214DF21D3001F071F80221EA
:102930004DF21E3001F06CF867214DF21F3001F0AE
:1029400067F802214DF2203001F062F884214DF247
:10295000213001F05DF802214DF2223001F058F8EB
:10296000A4214DF2233001F053F802214DF224301E
:1029700001F04EF8B7214DF2253001F049F802215F
:102980004DF2263001F044F8CF214DF2273001F00E
:102990003FF802214DF2283001F03AF8DE214DF2E5
:1029A000293001F035F802214DF22A3001F030F8DB
:1029B000F2214DF22B3001F02BF802214DF22C3098
:1029C00001F026F8FE214DF22D3001F021F803210F
:1029D0004DF22E3001F01CF810214DF22F3001F095
:1029E00017F803214DF2303001F012F833214DF287
:1029F000313001F00DF803214DF2323001F008F8CA
:102A00006D214DF2333001F003F800214FF45440B2
:102A100000F0FEFF33214DF2014000F0F9FF0021EC
:102A20004DF2024000F0F4FF34214DF2034000F07B
:102A3000EFFF00214DF2044000F0EAFF3A214DF291
:102A4000054000F0E5FF00214DF2064000F0E0FFF8
:102A50004A214DF2074000F0DBFF00214DF2084013
:102A600000F0D6FF5C214DF2094000F0D1FF0021BB
:102A70004DF20A4000F0CCFF81214DF20B4000F0F6
:102A8000C7FF00214DF20C4000F0C2FFA6214DF21D
:102A90000D4000F0BDFF00214DF20E4000F0B8FFE8
:102AA000E5214DF20F4000F0B3FF01214DF210403F
:102AB00000F0AEFF13214DF2114000F0A9FF0121FB
:102AC0004DF2124000F0A4FF54214DF2134000F0EB
:102AD0009FFF01214DF2144000F09AFF82214DF238
:102AE000154000F095FF01214DF2164000F090FFD7
:102AF000CA214DF2174000F08BFF02214DF2184021
:102B000000F086FF00214DF2194000F081FF022104
:102B10004DF21A4000F07CFF01214DF21B4000F005
:102B200077FF00E003E302214DF21C4000F070FF4C
:102B300034214DF21D4000F06BFF02214DF21E408A
:102B400000F066FF67214DF21F4000F061FF022197
:102B50004DF2204000F05CFF84214DF2214000F056
:102B600057FF02214DF2224000F052FFA4214DF206
:102B7000234000F04DFF02214DF2244000F048FFB9
:102B8000B7214DF2254000F043FF02214DF22640CF
:102B900000F03EFFCF214DF2274000F039FF022127
:102BA0004DF2284000F034FFDE214DF2294000F0C4
:102BB0002FFF02214DF22A4000F02AFFF2214DF2B0
:102BC0002B4000F025FF02214DF22C4000F020FFA9
:102BD000FE214DF22D4000F01BFF03214DF22E404F
:102BE00000F016FF10214DF22F4000F011FF0321DD
:102BF0004DF2304000F00CFF33214DF2314000F037
:102C000007FF03214DF2324000F002FF6D214DF22B
:102C1000334000F0FDFE00214FF4554000F0F8FE77
:102C200033214DF2015000F0F3FE00214DF202502D
:102C300000F0EEFE34214DF2035000F0E9FE0021D9
:102C40004DF2045000F0E4FE3A214DF2055000F040
:102C5000DFFE00214DF2065000F0DAFE4A214DF26F
:102C6000075000F0D5FE00214DF2085000F0D0FED4
:102C70005C214DF2095000F0CBFE00214DF20A50CC
:102C800000F0C6FE81214DF20B5000F0C1FE002184
:102C90004DF20C5000F0BCFEA6214DF20D5000F09C
:102CA000B7FE00214DF20E5000F0B2FEE5214DF2CC
:102CB0000F5000F0ADFE01214DF2105000F0A8FEC3
:102CC00013214DF2115000F0A3FE01214DF21250DC
:102CD00000F09EFE54214DF2135000F099FE0121A8
:102CE0004DF2145000F094FE82214DF2155000F088
:102CF0008FFE01214DF2165000F08AFECA214DF2DE
:102D0000175000F085FE02214DF2185000F080FEB1
:102D100000214DF2195000F07BFE02214DF21A50B5
:102D200000F076FE01214DF21B5000F071FE0221F1
:102D30004DF21C5000F06CFE34214DF21D5000F09D
:102D400067FE02214DF21E5000F062FE67214DF237
:102D50001F5000F05DFE02214DF2205000F058FEA1
:102D600084214DF2215000F053FE02214DF22250F9
:102D700000F04EFEA4214DF2235000F049FE022146
:102D80004DF2245000F044FEB7214DF2255000F0E2
:102D90003FFE02214DF2265000F03AFECF214DF2C7
:102DA000275000F035FE02214DF2285000F030FE91
:102DB000DE214DF2295000F02BFE02214DF22A5067
:102DC00000F026FEF2214DF22B5000F021FE0221F0
:102DD0004DF22C5000F01CFEFE214DF22D5000F063
:102DE00017FE03214DF22E5000F012FE10214DF27D
:102DF0002F5000F00DFE03214DF2305000F008FE80
:102E000033214DF2315000F003FE03214DF23250D8
:102E100000F0FEFD6D214DF2335000F0F9FD002170
:102E20004FF4564000F0F4FD33214DF2016000F004
:102E3000EFFD00214DF2026000F0EAFD34214DF279
:102E4000036000F0E5FD00214DF2046000F0E0FDBC
:102E50003A214DF2056000F0DBFD00214DF20660E5
:102E600000F0D6FD4A214DF2076000F0D1FD0021AF
:102E70004DF2086000F0CCFD5C214DF2096000F0DD
:102E8000C7FD00214DF20A6000F0C2FD81214DF224
:102E90000B6000F0BDFD00214DF20C6000F0B8FDAC
:102EA000A6214DF20D6000F0B3FD00214DF20E6041
:102EB00000F0AEFDE5214DF20F6000F0A9FD01210B
:102EC0004DF2106000F0A4FD13214DF2116000F0EE
:102ED0009FFD01214DF2126000F09AFD54214DF248
:102EE000136000F095FD01214DF2146000F090FD9B
:102EF00082214DF2156000F08BFD01214DF216602C
:102F000000F086FDCA214DF2176000F081FD02211C
:102F10004DF2186000F07CFD00214DF2196000F0C8
:102F200077FD02214DF21A6000F072FD01214DF291
:102F30001B6000F06DFD02214DF21C6000F068FD89
:102F400034214DF21D6000F063FD02214DF21E6040
:102F500000F05EFD67214DF21F6000F059FD022177
:102F60004DF2206000F054FD84214DF2216000F00C
:102F70004FFD02214DF2226000F04AFDA4214DF2E6
:102F8000236000F045FD02214DF2246000F040FD79
:102F9000B7214DF2256000F03BFD02214DF2266085
:102FA00000F036FDCF214DF2276000F031FD022107
:102FB0004DF2286000F02CFDDE214DF2296000F07A
:102FC00027FD02214DF22A6000F022FDF2214DF290
:102FD0002B6000F01DFD02214DF22C6000F018FD69
:102FE000FE214DF22D6000F013FD03214DF22E6005
:102FF00000F00EFD10214DF22F6000F009FD0321BD
:103000004DF2306000F004FD33214DF2316000F0EC
:10301000FFFC03214DF2326000F0FAFC6D214DF20D
:10302000336000F0F5FC55214FF4704000F0F0FCE7
:10303000AA214FF2010000F0EBFC52214FF20200F6
:1030400000F0E6FC08214FF2030000F0E1FC002153
:103050004FF2040000F0DCFCCC214FF4314000F0D2
:10306000D7FC00214BF2011000F0D2FC05214FF4F7
:10307000364000F0CDFC70214FF4374000F0C8FC22
:1030800070214BF2017000F0C3FC01214FF4384075
:1030900000F0BEFC03214BF6010000F0B9FC032157
:1030A0004BF6020000F0B4FC03214BF6030000F0E5
:1030B000AFFC02214FF43C4000F0AAFC00214BF68B
:1030C000014000F0A5FC00214BF6024000F0A0FCFE
:1030D000D0214FF4494000F09BFC02214CF6011036
:1030E00000F096FC50214CF6021000F091FC5021AB
:1030F0004CF6031000F08CFC50214CF6041000F04C
:1031000087FC00214FF4545000F082FC55214FF40D
:10311000685000F07DFC4FF4885000F063FC78208C
:1031200001F054FE4FF4245000F05CFCBDE08648F2
:10313000808841F663118842F8D1E22000F052FC09
:103140001D2000F043FC022000F040FC042000F0B1
:103150003DFC642001F03AFEE02000F043FC012039
:1031600000F034FC0A2001F015FEE02000F03AFCEB
:10317000032000F02BFC0C2001F00CFE012000F0DD
:1031800031FC0A2001F006FEE62000F02BFC2F2087
:1031900000F01CFCFF2000F019FCFF2000F016FCE2
:1031A000B02000F01FFC202000F010FC002000F0F8
:1031B0000DFC032000F00AFC40F21F3000F006FC7A
:1031C000012000F003FC40F2DF1000F0FFFB0020C4
:1031D00000F0FCFBB42000F005FC042000F0F6FB3E
:1031E00040F21F4000F0F2FB002000F0EFFB2E2029
:1031F00000F0ECFB002000F0E9FB002000F0E6FB13
:10320000002000F0E3FB002000F0E0FBB62000F01F
:10321000E9FB022000F0DAFB4FF4037000F0D6FB6C
:10322000002000F0D3FB172000F0D0FB152000F0A9
:10323000CDFB002000F0CAFB002000F0C7FBF0200F
:1032400000F0D0FB032000F0C1FB292000F0CAFBF6
:10325000D02000F0C7FB002000F0B8FBBE2000F03B
:10326000C1FB052000F0B2FBFE2000F0AFFB012007
:1032700000F0ACFB002000F0A9FB002000F0A6FB52
:10328000002000F0A3FBB82000F0ACFB032000F00E
:103290009DFB012000F09AFBBA2000F0A3FB012067
:1032A00000F094FB642000F06BF82748808849F216
:1032B000413188421DD02448808847F28971884274
:1032C00017D02148808845F21031884211D01E481D
:1032D000808845F2105188420BD01B48808841F607
:1032E0006311884205D01848808847F28971884266
:1032F0001CD11648006820F00F004FF02041C1F8A3
:1033000004010846D0F8040120F47060C1F80401FB
:103310000846D0F8040140F00500C1F80401084651
:10332000D0F8040140F4A060C1F804010020FDF7CA
:10333000B1FA012220210648FDF770F94FF6FF701F
:10334000FDF784FA1CBD0000601F0220040100A0EC
:103350000004024010B50246012000E050430B1E5D
:10336000A1F10104E1B2F9D110BD000008B5034894
:1033700000880090BDF8000008BD00000000086053
:1033800000B50246BE2000F02DFB052000F01EFB1C
:1033900000EE102AB8EE400B9FED0B1B20EE010B48
:1033A000BCEEC00B10EE101A88B200F00FFB01202B
:1033B00000F00CFBFF2000F009FB002000F006FBF2
:1033C000002000F003FB00BD66666666666604408A
:1033D000F0B50546002400279C488079012805D1D6
:1033E0009A48808841F66311884208D197488079CD
:1033F000F0B99648808841F66311884218D1082DAB
:1034000015D2DFE805F00406080A0C0E1012062596
:103410000DE007250BE0042509E0052507E001255F
:1034200005E0002503E0032501E0022500BF00BF01
:103430008648808849F24131884217D08348808885
:1034400045F21031884211D08048808845F21051F1
:1034500088420BD07D48808841F66311884205D0B0
:103460007A48808847F2897188427DD1082D1CD224
:10347000DFE805F00406090C0F12151800BF14E070
:1034800044F0800411E044F040040EE044F0C00435
:103490000BE044F0200408E044F0600405E044F050
:1034A000A00402E044F0E00400BF00BF6748808849
:1034B00045F21051884202D14FF4585700E03627A8
:1034C0006248808845F2103188420DD05F4880887C
:1034D00045F21051884207D05C48808841F663115C
:1034E000884201D044F008042146384600F090FAA2
:1034F0005648808841F6631188421DD004F02000B0
:1035000068B15248008851494988884214DA4F48C6
:10351000068840884D490880084646800CE04B48A4
:1035200000884A494988884206DD4848068840881C
:1035300046490880084646804448808845F2105134
:10354000884254D14149488900F04CFA002000F0EB
:103550003DFA3E494989491C88B200F043FA0020EF
:1035600000F034FA394900E06FE04989891C88B2DB
:1035700000F038FA35490988491EC1F30F2000F0E0
:1035800025FA32494989C91C88B200F02BFA2F4923
:103590000978491EC8B200F019FA2C49888900F050
:1035A00021FA002000F012FA28498989491C88B2C2
:1035B00000F018FA002000F009FA24498989891CD2
:1035C00088B200F00FFA21494988491EC1F30F2043
:1035D00000F0FCF91D498989C91C88B200F002FA83
:1035E0001A498978491EC8B200F0F0F92DE0174950
:1035F000488900F0F7F9002000F0E8F9002000F019
:10360000E5F912490988491EC1F30F2000F0DEF9DF
:103610000E490978491EC8B200F0D8F90B498889CB
:1036200000F0E0F9002000F0D1F9002000F0CEF920
:1036300006494988491EC1F30F2000F0C7F9034924
:103640008978491EC8B200F0C1F9F0BD601F0220A0
:1036500010B502460C464E48808849F241318842F6
:103660000BD04B48808845F21031884205D048483D
:10367000808847F28971884214D14549488900F011
:10368000B1F9101200F0A2F9D0B200F09FF9404950
:10369000888900F0A7F9201200F098F9E0B200F054
:1036A00095F973E03A48808841F66311884247D122
:1036B00037488079A8B936480088401E801A82B2FF
:1036C0003349488900F08EF9002000F07FF900208E
:1036D00000F07CF9101200F079F9D0B200F076F920
:1036E00016E02B49488900F07DF9101200F06EF9C0
:1036F000D0B200F06BF926490988491EC1F30F20AA
:1037000000F064F922490978491EC8B200F05EF958
:103710001F49888900F066F9201200F057F9E0B2DD
:1037200000F054F91A494988491EC1F30F2000F0EE
:103730004DF917498978491EC8B200F047F925E0CC
:103740001348808845F2105188421FD1104948899A
:1037500000F048F9101200F039F90D494989491C67
:1037600088B200F03FF9D0B200F030F908498889FA
:1037700000F038F9201200F029F905498989491C1F
:1037800088B200F02FF9E0B200F020F910BD00007F
:10379000601F02202DE9F84F80460F4616461C4652
:1037A000BB462046E31704EB5373DB1021464FEA78
:1037B000E47C04EB5C7C4FEAEC0CA4EBCC0CBCF19D
:1037C000000F02D04FF0010C01E04FF0000C6344F9
:1037D000224604EBD27C4FEA6C0C03FB0CF3DBB209
:1037E0000093A6F12000C6B200255EE00C2C07D1A4
:1037F00006EB46002F4901EB800010F805901BE016
:10380000102C05D12C4800EB061010F8059013E0A1
:10381000182C07D106EBC600284901EB800010F8F0
:10382000059009E0202C05D1254800EBC61010F8C2
:10383000059001E0BDE8F88F4FF0000A2FE009F095
:10384000800030B11F48394602684046FDF7EEF867
:1038500007E00A9828B91C48394602684046FDF737
:10386000E5F84FEA49604FEA1069781C87B21748BB
:103870004088B84200DCDDE7A7EB0B00A0420AD18C
:103880005F4608F101001FFA80F8104800884045A3
:1038900000DCCFE706E00AF1010000F0FF0ABAF110
:1038A000080FCCDB00BF681CC5B2009885429DDBC9
:1038B00000BFBFE70352000877560008675C0008A6
:1038C000C36900080C00022010000220601F0220C3
:1038D0002DE9FF4F81B0074691461E460E9D4FF0E1
:1038E000000A002439E0301B401EC1B20A20FFF755
:1038F00031FDB9FBF0F00A21B0FBF1F201FB120837
:10390000BAF1000F16D1701EA04213DDB8F1000FFE
:103910000ED10020AB4605EBDB71491001FB0471B1
:10392000009088B22B4620220299FFF733FF12E065
:103930004FF0010A0020AB4605EBDB71491001FB9B
:103940000471009088B208F13001CAB22B46029986
:10395000FFF720FF00BF601CC4B2B442C3DB05B058
:10396000BDE8F08F2DE9F84F04460D469046994684
:10397000DDE90A6704F0FF0A08EB04001FFA80F88B
:1039800009EB05001FFA80F916E0444502DB5446B6
:10399000A81985B24D4500DB14E0002000903A786C
:1039A000334629462046FFF7F5FE304606EBD07138
:1039B00004EB61018CB27F1C38787E2802DC3878F9
:1039C0002028E2DA00BFBDE8F88F000001B5BDF89D
:1039D00000000090BDF800000149088008BD00000B
:1039E0000000086001B5BDF800000090BDF80000BF
:1039F0000149088008BD0000FEFF076002480089F9
:103A00000249088070470000601F0220FEFF076027
:103A1000024A1080921C118070470000FEFF076070
:103A20001CB50D48006840F002000B4908600120F9
:103A3000032100230246CDE900100848FCF7F6FDFB
:103A4000012202210548FCF7E9FD01221146034845
:103A5000FCF7E4FD1CBD00003038024000040240C9
:103A600018B5044606480094008B401E83B20448F3
:103A7000C08A401E82B20021084600F08DF818BDB1
:103A8000701F0220F0B503460C46154600210020A9
:103A90000022214E366826F080561F4F3E6001E01E
:103AA0004E1CB1B21C4E366806F000561EB141F6EF
:103AB000FF76B142F4DB41F6FF76B14201D101203D
:103AC00029E042EA831242EA0472134E88363260D9
:103AD000361D366826F440360F4F8C373E603E4622
:103AE000366846EA05463E600B4E366846F080561C
:103AF000094F3E6001E04E1CB1B2074E366806F039
:103B000000561EB941F6FF76B142F4DB41F6FF766E
:103B1000B14200D10220F0BD003802400949487589
:103B200030B98988074AD18211460988118308E093
:103B3000012806D103490988024AD18211468988A1
:103B400011837047701F022070B5114B5B7D6BB104
:103B50000F4BDB690E4D2D6805FB01056B430C4DCA
:103B60002D7D0C4E56F82550EA520FE0084B1D688B
:103B70005B681B1A5B1E05FB0313054DED696B4368
:103B8000034D2D7D034E56F82550EA5270BD0000BE
:103B9000701F0220140002202DE9F04F04460D464C
:103BA00016464FF0000CDFF8289199F81590B9F1FE
:103BB000000F04D02046294632461F4611E0284611
:103BC000DFF80C91D9F80490A9EB0609A9F10101DD
:103BD0001A46DFF8FC90D9F80490A9EB0409A9F182
:103BE0000107DFF8EC90B9F80090A2EB000A0AF1A7
:103BF000010AA9EB0A091FFA89F8DFF8D49099F8AD
:103C00001490DFF8D0A05AF82990DFF8C4A0DAF8B1
:103C10001CA0DFF8BCB0DBF800B00BFB010B0AFB0B
:103C20000B9EDFF8B490D9F8009049F40009DFF852
:103C3000A8A0CAF80090DFF8A490D9F8009029F065
:103C40000109DFF898A0CAF800904FF44039CAF88B
:103C500000904FF00209CAF83490D146C9F840806C
:103C6000C9F83CE0A7EB010909F10109A2EB000A40
:103C70000AF1010A49EA0A49DFF860A0CAF844904B
:103C8000DDF82490CAF83890D146D9F8009049F070
:103C90000109CAF8009005E00CF1010CBCF5001F09
:103CA00000D308E0DFF83490D9F8049009F0020955
:103CB000B9F1000FF0D000BFDFF82090D9F80890DC
:103CC00049F00209DFF814A0CAF80890BDE8F08FA7
:103CD000701F0220140002203038024000B0024061
:103CE0007FB50024002500F00BFB054605B97FBD1C
:103CF00000F0E2FEEF48006840F08060ED490860A7
:103D0000EC481438006840F00200EA4914390860B1
:103D10000846006840F4F07008600120022100238A
:103D20000246CDE900102021E348FCF77FFC01208A
:103D3000032100230222CDE900108102DF48FCF7B5
:103D400075FC0120032100230222CDE900104FF46D
:103D50000C61DB48FCF76AFC0120032100230222EE
:103D6000CDE900104FF47E41D648FCF75FFC0120FE
:103D7000032100230222CDE9001040F2F761D2486E
:103D8000FCF754FC0E220A21CC48FCF71FFC0E2243
:103D90000621CB48FCF71AFC0E220721C848FCF785
:103DA00015FC0E220B21C648FCF710FC0E2209213F
:103DB000C448FCF70BFC0E220A21C248FCF706FCA3
:103DC0000E220B21BF48FCF701FC0E220C21BD483E
:103DD000FCF7FCFB0E220D21BA48FCF7F7FB0E2284
:103DE0001146B848FCF7F2FB0E220F21B548FCF74C
:103DF000EDFB0E220021B448FCF7E8FB0E22012166
:103E0000B148FCF7E3FB0E220221AF48FCF7DEFBD2
:103E10000E220421AC48FCF7D9FB0E220521AA484A
:103E2000FCF7D4FB0E220621A748FCF7CFFB0E229D
:103E30000721A548FCF7CAFB0E220921A248FCF77E
:103E4000C5FB0E220A21A048FCF7C0FB44F2423019
:103E5000854218D14FF4F0709C4908604FF4887087
:103E60004860012008814881282088810820C88175
:103E70000520088208204882022204214FF4907015
:103E8000FFF700FE7EE047F28400854218D14FF430
:103E900048708E4908604FF4F07048600120088136
:103EA00048812E2088811720C881D22008821620C0
:103EB0004882012203214FF4C670FFF7E3FD61E061
:103EC00047F21600854219D14FF480607F4908609F
:103ED0004FF41670486014200881032048818C201C
:103EE00088811420C881A02008820C2048820122E9
:103EF00002214FF4B470FFF7C5FD43E047F218000C
:103F0000854207D14FF4A060704908604FF44870B3
:103F1000486037E044F28430854219D14FF448704C
:103F20006A4908604FF4F070486058208881282062
:103F30000882302008812020C8810D20488203207B
:103F40004881012203214FF4C670FFF79BFD19E061
:103F500041F21800854215D14FF4A0605B4908601A
:103F60004FF4487048608C2088810A2008820881BC
:103F7000C881488203204881002203214FF49670B3
:103F8000FFF780FD002441F21800854201D14FF077
:103F9000805400BF00BF00BF4D4804604B484089BB
:103FA000441E4A480089401E44EA004448481038EC
:103FB0000460464840894549C9890844441E43482D
:103FC0000089424989890844401E44EA0044404827
:103FD0000C3804603D4840893C49C98908443B4944
:103FE00049680844441E3948008938498989084489
:103FF000364909880844401E44EA004434480838D9
:104000000460324840893149C98908442F494968C8
:1040100008442E49498A0844441E2C4800892B49EB
:10402000898908442949098808442849098A084493
:10403000401E44EA00442648001F04600020244932
:1040400014310860012000F0B5F9224822490860C7
:1040500002201E49C861002007210622CDE9000286
:10406000CDE902101C48FF2302220168002000F065
:1040700037F81648808880B200901448008883B2D0
:1040800000221146104600F09FF81048008813499E
:1040900008800E4880884880002000F085F90122C1
:1040A00020210548FCF7BAFA4FF0FF30FFF7D8FCA3
:1040B00000BF1CE6443802400004024000140240E5
:1040C00000180240001C024000200240701F022025
:1040D00018680140000000C014000220601F022088
:1040E0002DE9F04106ACF0CCE0B9DFF878C0CCF8AF
:1040F0000010DFF870C0ACF1180CCCF800200CF107
:10410000040CCCF8003047EA046CDFF85880A8F1C2
:104110001008C8F800C046EA052C08F10408C8F8E1
:1041200000C01DE0DFF83CC00CF1800CCCF80010A2
:10413000DFF830C00CF1680CCCF800200CF1040C56
:10414000CCF8003047EA046CDFF8188008F17008FA
:10415000C8F800C046EA052C08F10408C8F800C0F9
:10416000BDE8F081AC680140012910D130B9154A91
:10417000126842F00102134B1A6019E0114A8032B2
:10418000126842F001020F4B80331A6010E079B9D7
:1041900030B90C4A126822F001020A4B1A6007E09B
:1041A000084A8032126822F00102064B80331A60FE
:1041B000044A603A126842F00102024B603B1A6006
:1041C00070470000846801402DE9F04782460F46A1
:1041D00090461E46DDF820900025BAF1000F43D12D
:1041E000B81945490968C1F30B4108440404424821
:1041F0000068C0F30B403844401C20433E497C31EA
:10420000086008EB09003C490968C1F30A01084449
:10421000040439480068C0F30A004044401C2043AD
:1042200035498031086034488830006800F007055F
:104230000DB904240AE0012D01D1032406E0052D67
:1042400001D0062D01D1012400E0022406FB04F078
:10425000C01C06FB04F140EA01402749A431086074
:10426000081DC0F8009041E0B81923490968C1F35E
:104270000B410844040420480068C0F30B40384454
:10428000401C20431C49FC31086008EB09001A4916
:104290000968C1F30A010844040417480068C0F320
:1042A0000A004044401C2043144908601348083069
:1042B000006800F007050DB904240AE0012D01D1C2
:1042C000032406E0052D01D0062D01D1012400E0D4
:1042D000022406FB04F0C01C06FB04F140EA014086
:1042E000064924310860081DC0F80090012150469D
:1042F000FFF73AFFBDE8F0870C6801400C69014008
:104300001CB500242548006840F4A07023490860CB
:10431000012000210B460A46CDE90010402120482B
:10432000FCF784F9012000210B460A46CDE9001074
:1043300084211C48FCF77AF9322000F02BFD402143
:104340001748FCF763F9044604211648FCF75EF9A8
:1043500044EA4000C4B280211248FCF757F944EA0D
:104360008000C4B2062C16D2DFE804F00306090C64
:104370000F1244F242301CBD47F28400FBE747F2C3
:104380001600F8E747F21800F5E744F28430F2E748
:1043900041F21800EFE70020EDE70000303802405E
:1043A00000180240002002400149087570470000D3
:1043B000701F0220012806D10749096841F0010158
:1043C000054A116006E028B90349096821F0010196
:1043D000014A116070470000186801400146002042
:1043E00002E04908421CD0B20129FAD1704700000E
:1043F0000748006820F480300549086004487030A0
:10440000006820F001000249703108607047000028
:1044100024ED00E005200549086004487038006874
:1044200040F48030014970390860704794ED00E035
:104430000EB5002000900190032302464FF08061EA
:104440000290580700F022F801200022CDE9002058
:1044500003230246C1040290400700F017F8012030
:104460000022CDE900200323022241060290980792
:1044700000F00CF800200090019003231A464FF042
:1044800080510290C80000F001F80EBD2DE9F04FF8
:1044900005460C4616461F46DDE90A9ADDF82480DB
:1044A00000239B4604F01F0000B914B90120BDE8A9
:1044B000F08F2046FFF792FF401E00F0FF0BFFF742
:1044C00097FF0C480660001D056000BF43EA0763C4
:1044D00000BF43EA884343EA494343EA0A4300BF33
:1044E00043EA4B0343F00103001D0360FFF792FF13
:1044F0000020DCE798ED00E02DE9F0410C46154680
:10450000069E444FB84209D93946434F3F6847F4A5
:104510008007DFF804C1CCF8007008E03F493E4F47
:104520003F6847F40017DFF8F0C0CCF8007000BF18
:10453000076807F00107002FFAD1471A103F4FF024
:10454000180CB7FBFCF7FAB2062A10DBCF68A2F111
:10455000060C0CEB4C0C4FEA4C0C0CF1100C4FF011
:104560003D0808FA0CF847EA0807CF602FE0042A54
:104570000EDBCF68A2F1040C0CEB4C0C4FEA4C089C
:104580004FF03D0C0CFA08FC47EA0C07CF601EE028
:10459000022A10DB8F68A2F1020C0CEB4C0C4FEAE4
:1045A0004C0C0CF1100C4FF03D0808FA0CF847EADF
:1045B00008078F600BE08F6802EB420C4FEA4C0853
:1045C0004FF03D0C0CFA08FC47EA0C078F60856041
:1045D000C360466000270760076847F04007076030
:1045E0000768076007680760076847F48067076027
:1045F0000768076007680760076847F48037076047
:104600000768076007680760076847EA446707604C
:10461000BDE8F08100640240303802400060024092
:10462000026822F00102026000BF026802F001028B
:10463000002AFAD14160026842F00102026070472C
:104640002DE9F0410746884614461D46284600F0ED
:1046500033F8C5F1040007FA00F60F20284100EAFC
:104660000800064306F00F06E21704EBD26252116F
:10467000920002F1E022D2F800212146E31704EB78
:10468000D3635B11A4EB431C012303FA0CF31A431D
:104690002046E31704EBD3635B119B0003F1E02397
:1046A000C3F800210348005D40EA0610014908559F
:1046B000BDE8F08100E400E00146072323EA01029F
:1046C0001202054B18684FF6FF031840034B1843BE
:1046D0001043014B186070470CED00E00000FA0534
:1046E0004A0A52020243014B1A60704708ED00E08B
:1046F00010B5002201210A48FBF790FF09A0FBF743
:10470000FFFD4FF47A7000F045FB0CA0FBF7F8FDBD
:104710004FF47A7000F03EFB00F0D6FA10BD0000B6
:10472000000402404D656D2041636365737320454D
:1047300072726F7221210D0A00000000536F6674BF
:10474000205265736574696E672E2E2E0D0A000067
:1047500010B50023234C236000BF00BF00BFBFF390
:104760004F8F00BF00BF00BF231F1868C0F34E313A
:1047700000BFC0F3C90200BF43F6E07303EA411370
:104780004FF0404404EA82742343174C236000BF77
:1047900000BF131EA2F10102EED10B1EA1F1010117
:1047A000E7D100BF00BF00BFBFF34F8F00BF00BF06
:1047B00000BF0C4B703B1B6843F48033094C703CCA
:1047C000236000BF00BF00BFBFF34F8F00BF00BF1B
:1047D00000BF00BF00BF00BFBFF36F8F00BF00BFAF
:1047E00000BF10BD84ED00E060EF00E07CB5002468
:1047F00000250026A948006840F00100A74908608C
:10480000A6480838006840F07C00A44908390860D0
:104810000120032100230222CDE900100D21A04830
:10482000FBF704FF0120032100230222CDE9001041
:104830004CF203719B48FBF7F9FE01200321002392
:104840000222CDE900104FF683719748FBF7EEFE88
:104850000120032100230222CDE900104FF63F0181
:104860009248FBF7E3FE0120032100230222CDE959
:10487000001048F237118E48FBF7D8FE0C220021B9
:104880008748FBF7A3FE0C2202218548FBF79EFE1A
:104890000C2203218248FBF799FE0C22002181485B
:1048A000FBF794FE0C2201217E48FBF78FFE0C22C1
:1048B00008217C48FBF78AFE0C2209217948FBF786
:1048C00085FE0C220A217748FBF780FE0C220E2180
:1048D0007448FBF77BFE0C220F217248FBF776FE33
:1048E0000C2200217048FBF771FE0C2201216E485A
:1048F000FBF76CFE0C2207216B48FBF767FE0C22CE
:1049000008216948FBF762FE0C2209216648FBF783
:104910005DFE0C220A216448FBF758FE0C220B2195
:104920006148FBF753FE0C2211465F48FBF74EFE31
:104930000C220D215C48FBF749FE0C220E215A483F
:10494000FBF744FE0C220F215748FBF73FFE0C22D9
:1049500000215648FBF73AFE0C2201215348FBF791
:1049600035FE0C2202215148FBF730FE0C220321B8
:104970004E48FBF72BFE0C2204214C48FBF726FE89
:104980000C2205214948FBF721FE0C220B21474848
:10499000FBF71CFE0C2211464448FBF717FE0C22C5
:1049A0000D214248FBF712FE0C220E213F48FBF777
:1049B0000DFE0C220F213D48FBF708FE0C220021C2
:1049C0003B48FBF703FE0C2201213948FBF7FEFDB3
:1049D0000C2202213648FBF7F9FD0C220421344851
:1049E000FBF7F4FD0C2205213148FBF7EFFD0C220B
:1049F00008212F48FBF7EAFD0C220F212C48FBF77A
:104A0000E5FD44F0010444F0080444F0100444F0CF
:104A1000400444F4C07400BF44F4006444F480547F
:104A200000BF2448046045F0010545F0700545F4D9
:104A3000C06545F4C04545F4803545F4801545F022
:104A40008075C005C0F8485100231A460121184658
:104A500000F054F84FF4FA7000F0B8F900231A4649
:104A60000221184600F04AF80023082203211846C4
:104A700000F044F846F0030600BF46F0300600BFE1
:104A800046F40076334600220421104600F036F842
:104A90004FF4CE600749143108607CBD38380240BD
:104AA00000080240000C02400010024000140240C6
:104AB00000180240400100A010B500240E48006814
:104AC00020F4C0704FF02041C1F840010846D0F8F2
:104AD000400140F48070C1F8400144F0030400BF7D
:104AE00044F0200400BF44F4007423460022042153
:104AF000104600F003F810BD400100A0F0B50446D8
:104B00000D46002600212943C4F104070120B840C6
:104B1000014341EA421141EA43210948016005E0AD
:104B2000761CB6F5001F01D30120F0BD0448083003
:104B3000006800F020000028F2D100BFF5E7000077
:104B4000500100A02DE9F04104460D4616461F46CF
:104B50001548006840F00100134908600020124920
:104B60000831086010480068104908400E49086084
:104B70000F48091D0860081F006820F48020091FE5
:104B80000860002008490C310860FBF7E3FC3B4655
:104B900032462946204600F00DF800214FF0006013
:104BA000FFF79EFDBDE8F08100380240FFFFF6FEF2
:104BB00010300024F0B504460D46002100203F4E81
:104BC000366846F480363D4F3E6001E04E1CB1B27F
:104BD0003A4E366806F400361EB941F6FF76B14209
:104BE000F4DB41F6FF76B14201D1012065E0334E9E
:104BF0004036366846F08056304F40373E60304E83
:104C0000366846F440462E4F3E603E46366846F4CF
:104C100080363E603E46366846F400363E60274E9B
:104C20000836366846F41446244F08373E60234E53
:104C3000366826F08076214F3E6045EA84160127CB
:104C4000C7EB520746EA074646EA036646F4800683
:104C50001A4F3F1D3E603E1F366846F080763F1F6C
:104C60003E6000BF154E366806F00076002EF9D083
:104C7000144E366846F48076124F3E603E463668E3
:104C800046F400763E603E46366846F007063E60D3
:104C90000A4E0836366826F00306084F08373E608D
:104CA0003E46366846F002063E6000BF034E0836B8
:104CB000366806F00C06082EF8D1F0BD0038024028
:104CC00000700040003C0240014802490860704703
:104CD0000400FA050CED00E01C49C96901F020014F
:104CE00009B31A49496AC8B21949098801F400414F
:104CF000C9B91749098801F4804161B10A2803D074
:104D00000021134A118020E01149098841F4004133
:104D10000F4A118019E00D2806D10D49098841F488
:104D200080410B4A118010E009490988C1F30D0147
:104D3000084A505406490988491C054A1180114601
:104D40000988C72901DD002111807047001001404A
:104D500008000220981E022000BF70474FF0E0219B
:104D6000096921F004014FF0E0221161C21700EB44
:104D70005272C2F3C702054B1A704FF47A71414365
:104D8000C1F3CF01024A11807047000000000220E9
:104D90000200022070B504464FF4077094FBF0F057
:104DA000C6B24FF4077094FBF0F100FB114085B2DE
:104DB00005E04FF4077000F027F8701EC6B2002E11
:104DC000F7D115B1284600F01FF870BD01460D4A15
:104DD00012784A434FF0E0235A6100229A6101227F
:104DE0001A6100BF4FF0E022106900F001021AB111
:104DF00000F48032002AF5D000224FF0E0231A613F
:104E00009A6170470000022001460D4A12884A4309
:104E10004FF0E0235A6100229A6101221A6100BF1B
:104E20004FF0E022106900F001021AB100F4803264
:104E3000002AF5D000224FF0E0231A619A617047F2
:104E40000200022000BF054AD26902F04002002A97
:104E5000F9D0C2B2014B9A627047000000100140C5
:104E60002DED028B82B00127002500269FED800AE0
:104E7000B0EE408A0923022219214FF4D870FFF7BF
:104E800061FED820FFF76AFF4FF4E1316C2000F09B
:104E900043F9FEF7C5FDFFF7CBFAFFF7A7FCFBF7D9
:104EA0005DFEFBF733FC41F67860724B724A0421D9
:104EB00000907248FFF720FB4FF47840704908607B
:104EC00070A010210B46C822CDE9001032211E200F
:104ED000FEF748FD70A010210B46C822CDE9001056
:104EE00046211E20FEF73EFD6EA010210B46C82273
:104EF000CDE900105A211E20FEF734FD6DA01021CF
:104F00000B46C822CDE900106E211E20FEF72AFDB7
:104F10006BA010210B46C822CDE9001082211E2073
:104F2000FEF720FD1F20564908604FF02508002499
:104F300016E045450BDB26B10A204E4908550025F1
:104F40000CE00D204B490855701CC6B206E0002647
:104F50005E48405D47490855681CC5B2601C84B274
:104F600041F678608442E4DB1F2045490860002454
:104F70007DE00020FBF702FC0546012D67D154A01F
:104F8000FBF7BEF956A010210B46C822CDE9001050
:104F900096211E20FEF7E6FC56A010210B46C822E3
:104FA000CDE90010AA211E20FEF7DCFC802032494A
:104FB0002839886041F678613048FFF731FB32E0EC
:104FC0002E48B438006800F0006040B12B48AC387F
:104FD000006840F000602949AC39086024E02748A7
:104FE000001D006800EE100AB8EE400AB0EE408ADC
:104FF000DFED410A88EE200AF7EE000A30EEC00A23
:10500000B0EE408A9FED3D0A28EE000AB0EE408ADD
:1050100010200323BCEEC80A10EE102AAA2100902B
:105020001E20FEF755FCCBE700BF102003236422AF
:10503000AA2100901E20FEF74BFC31A010210B4648
:10504000C822CDE9001096211E20FEF78BFC601CC3
:1050500084B20A20FFF79EFE142C08D187F00100CD
:105060000746024602212B48FBF7D8FA002480E7C6
:10507000000000002000022028100140B864024017
:105080000C00022041706F6C6C6F2053544D333212
:1050900046342F4637000000444D412054455354B8
:1050A0000000000041544F4D40414C49454E54458D
:1050B0004B000000323032322F382F390000000010
:1050C0004B4559303A20537461727400DE51000828
:1050D0000D0A444D4120444154413A0D0A0000005C
:1050E0005374617274205472616E73696D69742EA9
:1050F0002E2E2E002020250000C0F3450000C842BF
:105100005472616E73696D69742046696E69736863
:1051100065642100000402407CB505460C46294820
:10512000684300EB5400B0FBF4F62748006840F0F9
:1051300001002549086024481430006840F0100040
:105140002149143108600120022100230A46CDE9DB
:1051500000104FF4C0611D48FBF768FA07220921CF
:105160001A48FBF733FA07220A211848FBF72EFAF0
:105170001748C660002016490860084600680860A5
:10518000084600680860084600680860084600682D
:1051900040F0080008600846006840F0040008601D
:1051A0000846006840F02000086002232522032101
:1051B0000846FFF745FA0648006840F00100044938
:1051C00008607CBD40420F003038024000000240C1
:1051D000001001404FF04070E1EE100A7047414C62
:1051E00049454E54454B2041706F6C6C6F205354B1
:1051F0004D3332463720444D4120B4AEBFDACAB5F4
:10520000D1E90000000000000000000000000000E4
:105210000000003F4000000000000000003000409F
:105220000030004000000009000BC03D000BC03DF5
:1052300000090018C024407FE0224031800000189F
:105240000024C01B000D803240018003801C4027D9
:10525000401C80074000401000600000000000007B
:105260000000000000000000001F802040402000DF
:1052700000402020401F8000000000090006001FA1
:1052800080060009000000040004003F80040004C0
:10529000000000001000600000000000000000049A
:1052A00000040004000400040000000000004000AE
:1052B00000000000000000002001C006003800408F
:1052C0000000001F802040204020401F8000000080
:1052D0000010403FC000400000000018C0214022E4
:1052E0004024401840000010802040244024401BEF
:1052F00080000002000D0011003FC0014000003C92
:1053000080244024402440238000001F8024402427
:10531000403440038000003000200027C0380020C7
:105320000000001B802440244024401B8000001CFF
:105330000022C0224022401F800000000000000820
:1053400040000000000000000000000460000000B9
:10535000000000000004000A001100208040400905
:105360000009000900090009000000000040402079
:105370008011000A000400180020002340240018B7
:105380000000001F802040274029401F40000000EF
:105390004007C039000F0001C0004020403FC0243A
:1053A0004024401B8000001F8020402040204030CF
:1053B00080000020403FC0204020401F800000208F
:1053C000403FC024402E4030C0000020403FC02459
:1053D000402E00300000000F00108020402240339B
:1053E00080020020403FC0040004003FC020402055
:1053F0004020403FC020402040000000602020208E
:10540000203FC02000200020403FC024400B00303F
:10541000C0204020403FC020400040004000C03F2E
:10542000C03C0003C03C003FC0000020403FC00C17
:105430004023003FC020001F802040204020401F0C
:1054400080000020403FC024402400180000001FBE
:10545000802140214020E01FA0000020403FC024C8
:1054600040260019C0004018C0244024402240318A
:10547000800000300020403FC0204030000000206D
:10548000003F80004000403F80200020003E00019F
:10549000C0070038002000380007C03C0007C038B3
:1054A000000000204039C0060039C0204000002024
:1054B00000384007C0384020000000304021C0269E
:1054C00040384020C00000000000007FE040204045
:1054D000200000000070000C00038000400000006D
:1054E00000402040207FE00000000000002000403D
:1054F000002000000000000010001000100010004C
:10550000100010000000004000000000000000003B
:105510000002800540054003C0004020003FC00459
:105520004004400380000000000380044004400663
:1055300040000000000380044024403FC0004000C1
:105540000003800540054003400000000004401FA8
:10555000C0244024402000000002E0055005500611
:1055600050042020403FC00440040003C00040001D
:1055700000044027C000400000000000100010049C
:105580001027E00000000020403FC0014007000459
:10559000C00440204020403FC000400040000007C1
:1055A000C0040007C0040003C00000044007C0049A
:1055B00040040003C0004000000380044004400396
:1055C000800000041007F004500440038000000035
:1055D0000003800440045007F00010044007C0029C
:1055E000400400040000000000064005400540049F
:1055F000C00000000004001F8004400040000004C0
:105600000007800040044007C00040040007000479
:10561000C0018006000400060001C0070001C006AA
:10562000000000044006C0010006C0044000000461
:1056300010071004E001800600040000000440058B
:10564000C00640044000000000000004007BE04071
:10565000200000000000000000FFF000000000003B
:105660000040207BE004000000000040008000407B
:1056700000200020004000000000000000000000AA
:10568000000000000000000000000000001FCC002F
:105690000C0000000000000000080030006000085E
:1056A00000300060000000022003FC1E20022003E6
:1056B000FC1E200220000000000E1811043FFF1005
:1056C000840C78000000000F0010840F3800C00721
:1056D0007818840078000000780F8410C411240E1C
:1056E0009800E400840008080068007000000000D2
:1056F0000000000000000000000000000007E018AB
:10570000182004400200000000400220041818077E
:10571000E00000000000000240024001800FF001A4
:10572000800240024000000080008000800FF800EE
:10573000800080008000000001000D000E000000CD
:1057400000000000000000000000800080008000D9
:10575000800080008000800000000C000C00000031
:1057600000000000000000000000060018006001BA
:1057700080060018002000000007F0080810041040
:1057800004080807F000000000080408041FFC00DB
:105790000400040000000000000E0C10141024107F
:1057A0004411840E0C000000000C181004110411A8
:1057B0000412880C700000000000E003200424089C
:1057C000241FFC0024000000001F98108411041105
:1057D00004108810700000000007F0088811041100
:1057E0000418880070000000001C00100010FC135A
:1057F000001C001000000000000E3811441084103E
:105800008411440E38000000000700088C1044107A
:1058100044088807F00000000000000000030C03AB
:105820000C00000000000000000000000101060064
:105830000000000000000000000080014002200481
:10584000100808100400000220022002200220029A
:1058500020022002200000000010040808041002AA
:105860002001400080000000000E001200100C100B
:105870006C10800F00000003E00C1813E4142417D0
:10588000C4082807D000000004003C03C41C4007E3
:105890004000E4001C000410041FFC11041104115A
:1058A000040E880070000003E00C181004100410AF
:1058B0000410081C10000010041FFC100410041039
:1058C00004080807F0000010041FFC11041104175D
:1058D000C410040818000010041FFC110411001764
:1058E000C010000800000003E00C181004100410A1
:1058F000441C780040000010041FFC10840080004D
:105900008010841FFC10040000100410041FFC1001
:105910000410040000000000030001100110011F2A
:10592000FE10001000000010041FFC11040380147E
:1059300064181C1004000010041FFC100400040074
:10594000040004000C000010041FFC1F0000FC1FDA
:10595000001FFC1004000010041FFC0C04030000D6
:10596000E010181FFC100007F008081004100410C5
:1059700004080807F0000010041FFC1084108010B9
:105980008010800F00000007F00818102410241069
:105990001C080A07F2000010041FFC11041100117A
:1059A000C011300E0C000400000E1C1104108410F5
:1059B0008410441C3800001800100010041FFC1054
:1059C0000410001800000010001FF810040004006C
:1059D0000410041FF8100010001E0011E0001C004D
:1059E0007013801C0010001FC0103C00E01F00005E
:1059F000E0103C1FC000001004180C163401C00158
:105A0000C01634180C100410001C00130400FC1302
:105A1000041C00100000000804101C106410841303
:105A2000041C04101800000000000000007FFE406D
:105A300002400240020000000030000C0003800021
:105A400060001C0003000000004002400240027F92
:105A5000FE000000000000000000002000400040A8
:105A600000400020000000000100010001000100D2
:105A70000100010001000100004000400020000082
:105A80000000000000000000000098012401440113
:105A900044014400FC000410001FFC0088010401C4
:105AA00004008800700000000000700088010401FC
:105AB0000401040088000000000070008801040157
:105AC0000411081FFC0004000000F8014401440117
:105AD00044014400C800000000010401040FFC114F
