:020000040800F2
:10000000C807002099020008FF1A0008571A0008C4
:10001000FD1A0008210500087122000800000000F8
:10002000000000000000000000000000031B0008AA
:100030002305000800000000011B0008051B000844
:10004000B3020008B3020008B3020008B3020008BC
:10005000B3020008B3020008B3020008B3020008AC
:10006000B3020008B3020008B3020008B30200089C
:10007000B3020008B3020008B3020008B30200088C
:10008000B3020008B3020008B3020008B30200087C
:10009000B3020008B3020008B3020008B30200086C
:1000A000B3020008B3020008B3020008B30200085C
:1000B000B3020008B3020008B3020008B30200084C
:1000C000B3020008B3020008B3020008B30200083C
:1000D000B30200082D220008B3020008B302000892
:1000E000B3020008B3020008B3020008B30200081C
:1000F000B3020008B3020008B3020008B30200080C
:10010000B3020008B3020008B3020008B3020008FB
:10011000B3020008B3020008B3020008B3020008EB
:10012000B3020008B3020008B3020008B3020008DB
:10013000B3020008B3020008B3020008B3020008CB
:10014000B3020008B3020008B3020008B3020008BB
:10015000B3020008B3020008B3020008B3020008AB
:10016000B3020008B3020008B3020008B30200089B
:10017000B3020008B3020008B30200080000000048
:10018000B3020008B3020008B3020008B30200087B
:10019000B3020008B3020008B3020008B30200086B
:1001A000B3020008B3020008B3020008B30200085B
:1001B000B3020008B3020008B3020008B30200084B
:1001C000B3020008B302000800000000B3020008F8
:1001D000B3020008B3020008B3020008B30200082B
:1001E000B3020008B3020008B3020008B30200081B
:1001F000B3020008B302000800F002F800F03CF877
:100200000AA090E8000C82448344AAF10107DA4571
:1002100001D100F031F8AFF2090EBAE80F0013F087
:10022000010F18BFFB1A43F0010318471422000006
:1002300034220000103A24BF78C878C1FAD8520797
:1002400024BF30C830C144BF04680C607047000050
:100250000023002400250026103A28BF78C1FBD8CF
:10026000520728BF30C148BF0B6070471FB502F06E
:10027000D5F81FBD10B510BD00F00CF91146FFF701
:10028000F5FF02F013F800F03EF903B4FFF7F2FFB8
:1002900003BC01F0FFFF0000094880470948004700
:1002A000FEE7FEE7FEE7FEE7FEE7FEE7FEE7FEE726
:1002B000FEE7FEE704480549054A064B7047000083
:1002C000A91B0008F9010008C8010020C807002088
:1002D000C8030020C8030020704753EA020C00F056
:1002E00069802DE9F04B4FF00006002B1FBFB3FAD9
:1002F00083F503FA05F424FA05F65E4012BF1643AF
:10030000B2FA82F502FA05F4C5F120051EBF22FA01
:1003100005FC44EA0C04203556EA044C4FEA144428
:1003200018BF641C4FF000084FF00009904271EBB9
:10033000030C39D3002919BFB1FA81F701FA07F686
:10034000B0FA80F700FA07F6C7F120071EBF20FABF
:1003500007FC46EA0C062037B6FBF4FCA7EB0507C2
:10036000103F07F01F0BCBF120060CFA0BFB2CFA09
:1003700006F644BFB3460026202FA4BF5E464FF0CA
:10038000000B5BEA060C08BF4FF0010B19EB0B09E1
:10039000ABFB027C48EB0608C01B06FB02CC0BFB48
:1003A00003CC71EB0C01C1E70B46024641464846BF
:1003B000BDE8F08B13B54FF000004FF00001AFF334
:1003C0000080BDE81C4070470FB4044910B503AA73
:1003D000029800F031F810BC5DF814FB0800002012
:1003E0004FF0000200B5134694469646203922BFCE
:1003F000A0E80C50A0E80C50B1F12001BFF4F7AF19
:10040000090728BFA0E80C5048BF0CC05DF804EBFA
:10041000890028BF40F8042B08BF704748BF20F868
:10042000022B11F0804F18BF00F8012B7047704766
:100430007047704770470000074B70B50D467B440E
:1004400000F011F80446284600F020F810B14FF0F3
:10045000FF3070BD204670BD571E000001694A1C68
:1004600002610878704700B58FB0CDE901310021F5
:10047000059105497944CDE903101146684600F01D
:100480002EF80FB000BD0000E5FFFFFF007B00F07D
:1004900080007047754600F03FF8AE46050069469B
:1004A000534620F00700854618B020B5FFF702FF3D
:1004B000BDE820404FF000064FF000074FF0000865
:1004C0004FF0000B21F00701AC46ACE8C009ACE8E6
:1004D000C009ACE8C009ACE8C0098D4670472DE9F9
:1004E000F04106460024D6E90170F56880463046A2
:1004F00003E04146B847641C3046A8470028F8D1BD
:100500002046BDE8F08110B50446AFF300802046D8
:10051000BDE81040FFF7B9BE0048704768010020F1
:10052000FEE7704772B6FEE72DE9F041876D04469D
:1005300000F09AF9064694F835000025022806D006
:1005400080206065012084F83450BDE8F081206887
:10055000016821F0160101602068416921F08001E5
:100560004161206C08B9A06C20B12068016821F0BD
:10057000080101602068016821F0010101600CE0C0
:1005800000F072F9801B052807D92021616503203E
:1005900084F8350084F83450D7E720680068C00735
:1005A000EED194F85C203F2001219040B86084F89F
:1005B0003510002084F83450C7E790F83510022930
:1005C00003D08021416501207047052180F8351056
:1005D0000068016821F001010160002070470000FF
:1005E00070B5044600F040F90546601C02D004488E
:1005F0000078044400F038F9401BA042FAD370BDE3
:100600000C0000202DE9F84FDFF80CB2012403257F
:100610004FF00F0A00220BF1040E00BF0B6804FA22
:1006200002F63340B34278D10F7907F00307012F68
:1006300001D0022F1AD187684FEA4209D1F80CC0C5
:1006400005FA09F827EA08070CFA09FC4CEA070C36
:10065000C0F808C0476891F804C0B743CCF3001C49
:100660000CFA02FC4CEA070CC0F804C00E79F64301
:10067000B6070BD0C6684FEA420C8F6805FA0CF833
:1006800026EA080607FA0CF73743C7600E7906F02A
:100690000306022E12D1D6084FEA427800EB8606F6
:1006A00000960F69D6F820904FEAD8660AFA06FC41
:1006B000B74029EA0C063743009E37620F79066877
:1006C0004FEA420C07F0030705FA0CF807FA0CF79B
:1006D00026EA0806374307604E6816F4403F1CD0F0
:1006E0004E4E376847F480473760366822F003087B
:1006F000970706F480460096494E3F0F4644B146A0
:10070000D6F80868DFF81C810AFA07FC404526EA9B
:100710000C0603D14FF0000C41E076E0DFF808C191
:10072000604502D14FF0010C39E0DFF800C16045AF
:1007300002D14FF0020C32E0DFF8F4C0604502D184
:100740004FF0030C2BE0DFF8ECC0604502D14FF016
:10075000040C24E0DFF8E0C0604502D14FF0050C46
:100760001DE0DFF8D8C0604502D14FF0060C16E05E
:10077000DFF8CCC0604502D14FF0070C0FE0DFF886
:10078000C4C0604502D14FF0080C08E0DFF8B8C0E3
:10079000604502D14FF0090C01E04FF00A0C0CFA51
:1007A00007FC4CEA060CC9F808C84F68DBF8006083
:1007B000FF0226EA030600D51E437746CBF8006009
:1007C000D1F804C0DEF800605FEA8C2C26EA03064C
:1007D00000D51E43DFF840C03E60ACF1040C4F680A
:1007E000DCF80060BF0326EA030600D51E430A4F6B
:1007F000CCF80060083FD1F804C03E685FEACC3C0A
:1008000026EA030600D51E433E60521C102AFFF460
:1008100005AFBDE8F88F0000083C014044380240B5
:100820000030014000000240000402400008024085
:10083000000C024000100240001402400018024068
:10084000001C02400020024000240240426921EACC
:1008500002030A4043EA0241816170470AB18161A3
:1008600070470904FBE700000148806870470000FA
:100870000C000020024881680278114481607047B2
:100880000C000020032010B500F0BEF8002000F09E
:1008900005F800F071F8002010BD000070B50D4D96
:1008A00004464FF47A700C4A29781268B0FBF1F0D4
:1008B000B2FBF0F000F044FE48B9102C07D2002241
:1008C0002146501E00F080F800206C6070BD0120B1
:1008D00070BD00000C00002018000020F0B5154C81
:1008E0004378211D0A1D23600378F3B143680B6030
:1008F000057BC67A817A437B2D07847B45EA0665B2
:10090000C77B90F809C0067A90F800E045EAC1403C
:1009100040EA834040EA444040EA074040EA0C2075
:1009200040EA460040EA0E0001E000200860106046
:10093000F0BD000098ED00E0BFF35F8F0448002198
:100940000368034A23F480330360703211607047F8
:1009500024ED00E0074A40F00100064970321060C3
:10096000086840F480300860BFF34F8FBFF36F8F8B
:100970007047000024ED00E00B4882B0016841F0B0
:1009800080510160006800F0805000900648001D12
:10099000016841F480410160006800F480400090EB
:1009A000052002B000F030B840380240002809DBD2
:1009B000410900F01F028900012001F1E02190406F
:1009C000C1F80001704700000E4BF0B41B680D46E3
:1009D000C3F30223C3F10706042E00D90426191D10
:1009E000072901D2002300E0DB1E012404FA06F1EE
:1009F0009C40491E2940641E994014402143F0BC8C
:100A000001F037BC0CED00E0064900F0070210B51C
:100A10004FF6FF040868044B204040EA02201843C8
:100A2000086010BD0CED00E00000FA051848F8B5AC
:100A3000016841F0805101600068164C00F0805060
:100A40000090206840F480302060FFF70DFF4FF4E5
:100A50007A76054605E000BFFFF706FF401BB0426F
:100A60000FD86068C003F7D5206840F400302060DC
:100A7000FFF7FAFE054606E0FFF7F6FE401BB04220
:100A800001D90320F8BD60688003F5D50020F8BDCA
:100A900040380240007000402DE9F84F04460078CD
:100AA000DFF824944FF000063746C0070ED0D9F87F
:100AB000001021F40001C9F80010D9F80010626B91
:100AC0001143C9F80010606B00B90126FE4D206883
:100AD000843500030ED5E16B286820F440100843EC
:100AE0002860E06BB0F5801F01D010B102E0012654
:100AF00000E0012720684FF4800BC0020CD5216C68
:100B0000286820F4400008432860206C584501D133
:100B1000012601E000B901272068C10100D50126A6
:100B2000800666D5E8483830016841F080510160A0
:100B30000068DFF898A300F080500090DAF8001009
:100B400041F48071CAF80010FFF78EFE804605E080
:100B5000FFF78AFEA0EB080064287DD8DAF80000D1
:100B6000C005F5D5DFF8608308F16808D8F8000003
:100B700010F440702AD0218E01F44071814225D0BA
:100B8000D8F80010D8F8002021F4407142F48032E7
:100B9000C8F80020D8F8002022F48032C8F80020DD
:100BA000C8F80010D8F80000C0070FD0FFF75CFEAF
:100BB000824607E0FFF758FEA0EB0A0141F28830B9
:100BC0008142CAD8D8F800008007F3D5206BC0F363
:100BD000012103297ED0D9F8001021F4F811C9F8B9
:100BE0000010228ED8F80010C2F30B021143C8F88F
:100BF00000102078C00607D5286820F08070286093
:100C00002868A16B084328602188AF4888304904D0
:100C100005D5626E016821F44031114301602188DD
:100C2000090405D5A26E016821F440211143016039
:100C30002168C90305D5E26E016821F44011114312
:100C400001602168890305D5226F016821F4400104
:100C500011430160217800E034E1490605D5626C5A
:100C6000016821F00301114301602178090605D5CF
:100C7000A26C016821F00C01114301602188C905B3
:100C800005D5E26C016821F0300111430160218833
:100C9000890505D5226D016821F0C001114301606D
:100CA0002188490505D5626D016821F44071114321
:100CB00001602188090505D5A26D016821F4406114
:100CC000114301602188C90407D5E26D016821F450
:100CD000405100E068E0114301602188890405D596
:100CE000226E016821F440411143016021684902EC
:100CF00005D5A26F016821F0806111430160216870
:100D00004FF0006A890209D5E26F016821F00061A5
:100D100011430160E16F514500D1012721680A07A5
:100D200000D50127490305D5626F016821F04071A4
:100D3000114301602168090206D5D4F880200168BA
:100D400021F08051114301602168490106D5D4F892
:100D50008420016821F000511143016020680001E6
:100D600006D5D4F88810286820F000700843286061
:100D70002068C00006D5D4F88C10286820F0806068
:100D800008432860DFF84891012E02D020688001D6
:100D90007ED5D9F800004E4620F08060C9F80000EA
:100DA000FFF762FD80460FE04A4AD9F80030104054
:100DB00023F4F8120243C9F8002012E7FFF754FDAC
:100DC000A0EB080064287DD830680001F6D42178B3
:100DD0003D487C30C90712D0616B81B9237A6268C3
:100DE0000168D0F800C09201C1F3014142EA01421A
:100DF000CCF3036142EA016141EA037101602168B9
:100E00000A0303D5E26BB2F5801F04D0C9021AD5DC
:100E1000216C594517D16368016894F80CC00268C9
:100E20009B01C1F3014143EA0141C2F3027241EA6D
:100E30000C6141EA027101602968626A21F01F01B8
:100E4000521E114329602168C90110D5238A6268A6
:100E50000168D0F800C09201C1F3036142EA034285
:100E600042EA0162CCF3027142EA01710160216839
:100E700089010CD56168228A237B94F808C0890116
:100E800041EA024141EA036141EA0C71016000E07C
:100E900011E03168B04641F080613160FFF7E4FC59
:100EA000064604E0FFF7E0FC801B64280AD8D8F867
:100EB00000000001F6D5E7B3D9F800004E4620F057
:100EC000805009E07BE000000838024000700040DC
:100ED00000380240FFFCFF0FC9F80000FFF7C4FC18
:100EE000074604E0FFF7C0FCC01B642867D83068E1
:100EF000C0438000F6D5216835480A0301D5E26B6E
:100F00001AB1C9021DD5216CD9B963690168277E60
:100F100002689B01C1F3014143EA0143C2F302713C
:100F200043EA076242EA0171016029686FF0FF033A
:100F300000E04BE0A26A21F4F85103EB02221143D6
:100F400029602168890212D5E16F51450FD1238CA8
:100F50006269016807689201C1F3036142EA0342D2
:100F600042EA0162C7F3027142EA0171016021782D
:100F7000090716D561690268D0F800C08B01277F88
:100F8000C2F30362CCF3014143EA014141EA026149
:100F900041EA077101602868E16A20F440300843A3
:100FA0002860306840F080503060FFF75DFC0446F8
:100FB00008E000BFFFF758FC001B642802D903209B
:100FC000BDE8F88F3068C0438000F3D40020F7E715
:100FD000883802402DE9F04705000F4663D0444EA3
:100FE000306800F00F00B84209D2306820F00F00DE
:100FF00038433060306800F00F00B84253D12868A1
:101000003C4C810712D5400703D5206840F4E050DE
:1010100020602878000703D5206840F460402060F5
:10102000A968206820F0F000084320602878C007F5
:101030002AD0304968680839012810D00968022888
:1010400010D0890700292EDA216821F0030101431D
:101050002160FFF709FC804641F288390DE00968FC
:101060008903EFE78901EDE7FFF7FEFBA0EB08013D
:10107000494502D90320BDE8F0876868216801F07E
:101080000C01B1EB800FEFD1306800F00F00B842D7
:101090000BD9306820F00F0038433060306800F022
:1010A0000F00B84201D00120E5E72878400705D5B8
:1010B000E968206820F4E0500843206028780007A1
:1010C00006D52869216821F4604141EAC00020600A
:1010D00000F038F82168084AC1F30311515CC84098
:1010E0000649086006480068FFF7D8FB0020C2E701
:1010F000003C024008380240262400081800002066
:10110000100000200449054809680068044AC1F33A
:101110008221515CC8407047083802401800002006
:10112000362400080449054809680068044AC1F3E8
:101130004231515CC8407047083802401800002016
:1011400036240008154910B51548096811F00C023D
:1011500013D01449042A0FD0082A0ED10F4C241F93
:101160002268236802F03F025B0207D52068C0F3C3
:101170008810A0FB010106E0084610BD2168C1F3FC
:101180008811A1FB00010023FFF7A7F82168C1F334
:101190000141491C4900B0FBF1F010BD0838024084
:1011A0000024F40040787D012DE9F84F04004FF051
:1011B00000076ED02078DFF87CA3AAF10408C007EE
:1011C000A8F104054CD0DAF800105046C1F38101B3
:1011D000012908D00068C0F3810002280AD1D8F89C
:1011E0000000400206D52868800339D560680028D1
:1011F000DFD035E06068B0F5803F0BD010B1B0F5BE
:10120000A02F11D0286820F480302860286820F4AE
:10121000802002E0286840F480302860606890B147
:10122000FFF722FB06460AE0286840F48020286089
:10123000F0E700BFFFF718FB801B642872D828680E
:101240008003F7D50CE0FFF70FFB064605E000BF73
:10125000FFF70AFB801B6428F0D828688003F7D4C6
:101260002078800742D5DAF80010504611F00C0FB4
:1012700008D00068C0F3810002280BD1D8F8000024
:10128000400207D42868800718D5E068012800D1FB
:1012900014E04AE1E0680028286817D040F0010017
:1012A0002860FFF7E1FA064605E000BFFFF7DCFA29
:1012B000801B0228C2D828688007F7D520692968D2
:1012C00021F0F80141EAC00028600FE020F00100A1
:1012D0002860FFF7C9FA064605E000BFFFF7C4FA29
:1012E000801B02281ED828688007F7D420780007C2
:1012F00029D5904861696C3000298146016812D077
:1013000041F001010160FFF7AFFA064605E000BFBA
:10131000FFF7AAFA801B022804D8D9F8000080073A
:10132000F6D510E089E021F001010160FFF79CFA99
:10133000064604E0FFF798FA801B02287DD8D9F80A
:1013400000008007F6D4207840076BD5DFF8E491E1
:1013500009F13809D9F80000C0000BD4D9F8001001
:1013600041F08051C9F80010D9F80000012700F0C1
:101370008050009070480168C90512D40168834606
:1013800041F480710160FFF76FFA064605E000BF87
:10139000FFF76AFA801B64284FD8DBF80000C0050D
:1013A000F6D5644EA068683601280AD008B1052831
:1013B00011D0306820F001003060306820F0040067
:1013C00002E0306840F001003060A068A0B1FFF793
:1013D0004BFA83460CE0306840F004003060F0E7E0
:1013E000FFF742FAA0EB0B0141F28830814268D846
:1013F00030688007F4D50EE0FFF736FA834607E041
:10140000FFF732FAA0EB0B0141F28830814258D845
:1014100030688007F4D42FB1D9F8001021F0805142
:10142000C9F80010A069E0B3DAF80010C1F3810137
:1014300002294DD00228286800E042E020F08070A8
:10144000286003D0FFF710FA04463DE0FFF70CFADE
:10145000064604E0FFF708FA801B022831D8286806
:101460008001F7D4D4E90921DFF8D0C0D4E9070618
:1014700094F830304F0894F82C1030430CEB0744AC
:1014800044EA8212104340EA016040EA0370C8F85F
:101490000000286840F080702860FFF7E5F90446F6
:1014A00005E044E0FFF7E0F9001B022809D82868AE
:1014B0008001F7D53BE000BFFFF7D6F9001B0228FB
:1014C00002D90320BDE8F88F28688001F4D42EE00B
:1014D0000128D8F8000028D0E16900F480028A428F
:1014E00023D1216A00F03F028A421ED1626A47F688
:1014F000C0710140B1EB821F17D1A16A4FF0FF32DA
:1015000000F4403302EB5101B3EB014F0DD194F8DD
:101510002C1000F07062B2EB016F06D194F830101D
:1015200000F0E040B0EB017F01D00120CAE70020CD
:10153000C8E7000008380240007000400000FFFFCC
:10154000401EB0F1807F10B501D3012010BD4FF0D7
:10155000E02460610F21601700F08BFE0020A06185
:101560000721216110BD7047704770470146806FA9
:10157000C96F0843704700002DE9F0410268044636
:10158000002540F60F06D06911689368304205D1F6
:1015900086067DD58E067BD5616E1CE1994F03F0E2
:1015A00001060F40374373D0C70709D0CF0507D5D1
:1015B00001271762D4F8802042F00102C4F880208D
:1015C00082070AD5DA0708D0276802223A62D4F8DF
:1015D000802042F00402C4F8802042070AD5DA07CE
:1015E00008D0236804221A62D4F8802042F0020254
:1015F000C4F8802002070CD501F02002324308D045
:10160000236808221A62D4F8802042F00802C4F845
:10161000802002050BD54A0109D523684FF40062EA
:101620001A62D4F8802042F02002C4F88020D4F856
:101630008020002A36D0800605D5880603D5616E45
:1016400009B1204688472168D4F880008968490696
:1016500002D410F0280F27D0204600F049FB206864
:10166000806840061BD52068083050E8001F21F034
:10167000400140E80012002AF5D1206F78B162499C
:101680000165206FFEF799FF00280BD0206F00E066
:1016900010E0016D00E02046BDE8F041084720461B
:1016A000FFF763FFBDE8F0812046FFF75EFFC4F857
:1016B0008050F7E7276E2026012F7CD1C7067AD508
:1016C000CF0678D51020106220688068400641D58A
:1016D000216F086840680004000CE3D0B4F858207B
:1016E0008242DFD9A4F85A00C869B0F5807F2AD0B9
:1016F000216851E8000F20F4807041E80002002AC0
:10170000F6D12068083050E8001F21F0010140E8C0
:101710000012002AF5D12068083050E8001F21F09F
:10172000400140E80012002AF5D1E66725662168ED
:1017300051E8000F20F0100041E80002002AF6D125
:10174000206FFEF7F1FEB4F85800B4F85A10401AB2
:1017500081B22BE0B4F85800B4F85A10B4F85A200B
:10176000401A81B2002A9DD000299BD0206850E801
:10177000002F22F4907240E80023002BF6D120685D
:1017800000F1080050E8002F22F0010240E8002399
:10179000002BF4D1E66725666566206850E8002FC7
:1017A00022F0100240E80023002BF6D12046FFF77C
:1017B000DAFE77E7FFE7C70208D55B0206D54FF4EC
:1017C000801010622046FFF7CFFE6BE7020606D5B9
:1017D0000A0604D5A16E00297FF45DAF62E74006DA
:1017E000E7D54806E5D52046026852E8001F21F0FB
:1017F000400142E80013002BF6D18667856600F0B1
:1018000029F94FE720010004DD1C000810B5040091
:1018100002D0A06F10B107E0012010BD002084F8B5
:101820007400204600F026F82420A0672068016894
:1018300021F001010160204600F01EFB0128ECD0E0
:10184000606A10B1204600F0B7F92068416821F4C1
:10185000904141602068816821F02A018160206800
:10186000016841F0010101602046BDE8104000F030
:1018700007BA000010B5AAB00446142124A8FEF748
:10188000AFFD90216846FEF7ABFD1C4920688842F9
:1018900032D140200090002168461191FFF7FCF8FA
:1018A00008B1FEF73FFE1648016841F010010160E3
:1018B000006800F01000299011481438016841F0C8
:1018C0000101016000680DF1900C022100F001009F
:1018D00029900122032307244FF4C0608CE81F00E5
:1018E000084824A9FEF78EFE032225201146FFF7A3
:1018F0006BF82520FFF75AF82AB010BD0010014000
:10190000443802400000024030B4C36F202B1DD188
:10191000C9B1C2B190F87430012B17D0012480F8FE
:1019200074400023036603685B681B0208D50468E3
:1019300054E8003F43F0806344E80035002DF6D1C1
:1019400030BC00F0B1BB012030BC70470220FBE787
:10195000104830B581880A0408D402464FF00003CD
:101960004C04127806D50A2A01D0838030BD41F498
:1019700000410DE00D2A09D0074DC1F30D04491CAB
:1019800089B2C7292A558180EFD830BD41F4804102
:10199000818030BD00000020A00000202DE9F84328
:1019A0000446806F1F4616460D46202850D1CDB103
:1019B000C6B194F8740001284AD0012084F874005C
:1019C00021224FF00008C4F88080A267FEF74CFF88
:1019D0008146A068A4F85060A4F85260B0F5805F1A
:1019E00003D004E00120BDE8F883206928B12E4629
:1019F0005FF0000584F8748010E00026FAE780218B
:101A0000204600F0ADFBB8B9C6B116F8010B21684D
:101A10008862B4F85200401EA4F85200B4F8520094
:101A20004B464FF0000200970028E8D14FF04001EC
:101A3000204600F095FB38B10320D4E735F8020BBF
:101A40002168C0F30800E3E72020A0670020CAE770
:101A50000220C8E77047FEE710B586B0142168463B
:101A6000FEF7BEFC1548016841F080010160016885
:101A700001F080010591016841F0020101600168F7
:101A800001F002010591016841F001010160006867
:101A900001220B4C032100F0010005902046FEF7C7
:101AA000DDFE012102220320CDE90001CDE9021271
:101AB00069462046FEF7A6FD06B010BD303802404C
:101AC000000402400C48002110B50A4C0C224FF4CF
:101AD000E1330460C0E90131C160C0E904128161F1
:101AE000C16101624162FFF791FE002801D072B628
:101AF000FEE710BD001001401C000020FEE7FEE7DD
:101B000070477047FEF7B6BE30B593B034216846D3
:101B1000FEF766FC14210DA8FEF762FC2048016860
:101B200041F080510160006800F0805012901D4823
:101B3000016841F44041016000680224192300F467
:101B400040401290012008934FF4D875820501049B
:101B5000CDE90642CDE909540B94CDE90001684670
:101B60000C94FFF721FB08B172B6FEE7FEF75EFFAB
:101B700008B172B6FEE70FAD00214FF4A0524FF44A
:101B8000805385E80E000F20CDE90D0407210DA834
:101B9000FFF720FA002801D072B6FEE713B030BD7F
:101BA00040380240007000400248016841F4700172
:101BB0000160704788ED00E090F82410C90706D056
:101BC0000168836A4A6822F400321A434A6090F836
:101BD0002410890706D50168C36A4A6822F4803256
:101BE0001A434A6090F82410490706D50168036B30
:101BF0004A6822F480221A434A6090F824100907A8
:101C000006D50168436B4A6822F400421A434A60D1
:101C100090F82410C90606D50168836B8A6822F4FF
:101C200080521A438A6090F82410890606D501680C
:101C3000C36B8A6822F400521A438A6090F8241019
:101C4000490611D50168036C4A6822F480121A43D0
:101C50004A60016CB1F5801F06D10168436C4A6887
:101C600022F4C0021A434A6090F82410090606D5EF
:101C70000168826C486820F4002010434860704777
:101C8000F8B500260446C0F88060FEF7EDFD054675
:101C900020686FF07E470068000708D500222B46B9
:101CA0004FF400112046009700F05AFA60B92068FE
:101CB000006840070AD500222B464FF480012046D9
:101CC000009700F04DFA08B10320F8BD2020A0676E
:101CD000E0672666002084F87460F8BD10B5806B5C
:101CE0000021A0F85A10A0F85210FFF73EFC10BDDA
:101CF000016851E8002F22F4907241E80023002B84
:101D0000F6D10168083151E8002F22F0010241E8C4
:101D10000023002BF5D1016E012908D1026852E899
:101D2000001F21F0100142E80013002BF6D1002122
:101D30002022C26701664166704710B5C16FB0F8D6
:101D40005C202229016804D0886940F0080088617D
:101D500010BD496A436D11401980416D891C416570
:101D6000B0F85A10491EA0F85A10B0F85A100029BD
:101D7000EED1026852E8001F21F4907142E800138E
:101D8000002BF6D10168083151E8002F22F0010242
:101D900041E80023002BF5D12022C2670021026E0A
:101DA0004166012A02D0FFF7D3FD10BD016602682B
:101DB00052E8001F21F0100142E80013002BF6D179
:101DC0000168CA69D243D20601D410220A62B0F86F
:101DD0005810FFF7C8FB10BD10B5C16FB0F85C20FC
:101DE0002229016804D0886940F00800886110BD8C
:101DF000496A436D11401970416D491C4165B0F845
:101E00005A10491EA0F85A10B0F85A100029EED105
:101E1000026852E8001F21F4907142E80013002B81
:101E2000F6D10168083151E8002F22F0010241E8A3
:101E30000023002BF5D12022C2670021026E4166EB
:101E4000012A02D0FFF784FD10BD0166026852E846
:101E5000001F21F0100142E80013002BF6D10168A9
:101E6000CA69D243D20601D410220A62B0F85810CF
:101E7000FFF779FB10BD00002DE9F041044603682F
:101E8000C2698168D4E90450DFF8F0C17C4E29436F
:101E90001F68002510437B4A014307EA0C070F43E4
:101EA0001F604FF400402168E7684B6823F44053FB
:101EB0003B434B602768A369216AD7F808C01943E0
:101EC0002CF430630B43BB602168B1420AD1116826
:101ED00011F0030152D001297CD0022971D00329CD
:101EE0006ED184E0684B99420AD1116811F00C015F
:101EF00067D0042965D0082975D00C2960D176E017
:101F0000624B99420AD1116811F0300159D0102961
:101F10006BD0202967D0302952D168E05C4B9942C0
:101F20000AD1116811F0C0014BD040295DD0802941
:101F300059D0C02944D15AE0564B99420DD111686D
:101F400011F440713DD0B1F5807F4ED0B1F5007FE6
:101F500049D0B1F5407F33D149E04F4B99420FD181
:101F6000116811F4406109D0B1F5806F3DD0B1F531
:101F7000006F38D0B1F5406F22D138E0012120E068
:101F8000464B99420DD1116811F4405119D0B1F569
:101F9000805F2AD0B1F5005F25D0B1F5405F0FD149
:101FA00025E03F4B99420BD1116811F4404108D014
:101FB000B1F5804F19D0814215D0B1F5404F16D000
:101FC0001021E369374A4FF6EF7683422ED1092973
:101FD00049D201E009E006E0DFE801F00B0E11450F
:101FE0001345454516000221EBE70421E9E70821E6
:101FF000E7E7FFF787F806E0FFF794F803E01046FD
:1020000002E0FFF79FF878B36168400000EB5100F1
:10201000B0FBF1F0A0F11001B14224D84FF6F073FB
:102020002168C0F342021840104320E009291AD267
:10203000DFE801F005080B190D1919191000FFF759
:1020400061F806E0FFF76EF803E0104602E0FFF7E4
:1020500079F848B1616800EB5100B0FBF1F0A0F1F4
:102060001001B14201D9012502E0216880B2C860A7
:1020700000206066A0662846BDE8F081F369FFEFA6
:1020800000100140903802400044004000480040E9
:10209000004C004000500040001401400078004017
:1020A000007C00400024F40030B5836800244165C2
:1020B0004FF48055A0F85820AB42A0F85A204FF0BA
:1020C000FF01446604D102697ABB40F2FF112CE0A3
:1020D0004FF07F023BB3B3F1805F29D0A0F85C40A2
:1020E0002221C0F88040C1670168083151E8002F03
:1020F00042F0010241E80023002BF5D18168A9429A
:1021000001D10169D9B114494166016980F874406F
:10211000B9B1026852E8001F41F4907142E800131F
:10212000002BF6D116E0036933B9A0F85C10D7E7AD
:10213000016909B13F21F8E7A0F85C20D0E7074921
:10214000E2E7016851E8002F42F0200241E8002355
:10215000002BF6D1002030BDD91D00083B1D000822
:102160002DE9F0479A4617460E460446089D4FF063
:1021700000094FF020084CE0681C4AD0FEF774FBC1
:10218000A0EB0A00A8422AD84DB32068016849078D
:102190003FD5C069C04300053BD421684FF40060BF
:1021A0000862216851E8000F20F4D07041E8000275
:1021B000002AF6D12068083050E8001F21F0010104
:1021C00040E80012002AF5D1C4F8788084F87490B1
:1021D000C4F87C80C4F880800320BDE8F0872068C4
:1021E00050E8001F21F4D07140E80012002AF6D117
:1021F0002068083050E8001F21F0010140E800127B
:10220000002AF5D1C4F8788084F87490C4F87C80F2
:10221000E2E72068C06936EA000004D00020B84236
:10222000AAD00020D9E70120F9E7000070B50D4DD4
:1022300000240D48FFF7A0F902E0641CAC4204D86A
:102240000948FFF793F92028F7D1002402E0641C25
:10225000AC4206D8054901220348FFF755FB002888
:10226000F5D170BDFFFF01001C0000200000002020
:10227000FEE7090700284FEA116104DB00F1E020C6
:1022800080F80014704700F00F0000F1E02080F8A3
:10229000141D7047704700000349CA695206FCD5F7
:1022A000C2B28A6270470000001001401FB50025CD
:1022B0000095019502950395FEF73EFB01208DF8F0
:1022C0000C001F218DF8081087228DF809208DF849
:1022D0000D008DF8000068468DF80A508DF80E50FC
:1022E0008DF8015001958DF80B508DF80F50FEF7C9
:1022F000F5FA0420FEF72EFBFEF7C4FAFFF704FC04
:10230000FFF7AAFBFFF7DEFB244901222448FFF771
:10231000FBFA224CA088010416D5C6B221A0FEF714
:1023200053F81F494FF47A731D4832468431FFF742
:1023300035FB1B480068C169C9434906FBD41EA090
:10234000FEF742F8A580E5E7608841F28831401C3D
:1023500080B26080B0FBF1F201FB120028B918A036
:10236000FEF732F81FA0FEF72FF86188C820B1FBF6
:10237000F0F200FB121010B920A0FEF725F86088DB
:102380001E21B0FBF1F201FB120018B92248022114
:10239000FEF75CFA0A20FEF723F9BBE700000020F5
:1023A0001C0000200D0AC4FAB7A2CBCDB5C4CFFBE8
:1023B000CFA2CEAA3A0D0A000D0A0D0A00000000B5
:1023C0000D0A414C49454E54454B2053544D333230
:1023D0004637BFAAB7A2B0E520B4AEBFDACAB5D1BE
:1023E000E90D0A00D5FDB5E3D4ADD7D340414C4942
:1023F000454E54454B0D0A0D0A0D0A00C7EBCAE4C1
:10240000C8EBCAFDBEDD2CD2D4BBD8B3B5BCFCBD75
:10241000E1CAF80D0A000000000402404FF04070CD
:10242000E1EE100A70470000000000000000010209
:10243000030406070809000000000102030400006D
:1024400060240008000000201C0000003402000886
:102450007C2400081C000020AC070000500200088B
:10246000000000000000000000000000010000006B
:0C24700010000000000000000024F40038
:04000005080001F9F5
:00000001FF
