:020000040800F2
:10000000C0060020990200082314000849130008C4
:10001000211400088F040008A31800080000000045
:10002000000000000000000000000000271400088D
:10003000910400080000000025140008291400089D
:10004000B3020008B3020008B3020008B3020008BC
:10005000B3020008B3020008B3020008B3020008AC
:10006000B3020008B3020008B3020008B30200089C
:10007000B3020008B3020008B3020008B30200088C
:10008000B3020008B3020008B3020008B30200087C
:10009000B3020008B3020008B3020008B30200086C
:1000A000B3020008B3020008B3020008B30200085C
:1000B000B3020008B3020008B3020008B30200084C
:1000C000B3020008B3020008B3020008B30200083C
:1000D000B3020008B3020008B3020008B30200082C
:1000E000B3020008B3020008B3020008B30200081C
:1000F000B3020008B3020008B3020008B30200080C
:10010000B3020008B3020008B3020008B3020008FB
:10011000B3020008B3020008B3020008B3020008EB
:10012000B3020008B3020008B3020008B3020008DB
:10013000B3020008B3020008B3020008B3020008CB
:10014000B3020008B3020008B3020008B3020008BB
:10015000B3020008B3020008B3020008B3020008AB
:10016000B3020008B3020008B3020008B30200089B
:10017000B3020008B3020008B30200080000000048
:10018000B3020008B3020008B3020008B30200087B
:10019000B3020008B3020008B3020008B30200086B
:1001A000B3020008B3020008B3020008B30200085B
:1001B000B3020008B3020008B3020008B30200084B
:1001C000B3020008B302000800000000B3020008F8
:1001D000B3020008B3020008B3020008B30200082B
:1001E000B3020008B3020008B3020008B30200081B
:1001F000B3020008B302000800F002F800F03CF877
:100200000AA090E8000C82448344AAF10107DA4571
:1002100001D100F031F8AFF2090EBAE80F0013F087
:10022000010F18BFFB1A43F00103184750170000D5
:1002300070170000103A24BF78C878C1FAD8520766
:1002400024BF30C830C144BF04680C607047000050
:100250000023002400250026103A28BF78C1FBD8CF
:10026000520728BF30C148BF0B6070471FB501F06F
:1002700078FB1FBD10B510BD00F0CFF81146FFF799
:10028000F5FF01F020FB00F0EDF803B4FFF7F2FFFB
:1002900003BC00F0F5F80000094880470948004712
:1002A000FEE7FEE7FEE7FEE7FEE7FEE7FEE7FEE726
:1002B000FEE7FEE704480549054A064B7047000083
:1002C000CD140008F9010008C0000020C00600207D
:1002D000C0020020C002002053EA020C00F0698036
:1002E0002DE9F04B4FF00006002B1FBFB3FA83F54A
:1002F00003FA05F424FA05F65E4012BF1643B2FA7B
:1003000082F502FA05F4C5F120051EBF22FA05FCAC
:1003100044EA0C04203556EA044C4FEA144418BF52
:10032000641C4FF000084FF00009904271EB030C81
:1003300039D3002919BFB1FA81F701FA07F6B0FAEB
:1003400080F700FA07F6C7F120071EBF20FA07FC66
:1003500046EA0C062037B6FBF4FCA7EB0507103F76
:1003600007F01F0BCBF120060CFA0BFB2CFA06F65C
:1003700044BFB3460026202FA4BF5E464FF0000BBB
:100380005BEA060C08BF4FF0010B19EB0B09ABFB46
:10039000027C48EB0608C01B06FB02CC0BFB03CC1F
:1003A00071EB0C01C1E70B46024641464846BDE8E9
:1003B000F08B13B54FF000004FF00001AFF3008059
:1003C000BDE81C4070474FF0000200B5134694464C
:1003D0009646203922BFA0E80C50A0E80C50B1F19D
:1003E0002001BFF4F7AF090728BFA0E80C5048BFB1
:1003F0000CC05DF804EB890028BF40F8042B08BF4F
:10040000704748BF20F8022B11F0804F18BF00F84A
:10041000012B7047704770477047754600F02CF805
:10042000AE4605006946534620F00700854618B0E1
:1004300020B5FFF73FFFBDE820404FF000064FF02A
:1004400000074FF000084FF0000B21F00701AC4609
:10045000ACE8C009ACE8C009ACE8C009ACE8C00928
:100460008D46704710B50446AFF300802046BDE8C6
:100470001040FFF70ABF0000004870475C000020F2
:1004800001491820ABBEFEE7260002007047FEE7D8
:10049000704772B6FEE7000070B5044600F032F90E
:1004A0000546601C02D004480078044400F02AF994
:1004B000401BA042FAD370BD000000202DE9F84F88
:1004C000DFF80CB2012403254FF00F0A00220BF1D4
:1004D000040E00BF0B6804FA02F63340B34278D131
:1004E0000F7907F00307012F01D0022F1AD1876877
:1004F0004FEA4209D1F80CC005FA09F827EA0807C3
:100500000CFA09FC4CEA070CC0F808C0476891F8DF
:1005100004C0B743CCF3001C0CFA02FC4CEA070CF5
:10052000C0F804C00E79F643B6070BD0C6684FEA90
:10053000420C8F6805FA0CF826EA080607FA0CF751
:100540003743C7600E7906F00306022E12D1D60893
:100550004FEA427800EB860600960F69D6F82090A5
:100560004FEAD8660AFA06FCB74029EA0C06374378
:10057000009E37620F7906684FEA420C07F00307C6
:1005800005FA0CF807FA0CF726EA08063743076065
:100590004E6816F4403F1CD04E4E376847F48047F3
:1005A0003760366822F00308970706F48046009605
:1005B000494E3F0F4644B146D6F80868DFF81C8123
:1005C0000AFA07FC404526EA0C0603D14FF0000C5E
:1005D00041E076E0DFF808C1604502D14FF0010C40
:1005E00039E0DFF800C1604502D14FF0020C32E083
:1005F000DFF8F4C0604502D14FF0030C2BE0DFF8C8
:10060000ECC0604502D14FF0040C24E0DFF8E0C0FC
:10061000604502D14FF0050C1DE0DFF8D8C0604501
:1006200002D14FF0060C16E0DFF8CCC0604502D1D5
:100630004FF0070C0FE0DFF8C4C0604502D14FF067
:10064000080C08E0DFF8B8C0604502D14FF0090C93
:1006500001E04FF00A0C0CFA07FC4CEA060CC9F852
:1006600008C84F68DBF80060FF0226EA030600D5E1
:100670001E437746CBF80060D1F804C0DEF8006076
:100680005FEA8C2C26EA030600D51E43DFF840C043
:100690003E60ACF1040C4F68DCF80060BF0326EA52
:1006A000030600D51E430A4FCCF80060083FD1F87E
:1006B00004C03E685FEACC3C26EA030600D51E4330
:1006C0003E60521C102AFFF405AFBDE8F88F000011
:1006D000083C014044380240003001400000024024
:1006E0000004024000080240000C024000100240DA
:1006F0000014024000180240001C0240002002408A
:10070000002402400148806870470000000000207B
:10071000024881680278114481607047000000201F
:10072000032010B500F0AEF80F2000F005F800F03F
:1007300071F8002010BD000070B50D4D04464FF457
:100740007A700C4A29781268B0FBF1F0B2FBF0F035
:1007500000F076FB48B9102C07D200222146501E2B
:1007600000F070F800206C6070BD012070BD0000CA
:10077000000000200C000020F0B5154C4378211D2E
:100780000A1D23600378F3B143680B60057BC67ACA
:10079000817A437B2D07847B45EA0665C77B90F809
:1007A00009C0067A90F800E045EAC14040EA83407B
:1007B00040EA444040EA074040EA0C2040EA460054
:1007C00040EA0E0001E0002008601060F0BD00006B
:1007D00098ED00E0BFF35F8F044800210368034AEF
:1007E00023F48033036070321160704724ED00E021
:1007F000074A40F00100064970321060086840F472
:1008000080300860BFF34F8FBFF36F8F70470000D9
:1008100024ED00E00A4808B5016841F0805101600C
:10082000006800F0805000900548001D016841F408
:1008300080410160006800F48040009008BD000025
:10084000403802400E4BF0B41B680D46C3F3022340
:10085000C3F10706042E00D90426191D072901D269
:10086000002300E0DB1E012404FA06F19C40491E2F
:100870002940641E994014402143F0BC01F012B895
:100880000CED00E0064900F0070210B54FF6FF043A
:100890000868044B204040EA02201843086010BD5D
:1008A0000CED00E00000FA051848F8B5016841F0C9
:1008B000805101600068164C00F080500090206864
:1008C00040F480302060FFF71DFF4FF47A76054634
:1008D00005E000BFFFF716FF401BB0420FD860686D
:1008E000C003F7D5206840F400302060FFF70AFF0E
:1008F000054606E0FFF706FF401BB04201D9032082
:10090000F8BD60688003F5D50020F8BD403802408E
:10091000007000402DE9F04705000F4663D0444EBB
:10092000306800F00F00B84209D2306820F00F00A4
:1009300038433060306800F00F00B84253D1286867
:100940003C4C810712D5400703D5206840F4E050A5
:1009500020602878000703D5206840F460402060BC
:10096000A968206820F0F000084320602878C007BC
:100970002AD0304968680839012810D0096802284F
:1009800010D0890700292EDA216821F003010143E4
:100990002160FFF7B7FE804641F288390DE0096813
:1009A0008903EFE78901EDE7FFF7ACFEA0EB080153
:1009B000494502D90320BDE8F0876868216801F045
:1009C0000C01B1EB800FEFD1306800F00F00B8429E
:1009D0000BD9306820F00F0038433060306800F0E9
:1009E0000F00B84201D00120E5E72878400705D57F
:1009F000E968206820F4E050084320602878000768
:100A000006D52869216821F4604141EAC0002060D0
:100A100000F018F82168084AC1F30311515CC8407E
:100A20000649086006480068FFF786FE0020C2E716
:100A3000003C0240083802406C1900080C000020FD
:100A400004000020154910B51548096811F00C0282
:100A500013D01449042A0FD0082A0ED10F4C241F9A
:100A60002268236802F03F025B0207D52068C0F3CA
:100A70008810A0FB010106E0084610BD2168C1F303
:100A80008811A1FB00010023FFF726FC2168C1F3B8
:100A90000141491C4900B0FBF1F010BD083802408B
:100AA0000024F40040787D012DE9F84F04004FF058
:100AB00000076ED02078DFF87CA3AAF10408C007F5
:100AC000A8F104054CD0DAF800105046C1F38101BA
:100AD000012908D00068C0F3810002280AD1D8F8A3
:100AE0000000400206D52868800339D560680028D8
:100AF000DFD035E06068B0F5803F0BD010B1B0F5C5
:100B0000A02F11D0286820F480302860286820F4B5
:100B1000802002E0286840F480302860606890B14E
:100B2000FFF7F0FD06460AE0286840F480202860C0
:100B3000F0E700BFFFF7E6FD801B642872D8286845
:100B40008003F7D50CE0FFF7DDFD064605E000BFAA
:100B5000FFF7D8FD801B6428F0D828688003F7D4FD
:100B60002078800742D5DAF80010504611F00C0FBB
:100B700008D00068C0F3810002280BD1D8F800002B
:100B8000400207D42868800718D5E068012800D102
:100B900014E04AE1E0680028286817D040F001001E
:100BA0002860FFF7AFFD064605E000BFFFF7AAFD8E
:100BB000801B0228C2D828688007F7D520692968D9
:100BC00021F0F80141EAC00028600FE020F00100A8
:100BD0002860FFF797FD064605E000BFFFF792FD8E
:100BE000801B02281ED828688007F7D420780007C9
:100BF00029D5904861696C3000298146016812D07E
:100C000041F001010160FFF77DFD064605E000BFF0
:100C1000FFF778FD801B022804D8D9F80000800770
:100C2000F6D510E089E021F001010160FFF76AFDCF
:100C3000064604E0FFF766FD801B02287DD8D9F840
:100C400000008007F6D4207840076BD5DFF8E491E8
:100C500009F13809D9F80000C0000BD4D9F8001008
:100C600041F08051C9F80010D9F80000012700F0C8
:100C70008050009070480168C90512D4016883460D
:100C800041F480710160FFF73DFD064605E000BFBD
:100C9000FFF738FD801B64284FD8DBF80000C00543
:100CA000F6D5644EA068683601280AD008B1052838
:100CB00011D0306820F001003060306820F004006E
:100CC00002E0306840F001003060A068A0B1FFF79A
:100CD00019FD83460CE0306840F004003060F0E716
:100CE000FFF710FDA0EB0B0141F28830814268D87C
:100CF00030688007F4D50EE0FFF704FD834607E077
:100D0000FFF700FDA0EB0B0141F28830814258D87B
:100D100030688007F4D42FB1D9F8001021F0805149
:100D2000C9F80010A069E0B3DAF80010C1F381013E
:100D300002294DD00228286800E042E020F08070AF
:100D4000286003D0FFF7DEFC04463DE0FFF7DAFC45
:100D5000064604E0FFF7D6FC801B022831D828683D
:100D60008001F7D4D4E90921DFF8D0C0D4E907061F
:100D700094F830304F0894F82C1030430CEB0744B3
:100D800044EA8212104340EA016040EA0370C8F866
:100D90000000286840F080702860FFF7B3FC04462C
:100DA00005E044E0FFF7AEFC001B022809D82868E4
:100DB0008001F7D53BE000BFFFF7A4FC001B022831
:100DC00002D90320BDE8F88F28688001F4D42EE012
:100DD0000128D8F8000028D0E16900F480028A4296
:100DE00023D1216A00F03F028A421ED1626A47F68F
:100DF000C0710140B1EB821F17D1A16A4FF0FF32E1
:100E000000F4403302EB5101B3EB014F0DD194F8E4
:100E10002C1000F07062B2EB016F06D194F8301024
:100E200000F0E040B0EB017F01D00120CAE70020D4
:100E3000C8E7000008380240007000400000FFFFD3
:100E4000401EB0F1807F10B501D3012010BD4FF0DE
:100E5000E02460610F21601700F024FD0020A061F4
:100E60000721216110BD0000F0B590F83C20012A57
:100E70003BD01F4E012480F83C40022280F83D20E8
:100E800002681C4D5368B242D2F808C001D0AA4291
:100E900003D14F6823F470033B430F6823F07003C2
:100EA0001F4357600268B24213D0B2F1804F10D096
:100EB000114B9A420DD0114B9A420AD0104B9A42D4
:100EC00007D0AA4205D00F4B9A4202D00E4B9A424D
:100ED00004D189682CF0800319439160002180F8C7
:100EE0003D4080F83C100846F0BD0220F0BD0000F7
:100EF00000000140000401400004004000080040E0
:100F0000000C0040004001400018004010B50400F3
:100F100003D094F83D0010B107E0012010BD00207F
:100F200084F83C00204600F023F8022084F83D00BD
:100F30002068211D00F0D2FA012084F8480084F8CE
:100F40003E0084F83F0084F8400084F8410084F8B3
:100F5000420084F8430084F8440084F8450084F893
:100F6000460084F8470084F83D00002010BD0000D2
:100F700008B500680649884208D10648016841F072
:100F800002010160006800F00200009008BD00004E
:100F9000000400404038024070B5044690F83C0020
:100FA0000025012817D0334B012684F83C6002202D
:100FB00084F83D0022689068184020F47F409060DB
:100FC0000868502838D00DDC20284FD005DC90B3BD
:100FD000102811D14AE0022070BD302846D04028A8
:100FE0000AD13BE060282FD070280DD0B0F5805F8B
:100FF00003D0B0F5005F12D0012584F83D600020D9
:1010000084F83C00284670BD4A682068D1E9021384
:1010100000F0D7FA2068816841F0770109E04A685A
:101020002068D1E9021300F0CCFA2068816841F40D
:1010300080418160E1E719E0CA684968206800F0F2
:101040000DFC2068502106E0CA684968206800F05D
:1010500016FC2068602100F0BDFACEE7CA68496836
:10106000206800F0FBFB20684021F4E7226801467D
:101070001046F0E788FFFEFF10B586B00446142145
:101080006846FFF7A0F90D492068884213D10C4843
:10109000016841F0020101600068012100F00200D6
:1010A000059002200090CDE901010390694604906B
:1010B0000448FFF703FA06B010BD0000000400402A
:1010C000303802400004024070B5044690F83C00FD
:1010D00000260D4601280BD0012084F83C000C2A84
:1010E0004AD007DC82B1042A20D0082A06D131E098
:1010F000022070BD102A53D0142A63D0012600208C
:1011000084F83C00304670BD206800F06BFA20681F
:10111000816941F0080181612068816921F0040141
:10112000816120682A698169114311E0206800F01B
:1011300093FA2068816941F40061816120688169C6
:1011400021F48061816120682969826942EA012174
:101150008161D4E7206800F0BBFA2068C16941F0E2
:101160000801C1612068C16921F00401C1612068E2
:101170002A69C169114311E0206800F0E5FA20688E
:10118000C16941F40061C1612068C16921F48061D5
:10119000C16120682969C26942EA0121C161AEE7E3
:1011A000206800F0FDFA2068416D41F008014165BA
:1011B0002068416D21F00401416520682A69416D74
:1011C000114311E0206800F017FB2068416D41F4E5
:1011D000006141652068416D21F4806141652068AE
:1011E0002969426D42EA0121416588E710B5040092
:1011F00003D094F83D0010B107E0012010BD00209D
:1012000084F83C00204600F022F8022084F83D00DB
:101210002068211D00F062F9012084F8480084F85C
:101220003E0084F83F0084F8400084F8410084F8D0
:10123000420084F8430084F8440084F8450084F8B0
:10124000460084F8470084F83D00002010BD704738
:1012500010B504464FF0020269B1042912D00829E2
:1012600017D00C291CD0102921D094F84300012854
:1012700024D0012010BD94F83E000128F9D184F853
:101280003E201DE094F83F000128F2D184F83F2071
:1012900016E094F840000128EBD184F840200FE0DC
:1012A00094F841000128E4D184F8412008E094F842
:1012B00042000128DDD184F8422001E084F8432077
:1012C0000122206800F070F917492068174A884207
:1012D00001D0904203D1436C43F40043436420683F
:1012E000884213D0B0F1804F10D0114988420DD000
:1012F000104988420AD01049884207D0904205D050
:101300000E49884202D00E49884207D181680D4AB1
:101310001140062906D0B1F5803F03D0016841F0A5
:1013200001010160002010BD0000014000040140E7
:101330000004004000080040000C00400040014054
:101340000018004007000100FEE70000094808B54A
:10135000016841F080010160016801F080010091A5
:10136000016841F002010160006800F00200009095
:1013700008BD00003038024010B58EB000241C219A
:10138000009407A80194029403940494059406948D
:10139000FFF719F8214840F2F3116B221E4BC0E908
:1013A000024104618461C0E90032FFF7AFFD08B17A
:1013B000FFF76FF84FF48050009018486946FFF728
:1013C000EBFD08B1FFF765F81448FFF70FFF08B110
:1013D000FFF75FF8114804A904940694FFF744FD51
:1013E00008B1FFF756F807AB0B946020F9210222F1
:1013F00083E8070009480C2207A9FFF765FE08B13A
:10140000FFF747F805480C21FFF722FF0348FFF7D5
:1014100033FE0EB010BD000000040040100000209C
:10142000FEE7FEE770477047FFF772B930B593B03B
:1014300034216846FEF7C7FF14210DA8FEF7C3FF4D
:101440002048016841F080510160006800F0805040
:1014500012901D48016841F4404101600068022477
:10146000192300F440401290012008934FF4D875DE
:1014700082050104CDE90642CDE909540B94CDE97A
:10148000000168460C94FFF70FFB08B172B6FEE747
:10149000FFF70AFA08B172B6FEE70FAD00214FF46C
:1014A000A0524FF4805385E80E000F20CDE90D04C3
:1014B00007210DA8FFF72EFA002801D072B6FEE72B
:1014C00013B030BD4038024000700040024801684F
:1014D00041F470010160704788ED00E0F0B5274BE2
:1014E0004FF0804E264D02689842264E264F274CDC
:1014F00009D0704507D0A84205D0B04203D0B84209
:1015000001D0A04205D1D1F804C022F070024CEA0B
:10151000020298421BD0704519D0A84217D0B042A1
:1015200015D0B84213D0A04211D0194DA8420ED008
:10153000184DA8420BD0184DA84208D0174DA8420C
:1015400005D0174DA84202D0164DA84203D1CD6850
:1015500022F440722A434D6922F080022A4302603D
:1015600098428A68C2620A68826201D0A04201D1B0
:101570000969016301214161F0BD000000000140E3
:101580000004004000080040000C0040000401403E
:101590000040014000440140004801400018004064
:1015A000001C00400020004010B5046A012301F037
:1015B0001F018B409C4304628A40016A114301620F
:1015C00010BD42EA032283680A4323F47F410A43A1
:1015D00082607047826822F070020A4342F007017D
:1015E00081607047F0B5026ADFF860C0184F22F0E2
:1015F0000102DFF860E00262066A4268836926F051
:1016000002060D68B8428C6803EA0C0323F003035A
:1016100044EA060445EA030501D0704505D1CB68CC
:1016200024F00804234323F00404B84201D0704599
:1016300005D122F44076D1E9053233431A434260A2
:101640008561496841630462F0BD00008FFFFEFFC1
:101650000000014000040140F0B5026A194E1A4C26
:1016600022F01002DFF864E00262056A43688269D2
:1016700025F02005D1F808C0A0420F6802EA060252
:1016800022F4407245EA0C1542EA072201D0704567
:1016900006D1CE6825F0800545EA061525F04005FF
:1016A000A04201D0704507D1D1E9054623F440633B
:1016B00043EA840343EA86034360826149688163A5
:1016C0000562F0BDFF8FFFFE0000014000040140F5
:1016D000F0B5026A194F1A4E22F48072DFF864E006
:1016E0000262056A4368C26925F40075D1F808C032
:1016F000B0420C6802EA070222F0030245EA0C2518
:1017000044EA020401D0704506D1CF6825F4006296
:1017100042EA072222F48065B04201D0704507D129
:1017200023F44052D1E9053642EA031242EA061395
:101730004360C4614968C1630562F0BD8FFFFEFF6D
:101740000000014000040140F0B5026A124B114F45
:1017500022F4805298420262046A4268C36924F407
:1017600000548E680D6803EA070323F4407344EACB
:10177000063443EA052302D0084DA84204D14D693E
:1017800022F4804242EA85124260C36149680164E2
:101790000462F0BDFF8FFFFE000001400004014025
:1017A000F0B5026ADFF844C022F480320262056AB2
:1017B0004268446D25F400350E8960450C4F0B6876
:1017C00004EA070445EA064543EA040302D0094C4B
:1017D000A04204D14C6922F4803242EA04224260E1
:1017E0004365496881650562F0BD00000000014065
:1017F0008FFFFEFF00040140F0B5026ADFF844C02D
:1018000022F480120262046A4268436D24F40014D8
:101810000E8960450C4F0D6803EA070344EA06543D
:1018200043EA052302D0094DA84204D14D6922F4B0
:10183000802242EA8522426043654968C1650462AC
:10184000F0BD000000000140FF8FFFFE00040140DA
:1018500001490860704700004004004010B5036A69
:10186000046A23F00A0324F00104046284690B4330
:1018700024F0F00141EA02118161036210BD10B54C
:10188000036A23F0100303628369046A23F470433C
:1018900024F0A00443EA0232826144EA01110162A9
:1018A00010BDFEE7090700284FEA116104DB00F1D3
:1018B000E02080F80014704700F00F0000F1E020F5
:1018C00080F8141D70471FB500240126254600949A
:1018D000019402940394FEF77DFF01208DF80C0023
:1018E0001F218DF8081087228DF809208DF80D0032
:1018F0008DF8000068468DF80A508DF80E508DF86E
:10190000015001958DF80B508DF80F50FEF734FF04
:101910000420FEF76DFFFEF703FFFFF787FDFFF7DB
:1019200015FDFFF729FD0A20FEF7B6FD4FF4967569
:10193000641C00E0641EA4B2AC4200D9002644B18D
:101940002046FFF785FF0A20FEF7A6FD002EEFD107
:10195000F0E701262046FFF77BFF0A20FEF79CFDFB
:10196000E6E74FF04070E1EE100A7047000000001B
:101970000000000001020304060708099C19000882
:10198000000000201000000034020008AC1900081C
:1019900010000020B0060000500200080100000006
:0C19A00010000000000000000024F40013
:04000005080001F9F5
:00000001FF
