:020000040800F2
:10000000980A0220F90200081D0300081F030008D7
:10001000D94D000823030008250300080000000054
:10002000000000000000000000000000270300089E
:1000300029030008000000002B0300082D0300081E
:100040002F0300082F0300082F0300082F030008C8
:100050002F0300082F0300082F0300082F030008B8
:100060002F0300082F0300082F0300082F030008A8
:100070002F0300082F0300082F0300082F03000898
:100080002F0300082F0300082F0300082F03000888
:100090002F0300082F0300082F0300082F03000878
:1000A0002F0300082F0300082F0300082F03000868
:1000B0002F0300082F030008C15300082F03000876
:1000C0002F0300082F0300082F0300082F03000848
:1000D0002F0300084D5400082F0300082F030008C9
:1000E0002F0300082F0300082F0300082F03000828
:1000F0002F0300082F0300082F0300082F03000818
:100100002F0300082F0300082F0300082F03000807
:100110002F0300082F0300082F0300082F030008F7
:100120002F0300082F0300082F0300082F030008E7
:100130002F0300082F0300082F0300082F030008D7
:100140002F0300082F0300082F0300082F030008C7
:100150002F0300082F0300082F0300082F030008B7
:100160002F0300082F0300082F0300082F030008A7
:100170002F0300082F0300082F03000800000000D1
:100180002F0300082F0300082F0300082F03000887
:100190002F0300082F0300082F0300082F03000877
:1001A0002F0300082F0300082F0300082F03000867
:1001B0002F0300082F0300082F0300082F03000857
:1001C0002F0300082F030008000000002F03000881
:1001D0002F0300082F0300082F0300082F03000837
:1001E0002F0300082F0300082F0300082F03000827
:1001F0002F0300082F03000800F002F800F06DF84C
:100200000AA090E8000C82448344AAF10107DA4571
:1002100001D100F062F8AFF2090EBAE80F0013F056
:10022000010F18BFFB1A43F00103184728B1000063
:1002300048B100000A444FF0000C10F8013B13F0E5
:10024000070408BF10F8014B1D1108BF10F8015B2F
:10025000641E05D010F8016B641E01F8016BF9D122
:1002600013F0080F1EBF10F8014BAD1C0C1B09D179
:100270006D1E58BF01F801CBFAD505E014F8016BEB
:1002800001F8016B6D1EF9D59142D6D3704700007D
:100290000023002400250026103A28BF78C1FBD88F
:1002A000520728BF30C148BF0B607047642900F077
:1002B000AF80752900F0AC80782900F0E5806329D3
:1002C00000F03982732900F03E82002070471FB58C
:1002D00006F04CFC1FBD10B510BD00F067FA1146CA
:1002E000FFF7F5FF05F07EF900F085FA03B4FFF79C
:1002F000F2FF03BC05F0F1F8DFF84000016841F4BB
:1003000070010160BFF34F8FDFF83400016821F006
:1003100040410160BFF36F8F0A480047FEE7FEE7E8
:10032000FEE7FEE7FEE7FEE7FEE7FEE7FEE7FEE7A5
:1003300005480649044A064B7047000088ED00E076
:1003400034EF00E0F901000898020220980A022028
:1003500098020220704700000FB4044910B503AAA8
:10036000029800F0F5F910BC5DF814FB04000220BF
:1003700070B5044685690068C10601D5302600E0E5
:100380002026C00707D070BDD4E901213046904730
:10039000206A401C20626D1EF6D570BD70B5044603
:1003A00085690078C00707D170BDD4E901212020FC
:1003B0009047206A401C20626D1EF6D570BD70B556
:1003C0000C460546012A05D02878800600D5EA6942
:1003D000002302E0012305E05B1C934202D2E05CB3
:1003E0000028F9D1A869E618C01AA861286A18443B
:1003F00028622846FFF7BCFF04E0D5E9012114F884
:10040000010B9047B442F8D32846FFF7C7FF70BDF1
:100410002DE9F0410646002410687529314616A5DD
:1004200010D0AFF30080002802DA404213A507E0A5
:1004300031688A0701D512A502E0490704D511A544
:10044000012401E0AFF3008000210A2206F1240715
:1004500009E0B0FBF2FCB0FBF2F302FB1C00303011
:1004600078541846491C0028F3D123462A463046C2
:10047000BDE8F04100F0FCB8000000002D000000D5
:100480002B0000002000000070B504460D462146F8
:100490001068AFF300802188090502D50F4A7A441D
:1004A00002E00E4A7A440E32002104F1240305E0F2
:1004B00000F00F060009965D5E54491C0028F7D134
:1004C00020780023000704D5702D02D009B1022343
:1004D00011322046BDE8704000F0CAB814AE0000EA
:1004E0002DE9F05F894604464FF0000ADFF874B149
:1004F000FB44C0F820A02046E1688847002874D05B
:10050000252806D0D4E901219047206A401C2062AA
:10051000F1E700265F462046E16888472028054627
:1005200007DB312D05D2781910F8200C08B10643ED
:10053000F1E7B00701D526F00406C4F81CA0002797
:10054000C4F818A02A2D09D0284604F0BFFF38B3FC
:1005500004EB8708303DC8F8185019E059F8041B1F
:10056000204604EB87029161E1688847012F054628
:1005700018D1E069002820DA26F020061DE0D8F81E
:10058000180000EB800005EB40003038C8F8180078
:100590002046E1688847054604F098FF0028EED120
:1005A000012F0AD02E2D08D12046E16888477F1CF4
:1005B0000546022F46F02006C4DBA069002803DAB6
:1005C000404246F00106A061F00701D026F0100677
:1005D0006C2D0BD0682D09D04C2D39D06A2D35D01B
:1005E000742D35D07A2D33D016E038E0E1682F46EF
:1005F00020468847B842054609D16C2F26D04FF4D3
:100600008060E168064320468847054604E06C2F79
:100610001AD04FF4807006430DB3A5F1410019289C
:1006200002D8203546F400664A4629462046266010
:100630004E46FFF73BFE80B101280BD0F61D26F099
:10064000070000F1080956E74020E4E78020D8E7DA
:100650000020D6E706F104094DE7284652E7206A54
:10066000BDE8F09FEAAD00007047704770477047E3
:100670002DE9F0470D4699469246044600F12408BC
:100680000168880604D5E06921F01001216000E0CE
:100690000120A84201DD471B00E00027A1697A196B
:1006A00002EB0900081AA0612078C00602D4204697
:1006B000FFF75EFE002608E0D4E901211AF80600E3
:1006C0009047206A401C761C20624E45F4DB20785F
:1006D000C0060AD52046FFF74BFE06E0D4E901210B
:1006E00030209047206A401C2062381EA7F1010785
:1006F000F4DC07E0D4E9012118F805009047206AEE
:10070000401C2062281EA5F10105F3DC2046FFF7FE
:1007100045FE2078000602D50220BDE8F0870120C2
:10072000FBE710B5436913B1AFF3008001E0FFF7B9
:1007300046FE012010BD127800F124010A7000224B
:100740004A700122EDE711684FF0FF32E9E700003F
:10075000074B70B50D467B4400F011F8044628465F
:1007600000F020F810B14FF0FF3070BD204670BD92
:100770006F4E000001694A1C02610878704700B59D
:100780008FB0CDE901310021059105497944CDE9CA
:10079000031011466846FFF7A3FE0FB000BD00002E
:1007A000E5FFFFFF007B00F080007047754600F01A
:1007B0002BF8AE4605006946534620F007008546F3
:1007C00018B020B5FFF7B4FDBDE820404FF000069B
:1007D0004FF000074FF000084FF0000B21F0070129
:1007E000AC46ACE8C009ACE8C009ACE8C009ACE86C
:1007F000C0098D46704710B50446AFF3008020460F
:10080000BDE81040FFF772BD004870473802022073
:100810002DE9FC4704460D4617461E46DDF8289094
:100820004FF0000814B10DB107B116B90120BDE8B1
:10083000FC87601EC4B2781EC7B2681EC5B2701EA7
:1008400086B25F48006840F001005D490860012001
:10085000022100230A46CDE900104FF4C051594847
:1008600000F0B0FA09220B21564800F07BFA092269
:100870000C21544800F076FA51481030006840F0DE
:1008800000704F491031086000204F490860084649
:10089000006840F00100086008E008F101001FFA5C
:1008A00080F8B8F1640F01DD0220C0E74648001D62
:1008B000006800F001000028EFD04348006842497A
:1008C0000860084600680860084600680860084636
:1008D000006840F01000086008460068086008469C
:1008E00000680860002038491C310860084600682C
:1008F00040EA897008600846006840EA04600860C1
:100900000846006840EA055008600846006840EA6A
:100910000740086008460068304308602A480068BD
:1009200020F001002849086009E008F101001FFAE1
:1009300080F84FF6F070804501DD032077E722480C
:10094000001D006800F001000028EED11F4800687B
:1009500040F001001D4908601C481C30006820F070
:1009600001001A491C31086018480C30006840F03A
:10097000010016490C3108601448001D0068134935
:10098000091D0860114814300068104914310860CE
:1009900000200E494031086000210C4844300160BD
:1009A0000A481C30006840F0010008491C3108600A
:1009B0000648006800200549086000BF37E70000CE
:1009C00030380240000002400064004000660040F1
:1009D000014621B90748006800F00300704701296B
:1009E00005D10448001D006800F00300F6E7002070
:1009F000F4E700000C64004010B586B00446002007
:100A0000FFF7E6FF10B9002006B010BD02A803AB47
:100A100004AA05A9CDE90004002000F00FF805980C
:100A2000122805D19DF8100010B99DF80C0008B1EE
:100A3000002002909DF80800E6E70000F0B5DDE92F
:100A40000554344E06EB0016366806F004061670A0
:100A5000167836B92F4E06EB00163668760D0E6006
:100A600005E02C4E06EB00163668F6080E60294E9F
:100A700006EB0016366806F002061E70254E06EBE1
:100A80000016766806F00F062E70224E06EB001652
:100A9000B66826701F4E06EB0016B668360A6670FA
:100AA0001C4E06EB0016B668102E01D9012600E098
:100AB0000026A670174E06EB0016B668360EE670D6
:100AC000144E06EB0016F6682671124E06EB001661
:100AD000F668360A66710F4E06EB0016F668360C9D
:100AE000A6710C4E06EB0016F668360EE67130B9AC
:100AF000094E366846F02006074F3E6009E001289F
:100B000007D1054E361D366846F02006024F3F1DC0
:100B10003E60F0BDB06500400C640040F8B505468D
:100B20000E4600243346002211461220009500F0A4
:100B300015F8074601E0601C84B2384600F094F8CE
:100B4000072803D040F6FF708442F4DB40F6FF70C4
:100B5000844201DB0120F8BD0020FCE7F0B505462A
:100B60000E46059C3E48006800F0806008B10021F8
:100B70000FE03B48006800F0006008B1012108E088
:100B80003748006800F0805008B1022101E0FF20E2
:100B9000F0BD0027334800EB011007601EB9C5F314
:100BA0000A056D0502E025F06045ED002D4800EBDB
:100BB0000110006828432B4F07EB011738602948C4
:100BC00000EB0110006840EA8607264800EB0110A0
:100BD0000760244800EB0110006840EA4207214802
:100BE00000EB0110076003F00F031E4800EB01103B
:100BF000406820F00F071B4800EB011047601948C0
:100C000000EB011040681843164F07EB011778609E
:100C1000E0790006A77940EA0740677940EA0727AC
:100C2000207907430F4800EB0110C760E078000609
:100C3000A77840EA0740677840EA072027783843DA
:100C4000084F07EB0117B860064800EB0110006879
:100C500040F00107034800EB01100760084697E7E2
:100C600008640040806500400146002021B1012950
:100C700013D0022933D121E01B4A126802F001028D
:100C80001043194A126802F002021043164A126811
:100C900002F0806240EA126000BF134A126802F05C
:100CA00001021043104A126802F0020210430E4A79
:100CB000126802F0006240EA526000BF0A4A1268FD
:100CC00002F001021043084A126802F002021043C7
:100CD000054A126802F0805240EA926000BF052087
:100CE00000BF00BF704700000864004010B500BF9F
:100CF00000BF00BF00BF00BFBFF34F8F00BF00BFEA
:100D000000BF00BF00BF00BFBFF36F8F00BF00BFB9
:100D100000BF0020114908601148006840F400300D
:100D20000F49086000BF00BF00BFBFF34F8F00BF77
:100D300000BF00BF00BF00BF00BFBFF36F8F00BF89
:100D400000BF00BF00BF04F077F804484C300068D3
:100D500040F0040001494C31086010BD50EF00E044
:100D600014ED00E030B5CC1000F1200353F824302E
:100D70004C07E50E0F24AC40A343CD1000F1200436
:100D800044F82530CC1000F1200353F824304C07F0
:100D9000E40E02FA04F42343CD1000F1200444F8D9
:100DA000253030BD02461069084008B10120704767
:100DB0000020FCE702F001030BB1816101E00B04AC
:100DC000836170472DE9F0470C46DDE90867002193
:100DD00000258C4600BF60E04FF0010808FA01F5DD
:100DE00004EA050CAC4557D1D0F800804FEA410A1F
:100DF0004FF0030909FA0AF928EA0908C0F8008047
:100E0000D0F800804FEA410902FA09F948EA0908D6
:100E1000C0F80080012A01D0022A27D1D0F808802A
:100E20004FEA410A4FF0030909FA0AF928EA0908CA
:100E3000C0F80880D0F808804FEA410906FA09F99D
:100E400048EA0908C0F80880D0F804904FF001087B
:100E500008FA01F829EA0809C0F80490D0F80480DB
:100E600003FA01F948EA0908C0F80480D0F80C80B8
:100E70004FEA410A4FF0030909FA0AF928EA09087A
:100E8000C0F80C80D0F80C804FEA410907FA09F944
:100E900048EA0908C0F80C80491C10299CD3BDE819
:100EA000F08700001CB51748006840F001001549A4
:100EB00008600846006840F00400086008460068C2
:100EC00040F080000860022000210B460A46CDE970
:100ED000001001210C48FFF775FF012000210B468F
:100EE0000A46CDE9001041030848FFF76BFF0120D7
:100EF00000210B460A46CDE900100C210448FFF7FB
:100F000061FF1CBD30380240000002400008024072
:100F1000001C024010B5044614B101202D49087090
:100F20002C480078002839D008212B48FFF73AFFD9
:100F300080B104212848FFF735FF58B14FF4005124
:100F40002648FFF72FFF28B101212548FFF72AFF88
:100F5000012823D10A2004F0DFFA00201D4908707F
:100F600008211D48FFF71EFF08B9012010BD04210C
:100F70001948FFF717FF08B90220F7E74FF40051AF
:100F80001648FFF70FFF08B90320EFE701211448C7
:100F9000FFF708FF01281BD10420E7E708210E48CE
:100FA000FFF700FF012813D104210B48FFF7FAFED9
:100FB00001280DD141030948FFF7F4FE012807D1AC
:100FC00001210748FFF7EEFE10B901200149087022
:100FD0000020CBE71C000220001C02400008024059
:100FE0000000024070B5044600260D4805880D48F3
:100FF000006818B1204603F04BF90FE0084840881C
:1010000045430021084602F027FF03F00FF90026B0
:1010100002E005490C80761CAE42FAD370BD000098
:1010200008020220180202200000086010B50446E1
:10103000624884716248006850B1204603F086F926
:101040005F48C08A5D4908805D48008B488010BDBC
:10105000002C57D1F020594908804FF4A0704880E7
:101060000846808849F2413188420BD05348808835
:1010700045F21031884205D05048808847F2897186
:10108000884214D12C204D4908812A2048812B20E8
:1010900088810846808845F21031884206D14FF495
:1010A000A070464908804FF4F070488081E04348C2
:1010B000808845F21051884210D14FF430503F499A
:1010C00008814FF4285048814FF42C5088814FF408
:1010D000F07008804FF4487048806AE03748808894
:1010E00041F66311884264D12C20344908812B20B9
:1010F00048812A2088814FF4F07008804FF44870AE
:10110000488056E04FF4A0702C490880F0204880B9
:101110000846808849F2413188420BD027488088B0
:1011200045F21031884205D02448808847F2897101
:10113000884207D12C20214908812A2048812B2070
:10114000888129E01D48808845F21051884210D1DD
:101150004FF43050194908814FF4285048814FF41A
:101160002C5088814FF4487008804FF4F07048800C
:1011700012E01248808841F6631188420CD12C207D
:101180000E4908812A2048812B2088814FF448701D
:1011900008804FF4F07048800848808845F210318C
:1011A000884206D14FF4F070044908804FF4A070D3
:1011B0004880002002F010FD00BF48E7080202202E
:1011C0001802022070B504460D46164646480068CF
:1011D00028B132462946204603F0CEF870BD434878
:1011E000808849F2413188420BD04048808845F2DE
:1011F0001031884205D03D48808847F28971884285
:1012000014D13A49488903F005F8201202F0F6FF9C
:10121000E0B202F0F3FF3549888902F0FBFF2812A3
:1012200002F0ECFFE8B202F0E9FF54E02F488088BA
:1012300045F21051884220D12C49488902F0EAFF3A
:10124000201202F0DBFF29494989491C88B202F0CB
:10125000E1FFE0B202F0D2FF2449888902F0DAFF10
:10126000281202F0CBFF21498989491C88B202F07B
:10127000D1FFE8B202F0C2FF2DE01C48808841F6A1
:101280006311884227D11948807920B9174800880E
:10129000401E001B84B21549488902F0BBFF201292
:1012A00002F0ACFFE0B202F0A9FF201202F0A6FFAC
:1012B000E0B202F0A3FF0D49888902F0ABFF2812CB
:1012C00002F09CFFE8B202F099FF281202F096FFAC
:1012D000E8B202F093FF0548008905490880891C9F
:1012E0000E8000BF7AE700001802022008020220E8
:1012F000FEFF07602DE9F84F05460E461746984653
:10130000DDF828904FF0000B1448006840B14346C8
:101310003A4631462846CDF8009003F055F81BE0D8
:10132000781B401C1FFA80FB344613E021462846F8
:1013300002F092FD02F07AFF4FF0000A06E0084941
:10134000A1F800900AF101001FFA80FADA45F6DBF5
:10135000601C84B24445E9DDBDE8F88F1802022024
:10136000000008601CB503F0E3FBFE4988800846D6
:10137000808840B108468188FBA0FEF7EDFF03F0AE
:10138000C7F802F096BBFC48006840F00200FA493A
:1013900008600846006840F018000860F648083009
:1013A000006840F00100F449083108600120022182
:1013B00000230246CDE900102021F048FFF702FD8E
:1013C0000120032100230222CDE900104EF2B37167
:1013D000EB48FFF7F7FC0120032100230222CDE9AF
:1013E00000104FF68071E748FFF7ECFC0C2200215B
:1013F000E348FFF7B7FC0C220121E148FFF7B2FCFC
:101400000C220421DE48FFF7ADFC0C220521DC484C
:10141000FFF7A8FC0C220721D948FFF7A3FC0C22F8
:101420000821D748FFF79EFC0C220921D448FFF77A
:1014300099FC0C220A21D248FFF794FC0C220D21C2
:10144000CF48FFF78FFC0C220E21CD48FFF78AFC16
:101450000C220F21CA48FFF785FC0C220721C9483E
:10146000FFF780FC0C220821C648FFF77BFC0C220A
:101470000921C448FFF776FC0C220A21C148FFF776
:1014800071FC0C220B21BF48FFF76CFC0C221146AB
:10149000BC48FFF767FC0C220D21BA48FFF762FC3D
:1014A0000C220E21B748FFF75DFC0C220F21B54836
:1014B000FFF758FC00204FF0204108604860B24917
:1014C00008604FF02040006840F480504FF0204109
:1014D00008600846006840F48040086008460068DC
:1014E00040F01000086008464068486008464068C0
:1014F00040F00F0048600846406840F4A040486053
:10150000A1480068C1F804010846D0F8040140F081
:101510000F00C1F804010846D0F8040140F47060DF
:10152000C1F804010846006840F00100086032205C
:1015300003F0F2FFD32002F06DFE02F01BFB89499D
:10154000888002F017FB8749888002F013FB8549E9
:101550008880084680884FF6FF7101EA00208149A3
:10156000888002F007FB7F49898808437D4988808D
:101570000846808849F2413188427DD0042002F03B
:1015800049FE02F0F7FA7749888002F0F3FA7549CC
:10159000888002F0EFFA73498880084680884FF609
:1015A000FF7101EA00206F49888002F0E3FA6D497B
:1015B000898808436B4988800846808848F25251E0
:1015C000884203D147F289706649888065488088DF
:1015D00047F289718842D0D0D42002F01BFE02F07D
:1015E000C9FA6049888002F0C5FA5E49888002F035
:1015F000C1FA5C498880084680884FF6FF7101EA8D
:1016000000205849888002F0B5FA56498988084375
:10161000544988800846808845F2103188426BD052
:1016200055214FF4704002F00BFEAA214FF2010049
:1016300002F006FE52214FF2020002F001FE0821E4
:101640004FF2030002F0FCFD01214FF2040002F012
:10165000F7FD4FF4454002F0DDFD02F08BFA414901
:101660008880084680884FF6FF7101EA00203D49D6
:1016700088804CF2015000E03EE002F0CBFD02F029
:1016800079FA38498988084336498880052003F06B
:1016900043FF34488088B0F5004F03D145F2105025
:1016A000304988802F48808845F21051884223D0E5
:1016B000A12002F0AFFD02F05DFA2A49888002F015
:1016C00059FA28498880084680884FF6FF7101EA58
:1016D00000202449888002F04DFA22498988084375
:1016E000204988800846808845F26171884203D18C
:1016F00041F663101B4988801A4881881AA0FEF7BA
:101700002BFE1848808849F2413188427ED1CF2093
:1017100002F080FD002002F071FDC12002F06EFD9C
:10172000302002F06BFDED2002F074FD642002F029
:1017300065FD032002F062FD122002F05FFD8120B2
:1017400002F05CFDE82002F065FD852002F056FD08
:10175000102002F053FD7A2002F050FDCB2002F061
:1017600059FD13E008020220204C43442049443A2A
:1017700025780D0A000000003038024000040240C5
:10178000000C024000100240040100A0392002F0C9
:1017900035FD2C2002F032FD002002F02FFD342018
:1017A00002F02CFD022002F029FDF72002F032FDAC
:1017B000202002F023FDEA2002F02CFD002002F0A0
:1017C0001DFD002002F01AFDC02002F023FD1B20A9
:1017D00002F014FDC12002F01DFD012002F00EFDFB
:1017E000C52002F017FD302002F008FD302002F085
:1017F00005FDC72002F00EFDB72002F0FFFC3620E9
:1018000002F008FD482002F0F9FC00E0ABE03A20CD
:1018100002F000FD552002F0F1FCB12002F0FAFCCC
:10182000002002F0EBFC1A2002F0E8FCB62002F0E7
:10183000F1FC0A2002F0E2FCA22002F0DFFCF22020
:1018400002F0E8FC002002F0D9FC262002F0E2FCC5
:10185000012002F0D3FCE02002F0DCFC0F2002F0BB
:10186000CDFC2A2002F0CAFC282002F0C7FC082088
:1018700002F0C4FC0E2002F0C1FC082002F0BEFC05
:10188000542002F0BBFCA92002F0B8FC432002F077
:10189000B5FC0A2002F0B2FC0F2002F0AFFC0020E1
:1018A00002F0ACFC002002F0A9FC002002F0A6FC33
:1018B000002002F0A3FCE12002F0ACFC002002F0CA
:1018C0009DFC152002F09AFC172002F097FC0720DF
:1018D00002F094FC112002F091FC062002F08EFC34
:1018E0002B2002F08BFC562002F088FC3C2002F0FA
:1018F00085FC052002F082FC102002F07FFC0F2006
:1019000002F07CFC3F2002F079FC3F2002F076FCE4
:101910000F2002F073FC2B2002F07CFC002002F070
:101920006DFC002002F06AFC012002F067FC3F2001
:1019300002F064FC2A2002F06DFC002002F05EFC44
:10194000002002F05BFC002002F058FCEF2002F0C7
:1019500055FC112002F05EFC782003F0DDFD29200B
:1019600002F058FC0DE5FE48808847F289718842F4
:101970007ED1112002F04EFC782003F0CDFD362000
:1019800002F048FC002002F039FC3A2002F042FC50
:10199000052002F033FCB22002F03CFC0C2002F0E7
:1019A0002DFC0C2002F02AFC002002F027FC332042
:1019B00002F024FC332002F021FCB72002F02AFCC4
:1019C000352002F01BFCBB2002F024FC322002F088
:1019D00015FCC02002F01EFC0C2002F00FFCC220FF
:1019E00002F018FC012002F009FCC32002F012FCF6
:1019F000102002F003FCC42002F00CFC202002F0B6
:101A0000FDFBC62002F006FC0F2002F0F7FBD02001
:101A100002F000FCA42002F0F1FBA12002F0EEFB9A
:101A2000E02002F0F7FBD02002F0E8FB002002F0FB
:101A3000E5FB022002F0E2FB072002F0DFFB0A20B8
:101A400002F0DCFB282002F0D9FB322002F0D6FBAA
:101A5000442002F0D3FB422002F0D0FB062002F02B
:101A6000CDFB0E2002F0CAFB122002F0C7FB00E003
:101A700054E0142002F0C2FB172002F0BFFBE1206B
:101A800002F0C8FBD02002F0B9FB002002F0B6FB48
:101A9000022002F0B3FB072002F0B0FB0A2002F0A4
:101AA000ADFB282002F0AAFB312002F0A7FB542056
:101AB00002F0A4FB472002F0A1FB0E2002F09EFBE7
:101AC0001C2002F09BFB172002F098FB1B2002F069
:101AD00095FB1E2002F092FB2A2002F09BFB0020C7
:101AE00002F08CFB002002F089FB002002F086FB54
:101AF000EF2002F083FB2B2002F08CFB002002F091
:101B00007DFB002002F07AFB012002F077FB3F20F2
:101B100002F074FB292002F07DFB32E490488088BB
:101B200045F21031884240F07C87ED2002F072FBD4
:101B3000012002F063FBFE2002F060FBEE2002F0C9
:101B400069FBDE2002F05AFB212002F057FBF12056
:101B500002F060FB012002F051FBDF2002F05AFB93
:101B6000102002F04BFBC42002F054FB8F2002F047
:101B700045FBC62002F04EFB002002F03FFBE220B6
:101B800002F03CFBE22002F039FBE22002F036FBDF
:101B9000BF2002F03FFBAA2002F030FBB02002F091
:101BA00039FB0D2002F02AFB002002F027FB0D205C
:101BB00002F024FB002002F021FB112002F01EFBAA
:101BC000002002F01BFB192002F018FB002002F09D
:101BD00015FB212002F012FB002002F00FFB2D204C
:101BE00002F00CFB002002F009FB3D2002F006FB96
:101BF000002002F003FB5D2002F000FB002002F059
:101C0000FDFA5D2002F0FAFA002002F0F7FAB120A6
:101C100002F000FB802002F0F1FA002002F0EEFA60
:101C20008B2002F0EBFA002002F0E8FA962002F096
:101C3000E5FA002002F0E2FAB22002F0EBFA00200E
:101C400002F0DCFA002002F0D9FA022002F0D6FA03
:101C5000002002F0D3FA032002F0D0FA002002F0B4
:101C6000CDFAB32002F0D6FA002002F0C7FA002025
:101C700002F0C4FA002002F0C1FA002002F0BEFA1D
:101C8000002002F0BBFA002002F0B8FA002002F0B7
:101C9000B5FA002002F0B2FA002002F0AFFA0020FC
:101CA00002F0ACFA002002F0A9FA002002F0A6FA35
:101CB000002002F0A3FA002002F0A0FA002002F0B7
:101CC0009DFA002002F09AFA002002F097FA002014
:101CD00002F094FA002002F091FA002002F08EFA4D
:101CE000002002F08BFA002002F088FA002002F0B7
:101CF00085FA002002F082FAB42002F08BFA8B20E1
:101D000002F07CFA002002F079FA962002F076FACE
:101D1000002002F073FAA12002F070FA002002F015
:101D20006DFAB52002F076FA022002F067FA002080
:101D300002F064FA032002F061FA002002F05EFA79
:101D4000042002F05BFA002002F058FAB62002F0FC
:101D500061FA002002F052FA002002F04FFA01E08E
:101D600008020220B72002F055FA002002F046FADD
:101D7000002002F043FA3F2002F040FA002002F077
:101D80003DFA5E2002F03AFA002002F037FA6420B1
:101D900002F034FA002002F031FA8C2002F02EFA20
:101DA000002002F02BFAAC2002F028FA002002F00A
:101DB00025FADC2002F022FA002002F01FFA70203F
:101DC00002F01CFA002002F019FA902002F016FA34
:101DD000002002F013FAEB2002F010FA002002F0CB
:101DE0000DFADC2002F00AFA002002F007FAB8200F
:101DF00002F010FA002002F001FA002002F0FEF9D1
:101E0000002002F0FBF9002002F0F8F9002002F0B7
:101E1000F5F9002002F0F2F9002002F0EFF90020BD
:101E200002F0ECF9BA2002F0F5F9242002F0E6F90C
:101E3000002002F0E3F9002002F0E0F9002002F0B7
:101E4000DDF9C12002F0E6F9202002F0D7F90020E8
:101E500002F0D4F9542002F0D1F9002002F0CEF9BA
:101E6000FF2002F0CBF9002002F0C8F9C22002F0F6
:101E7000D1F90A2002F0C2F9002002F0BFF90420D3
:101E800002F0BCF9002002F0B9F9C32002F0C2F957
:101E90003C2002F0B3F9002002F0B0F93A2002F041
:101EA000ADF9002002F0AAF9392002F0A7F90020CC
:101EB00002F0A4F9372002F0A1F9002002F09EF907
:101EC0003C2002F09BF9002002F098F9362002F045
:101ED00095F9002002F092F9322002F08FF90020EB
:101EE00002F08CF92F2002F089F9002002F086F927
:101EF0002C2002F083F9002002F080F9292002F062
:101F00007DF9002002F07AF9262002F077F900200E
:101F100002F074F9242002F071F9002002F06EF949
:101F2000242002F06BF9002002F068F9232002F06F
:101F300065F9002002F062F93C2002F05FF9002010
:101F400002F05CF9362002F059F9002002F056F94F
:101F5000322002F053F9002002F050F92F2002F055
:101F60004DF9002002F04AF92C2002F047F9002038
:101F700002F044F9292002F041F9002002F03EF974
:101F8000262002F03BF9002002F038F9242002F06C
:101F900035F9002002F032F9242002F02FF9002058
:101FA00002F02CF9232002F029F9002002F026F992
:101FB000C42002F02FF9622002F020F9002002F084
:101FC0001DF9052002F01AF9002002F017F984200B
:101FD00002F014F9002002F011F9F02002F00EF9DD
:101FE000002002F00BF9182002F008F9002002F09E
:101FF00005F9A42002F002F9002002F0FFF81820F1
:1020000002F0FCF8002002F0F9F8502002F0F6F897
:10201000002002F0F3F80C2002F0F0F8002002F0AB
:10202000EDF8172002F0EAF8002002F0E7F895201A
:1020300002F0E4F8002002F0E1F8F32002F0DEF80C
:10204000002002F0DBF8E62002F0D8F8002002F0D1
:10205000D5F8C52002F0DEF8322002F0CFF80020DB
:1020600002F0CCF8442002F0C9F8002002F0C6F8D3
:10207000652002F0C3F8002002F0C0F8762002F0DC
:10208000BDF8002002F0BAF8882002F0B7F800206E
:1020900002F0B4F8C62002F0BDF8202002F0AEF83D
:1020A000002002F0ABF8172002F0A8F8002002F0A0
:1020B000A5F8012002F0A2F8002002F09FF8C72046
:1020C00002F0A8F8002002F099F8002002F096F83B
:1020D000002002F093F8002002F090F8C82002F0EF
:1020E00099F8002002F08AF8002002F087F800201A
:1020F00002F084F8002002F081F8C92002F08AF88A
:10210000002002F07BF8002002F078F8002002F0B6
:1021100075F8002002F072F8002002F06FF800203D
:1021200002F06CF8002002F069F8002002F066F876
:10213000002002F063F8002002F060F8002002F0B6
:102140005DF8002002F05AF8002002F057F8002055
:1021500002F054F8002002F051F8002002F04EF88E
:10216000E02002F057F8162002F048F8002002F0B4
:1021700045F81C2002F042F8002002F03FF8212030
:1021800002F03CF8002002F039F8362002F036F870
:10219000002002F033F8462002F030F8002002F070
:1021A0002DF8522002F02AF8002002F027F86420CF
:1021B00002F024F8002002F021F87A2002F01EF844
:1021C000002002F01BF88B2002F018F8002002F02B
:1021D00015F8992002F012F8002002F00FF8A8205C
:1021E00002F00CF8002002F009F8B92002F006F81D
:1021F000002002F003F8C42002F000F8002001F0F3
:10220000FDFFCA2001F0FAFF002001F0F7FFD22005
:1022100001F0F4FF002001F0F1FFD92001F0EEFF02
:10222000002001F0EBFFE02001F0E8FF002001F0CA
:10223000E5FFF32001F0E2FF002001F0DFFFE120E5
:1022400001F0E8FF162001F0D9FF002001F0D6FFD1
:102250001C2001F0D3FF002001F0D0FF222001F06C
:10226000CDFF002001F0CAFF362001F0C7FF00209B
:1022700001F0C4FF452001F0C1FF002001F0BEFFC6
:10228000522001F0BBFF002001F0B8FF642001F0F4
:10229000B5FF002001F0B2FF7A2001F0AFFF00206F
:1022A00001F0ACFF8B2001F0A9FF002001F0A6FF98
:1022B000992001F0A3FF002001F0A0FFA82001F069
:1022C0009DFF002001F09AFFB92001F097FF002048
:1022D00001F094FFC42001F091FF002001F08EFF77
:1022E000CA2001F08BFF002001F088FFD22001F00E
:1022F00085FF002001F082FFD82001F07FFF002041
:1023000001F07CFFE02001F079FF002001F076FF72
:10231000F32001F073FF002001F070FFE22001F0D4
:1023200079FF052001F06AFF002001F067FF0B2014
:1023300001F064FF002001F061FF1B2001F05EFF4F
:10234000002001F05BFF342001F058FF002001F075
:1023500055FF442001F052FF002001F04FFF4F20B5
:1023600001F04CFF002001F049FF612001F046FF21
:10237000002001F043FF792001F040FF002001F030
:102380003DFF882001F03AFF002001F037FF972041
:1023900001F034FF002001F031FFA62001F02EFFF4
:1023A000002001F02BFFB72001F028FF002001F0F2
:1023B00025FFC22001F022FF002001F01FFFC720EF
:1023C00001F01CFF002001F019FFD12001F016FFE1
:1023D000002001F013FFD62001F010FF002001F0D3
:1023E0000DFFDD2001F00AFF002001F007FFF320C0
:1023F00001F004FF002001F001FFE32001F00AFFDB
:10240000052001F0FBFE002001F0F8FE0A2001F09B
:10241000F5FE002001F0F2FE1C2001F0EFFE00208E
:1024200001F0ECFE332001F0E9FE002001F0E6FEB1
:10243000442001F0E3FE002001F0E0FE502001F016
:10244000DDFE002001F0DAFE622001F0D7FE002060
:1024500001F0D4FE782001F0D1FE002001F0CEFE84
:10246000882001F0CBFE002001F0C8FE972001F08B
:10247000C5FE002001F0C2FEA62001F0BFFE002034
:1024800001F0BCFEB72001F0B9FE002001F0B6FE5D
:10249000C22001F0B3FE002001F0B0FEC72001F021
:1024A000ADFE002001F0AAFED12001F0A7FE002021
:1024B00001F0A4FED52001F0A1FE002001F09EFE57
:1024C000DD2001F09BFE002001F098FEF32001F0DA
:1024D00095FE002001F092FEE42001F09BFE012019
:1024E00001F08CFE002001F089FE012001F086FE43
:1024F000002001F083FE022001F080FE002001F0A8
:102500007DFE2A2001F07AFE002001F077FE3C20BB
:1025100001F074FE002001F071FE4B2001F06EFE10
:10252000002001F06BFE5D2001F068FE002001F04C
:1025300065FE742001F062FE002001F05FFE842041
:1025400001F05CFE002001F059FE932001F056FEE0
:10255000002001F053FEA22001F050FE002001F007
:102560004DFEB32001F04AFE002001F047FEBE20E0
:1025700001F044FE002001F041FEC42001F03EFEC7
:10258000002001F03BFECD2001F038FE002001F0DC
:1025900035FED32001F032FE002001F02FFEDD20B9
:1025A00001F02CFE002001F029FEF32001F026FEB0
:1025B000002001F023FEE52001F02CFE002001F0B8
:1025C0001DFE002001F01AFE002001F017FE002081
:1025D00001F014FE022001F011FE002001F00EFEB9
:1025E000292001F00BFE002001F008FE3C2001F044
:1025F00005FE002001F002FE4B2001F0FFFD00204F
:1026000001F0FCFD5D2001F0F9FD002001F0F6FD78
:10261000742001F0F3FD002001F0F0FD842001F0B2
:10262000EDFD002001F0EAFD932001F0E7FD002020
:1026300001F0E4FDA22001F0E1FD002001F0DEFD4B
:10264000B32001F0DBFD002001F0D8FDBE2001F039
:10265000D5FD002001F0D2FDC42001F0CFFD002007
:1026600001F0CCFDCD2001F0C9FD002001F0C6FD38
:10267000D32001F0C3FD002001F0C0FDDC2001F0FB
:10268000BDFD002001F0BAFDF32001F0B7FD0020F0
:1026900001F0B4FDE62001F0BDFD112001F0AEFD1A
:1026A000002001F0ABFD342001F0A8FD002001F076
:1026B000A5FD562001F0A2FD002001F09FFD76202F
:1026C00001F09CFD002001F099FD772001F096FDBE
:1026D000002001F093FD662001F090FD002001F044
:1026E0008DFD882001F08AFD002001F087FD9920F2
:1026F00001F084FD002001F081FDBB2001F07EFD92
:10270000002001F07BFD992001F078FD002001F010
:1027100075FD662001F072FD002001F06FFD55206F
:1027200001F06CFD002001F069FD552001F066FD0F
:10273000002001F063FD452001F060FD002001F064
:102740005DFD432001F05AFD002001F057FD4420BB
:1027500001F054FD002001F051FDE72001F05AFD89
:10276000322001F04BFD002001F048FD552001F022
:1027700045FD002001F042FD762001F03FFD0020E4
:1027800001F03CFD662001F039FD002001F036FD2E
:10279000672001F033FD002001F030FD672001F0DB
:1027A0002DFD002001F02AFD872001F027FD0020EB
:1027B00001F024FD992001F021FD002001F01EFD13
:1027C000BB2001F01BFD002001F018FD992001F055
:1027D00015FD002001F012FD772001F00FFD002013
:1027E00001F00CFD442001F009FD002001F006FD80
:1027F000562001F003FD002001F000FD232001F030
:10280000FDFC002001F0FAFC332001F0F7FC002071
:1028100001F0F4FC452001F0F1FC002001F0EEFC99
:10282000E82001F0F7FC002001F0E8FC002001F0B6
:10283000E5FC992001F0E2FC002001F0DFFC87209C
:1028400001F0DCFC002001F0D9FC882001F0D6FC6E
:10285000002001F0D3FC772001F0D0FC002001F033
:10286000CDFC662001F0CAFC002001F0C7FC8820E6
:1028700001F0C4FC002001F0C1FCAA2001F0BEFC64
:10288000002001F0BBFCBB2001F0B8FC002001F0EF
:10289000B5FC992001F0B2FC002001F0AFFC6620ED
:1028A00001F0ACFC002001F0A9FC552001F0A6FCD1
:1028B000002001F0A3FC552001F0A0FC002001F055
:1028C0009DFC442001F09AFC002001F097FC44207C
:1028D00001F094FC002001F091FC552001F08EFCE9
:1028E000002001F08BFCE92001F094FCAA2001F00B
:1028F00085FC002001F082FC002001F07FFC00201C
:1029000001F07CFC002001F085FCAA2001F076FC9F
:10291000CF2001F07FFC002001F070FC002001F0CE
:102920006DFC002001F06AFC002001F067FC002033
:1029300001F064FC002001F061FC002001F05EFC6D
:10294000002001F05BFC002001F058FC002001F0A9
:1029500055FC002001F052FC002001F04FFC00204B
:1029600001F04CFC002001F049FC002001F046FC85
:10297000002001F043FC002001F040FCF02001F0B9
:1029800049FC002001F03AFC502001F037FC002007
:1029900001F034FC002001F031FC002001F02EFC9D
:1029A000F32001F037FC002001F028FCF92001F0B1
:1029B00031FC062001F022FC102001F01FFC292030
:1029C00001F01CFC002001F019FC3A2001F022FC6F
:1029D000552001F013FC112001F01CFC642002F0D2
:1029E0009BFD292001F016FC352001F013FC00208E
:1029F00001F004FC512001F00DFCFF2001F0FEFB72
:102A0000532001F007FC2C2001F0F8FB552001F0C9
:102A100001FC822001F0F2FB2C2001F0FBFB01F015
:102A200048B8FE48808845F2105188427ED1552131
:102A30004FF4704001F004FCAA214FF2010001F0B4
:102A4000FFFB52214FF2020001F0FAFB08214FF286
:102A5000030001F0F5FB01214FF2040001F0F0FB4F
:102A60000D214FF4304001F0EBFB0D214BF2010042
:102A700001F0E6FB0D214BF2020001F0E1FB3421F5
:102A80004FF4364001F0DCFB34214BF2016001F0E1
:102A9000D7FB34214BF2026001F0D2FB0D214FF441
:102AA000314001F0CDFB0D214BF2011001F0C8FBCC
:102AB0000D214BF2021001F0C3FB34214FF43740DB
:102AC00001F0BEFB34214BF2017001F0B9FB34215F
:102AD0004BF2027001F0B4FB00214FF4324001F0E0
:102AE000AFFB00214BF2012001F0AAFB00214BF2C9
:102AF000022001F0A5FB24214FF4384001F0A0FB97
:102B000024214BF6010001F09BFB24214BF602002F
:102B100001F096FB01214FF43F4001F091FB0F21A2
:102B20004FF4334001F08CFB0F2100E0FEE34BF249
:102B3000013001F085FB0F214BF2023001F080FBE8
:102B400034214FF4394001F07BFB34214BF6011066
:102B500001F076FB34214BF6021001F071FB0821E5
:102B60004FF4354001F06CFB08214BF2015001F0AD
:102B700067FB08214BF2025001F062FB03214FF486
:102B8000424001F05DFB24214FF43A4001F058FB34
:102B900024214BF6012001F053FB24214BF60220A7
:102BA00001F04EFB00214FF43C4001F049FB78213D
:102BB0004BF6014001F044FB00214BF6024001F0CE
:102BC0003FFB00214FF43D4001F03AFB78214BF6EA
:102BD000015001F035FB00214BF6025001F030FBB3
:102BE00000214FF43E4001F02BFB64214BF60160C5
:102BF00001F026FB00214FF4514001F021FB33216D
:102C00004DF2011001F01CFB00214DF2021001F009
:102C100017FB34214DF2031001F012FB00214DF29D
:102C2000041001F00DFB3A214DF2051001F008FBF4
:102C300000214DF2061001F003FB4A214DF207106E
:102C400001F0FEFA00214DF2081001F0F9FA5C21C2
:102C50004DF2091001F0F4FA00214DF20A1001F0D2
:102C6000EFFA81214DF20B1001F0EAFA00214DF24A
:102C70000C1001F0E5FAA6214DF20D1001F0E0FA7A
:102C800000214DF20E1001F0DBFAE5214DF20F109C
:102C900001F0D6FA01214DF2101001F0D1FA132102
:102CA0004DF2111001F0CCFA01214DF2121001F099
:102CB000C7FA54214DF2131001F0C2FA01214DF26E
:102CC000141001F0BDFA82214DF2151001F0B8FA8E
:102CD00001214DF2161001F0B3FACA214DF217107E
:102CE00001F0AEFA02214DF2181001F0A9FA00210C
:102CF0004DF2191001F0A4FA02214DF21A1001F060
:102D00009FFA01214DF21B1001F09AFA02214DF2B7
:102D10001C1001F095FA34214DF21D1001F090FACB
:102D200002214DF21E1001F08BFA67214DF21F10A7
:102D300001F086FA02214DF2201001F081FA84217F
:102D40004DF2211001F07CFA02214DF2221001F027
:102D500077FAA4214DF2231001F072FA02214DF20C
:102D6000241001F06DFAB7214DF2251001F068FA38
:102D700002214DF2261001F063FACF214DF2271007
:102D800001F05EFA02214DF2281001F059FADE211D
:102D90004DF2291001F054FA02214DF22A1001F0EF
:102DA0004FFAF2214DF22B1001F04AFA02214DF2B6
:102DB0002C1001F045FAFE214DF22D1001F040FAE1
:102DC00003214DF22E1001F03BFA10214DF22F108D
:102DD00001F036FA03214DF2301001F031FA3321BF
:102DE0004DF2311001F02CFA03214DF2321001F0B6
:102DF00027FA6D214DF2331001F022FA00214FF431
:102E0000524001F01DFA33214DF2012001F018FA71
:102E100000214DF2022001F013FA01E00802022025
:102E200034214DF2032001F00BFA00214DF2042071
:102E300001F006FA3A214DF2052001F001FA0021D5
:102E40004DF2062001F0FCF94A214DF2072001F075
:102E5000F7F900214DF2082001F0F2F95C214DF262
:102E6000092001F0EDF900214DF20A2001F0E8F906
:102E700081214DF20B2001F0E3F900214DF20C20ED
:102E800001F0DEF9A6214DF20D2001F0D9F9002163
:102E90004DF20E2001F0D4F9E5214DF20F2001F0A2
:102EA000CFF901214DF2102001F0CAF913214DF2A2
:102EB000112001F0C5F901214DF2122001F0C0F9F5
:102EC00054214DF2132001F0BBF901214DF21420E1
:102ED00001F0B6F982214DF2152001F0B1F901217E
:102EE0004DF2162001F0ACF9CA214DF2172001F085
:102EF000A7F902214DF2182001F0A2F900214DF2AC
:102F0000192001F09DF902214DF21A2001F098F9E3
:102F100001214DF21B2001F093F902214DF21C20FA
:102F200001F08EF934214DF21D2001F089F90221C2
:102F30004DF21E2001F084F967214DF21F2001F0AF
:102F40007FF902214DF2202001F07AF984214DF21F
:102F5000212001F075F902214DF2222001F070F9D3
:102F6000A4214DF2232001F06BF902214DF224201F
:102F700001F066F9B7214DF2252001F061F9022137
:102F80004DF2262001F05CF9CF214DF2272001F00F
:102F900057F902214DF2282001F052F9DE214DF2BD
:102FA000292001F04DF902214DF22A2001F048F9C3
:102FB000F2214DF22B2001F043F902214DF22C2099
:102FC00001F03EF9FE214DF22D2001F039F90321E7
:102FD0004DF22E2001F034F910214DF22F2001F096
:102FE0002FF903214DF2302001F02AF933214DF25F
:102FF000312001F025F903214DF2322001F020F9B2
:103000006D214DF2332001F01BF900214FF45340A4
:1030100001F016F933214DF2013001F011F90021D0
:103020004DF2023001F00CF934214DF2033001F081
:1030300007F900214DF2043001F002F93A214DF276
:10304000053001F0FDF800214DF2063001F0F8F8EE
:103050004A214DF2073001F0F3F800214DF208301B
:1030600001F0EEF85C214DF2093001F0E9F80021A1
:103070004DF20A3001F0E4F881214DF20B3001F0FD
:10308000DFF800214DF20C3001F0DAF8A6214DF204
:103090000D3001F0D5F800214DF20E3001F0D0F8DE
:1030A000E5214DF20F3001F0CBF801214DF2103047
:1030B00001F0C6F813214DF2113001F0C1F80121E1
:1030C0004DF2123001F0BCF854214DF2133001F0F2
:1030D000B7F801214DF2143001F0B2F882214DF21F
:1030E000153001F0ADF801214DF2163001F0A8F8CD
:1030F000CA214DF2173001F0A3F802214DF2183029
:1031000001F09EF800214DF2193001F099F80221EA
:103110004DF21A3001F094F801214DF21B3001F00C
:103120008FF802214DF21C3001F08AF834214DF263
:103130001D3001F085F802214DF21E3001F080F8BB
:1031400067214DF21F3001F07BF802214DF2203053
:1031500001F076F884214DF2213001F071F802215E
:103160004DF2223001F06CF8A4214DF2233001F031
:1031700067F802214DF2243001F062F8B7214DF2D8
:10318000253001F05DF802214DF2263001F058F8AB
:10319000CF214DF2273001F053F802214DF22830B3
:1031A00001F04EF8DE214DF2293001F049F80221FC
:1031B0004DF22A3001F044F8F2214DF22B3001F0AB
:1031C0003FF802214DF22C3001F03AF8FE214DF289
:1031D0002D3001F035F803214DF22E3001F030F89A
:1031E00010214DF22F3001F02BF803214DF2303039
:1031F00001F026F833214DF2313001F021F803219E
:103200004DF2323001F01CF86D214DF2333001F0F7
:1032100017F800214FF4544001F012F833214DF219
:10322000014001F00DF800214DF2024001F008F8D4
:1032300034214DF2034001F003F800214DF2044027
:1032400000F0FEFF3A214DF2054000F0F9FF0021A9
:103250004DF2064000F0F4FF4A214DF2074000F025
:10326000EFFF00214DF2084000F0EAFF5C214DF233
:10327000094000F0E5FF00214DF20A4000F0E0FFB8
:1032800081214DF20B4000F0DBFF00214DF20C409C
:1032900000F0D6FFA6214DF20D4000F0D1FF002135
:1032A0004DF20E4000F0CCFFE5214DF20F4000F052
:1032B000C7FF01214DF2104000F0C2FF13214DF273
:1032C000114000F0BDFF01214DF2124000F0B8FFA7
:1032D00054214DF2134000F0B3FF01214DF2144090
:1032E00000F0AEFF82214DF2154000F0A9FF012150
:1032F0004DF2164000F0A4FFCA214DF2174000F035
:103300009FFF02214DF2184000F09AFF00214DF27C
:10331000194000F095FF02214DF21A4000F090FF95
:1033200001214DF21B4000F08BFF00E003E302217E
:103330004DF21C4000F084FF34214DF21D4000F09E
:103340007FFF02214DF21E4000F07AFF67214DF20F
:103350001F4000F075FF02214DF2204000F070FF89
:1033600084214DF2214000F06BFF02214DF22240FA
:1033700000F066FFA4214DF2234000F061FF02211E
:103380004DF2244000F05CFFB7214DF2254000F0E3
:1033900057FF02214DF2264000F052FFCF214DF29F
:1033A000274000F04DFF02214DF2284000F048FF79
:1033B000DE214DF2294000F043FF02214DF22A4068
:1033C00000F03EFFF2214DF22B4000F039FF0221C8
:1033D0004DF22C4000F034FFFE214DF22D4000F064
:1033E0002FFF03214DF22E4000F02AFF10214DF255
:1033F0002F4000F025FF03214DF2304000F020FF68
:1034000033214DF2314000F01BFF03214DF23240D9
:1034100000F016FF6D214DF2334000F011FF002146
:103420004FF4554000F00CFF33214DF2015000F0F5
:1034300007FF00214DF2025000F002FF34214DF24F
:10344000035000F0FDFE00214DF2045000F0F8FEA4
:103450003A214DF2055000F0F3FE00214DF20650E6
:1034600000F0EEFE4A214DF2075000F0E9FE002187
:103470004DF2085000F0E4FE5C214DF2095000F0DE
:10348000DFFE00214DF20A5000F0DAFE81214DF2FC
:103490000B5000F0D5FE00214DF20C5000F0D0FE94
:1034A000A6214DF20D5000F0CBFE00214DF20E5042
:1034B00000F0C6FEE5214DF20F5000F0C1FE0121E3
:1034C0004DF2105000F0BCFE13214DF2115000F0EF
:1034D000B7FE01214DF2125000F0B2FE54214DF220
:1034E000135000F0ADFE01214DF2145000F0A8FE83
:1034F00082214DF2155000F0A3FE01214DF216502D
:1035000000F09EFECA214DF2175000F099FE0221F4
:103510004DF2185000F094FE00214DF2195000F0C9
:103520008FFE02214DF21A5000F08AFE01214DF269
:103530001B5000F085FE02214DF21C5000F080FE71
:1035400034214DF21D5000F07BFE02214DF21E5041
:1035500000F076FE67214DF21F5000F071FE02214F
:103560004DF2205000F06CFE84214DF2215000F00D
:1035700067FE02214DF2225000F062FEA4214DF2BE
:10358000235000F05DFE02214DF2245000F058FE61
:10359000B7214DF2255000F053FE02214DF2265086
:1035A00000F04EFECF214DF2275000F049FE0221DF
:1035B0004DF2285000F044FEDE214DF2295000F07B
:1035C0003FFE02214DF22A5000F03AFEF2214DF268
:1035D0002B5000F035FE02214DF22C5000F030FE51
:1035E000FE214DF22D5000F02BFE03214DF22E5006
:1035F00000F026FE10214DF22F5000F021FE032195
:103600004DF2305000F01CFE33214DF2315000F0ED
:1036100017FE03214DF2325000F012FE6D214DF2E3
:10362000335000F00DFE00214FF4564000F008FE2C
:1036300033214DF2016000F003FE00214DF20260E3
:1036400000F0FEFD34214DF2036000F0F9FD002191
:103650004DF2046000F0F4FD3A214DF2056000F0F7
:10366000EFFD00214DF2066000F0EAFD4A214DF227
:10367000076000F0E5FD00214DF2086000F0E0FD7C
:103680005C214DF2096000F0DBFD00214DF20A6083
:1036900000F0D6FD81214DF20B6000F0D1FD00213C
:1036A0004DF20C6000F0CCFDA6214DF20D6000F053
:1036B000C7FD00214DF20E6000F0C2FDE5214DF284
:1036C0000F6000F0BDFD01214DF2106000F0B8FD6B
:1036D00013214DF2116000F0B3FD01214DF2126093
:1036E00000F0AEFD54214DF2136000F0A9FD012160
:1036F0004DF2146000F0A4FD82214DF2156000F03F
:103700009FFD01214DF2166000F09AFDCA214DF295
:10371000176000F095FD02214DF2186000F090FD59
:1037200000214DF2196000F08BFD02214DF21A606C
:1037300000F086FD01214DF21B6000F081FD0221A9
:103740004DF21C6000F07CFD34214DF21D6000F054
:1037500077FD02214DF21E6000F072FD67214DF2EF
:103760001F6000F06DFD02214DF2206000F068FD49
:1037700084214DF2216000F063FD02214DF22260B0
:1037800000F05EFDA4214DF2236000F059FD0221FE
:103790004DF2246000F054FDB7214DF2256000F099
:1037A0004FFD02214DF2266000F04AFDCF214DF27F
:1037B000276000F045FD02214DF2286000F040FD39
:1037C000DE214DF2296000F03BFD02214DF22A601E
:1037D00000F036FDF2214DF22B6000F031FD0221A8
:1037E0004DF22C6000F02CFDFE214DF22D6000F01A
:1037F00027FD03214DF22E6000F022FD10214DF235
:103800002F6000F01DFD03214DF2306000F018FD27
:1038100033214DF2316000F013FD03214DF232608F
:1038200000F00EFD6D214DF2336000F009FD5521D1
:103830004FF4704000F004FDAA214FF2010000F0A7
:10384000FFFC52214FF2020000F0FAFC08214FF277
:10385000030000F0F5FC00214FF2040000F0F0FC42
:10386000CC214FF4314000F0EBFC00214BF2011071
:1038700000F0E6FC05214FF4364000F0E1FC702139
:103880004FF4374000F0DCFC70214BF2017000F087
:10389000D7FC01214FF4384000F0D2FC03214BF655
:1038A000010000F0CDFC03214BF6020000F0C8FC43
:1038B00003214BF6030000F0C3FC02214FF43C400F
:1038C00000F0BEFC00214BF6014000F0B9FC0021E5
:1038D0004BF6024000F0B4FCD0214FF4494000F018
:1038E000AFFC02214CF6011000F0AAFC50214CF66E
:1038F000021000F0A5FC50214CF6031000F0A0FCD3
:1039000050214CF6041000F09BFC00214FF4545061
:1039100000F096FC55214FF4685000F091FC4FF4F4
:10392000885000F077FC782001F012FE4FF424500C
:1039300000F070FCBDE08648808841F66311884243
:10394000F8D1E22000F066FC1D2000F057FC0220B8
:1039500000F054FC042000F051FC642001F0F8FD5C
:10396000E02000F057FC012000F048FC0A2001F0A4
:10397000D3FDE02000F04EFC032000F03FFC0C20C3
:1039800001F0CAFD012000F045FC0A2001F0C4FD51
:10399000E62000F03FFC2F2000F030FCFF2000F07C
:1039A0002DFCFF2000F02AFCB02000F033FC20208A
:1039B00000F024FC002000F021FC032000F01EFC9D
:1039C00040F21F3000F01AFC012000F017FC40F21A
:1039D000DF1000F013FC002000F010FCB42000F019
:1039E00019FC042000F00AFC40F21F4000F006FC25
:1039F000002000F003FC2E2000F000FC002000F06E
:103A0000FDFB002000F0FAFB002000F0F7FB002097
:103A100000F0F4FBB62000F0FDFB022000F0EEFB0E
:103A20004FF4037000F0EAFB002000F0E7FB1720E2
:103A300000F0E4FB152000F0E1FB002000F0DEFBCD
:103A4000002000F0DBFBF02000F0E4FB032000F09E
:103A5000D5FB292000F0DEFBD02000F0DBFB0020AE
:103A600000F0CCFBBE2000F0D5FB052000F0C6FB2B
:103A7000FE2000F0C3FB012000F0C0FB002000F09E
:103A8000BDFB002000F0BAFB002000F0B7FBB8201F
:103A900000F0C0FB032000F0B1FB012000F0AEFB02
:103AA000BA2000F0B7FB012000F0A8FB642000F072
:103AB0006BF82748808849F2413188421DD024485C
:103AC000808847F28971884217D02148808845F262
:103AD0001031884211D01E48808845F2105188422A
:103AE0000BD01B48808841F66311884205D01848E6
:103AF000808847F2897188421CD11648006820F0FE
:103B00000F004FF02041C1F804010846D0F804012D
:103B100020F47060C1F804010846D0F8040140F0B8
:103B20000500C1F804010846D0F8040140F4A06083
:103B3000C1F804010020FDF779FA0122202106488E
:103B4000FDF738F94FF6FF70FDF74CFA1CBD000089
:103B500008020220040100A00004024010B5024641
:103B6000012000E050430B1EA1F10104E1B2F9D1A4
:103B700010BD000008B5034800880090BDF80000A3
:103B800008BD00000000086000B50246BE2000F03D
:103B900041FB052000F032FB00EE102AB8EE400B8E
:103BA0009FED0B1B20EE010BBCEEC00B10EE101AAC
:103BB00088B200F023FB012000F020FBFF2000F082
:103BC0001DFB002000F01AFB002000F017FB00BDD9
:103BD0006666666666660440F0B505460024002702
:103BE0009C488079012805D19A48808841F6631164
:103BF000884208D197488079F0B99648808841F684
:103C00006311884218D1082D15D2DFE805F00406AB
:103C1000080A0C0E101206250DE007250BE00425FE
:103C200009E0052507E0012505E0002503E003255F
:103C300001E0022500BF00BF8648808849F241317B
:103C4000884217D08348808845F21031884211D0CD
:103C50008048808845F2105188420BD07D4880888A
:103C600041F66311884205D07A48808847F289710D
:103C700088427DD1082D1CD2DFE805F00406090C2E
:103C80000F12151800BF14E044F0800411E044F056
:103C900040040EE044F0C0040BE044F0200408E0CF
:103CA00044F0600405E044F0A00402E044F0E004C5
:103CB00000BF00BF6748808845F21051884202D19A
:103CC0004FF4585700E036276248808845F210319B
:103CD00088420DD05F48808845F21051884207D055
:103CE0005C48808841F66311884201D044F00804A2
:103CF0002146384600F0A4FA5648808841F6631100
:103D000088421DD004F0200068B152480088514913
:103D10004988884214DA4F48068840884D4908800F
:103D2000084646800CE04B4800884A49498888424A
:103D300006DD48480688408846490880084646808F
:103D40004448808845F21051884254D141494889FD
:103D500000F060FA002000F051FA3E494989491C00
:103D600088B200F057FA002000F048FA394900E024
:103D70006FE04989891C88B200F04CFA35490988FE
:103D8000491EC1F30F2000F039FA32494989C91C94
:103D900088B200F03FFA2F490978491EC8B200F0F6
:103DA0002DFA2C49888900F035FA002000F026FA17
:103DB00028498989491C88B200F02CFA002000F0BB
:103DC0001DFA24498989891C88B200F023FA214907
:103DD0004988491EC1F30F2000F010FA1D49898956
:103DE000C91C88B200F016FA1A498978491EC8B26F
:103DF00000F004FA2DE01749488900F00BFA002082
:103E000000F0FCF9002000F0F9F912490988491E78
:103E1000C1F30F2000F0F2F90E490978491EC8B22B
:103E200000F0ECF90B49888900F0F4F9002000F06B
:103E3000E5F9002000F0E2F906494988491EC1F37E
:103E40000F2000F0DBF903498978491EC8B200F061
:103E5000D5F9F0BD0802022010B502460C464E48C6
:103E6000808849F2413188420BD04B48808845F226
:103E70001031884205D04848808847F289718842CD
:103E800014D14549488900F0C5F9101200F0B6F97F
:103E9000D0B200F0B3F94049888900F0BBF9201294
:103EA00000F0ACF9E0B200F0A9F973E03A4880887C
:103EB00041F66311884247D137488079A8B936481E
:103EC0000088401E801A82B23349488900F0A2F966
:103ED000002000F093F9002000F090F9101200F09B
:103EE0008DF9D0B200F08AF916E02B49488900F02C
:103EF00091F9101200F082F9D0B200F07FF9264952
:103F00000988491EC1F30F2000F078F92249097889
:103F1000491EC8B200F072F91F49888900F07AF989
:103F2000201200F06BF9E0B200F068F91A494988F4
:103F3000491EC1F30F2000F061F917498978491E25
:103F4000C8B200F05BF925E01348808845F21051B3
:103F500088421FD11049488900F05CF9101200F026
:103F60004DF90D494989491C88B200F053F9D0B286
:103F700000F044F90849888900F04CF9201200F05B
:103F80003DF905498989491C88B200F043F9E0B23E
:103F900000F034F910BD0000080202202DE9F84FAE
:103FA00080460F4616461C46BB462046E31704EBE8
:103FB0005373DB1021464FEAE47C04EB5C7C4FEA50
:103FC000EC0CA4EBCC0CBCF1000F02D04FF0010CB8
:103FD00001E04FF0000C6344224604EBD27C4FEA30
:103FE0006C0C03FB0CF3DBB20093A6F12000C6B20D
:103FF00000255EE00C2C07D106EB46002F4901EBB3
:10400000800010F805901BE0102C05D12C4800EB27
:10401000061010F8059013E0182C07D106EBC60027
:10402000284901EB800010F8059009E0202C05D10B
:10403000254800EBC61010F8059001E0BDE8F88FA8
:104040004FF0000A2FE009F0800030B11F483946D8
:1040500002684046FDF7B6F807E00A9828B91C4800
:10406000394602684046FDF7ADF84FEA49604FEA2D
:104070001069781C87B217484088B84200DCDDE739
:10408000A7EB0B00A0420AD15F4608F101001FFA1E
:1040900080F810480088404500DCCFE706E00AF1D0
:1040A000010000F0FF0ABAF1080FCCDB00BF681C6A
:1040B000C5B2009885429DDB00BFBFE7766B000864
:1040C000EA6F0008DA750008368300080C00022049
:1040D00010000220080202202DE9F84F04460D4688
:1040E00090469946DDE90A6704F0FF0A08EB0400F0
:1040F0001FFA80F809EB05001FFA80F916E0444525
:1041000002DB5446A81985B24D4500DB14E00020BF
:1041100000903A78334629462046FFF73FFF304665
:1041200006EBD07104EB61018CB27F1C38787E28DD
:1041300002DC38782028E2DA00BFBDE8F88F2DE9EC
:10414000FF4F83B0064692461F46DDE91048002027
:10415000029000254DE0781B401EC1B20A20FFF7F7
:10416000FDFCBAFBF0F00A21B0FBF1F201FB1209F1
:10417000029850BB781EA84227DDB9F1000F22D16A
:1041800008F0800078B108F00100A34604EBDB7171
:10419000491001FB0561009088B223463022049942
:1041A000FFF7FCFE0EE008F00100A34604EBDB7114
:1041B000491001FB0561009088B223462022049932
:1041C000FFF7ECFE13E00120029008F00100A34687
:1041D00004EBDB71491001FB0561009088B209F125
:1041E0003001CAB223460499FFF7D8FE00BF681C0D
:1041F000C5B2BD42AFDB07B0BDE8F08F01B5BDF879
:1042000000000090BDF800000149088008BD0000D2
:104210000000086001B5BDF800000090BDF8000086
:104220000149088008BD0000FEFF076002480089C0
:10423000024908807047000008020220FEFF076064
:10424000024A1080921C118070470000FEFF076038
:104250001CB50D48006840F002000B4908600120C1
:10426000032100230246CDE900100848FCF7AAFD0F
:10427000012202210548FCF79DFD01221146034859
:10428000FCF798FD1CBD00003038024000040240DD
:1042900018B5044606480094008B401E83B20448BB
:1042A000C08A401E82B20021084600F08DF818BD79
:1042B00018020220F0B503460C46154600210020E6
:1042C0000022214E366826F080561F4F3E6001E0E6
:1042D0004E1CB1B21C4E366806F000561EB141F6B7
:1042E000FF76B142F4DB41F6FF76B14201D1012005
:1042F00029E042EA831242EA0472134E88363260A1
:10430000361D366826F440360F4F8C373E603E46E9
:10431000366846EA05463E600B4E366846F08056E3
:10432000094F3E6001E04E1CB1B2074E366806F000
:1043300000561EB941F6FF76B142F4DB41F6FF7636
:10434000B14200D10220F0BD003802400949487551
:1043500030B98988074AD18211460988118308E05B
:10436000012806D103490988024AD1821146898869
:10437000118370471802022070B5114B5B7D6BB141
:104380000F4BDB690E4D2D6805FB01056B430C4D92
:104390002D7D0C4E56F82550EA520FE0084B1D6853
:1043A0005B681B1A5B1E05FB0313054DED696B4330
:1043B000034D2D7D034E56F82550EA5270BD000086
:1043C00018020220140002202DE9F04F04460D4689
:1043D00016464FF0000CDFF8289199F81590B9F1C6
:1043E000000F04D02046294632461F4611E02846D9
:1043F000DFF80C91D9F80490A9EB0609A9F10101A5
:104400001A46DFF8FC90D9F80490A9EB0409A9F149
:104410000107DFF8EC90B9F80090A2EB000A0AF16E
:10442000010AA9EB0A091FFA89F8DFF8D49099F874
:104430001490DFF8D0A05AF82990DFF8C4A0DAF879
:104440001CA0DFF8BCB0DBF800B00BFB010B0AFBD3
:104450000B9EDFF8B490D9F8009049F40009DFF81A
:10446000A8A0CAF80090DFF8A490D9F8009029F02D
:104470000109DFF898A0CAF800904FF44039CAF853
:1044800000904FF00209CAF83490D146C9F8408034
:10449000C9F83CE0A7EB010909F10109A2EB000A08
:1044A0000AF1010A49EA0A49DFF860A0CAF8449013
:1044B000DDF82490CAF83890D146D9F8009049F038
:1044C0000109CAF8009005E00CF1010CBCF5001FD1
:1044D00000D308E0DFF83490D9F8049009F002091D
:1044E000B9F1000FF0D000BFDFF82090D9F80890A4
:1044F00049F00209DFF814A0CAF80890BDE8F08F6F
:1045000018020220140002203038024000B002409D
:104510007FB50024002500F00BFB054605B97FBDE3
:1045200000F03EFEEF48006840F08060ED49086012
:10453000EC481438006840F00200EA491439086079
:104540000846006840F4F070086001200221002352
:104550000246CDE900102021E348FCF733FC01209E
:10456000032100230222CDE900108102DF48FCF77D
:1045700029FC0120032100230222CDE900104FF481
:104580000C61DB48FCF71EFC012003210023022202
:10459000CDE900104FF47E41D648FCF713FC012012
:1045A000032100230222CDE9001040F2F761D24836
:1045B000FCF708FC0E220A21CC48FCF7D3FB0E22A4
:1045C0000621CB48FCF7CEFB0E220721C848FCF79A
:1045D000C9FB0E220B21C648FCF7C4FB0E220921A1
:1045E000C448FCF7BFFB0E220A21C248FCF7BAFB05
:1045F0000E220B21BF48FCF7B5FB0E220C21BD4853
:10460000FCF7B0FB0E220D21BA48FCF7ABFB0E22E3
:104610001146B848FCF7A6FB0E220F21B548FCF75F
:10462000A1FB0E220021B448FCF79CFB0E220121C5
:10463000B148FCF797FB0E220221AF48FCF792FB32
:104640000E220421AC48FCF78DFB0E220521AA485E
:10465000FCF788FB0E220621A748FCF783FB0E22FD
:104660000721A548FCF77EFB0E220921A248FCF792
:1046700079FB0E220A21A048FCF774FB44F2423079
:10468000854218D14FF4F0709C4908604FF488704F
:104690004860012008814881282088810820C8813D
:1046A0000520088208204882022204214FF49070DD
:1046B000FFF700FE7EE047F28400854218D14FF4F8
:1046C00048708E4908604FF4F070486001200881FE
:1046D00048812E2088811720C881D2200882162088
:1046E0004882012203214FF4C670FFF7E3FD61E029
:1046F00047F21600854219D14FF480607F49086067
:104700004FF41670486014200881032048818C20E3
:1047100088811420C881A02008820C2048820122B0
:1047200002214FF4B470FFF7C5FD43E047F21800D3
:10473000854207D14FF4A060704908604FF448707B
:10474000486037E044F28430854219D14FF4487014
:104750006A4908604FF4F07048605820888128202A
:104760000882302008812020C8810D204882032043
:104770004881012203214FF4C670FFF79BFD19E029
:1047800041F21800854215D14FF4A0605B490860E2
:104790004FF4487048608C2088810A200882088184
:1047A000C881488203204881002203214FF496707B
:1047B000FFF780FD002441F21800854201D14FF03F
:1047C000805400BF00BF00BF4D4804604B48408983
:1047D000441E4A480089401E44EA004448481038B4
:1047E0000460464840894549C9890844441E4348F5
:1047F0000089424989890844401E44EA00444048EF
:104800000C3804603D4840893C49C98908443B490B
:1048100049680844441E3948008938498989084450
:10482000364909880844401E44EA004434480838A0
:104830000460324840893149C98908442F49496890
:1048400008442E49498A0844441E2C4800892B49B3
:10485000898908442949098808442849098A08445B
:10486000401E44EA00442648001F046000202449FA
:1048700014310860012000F0B5F92248224908608F
:1048800002201E49C861002007210622CDE900024E
:10489000CDE902101C48FF2302220168002000F02D
:1048A00037F81648808880B200901448008883B298
:1048B00000221146104600F09FF810480088134966
:1048C00008800E4880884880002000F085F9012289
:1048D00020210548FCF76EFA4FF0FF30FFF7D8FCB7
:1048E00000BF1CE6443802400004024000140240AD
:1048F00000180240001C0240002002401802022062
:1049000018680140000000C01400022008020220C4
:104910002DE9F04106ACF0CCE0B9DFF878C0CCF876
:104920000010DFF870C0ACF1180CCCF800200CF1CE
:10493000040CCCF8003047EA046CDFF85880A8F18A
:104940001008C8F800C046EA052C08F10408C8F8A9
:1049500000C01DE0DFF83CC00CF1800CCCF800106A
:10496000DFF830C00CF1680CCCF800200CF1040C1E
:10497000CCF8003047EA046CDFF8188008F17008C2
:10498000C8F800C046EA052C08F10408C8F800C0C1
:10499000BDE8F081AC680140012910D130B9154A59
:1049A000126842F00102134B1A6019E0114A80327A
:1049B000126842F001020F4B80331A6010E079B99F
:1049C00030B90C4A126822F001020A4B1A6007E063
:1049D000084A8032126822F00102064B80331A60C6
:1049E000044A603A126842F00102024B603B1A60CE
:1049F00070470000846801402DE9F04782460F4669
:104A000090461E46DDF820900025BAF1000F43D1F4
:104A1000B81945490968C1F30B41084404044248E8
:104A20000068C0F30B403844401C20433E497C31B1
:104A3000086008EB09003C490968C1F30A01084411
:104A4000040439480068C0F30A004044401C204375
:104A500035498031086034488830006800F0070527
:104A60000DB904240AE0012D01D1032406E0052D2F
:104A700001D0062D01D1012400E0022406FB04F040
:104A8000C01C06FB04F140EA01402749A43108603C
:104A9000081DC0F8009041E0B81923490968C1F326
:104AA0000B410844040420480068C0F30B4038441C
:104AB000401C20431C49FC31086008EB09001A49DE
:104AC0000968C1F30A010844040417480068C0F3E8
:104AD0000A004044401C2043144908601348083031
:104AE000006800F007050DB904240AE0012D01D18A
:104AF000032406E0052D01D0062D01D1012400E09C
:104B0000022406FB04F0C01C06FB04F140EA01404D
:104B1000064924310860081DC0F800900121504664
:104B2000FFF73AFFBDE8F0870C6801400C690140CF
:104B30001CB500242548006840F4A0702349086093
:104B4000012000210B460A46CDE9001040212048F3
:104B5000FCF738F9012000210B460A46CDE9001088
:104B600084211C48FCF72EF9322000F0D5FC4021AE
:104B70001748FCF717F9044604211648FCF712F908
:104B800044EA4000C4B280211248FCF70BF944EA21
:104B90008000C4B2062C16D2DFE804F00306090C2C
:104BA0000F1244F242301CBD47F28400FBE747F28B
:104BB0001600F8E747F21800F5E744F28430F2E710
:104BC00041F21800EFE70020EDE700003038024026
:104BD000001802400020024001490875704700009B
:104BE00018020220012806D10749096841F0010195
:104BF000054A116006E028B90349096821F001015E
:104C0000014A116070470000186801400146002009
:104C100002E04908421CD0B20129FAD170470000D5
:104C20000748006820F48030054908600448703067
:104C3000006820F0010002497031086070470000F0
:104C400024ED00E00520054908600448703800683C
:104C500040F48030014970390860704794ED00E0FD
:104C60000EB5002000900190032302464FF08061B2
:104C70000290580700F022F801200022CDE9002020
:104C800003230246C1040290400700F017F80120F8
:104C90000022CDE90020032302224106029098075A
:104CA00000F00CF800200090019003231A464FF00A
:104CB00080510290C80000F001F80EBD2DE9F04FC0
:104CC00005460C4616461F46DDE90A9ADDF82480A3
:104CD00000239B4604F01F0000B914B90120BDE871
:104CE000F08F2046FFF792FF401E00F0FF0BFFF70A
:104CF00097FF0C480660001D056000BF43EA07638C
:104D000000BF43EA884343EA494343EA0A4300BFFA
:104D100043EA4B0343F00103001D0360FFF792FFDA
:104D20000020DCE798ED00E02DE9F04107468846D9
:104D300014461D46284600F033F8C5F1040007FA72
:104D400000F60F20284100EA0800064306F00F068F
:104D5000E21704EBD2625211920002F1E022D2F883
:104D600000212146E31704EBD3635B11A4EB431C42
:104D7000012303FA0CF31A432046E31704EBD36331
:104D80005B119B0003F1E023C3F800210348005DA1
:104D900040EA061001490855BDE8F08100E400E052
:104DA0000146072323EA01021202054B18684FF659
:104DB000FF031840034B18431043014B1860704722
:104DC0000CED00E00000FA054A0A52020243014BD2
:104DD0001A60704708ED00E010B5002201210A4872
:104DE000FBF7E8FF09A0FBF7B7FA4FF47A7000F081
:104DF00093FB0CA0FBF7B0FA4FF47A7000F08CFB39
:104E000000F0D6FA10BD0000000402404D656D2090
:104E1000416363657373204572726F7221210D0ABD
:104E200000000000536F6674205265736574696EEC
:104E3000672E2E2E0D0A000010B50023234C236090
:104E400000BF00BF00BFBFF34F8F00BF00BF00BF58
:104E5000231F1868C0F34E3100BFC0F3C90200BF62
:104E600043F6E07303EA41134FF0404404EA8274CE
:104E70002343174C236000BF00BF131EA2F10102A1
:104E8000EED10B1EA1F10101E7D100BF00BF00BFB1
:104E9000BFF34F8F00BF00BF00BF0C4B703B1B68C0
:104EA00043F48033094C703C236000BF00BF00BF57
:104EB000BFF34F8F00BF00BF00BF00BF00BF00BFE8
:104EC000BFF36F8F00BF00BF00BF10BD84ED00E0D7
:104ED00060EF00E07CB5002400250026A9480068AA
:104EE00040F00100A7490860A6480838006840F073
:104EF0007C00A44908390860012003210023022214
:104F0000CDE900100D21A048FBF75CFF0120032133
:104F100000230222CDE900104CF203719B48FBF7FD
:104F200051FF0120032100230222CDE900104FF69A
:104F300083719748FBF746FF0120032100230222DB
:104F4000CDE900104FF63F019248FBF73BFF0120EF
:104F5000032100230222CDE9001048F237118E48C8
:104F6000FBF730FF0C2200218748FBF7FBFE0C22E9
:104F700002218548FBF7F6FE0C2203218248FBF74D
:104F8000F1FE0C2200218148FBF7ECFE0C220121EE
:104F90007E48FBF7E7FE0C2208217C48FBF7E2FE87
:104FA0000C2209217948FBF7DDFE0C220A21774803
:104FB000FBF7D8FE0C220E217448FBF7D3FE0C221F
:104FC0000F217248FBF7CEFE0C2200217048FBF740
:104FD000C9FE0C2201216E48FBF7C4FE0C220721FA
:104FE0006B48FBF7BFFE0C2208216948FBF7BAFEAD
:104FF0000C2209216648FBF7B5FE0C220A21644801
:10500000FBF7B0FE0C220B216148FBF7ABFE0C2234
:1050100011465F48FBF7A6FE0C220D215C48FBF70A
:10502000A1FE0C220E215A48FBF79CFE0C220F21F8
:105030005748FBF797FE0C2200215648FBF792FEDB
:105040000C2201215348FBF78DFE0C22022151480E
:10505000FBF788FE0C2203214E48FBF783FE0C224F
:1050600004214C48FBF77EFE0C2205214948FBF742
:1050700079FE0C220B214748FBF774FE0C221146E7
:105080004448FBF76FFE0C220D214248FBF76AFEF5
:105090000C220E213F48FBF765FE0C220F213D48F4
:1050A000FBF760FE0C2200213B48FBF75BFE0C2265
:1050B00001213948FBF756FE0C2202213648FBF746
:1050C00051FE0C2204213448FBF74CFE0C22052132
:1050D0003148FBF747FE0C2208212F48FBF742FE20
:1050E0000C220F212C48FBF73DFE44F0010444F054
:1050F000080444F0100444F0400444F4C07400BFB9
:1051000044F4006444F4805400BF2448046045F033
:10511000010545F0700545F4C06545F4C04545F40A
:10512000803545F4801545F08075C005C0F84851BC
:1051300000231A460121184600F054F84FF4FA7083
:1051400000F006FA00231A460221184600F04AF839
:10515000002308220321184600F044F846F0030615
:1051600000BF46F0300600BF46F40076334600220A
:105170000421104600F036F84FF4CE600749143190
:1051800008607CBD3838024000080240000C024034
:10519000001002400014024000180240400100A02C
:1051A00010B500240E48006820F4C0704FF0204174
:1051B000C1F840010846D0F8400140F48070C1F8C1
:1051C000400144F0030400BF44F0200400BF44F455
:1051D0000074234600220421104600F003F810BD9D
:1051E000400100A0F0B504460D46002600212943E9
:1051F000C4F104070120B840014341EA421141EAE9
:1052000043210948016005E0761CB6F5001F01D373
:105210000120F0BD04480830006800F0200000289C
:10522000F2D100BFF5E70000500100A02DE9F041E8
:1052300004460D4616461F461548006840F001001A
:1052400013490860002012490831086010480068BE
:10525000104908400E4908600F48091D0860081FE2
:10526000006820F48020091F0860002008490C31E4
:105270000860FBF73BFD3B4632462946204600F0DE
:105280000DF800214FF00060FFF79EFDBDE8F081B2
:1052900000380240FFFFF6FE10300024F0B504464F
:1052A0000D46002100203F4E366846F480363D4FC3
:1052B0003E6001E04E1CB1B23A4E366806F400364C
:1052C0001EB941F6FF76B142F4DB41F6FF76B142FA
:1052D00001D1012065E0334E4036366846F08056F5
:1052E000304F40373E60304E366846F440462E4FD1
:1052F0003E603E46366846F480363E603E4636683E
:1053000046F400363E60274E0836366846F41446AA
:10531000244F08373E60234E366826F08076214FB2
:105320003E6045EA84160127C7EB520746EA074666
:1053300046EA036646F480061A4F3F1D3E603E1F54
:10534000366846F080763F1F3E6000BF154E3668D7
:1053500006F00076002EF9D0144E366846F48076BA
:10536000124F3E603E46366846F400763E603E464A
:10537000366846F007063E600A4E0836366826F064
:105380000306084F08373E603E46366846F0020680
:105390003E6000BF034E0836366806F00C06082E45
:1053A000F8D1F0BD0038024000700040003C0240DF
:1053B00001480249086070470400FA050CED00E05E
:1053C00010B50C48006800F0010058B10A4908699E
:1053D000804700200749143108604FF47A7005496E
:1053E0001C3108600348006820F001000149086092
:1053F00010BD0000100800404C00022070B50546AA
:105400000C461048006840F004000E4908600E4841
:105410000560001F04600C482038006840F001005F
:1054200009492039086008482C38006840F001001C
:1054300005492C39086002231E2203210846FFF784
:1054400073FC70BD403802402C0800401C49C969FB
:1054500001F0200109B31A49496AC8B219490988FB
:1054600001F40041C9B91749098801F4804161B1CB
:105470000A2803D00021134A118020E0114909882D
:1054800041F400410F4A118019E00D2806D10D4961
:10549000098841F480410B4A118010E009490988CC
:1054A000C1F30D01084A505406490988491C054AB0
:1054B000118011460988C72901DD0021118070473C
:1054C00000100140080002204001022030380A2864
:1054D00001D2012070470020704700BF70470000D4
:1054E0004FF0E021096921F004014FF0E022116141
:1054F000C21700EB5272C2F3C702054B1A704FF489
:105500007A714143C1F3CF01024A11807047000014
:10551000000002200200022070B504464FF407701C
:1055200094FBF0F0C6B24FF4077094FBF0F100FB6F
:10553000114085B205E04FF4077000F027F8701EA7
:10554000C6B2002EF7D115B1284600F01FF870BD85
:1055500001460D4A12784A434FF0E0235A61002277
:105560009A6101221A6100BF4FF0E022106900F039
:1055700001021AB100F48032002AF5D000224FF067
:10558000E0231A619A6170470000022001460D4A2B
:1055900012884A434FF0E0235A6100229A610122A7
:1055A0001A6100BF4FF0E022106900F001021AB149
:1055B00000F48032002AF5D000224FF0E0231A6177
:1055C0009A6170470200022000BF054AD26902F0CA
:1055D0004002002AF9D0C2B2014B9A627047000023
:1055E000001001401FB54FF0010A0024A14600261B
:1055F0004FF001080923022219214FF4D870FFF758
:1056000015FED820FFF76CFF4FF4E1316C2000F05D
:10561000A9F9A54841686C208847FEF719FEFFF7F5
:105620001FFBFFF757FCFBF79DFEFBF73BFC012040
:1056300006230A2207210090FBF7EAF84FF478408E
:105640009A4908609AA010210B46C822CDE90010A3
:1056500032211E20FEF740FD9AA010210B46C822E1
:10566000CDE9001046211E20FEF736FD98A010213E
:105670000B46C822CDE900105A211E20FEF72CFD52
:1056800097A010210B46C822CDE900106E211E20E4
:10569000FEF722FD95A010210B46C822CDE900108F
:1056A00082211E20FEF718FD94A010210B46C8226F
:1056B000CDE9001096211E20FEF70EFD1F207B492C
:1056C000086094A010210B46C822CDE90010AA2141
:1056D0001E20FEF701FD91A010210B46C822CDE946
:1056E0000010BE211E20FEF7F7FC8FA010210B46F4
:1056F000C822CDE90010FA211E20FEF7EDFCD2E011
:105700000020FBF707FC0546012D44D1002424E0CE
:10571000301902A90855042C0EDA80201021CDE999
:10572000001002A90A5D1E2101EB441188B2032377
:10573000D221FEF704FD0EE080201021CDE90010FB
:1057400002A90A5D211F1E2303EB411188B2032326
:10575000E621FEF7F4FC601C84B2082CD8DB08219B
:1057600002A8FBF7DBF9074657B173A010210B46DF
:10577000C822CDE90010BE216E20FEF7ADFC3AE054
:105780006FA010210B46C822CDE90010BE216E206B
:10579000FEF7A2FC2FE0042D2DD1B8F1000F01D1AE
:1057A000012000E00020804606230A220721012074
:1057B000CDF80080FBF72CF84FF478403B490860A7
:1057C000B8F1000F0AD160A010210B46C822CDE924
:1057D000001082211E20FEF77FFC09E043A010216B
:1057E0000B46C822CDE9001082211E20FEF774FC72
:1057F0001F202E49086002A8FBF7FEF8054695B366
:105800004FF6FF704FF49B73A0224FF48771009006
:105810001E20FBF76FFD002423E0042C0FDA80200C
:105820001021CDE9001002A90A5D1E2101EB4411EF
:1058300088B203234FF48771FEF781FC0FE08020CC
:105840001021CDE9001002A90A5D211F1E2303EBE0
:10585000411188B203234FF49171FEF770FC601C74
:1058600084B2AC42D9DB09F101001FFA80F90A20A9
:10587000FFF752FEB9F1140F15D18AF001008246EC
:10588000024602213448FBF795FA4FF00009701CDC
:1058900086B28020102103233246CDE90010AA21D0
:1058A0004E20FEF74CFC2BE74C0002200C0002209F
:1058B00041706F6C6C6F2053544D333246342F4619
:1058C0003700000043414E2054455354000000006F
:1058D00041544F4D40414C49454E54454B0000000A
:1058E000323032322F31302F313100004C6F6F7037
:1058F0004261636B204D6F64650000004B45593079
:105900003A53656E6420574B5F55503A4D6F64654E
:1059100000000000436F756E743A000053656E64BA
:1059200020446174613A00005265636569766520C0
:10593000446174613A0000004661696C656400006E
:105940004F4B2020202000004E6F726D616C202094
:10595000204D6F6465200000000402400146086885
:10596000704700007CB505460C462948684300EBAB
:105970005400B0FBF4F62748006840F001002549C8
:10598000086024481430006840F0100021491431A8
:1059900008600120022100230A46CDE900104FF4DF
:1059A000C0611D48FBF70EFA072209211A48FBF7D0
:1059B000D9F907220A211848FBF7D4F91748C6601D
:1059C000002016490860084600680860084600681C
:1059D00008600846006808600846006840F0080053
:1059E00008600846006840F0040008600846006847
:1059F00040F0200008600223252203210846FFF71B
:105A000093F90648006840F00100044908607CBD35
:105A100040420F00303802400000024000100140B8
:105A200030B595B0054613AB12AA09A9284600F077
:105A30003FFA044614B1204615B030BD0020149042
:105A400026E0224909689DF8502001EBC20113AB02
:105A500011AA486801A900F02BFA04460CB12046AF
:105A6000EAE709A901A800F0DDFC60B99DF844004F
:105A70009DF84810884201DD0220DDE79DF85000C6
:105A8000124988750AE09DF85000401CC0B214907D
:105A90000E48007D9DF850108842D2DC00BF0B48B4
:105AA000007D9DF85010884201D10420C4E714A95C
:105AB000284600F0DDFA04460CB12046BCE79DF80C
:105AC0005000024948750020B6E700004C00022053
:105AD0002DE9F0419AB09C48847D007DA04202DC13
