:020000040800F2
:10000000700900209902000877370008432500088E
:100010007537000885050008E53D00080000000070
:100020000000000000000000000000009D380008F3
:100030008705000800000000153800089F380008F8
:10004000B3020008B3020008B3020008B3020008BC
:10005000B3020008B3020008B3020008B3020008AC
:10006000B3020008B3020008B3020008B30200089C
:10007000B3020008B3020008B3020008B30200088C
:10008000B3020008B3020008B3020008B30200087C
:10009000B3020008B3020008B3020008B30200086C
:1000A000B3020008B3020008B3020008B30200085C
:1000B000B3020008B3020008B3020008B30200084C
:1000C000B3020008B3020008B3020008B30200083C
:1000D000B3020008D93D0008B3020008B3020008CB
:1000E000B3020008B3020008B3020008B30200081C
:1000F000B3020008B3020008B3020008B30200080C
:10010000B3020008B3020008B3020008B3020008FB
:10011000B3020008B3020008B3020008B3020008EB
:10012000B3020008B3020008B3020008B3020008DB
:10013000B3020008B3020008B3020008B3020008CB
:10014000B3020008B3020008B3020008B3020008BB
:10015000B3020008B3020008B3020008B3020008AB
:10016000B3020008B3020008B3020008B30200089B
:10017000B3020008B3020008B30200080000000048
:10018000B3020008B3020008B3020008B30200087B
:10019000B3020008B3020008B3020008B30200086B
:1001A000B3020008B3020008B3020008B30200085B
:1001B000B3020008B3020008B3020008B30200084B
:1001C000B3020008B302000800000000B3020008F8
:1001D000B3020008B3020008B3020008B30200082B
:1001E000B3020008B3020008B3020008B30200081B
:1001F000B3020008B302000800F002F800F03CF877
:100200000AA090E8000C82448344AAF10107DA4571
:1002100001D100F031F8AFF2090EBAE80F0013F087
:10022000010F18BFFB1A43F0010318475C8500005B
:100230007C850000103A24BF78C878C1FAD85207EC
:1002400024BF30C830C144BF04680C607047000050
:100250000023002400250026103A28BF78C1FBD8CF
:10026000520728BF30C148BF0B6070471FB503F06D
:10027000D9FE1FBD10B510BD00F03EF91146FFF7C5
:10028000F5FF03F0CDFD00F070F903B4FFF7F2FFC6
:1002900003BC03F0B9FD0000094880470948004746
:1002A000FEE7FEE7FEE7FEE7FEE7FEE7FEE7FEE726
:1002B000FEE7FEE704480549054A064B7047000083
:1002C00049390008F9010008700300207009002076
:1002D0007005002070050020704753EA020C00F002
:1002E00069802DE9F04B4FF00006002B1FBFB3FAD9
:1002F00083F503FA05F424FA05F65E4012BF1643AF
:10030000B2FA82F502FA05F4C5F120051EBF22FA01
:1003100005FC44EA0C04203556EA044C4FEA144428
:1003200018BF641C4FF000084FF00009904271EBB9
:10033000030C39D3002919BFB1FA81F701FA07F686
:10034000B0FA80F700FA07F6C7F120071EBF20FABF
:1003500007FC46EA0C062037B6FBF4FCA7EB0507C2
:10036000103F07F01F0BCBF120060CFA0BFB2CFA09
:1003700006F644BFB3460026202FA4BF5E464FF0CA
:10038000000B5BEA060C08BF4FF0010B19EB0B09E1
:10039000ABFB027C48EB0608C01B06FB02CC0BFB48
:1003A00003CC71EB0C01C1E70B46024641464846BF
:1003B000BDE8F08B13B54FF000004FF00001AFF334
:1003C0000080BDE81C4070470FB4044910B503AA73
:1003D000029800F063F810BC5DF814FB08000020E0
:1003E00010B5203AC0F00B80B1E81850203AA0E8D0
:1003F0001850B1E81850A0E81850BFF4F5AF5FEA04
:10040000027C24BFB1E81850A0E8185044BF18C9B6
:1004100018C0BDE810405FEA827C24BF51F8043B5D
:1004200040F8043B08BF7047D20728BF31F8023BB1
:1004300048BF11F8012B28BF20F8023B48BF00F845
:10044000012B70474FF0000200B5134694469646C4
:10045000203922BFA0E80C50A0E80C50B1F12001D7
:10046000BFF4F7AF090728BFA0E80C5048BF0CC085
:100470005DF804EB890028BF40F8042B08BF7047E3
:1004800048BF20F8022B11F0804F18BF00F8012B55
:10049000704770477047704770470000074B70B552
:1004A0000D467B4400F011F80446284600F020F881
:1004B00010B14FF0FF3070BD204670BD67390000AD
:1004C00001694A1C02610878704700B58FB0CDE918
:1004D00001310021059105497944CDE90310114608
:1004E000684600F02EF80FB000BD0000E5FFFFFFEA
:1004F000007B00F080007047754600F03FF8AE4684
:1005000005006946534620F00700854618B020B51F
:10051000FFF7D0FEBDE820404FF000064FF0000787
:100520004FF000084FF0000B21F00701AC46ACE89B
:10053000C009ACE8C009ACE8C009ACE8C0098D4608
:1005400070472DE9F04106460024D6E90170F568B0
:100550008046304603E04146B847641C3046A84711
:100560000028F8D12046BDE8F08110B50446AFF36D
:1005700000802046BDE81040FFF787BE0048704766
:100580000C030020FEE7704772B6FEE7F0B5D1E934
:100590000843CD690A68C2B10268254322F4F842D3
:1005A00013431D430560D1E90125D1E903364C69A8
:1005B0002A434568334389691A43EB0B2243DB0323
:1005C0000A431A4342600020F0BDD1E9012ED1E96F
:1005D000036CD1E9057142EA0E0246EA0C06324389
:1005E0003A430A4301682A4322431A436FF30E0138
:1005F0000A430260E7E7426943F6FE739A4342EA20
:10060000410141610020704770B591E81C00C96844
:100610006FF01F0506691A4305EB441444EA4121B3
:100620000A4306EA45431A430261002070BD0000F8
:100630002DE9F04F8B8A6FF00F05264C4FF07F4B62
:10064000D1F80C9004EB03536FF0FF044FEA042A37
:100650001AB386684FEA09321F4FA2F580521A4337
:100660003E4032438260D1E900278E68521E05EB7E
:1006700007150F8A2A43C56804EB06240E7E0AEB91
:10068000074322431A430BEB06610A4305F070430C
:100690001A43C2600020BDE8F08F91E804110F4EAC
:1006A000521E0F8A05EB08152A4304EB0C2C06EBAF
:1006B00009350E7E42EA0C022A4385680AEB07449C
:1006C00022431A430BEB06610A4305F070431A43B9
:1006D0008260DFE70000F0FFFF0F0FFF00F0FFFF79
:1006E000F0B590F85020012A2ED001EB41020125EF
:1006F00080F85050022380F8513000EBC202254CA4
:10070000178E168DB2F834C0536A3F05203243EA83
:10071000064647EA4C570A2B46EA070616D0092B2D
:1007200014D0137B46EA03630029016813D0CE6915
:10073000A6431E43CE61016813680B6151680A2904
:100740001BD0092919D01DE00220F0BDD36803F0A9
:100750007F433343E8E74E6AA6431E434E62016877
:1007600013688B6151680A2901D009290AD1D1681F
:10077000026821F07F41916204E0D168026821F0B3
:100780007F411162002180F8515080F850100846D6
:10079000F0BD00000F0033FF70B5040004D094F8E2
:1007A0005100002510B106E0012070BD204684F8FC
:1007B000505000F029F8022084F85100D4E90003D9
:1007C0000121026822F440321A4302602068A368C3
:1007D000426B22F007021A4342632068E368026C0E
:1007E0006FF30D021A4302642068228AA38A466BC3
:1007F000120542EA435226F440131A4342636565E8
:1008000084F85110002070BD08B500680649884280
:1008100008D10648016841F400010160006800F455
:100820000000009008BD000000B0024030380240D7
:100830002DE9F041876D044600F0F6F9064694F87C
:1008400035000025022806D080206065012084F84C
:100850003450BDE8F0812068016821F01601016084
:100860002068416921F080014161206C08B9A06CC9
:1008700020B12068016821F008010160206801684A
:1008800021F0010101600CE000F0CEF9801B052889
:1008900007D920216165032084F8350084F834509D
:1008A000D7E720680068C007EED194F85C203F20AD
:1008B00001219040B86084F83510002084F834504D
:1008C000C7E790F83510022903D080214165012047
:1008D0007047052180F835100068016821F001019A
:1008E000016000207047000070B5044600F09CF9DC
:1008F0000546601C02D004480078044400F094F9D6
:10090000401BA042FAD370BD2000002070B586B015
:1009100014216846FFF796FD2148016800293DD162
:10092000012505601F48016841F001010160006870
:1009300002240C26694600F0010005904FF63F00A6
:100940008DE831001848CDE9034600F037F80D2056
:1009500069468DE831001548CDE9034600F02EF8D0
:1009600048F2371069468DE831001148CDE9034659
:1009700000F024F84FF6837069468DE831000D4889
:10098000CDE9034600F01AF84CF2037069468DE891
:1009900031000948CDE9034600F010F806B070BDFB
:1009A00010000020383802400014024000080240C5
:1009B0000018024000100240000C02402DE9F84FE0
:1009C000DFF80CB2012403254FF00F0A00220BF1CF
:1009D000040E00BF0B6804FA02F63340B34278D12C
:1009E0000F7907F00307012F01D0022F1AD1876872
:1009F0004FEA4209D1F80CC005FA09F827EA0807BE
:100A00000CFA09FC4CEA070CC0F808C0476891F8DA
:100A100004C0B743CCF3001C0CFA02FC4CEA070CF0
:100A2000C0F804C00E79F643B6070BD0C6684FEA8B
:100A3000420C8F6805FA0CF826EA080607FA0CF74C
:100A40003743C7600E7906F00306022E12D1D6088E
:100A50004FEA427800EB860600960F69D6F82090A0
:100A60004FEAD8660AFA06FCB74029EA0C06374373
:100A7000009E37620F7906684FEA420C07F00307C1
:100A800005FA0CF807FA0CF726EA08063743076060
:100A90004E6816F4403F1CD04E4E376847F48047EE
:100AA0003760366822F00308970706F48046009600
:100AB000494E3F0F4644B146D6F80868DFF81C811E
:100AC0000AFA07FC404526EA0C0603D14FF0000C59
:100AD00041E076E0DFF808C1604502D14FF0010C3B
:100AE00039E0DFF800C1604502D14FF0020C32E07E
:100AF000DFF8F4C0604502D14FF0030C2BE0DFF8C3
:100B0000ECC0604502D14FF0040C24E0DFF8E0C0F7
:100B1000604502D14FF0050C1DE0DFF8D8C06045FC
:100B200002D14FF0060C16E0DFF8CCC0604502D1D0
:100B30004FF0070C0FE0DFF8C4C0604502D14FF062
:100B4000080C08E0DFF8B8C0604502D14FF0090C8E
:100B500001E04FF00A0C0CFA07FC4CEA060CC9F84D
:100B600008C84F68DBF80060FF0226EA030600D5DC
:100B70001E437746CBF80060D1F804C0DEF8006071
:100B80005FEA8C2C26EA030600D51E43DFF840C03E
:100B90003E60ACF1040C4F68DCF80060BF0326EA4D
:100BA000030600D51E430A4FCCF80060083FD1F879
:100BB00004C03E685FEACC3C26EA030600D51E432B
:100BC0003E60521C102AFFF405AFBDE8F88F00000C
:100BD000083C01404438024000300140000002401F
:100BE0000004024000080240000C024000100240D5
:100BF0000014024000180240001C02400020024085
:100C0000002402400069084000D00120704742697A
:100C100021EA02030A4043EA0241816170470AB1B6
:100C2000816170470904FBE7014880687047000054
:100C30002000002030B590F84120202A24D190F8DF
:100C40004020012A20D0012380F84030242280F85F
:100C50004120202300240268156825F00105156055
:100C60000268156825F480551560026815680D4303
:100C7000156001680A6842F001020A6080F841309C
:100C800080F84040002030BD022030BD30B590F8E3
:100C90004120202A22D190F84020012A1ED0012391
:100CA00080F84030242280F841202024002502686A
:100CB000136823F0010313600268136823F4706360
:100CC00043EA0121116001680A6842F001020A60EA
:100CD00080F8414080F84050002030BD022030BDF7
:100CE00070B5040004D094F84100002510B106E06E
:100CF000012070BD204684F8405000F009FA2420FD
:100D000084F841002068016821F001010160D4E904
:100D1000001020F0706008612068816821F40041B3
:100D20008160E06821680128A06806D040F4044092
:100D30008860E068022803D006E040F40040F7E74E
:100D400021684FF40060486020212068114A436800
:100D5000134343602068C26822F40042C26054F822
:100D6000106B0DCC104340EA0320F06054F81C3C9B
:100D7000D4E900021043186054F81C0D026842F0D8
:100D800001020260656484F84110256384F84250D2
:100D9000002070BD008000022DE9FC4700260446BB
:100DA0001F4692460196894690F8410020287AD144
:100DB00020688069C04300047FD594F84000012872
:100DC0007BD0012184F8401024204FF0200884F8C3
:100DD00041006664E068012810D029F4544040F4D2
:100DE000205021684860FFF71FFF05462068816991
:100DF0008269C1F34010C2F3001114E03049314A56
:100E000049EA01001040ECE7781C05D0FFF70CFF21
:100E1000401BB84219D8C7B1206882698169C2F302
:100E20004010C1F300110843EED0206880693B46B2
:100E30004FF000024FF02001C0430095C00620464D
:100E400016D501F037FC60BB08E084F84180606C87
:100E500084F8406040F02000606422E02168C1F81E
:100E60001C8084F84180002084F84060BDE8FC8745
:100E700001F020FCA8B921681020C8612168C1F8E0
:100E80001C800198504512D12068416841F480418E
:100E9000416000223B4620212046009501F00AFCDB
:100EA00010B10120E2E708E02168C1F81C80019838
:100EB000401C019050458DD3C7E70220D6E70000C3
:100EC00000200002FF2300022DE9F84F044690F8AD
:100ED00041001F469046DDF828A08B4620287ED191
:100EE00094F8400001287AD0012084F84000FFF7F0
:100EF0009BFE0122064619230090D103204601F0F3
:100F0000D9FBE0BB0025222184F84110102084F891
:100F1000420065646785618DFF2732484FF0007994
:100F2000C4F82480FF294FF08078656303D92785B2
:100F30003A46009039E0618D218500903AE05946AB
:100F4000204601F09FFB13E001F0E2FBB8B92068F6
:100F5000616A406A0870606A401C6062208D401EB1
:100F600081B22185608D401E6085608D00B169B1C0
:100F7000608D3246514600282046E5D100E002E06F
:100F800001F014FCD0B10120BDE8F88F00225346D7
:100F900080212046009601F08DFB0028F3D1608D62
:100FA000FF2804D927853A4600954346C7E7608D58
:100FB000208500954B4694F82820C0E72068202122
:100FC000094AC161206843681340436084F84110B6
:100FD00084F84250002084F84050D5E7FFE7022013
:100FE000D2E700000024008000E800FE2DE9F84F61
:100FF000044690F841001F469046DDF828A08B4635
:1010000020287ED194F8400001287AD0012084F86D
:101010004000FFF709FE0122064619230090D10384
:10102000204601F047FBE0BB0025212184F8411058
:10103000102084F8420065646785618DFF2732487F
:101040004FF00079C4F82480FF294FF08078656361
:1010500003D927853A46009039E0618D21850090BB
:101060003AE05946204601F00DFB13E001F0C5FBC4
:10107000B8B9606A216800788862606A401C606262
:10108000608D401E6085208D401E80B22085618D60
:1010900001B168B1608D3246514600282046E5D145
:1010A00000E002E001F082FBD0B10120BDE8F88F42
:1010B0000022534680212046009601F0FBFA0028CA
:1010C000F3D1608DFF2804D927853A460095434621
:1010D000C7E7608D208500954B4694F82820C0E72F
:1010E00020682021094AC161206843681340436099
:1010F00084F8411084F84250002084F84050D5E72D
:10110000FFE70220D2E700000020008000E800FE98
:1011100010B5AAB00446142124A8FFF793F9902132
:101120006846FFF78FF918492068884229D1C01313
:101130000090002168461A9100F078FA08B1FFF794
:1011400023FA1248016841F08001016000680DF146
:10115000900C122100F080002990302001220223FF
:1011600004248CE81F000A4824A9FFF727FC07483D
:101170001030016841F480010160006800F48000D3
:1011800029902AB010BD00000058004030380240BD
:10119000001C024002488168027811448160704757
:1011A00020000020032010B500F0F0F9002000F02E
:1011B00005F800F0A3F9002010BD000070B50D4D3A
:1011C00004464FF47A700C4A29781268B0FBF1F0AB
:1011D000B2FBF0F000F0D6FF48B9102C07D2002285
:1011E0002146501E00F0B2F900206C6070BD012055
:1011F00070BD0000200000202C0000202DE9F041EF
:10120000044690F8A00016460F4601281DD001257F
:1012100084F8A050022084F8A10006EB860000EBC1
:10122000C600342204EB80003830FFF7D9F832468C
:101230003946204602F00CF8216800204D6284F8FF
:10124000A15084F8A000BDE8F0810220FBE7000077
:101250002DE9F041040004D094F8A100002518B154
:1012600007E00120BDE8F081204684F8A05000F09E
:101270006BF83448022184F8A110012202CC8B695A
:1012800023F070438B6194E84A001943E3681E43DE
:1012900054F8043D31439E693143996121688B685C
:1012A00003408B602168A68AA7698B683B4343EAA9
:1012B00006438B602168CB680340CB602168A38B19
:1012C000276ACE683E4346EA0346CE6021680B6932
:1012D00003400B612368A68CA76A1969394341EA68
:1012E0000641196121684B6903404B612068A38D59
:1012F000266B4169314341EA03414161236894F817
:10130000351094F83600DE6A000406F07F46DE628F
:10131000236840EA012094F83460D96A31430143DC
:10132000D9622068416B41F0060141632068816900
:1013300041F001018161C4F8A45084F8A12000208B
:1013400090E7000000F800F070B5AAB00446142140
:1013500024A8FFF777F890216846FFF773F837491C
:101360002068884268D102240820009000254603A6
:1013700068464FF4C6710322CDE905140123CDE977
:101380000725CDE90A3600F051F908B1FFF7FCF85E
:101390002B48016841F080610160006800F08060C6
:1013A000299027481438016841F480710160016870
:1013B00001F480712991016841F020010160016808
:1013C00001F020012991016841F08001016001686C
:1013D00001F080012991016841F04001016000683D
:1013E00024A90E2600F04000299040F2F76081E821
:1013F00031001448CDE92746FFF7E0FA24A94FF45D
:10140000806081E831001048CDE92746FFF7D6FA21
:1014100024A94FF47E4081E831000C48CDE92746ED
:10142000FFF7CCFA24A94FF40C6081E8310008489A
:10143000CDE92746FFF7C2FA2AB070BD0068014027
:10144000443802400020024000140240001C0240C8
:101450000018024070B5044690F8A0000E4601281E
:1014600020D003EB830000EBC301012584F8A050DA
:10147000022084F8A10004EB81018E63086E3044E1
:10148000C1E90F02486E1044486438311A462046BC
:1014900001F0DEFE216800204D6284F8A15084F83E
:1014A000A00070BD022070BD70B5044690F8A00089
:1014B0000E46012820D003EB830000EBC301012579
:1014C00084F8A050022084F8A10004EB8101886B0D
:1014D0003044C863086C10444864C1E9186238316C
:1014E0001A46204601F0B4FE216800204D6284F8BF
:1014F000A15084F8A00070BD022070BD0B4882B0DE
:10150000016841F080510160006800F08050009057
:101510000648001D016841F480410160006800F444
:1015200080400090052002B000F030B84038024002
:10153000002809DB410900F01F028900012001F1A8
:10154000E0219040C1F80001704700000E4BF0B45C
:101550001B680D46C3F30223C3F10706042E00D90E
:101560000426191D072901D2002300E0DB1E0124F7
:1015700004FA06F19C40491E2940641E994014401B
:101580002143F0BC02F02FBC0CED00E0064900F056
:10159000070210B54FF6FF040868044B204040EAEC
:1015A00002201843086010BD0CED00E00000FA05B1
:1015B0001848F8B5016841F0805101600068164C88
:1015C00000F080500090206840F480302060FFF7E9
:1015D0002BFB4FF47A76054605E000BFFFF724FBAE
:1015E000401BB0420FD86068C003F7D5206840F4B4
:1015F00000302060FFF718FB054606E0FFF714FBFC
:10160000401BB04201D90320F8BD60688003F5D5C6
:101610000020F8BD403802400070004002480168D8
:1016200041F4807101607047007000402DE9F84F6F
:1016300004460078DFF824944FF000063746C007D0
:101640000ED0D9F8001021F40001C9F80010D9F823
:101650000010626B1143C9F80010606B00B90126DD
:10166000FE4D2068843500030ED5E16B286820F418
:10167000401008432860E06BB0F5801F01D010B126
:1016800002E0012600E0012720684FF4800BC00231
:101690000CD5216C286820F4400008432860206C99
:1016A000584501D1012601E000B901272068C10198
:1016B00000D50126800666D5E8483830016841F03B
:1016C000805101600068DFF898A300F0805000901E
:1016D000DAF8001041F48071CAF80010FFF7A4FA9C
:1016E000804605E0FFF7A0FAA0EB080064287DD84B
:1016F000DAF80000C005F5D5DFF8608308F1680866
:10170000D8F8000010F440702AD0218E01F4407106
:10171000814225D0D8F80010D8F8002021F440717B
:1017200042F48032C8F80020D8F8002022F4803239
:10173000C8F80020C8F80010D8F80000C0070FD083
:10174000FFF772FA824607E0FFF76EFAA0EB0A0194
:1017500041F288308142CAD8D8F800008007F3D51A
:10176000206BC0F3012103297ED0D9F8001021F4A9
:10177000F811C9F80010228ED8F80010C2F30B023D
:101780001143C8F800102078C00607D5286820F05B
:10179000807028602868A16B084328602188AF48C2
:1017A0008830490405D5626E016821F44031114347
:1017B00001602188090405D5A26E016821F4402149
:1017C000114301602168C90305D5E26E016821F467
:1017D0004011114301602168890305D5226F01681A
:1017E00021F4400111430160217800E034E1490611
:1017F00005D5626C016821F0030111430160217875
:10180000090605D5A26C016821F00C0111430160A5
:101810002188C90505D5E26C016821F0300111432A
:1018200001602188890505D5226D016821F0C0017C
:10183000114301602188490505D5626D016821F4D5
:101840004071114301602188090505D5A26D016829
:1018500021F44061114301602188C90407D5E26D7C
:10186000016821F4405100E068E0114301602188E3
:10187000890405D5226E016821F4404111430160BD
:101880002168490205D5A26F016821F080611143EA
:10189000016021684FF0006A890209D5E26F016892
:1018A00021F0006111430160E16F514500D1012732
:1018B00021680A0700D50127490305D5626F016831
:1018C00021F04071114301602168090206D5D4F866
:1018D0008020016821F08051114301602168490195
:1018E00006D5D4F88420016821F00051114301602D
:1018F0002068000106D5D4F88810286820F0007010
:10190000084328602068C00006D5D4F88C102868E9
:1019100020F0806008432860DFF84891012E02D053
:10192000206880017ED5D9F800004E4620F0806006
:10193000C9F80000FFF778F980460FE04A4AD9F865
:101940000030104023F4F8120243C9F8002012E7D7
:10195000FFF76AF9A0EB080064287DD83068000121
:10196000F6D421783D487C30C90712D0616B81B92B
:10197000237A62680168D0F800C09201C1F3014186
:1019800042EA0142CCF3036142EA016141EA037198
:10199000016021680A0303D5E26BB2F5801F04D011
:1019A000C9021AD5216C594517D16368016894F8AA
:1019B0000CC002689B01C1F3014143EA0141C2F33B
:1019C000027241EA0C6141EA027101602968626AAF
:1019D00021F01F01521E114329602168C90110D551
:1019E000238A62680168D0F800C09201C1F30361E4
:1019F00042EA034242EA0162CCF3027142EA017117
:101A00000160216889010CD56168228A237B94F8E2
:101A100008C0890141EA024141EA036141EA0C71CF
:101A2000016000E011E03168B04641F08061316052
:101A3000FFF7FAF8064604E0FFF7F6F8801B642883
:101A40000AD8D8F800000001F6D5E7B3D9F80000AD
:101A50004E4620F0805009E07BE00000083802404C
:101A60000070004000380240FFFCFF0FC9F8000082
:101A7000FFF7DAF8074604E0FFF7D6F8C01B642842
:101A800067D83068C0438000F6D5216835480A031E
:101A900001D5E26B1AB1C9021DD5216CD9B96369B0
:101AA0000168277E02689B01C1F3014143EA0143BB
:101AB000C2F3027143EA076242EA017101602968D8
:101AC0006FF0FF0300E04BE0A26A21F4F85103EB52
:101AD0000222114329602168890212D5E16F514524
:101AE0000FD1238C6269016807689201C1F3036119
:101AF00042EA034242EA0162C7F3027142EA01711B
:101B000001602178090716D561690268D0F800C024
:101B10008B01277FC2F30362CCF3014143EA014109
:101B200041EA026141EA077101602868E16A20F434
:101B3000403008432860306840F080503060FFF744
:101B400073F8044608E000BFFFF76EF8001B642836
:101B500002D90320BDE8F88F3068C0438000F3D479
:101B60000020F7E7883802402DE9F04705000F46CE
:101B700063D0444E306800F00F00B84209D230689C
:101B800020F00F0038433060306800F00F00B8429A
:101B900053D128683C4C810712D5400703D52068F3
:101BA00040F4E05020602878000703D5206840F416
:101BB00060402060A968206820F0F00008432060A1
:101BC0002878C0072AD0304968680839012810D021
:101BD0000968022810D0890700292EDA216821F02F
:101BE000030101432160FFF71FF8804641F2883965
:101BF0000DE009688903EFE78901EDE7FFF714F8C5
:101C0000A0EB0801494502D90320BDE8F0876868C8
:101C1000216801F00C01B1EB800FEFD1306800F0CA
:101C20000F00B8420BD9306820F00F003843306005
:101C3000306800F00F00B84201D00120E5E72878B5
:101C4000400705D5E968206820F4E050084320608B
:101C50002878000706D52869216821F4604141EA07
:101C6000C000206000F038F82168084AC1F3031171
:101C7000515CC8400649086006480068FFF79EFAB4
:101C80000020C2E7003C0240083802406E8700088E
:101C90002C00002024000020044905480968006841
:101CA000044AC1F38221515CC840704708380240A1
:101CB0002C0000207E870008044905480968006858
:101CC000044AC1F34231515CC840704708380240B1
:101CD0002C0000207E870008154910B515480968BA
:101CE00011F00C0213D01449042A0FD0082A0ED187
:101CF0000F4C241F2268236802F03F025B0207D5C5
:101D00002068C0F38810A0FB010106E0084610BD62
:101D10002168C1F38811A1FB00010023FEF7DDFA61
:101D20002168C1F30141491C4900B0FBF1F010BD2D
:101D3000083802400024F40040787D012DE9F84F76
:101D400004004FF000076ED02078DFF87CA3AAF1E2
:101D50000408C007A8F104054CD0DAF8001050467A
:101D6000C1F38101012908D00068C0F38100022875
:101D70000AD1D8F80000400206D52868800339D57A
:101D800060680028DFD035E06068B0F5803F0BD098
:101D900010B1B0F5A02F11D0286820F48030286051
:101DA000286820F4802002E0286840F48030286011
:101DB000606890B1FEF738FF06460AE0286840F4F4
:101DC00080202860F0E700BFFEF72EFF801B64280C
:101DD00072D828688003F7D50CE0FEF725FF064689
:101DE00005E000BFFEF720FF801B6428F0D82868BC
:101DF0008003F7D42078800742D5DAF800105046E7
:101E000011F00C0F08D00068C0F3810002280BD13C
:101E1000D8F80000400207D42868800718D5E06889
:101E2000012800D114E04AE1E0680028286817D0B2
:101E300040F001002860FEF7F7FE064605E000BF0F
:101E4000FEF7F2FE801B0228C2D828688007F7D56B
:101E50002069296821F0F80141EAC00028600FE0FC
:101E600020F001002860FEF7DFFE064605E000BF17
:101E7000FEF7DAFE801B02281ED828688007F7D4F8
:101E80002078000729D5904861696C300029814687
:101E9000016812D041F001010160FEF7C5FE06465F
:101EA00005E000BFFEF7C0FE801B022804D8D9F869
:101EB00000008007F6D510E089E021F00101016003
:101EC000FEF7B2FE064604E0FEF7AEFE801B0228D7
:101ED0007DD8D9F800008007F6D4207840076BD56C
:101EE000DFF8E49109F13809D9F80000C0000BD4FB
:101EF000D9F8001041F08051C9F80010D9F800005D
:101F0000012700F08050009070480168C90512D484
:101F10000168834641F480710160FEF785FE064644
:101F200005E000BFFEF780FE801B64284FD8DBF879
:101F30000000C005F6D5644EA068683601280AD0B6
:101F400008B1052811D0306820F0010030603068F9
:101F500020F0040002E0306840F001003060A0682A
:101F6000A0B1FEF761FE83460CE0306840F004004B
:101F70003060F0E7FEF758FEA0EB0B0141F288302D
:101F8000814268D830688007F4D50EE0FEF74CFE39
:101F9000834607E0FEF748FEA0EB0B0141F28830D4
:101FA000814258D830688007F4D42FB1D9F8001096
:101FB00021F08051C9F80010A069E0B3DAF80010F0
:101FC000C1F3810102294DD00228286800E042E0D7
:101FD00020F08070286003D0FEF726FE04463DE026
:101FE000FEF722FE064604E0FEF71EFE801B0228D6
:101FF00031D828688001F7D4D4E90921DFF8D0C0AE
:10200000D4E9070694F830304F0894F82C10304388
:102010000CEB074444EA8212104340EA016040EAB4
:102020000370C8F80000286840F080702860FEF750
:10203000FBFD044605E044E0FEF7F6FD001B022828
:1020400009D828688001F7D53BE000BFFEF7ECFD1A
:10205000001B022802D90320BDE8F88F2868800100
:10206000F4D42EE00128D8F8000028D0E16900F46B
:1020700080028A4223D1216A00F03F028A421ED1A7
:10208000626A47F6C0710140B1EB821F17D1A16AA5
:102090004FF0FF3200F4403302EB5101B3EB014F3C
:1020A0000DD194F82C1000F07062B2EB016F06D1E4
:1020B00094F8301000F0E040B0EB017F01D0012037
:1020C000CAE70020C8E7000008380240007000405E
:1020D0000000FFFF70B504000D4603D094F82C00FB
:1020E00010B107E0012070BD002084F82D002046CB
:1020F00000F011F8022084F82C002068211DFEF762
:1021000045FAD4E900022946FEF792FA012084F844
:102110002C00002070BDFEF7F9BB10B5044690F806
:102120002C00022804D094F82C00012801D00120B2
:1021300010BD022084F82C002068FEF75CFA012014
:1021400084F82C00002010BD70B5044690F82C00D7
:102150000D46022804D0012803D0052801D0012013
:1021600070BD022084F82C002068FEF74DFA286824
:10217000022805D05FF0010084F82C00002070BD1B
:102180000520F9E7401EB0F1807F10B501D3012092
:1021900010BD4FF0E02460610F21601701F023FEB5
:1021A0000020A0610721216110BD70477047704772
:1021B0002DE9F04102680446002540F60F06D0697B
:1021C00011689368304205D186067DD58E067BD591
:1021D000616E1CE1994F03F001060F40374373D045
:1021E000C70709D0CF0507D501271762D4F880208B
:1021F00042F00102C4F8802082070AD5DA0708D02D
:10220000276802223A62D4F8802042F00402C4F81F
:10221000802042070AD5DA0708D0236804221A6210
:10222000D4F8802042F00202C4F8802002070CD5C6
:1022300001F02002324308D0236808221A62D4F841
:10224000802042F00802C4F8802002050BD54A0124
:1022500009D523684FF400621A62D4F8802042F056
:102260002002C4F88020D4F88020002A36D08006CE
:1022700005D5880603D5616E09B1204688472168D7
:10228000D4F880008968490602D410F0280F27D0BE
:10229000204601F0FDFB2068806840061BD52068C1
:1022A000083050E8001F21F0400140E80012002AE9
:1022B000F5D1206F78B162490165206FFEF701FB0F
:1022C00000280BD0206F00E010E0016D00E02046F8
:1022D000BDE8F04108472046FFF769FFBDE8F081FF
:1022E0002046FFF764FFC4F88050F7E7276E2026EA
:1022F000012F7CD1C7067AD5CF0678D51020106281
:1023000020688068400641D5216F08684068000455
:10231000000CE3D0B4F858208242DFD9A4F85A0068
:10232000C869B0F5807F2AD0216851E8000F20F4F9
:10233000807041E80002002AF6D12068083050E899
:10234000001F21F0010140E80012002AF5D12068A9
:10235000083050E8001F21F0400140E80012002A38
:10236000F5D1E6672566216851E8000F20F01000DE
:1023700041E80002002AF6D1206FFEF759FAB4F8BE
:102380005800B4F85A10401A81B22BE0B4F8580043
:10239000B4F85A10B4F85A20401A81B2002A9DD0DD
:1023A00000299BD0206850E8002F22F4907240E86A
:1023B0000023002BF6D1206800F1080050E8002F20
:1023C00022F0010240E80023002BF4D1E6672566E5
:1023D0006566206850E8002F22F0100240E80023D4
:1023E000002BF6D12046FFF7E0FE77E7FFE7C702B4
:1023F00008D55B0206D54FF4801010622046FFF727
:10240000D5FE6BE7020606D50A0604D5A16E0029A3
:102410007FF45DAF62E74006E7D54806E5D5204684
:10242000026852E8001F21F0400142E80013002B2F
:10243000F6D18667856600F083F84FE72001000437
:102440007D3A000810B5040002D0A06F10B107E07B
:10245000012010BD002084F87400204600F026F80A
:102460002420A0672068016821F001010160204656
:1024700001F034FB0128ECD0606A10B1204601F075
:102480006BFA2068416821F49041416020688168BE
:1024900021F02A0181602068016841F0010101609A
:1024A0002046BDE8104001F0BBBA000010B5AAB04C
:1024B0000446142124A8FDF7C5FF90216846FDF7C6
:1024C000C1FF1C492068884232D140200090002181
:1024D00068461191FFF7AAF808B1FEF755F81648BB
:1024E000016841F010010160006800F010002990BF
:1024F00011481438016841F00101016000680122AF
:102500004FF4C06100F001002990022007232893B6
:10251000CDE92410CDE92620084824A9FEF74EFA7B
:10252000022225201146FFF711F82520FFF700F8B9
:102530002AB010BD001001404438024000000240A3
:102540007047FEE701688A69D243920701D40022EE
:102550008A6200688169C943C90703D0816941F073
:1025600001018161704700002DE9F04704460068D1
:1025700088464FF0000917464FF0200A4D464E4658
:102580008169C90646D51021C16136E0B8F1FF3F27
:1025900033D0FEF749FBC11B414502D8B8F1000F0B
:1025A0002BD12068416894F84220836901F480416E
:1025B000DB431B041CD4B1F5804F19D0202A17D05F
:1025C000416841F480414160FEF72EFB07460FE071
:1025D000FEF72AFBC01B19280AD9626C012542F0BC
:1025E0002002626484F841A084F8429084F840900C
:1025F00020688069C0438006EAD420688069C0F3FF
:1026000040102843C2D015B92168C1F81CA001258B
:1026100046F0040621688869C20505D54FF480722A
:10262000CA6146F00106012541050AD521688005E9
:102630004FF4806246F00806CA614FF0010502D4EB
:102640000AE0800507D5216801254FF4007046F0A7
:102650000206C86100E085B12046FFF773FF2168DC
:10266000074F4B683B404B60616C3143616484F8B9
:1026700041A084F8429084F840902846BDE8F08755
:1026800000E800FE70B50068C1F3090141EA0241AB
:10269000074D049C19434FF480664268214306EAC3
:1026A00054532B439A4321F000410A43426070BDCA
:1026B000FF63FF032DE9F0411D4617460E46044611
:1026C000DDF8188008E0681C06D0FEF7ADFAA0EB34
:1026D0000800A8420BD855B12068806936EA00008E
:1026E00013D00020B842EED00020BDE8F081626C2B
:1026F000002084F84000202142F02002626484F827
:10270000411084F842000120EFE70120EAE70000D1
:102710002DE9F0412026904600250F46044630E082
:10272000424639462046FFF71FFF10BB20688069EC
:10273000C04380061ED420688169C943490701D47B
:10274000218D19BB8169C943C90604D41022C26115
:102750000421616400E0656420681349C661206853
:1027600042680A40426084F8416084F8425084F82C
:10277000405016E0FEF758FAA0EB0800B84208D81F
:102780003FB120688069C0434007C9D40020BDE83C
:10279000F081606C84F8405040F02000606484F860
:1027A00041600120F3E7000000E800FE70B5164626
:1027B0000D4604460DE0324629462046FFF7D4FE7A
:1027C00008B1012070BDFEF72FFA801BA84207D880
:1027D00035B120688069C0438006ECD4002070BD0C
:1027E000626C002084F84000202142F020026264E4
:1027F00084F8411084F84200E3E770B516460D46B0
:1028000004460FE0324629462046FFF7ADFE08B1E8
:10281000012070BD681C05D0FEF706FA801BA84297
:1028200007D835B120688069C0438007EAD400200A
:1028300070BD626C002084F84000202142F020022C
:10284000626484F8411084F84200E1E72DE9F04722
:10285000314C0128DFF8C4804FF40057DFF8C090F6
:102860004FF001062F4D1DD02078A0B10821284639
:10287000FEF7C8F9C0B104212846FEF7C3F998B1A4
:1028800039464046FEF7BEF970B101214846FEF7D1
:10289000B9F9012808D008212846FEF7B3F9012824
:1028A00026D037E02670E1E70A20FEF71DF8002069
:1028B000207008212846FEF7A5F980B1042128469A
:1028C000FEF7A0F970B139464046FEF79BF958B1C2
:1028D00001214846FEF796F9012807D01AE00120A9
:1028E000BDE8F0870220FBE70320F9E70420F7E7C3
:1028F00004212846FEF786F901280BD139464046C7
:10290000FEF780F9012805D101214846FEF77AF942
:1029100000B926700020E3E70C0000200008024008
:1029200000000240001C024070B506460E480D49EA
:1029300000240268088822B13046BDE8704000F0EB
:10294000B7BB4D8800214543084600F069FA00F006
:102950009DFBB0B2054901E00880641CAC42FBD38A
:1029600070BD000030000020C001002000000860A1
:102970002DE9F05F394C3A4DA071296839B100F06A
:10298000A7FBE88A2080288B6080BDE8F09F0028A4
:1029900032484FF4305E4FF0F00C4FF4487649F275
:1029A00041384FF4A0774FF02C0280884FF4F0713B
:1029B0004FF02A034FF02B0545F2105B45F210391A
:1029C0000BD027804045BA46A4F802C001D0484544
:1029D00027D122816381A58135E0A4F800C040455C
:1029E000678001D0484507D1228148456381A58190
:1029F0002ED1278061802BE0584508D1A4F808E04B
:102A00004FF4285363814FF42C50A08106E0A0F5C9
:102A1000C857633F1CD122816581A38121806680D4
:102A200016E0584506D14FF42853A4F808E04FF4B7
:102A30002C5504E0A0F5C857633F04D1228163817F
:102A4000A58126806180484502D12180A4F802A09A
:102A50000020BDE8F05F00F007B900003000002062
:102A6000C00100202DE9F041044638480E460068B8
:102A700020B12046BDE8F04100F03CBB344D270AB0
:102A80004FEA16282846A9884089A1F51343413BFF
:102A90000BD0A1F5A643103B07D0B3F5007310D0BF
:102AA000A1F5C853633B25D048E000F0E3FA38466F
:102AB00000F0D4FAE0B200F0D1FAA88900F0DAFA16
:102AC00036E000F0D7FA384600F0C8FA6889401CB2
:102AD00080B200F0CFFAE0B200F0C0FAA88900F0AE
:102AE000C9FA404600F0BAFAA889401C80B200F04A
:102AF000C1FA20E0A97919B92988091B491E8CB2AD
:102B000000F0B8FA270A384600F0A8FAE0B200F060
:102B1000A5FA384600F0A2FAE0B200F09FFAA889C0
:102B200000F0A8FA404600F099FAF0B200F096FAE8
:102B3000404600F093FAF0B200F090FA0549288977
:102B40008B1C08801A80BDE8F0810000C0010020C5
:102B500030000020FEFF07602DE9FF473B4C4FF49B
:102B6000F0734FF44872DFF8F0903025DFF8E0C0E2
:102B70005827DFF8EC80C4E900232581032565810F
:102B80002025A7812826334F0D21E58102202682AA
:102B9000002561822F26E06187213A8022227B80F6
:102BA0002E4F2F4BC9F800702D4FC3F800C040F2D4
:102BB000A733DFF8ACC07D60BD60FD6040F2022746
:102BC000CCF8105040F2CF3CC8F8146040F20F2609
:102BD000C8F818004046C161026243628762C0F8CB
:102BE0002CC0066380F8365080F8355080F8345099
:102BF000FEF72EFB06200721CDE90215CDE9005096
:102C0000D9F80010FF230222002000F0EBFA002385
:102C100040461A461946FEF71DFC00234046D4E9FB
:102C20000012FEF741FC0020FFF7A2FE002000F09A
:102C300009FB0C4801222021FDF7F1FF04B04FF6FB
:102C4000FF70BDE8F047FFF76FBE0000C001002035
:102C5000006801403000002018000020000000C083
:102C60001801002000040240F0B56C4C002541F62C
:102C700063172146A2798988012A01D01AB11BE085
:102C8000B94202D118E0B94216D1082814D2DFE8BF
:102C900000F00406080A0C0E101206200CE00720B3
:102CA0000AE0042008E0052006E0012004E00020FE
:102CB00002E0032000E0022045F21032A1F51343A8
:102CC00045F21056413B05D0914203D0B14201D0AC
:102CD000B94277D1082812D2DFE800F011040608C3
:102CE0000A0C0E1080250AE0402508E0C02506E009
:102CF000202504E0602502E0A02500E0E025B142A7
:102D000002D14FF4585000E03620914205D0B14234
:102D100003D0B94201D045F00805294600F0C0F9BA
:102D2000A188B9420AD06288A806208802D59042BC
:102D300002D303E0904201D922806080B1426089D1
:102D400041D100F097F9002000F088F96089401C1B
:102D500080B200F08FF9002000F080F96089801CBB
:102D600080B200F087F92088401EC0F30F2000F0E9
:102D700075F96089C01C80B200F07CF92078401E93
:102D8000C0B200F06BF9A08900F074F9002000F0E7
:102D900065F9A089401C80B200F06CF9002000F0B9
:102DA0005DF9A089801C80B200F064F96088401E43
:102DB000C0F30F2000F052F9A089C01C80B200F0CF
:102DC00059F922E028E000F055F9002000F046F91A
:102DD000002000F043F92088401EC0F30F2000F0CF
:102DE0003DF92078401EC0B200F038F9A08900F00B
:102DF00041F9002000F032F9002000F02FF960883E
:102E0000401EC0F30F2000F029F9A078BDE8F04083
:102E1000401EC0B200F022B9F0BD0000300000201A
:102E2000F0B53F4A060A04460D4610460F0A91883F
:102E30004089A1F51343413B28D0A1F5A643103B9F
:102E400024D0A1F5C853633B2FD0A1F5AA43103B72
:102E500064D100F00FF9304600F000F95089401CB1
:102E600080B200F007F9E0B200F0F8F8908900F0C5
:102E700001F9384600F0F2F89089401C80B200F069
:102E8000F9F8E8B2BDE8F04000F0E8B800F0F2F878
:102E9000304600F0E3F8E0B200F0E0F8908900F08E
:102EA000E9F8384600F0DAF8EBE7917929B300F059
:102EB000E1F8304600F0D2F8E0B200F0CFF8108828
:102EC000401EC0F30F2000F0C9F81078401EC0B2B9
:102ED00000F0C4F8908900F0CDF8384600F0BEF854
:102EE000E8B200F0BBF85088401EC0F30F2000F09D
:102EF000B5F89078401EC0B2C4E71188091B491E7E
:102F00008CB200F0B7F8002000F0A8F8002000F024
:102F1000A5F8200A00F0A2F8E0B2D9E7F0BD000061
:102F2000300000202DE9FF5F58071D460C468A46F9
:102F300000D00120DFF8B8B0690800EBD50000260A
:102F400010FB01F1203A01F0FF09D0B202904BE0F2
:102F50000C2D11D0102D14D0182D17D0202D45D1A7
:102F60000298244901EBC0104FF00008875D380635
:102F700013D52148026814E00298204900EB400074
:102F800008E002981E4901EB0010EDE702981D4988
:102F900000EBC00001EB8000E6E70E9828B9164868
:102FA000426821460098FFF75DFD7906BBF80200F4
:102FB000641CA4B20F0EA04218D9A4EB0A00A842C8
:102FC00009D100985446BBF80010401C80B2009014
:102FD00081420BD906E008F1010000F0FF08B8F1CA
:102FE000080FC4D3761CF6B24E45B1D3BDE8FF9F9F
:102FF00030000020EE570008000000202E4000089E
:10300000A2440008924A00082DE9F84F0D460446F4
:1030100058194FF0000A111987B21FFA81F8DDE93B
:103020000AB604F0FF0912E0444503D305EB0B0098
:103030004C4685B2BD420FD25B4629462046CDF8AC
:1030400000A0FFF76FFF04EB5B0084B2761C3278C0
:10305000A2F120005E28E7D9BDE8F88F01B5BDF8E0
:1030600000100348ADF80010BDF80010018008BD45
:103070000000086001B5BDF800100348ADF800106D
:10308000BDF80010018008BDFEFF0760024803493B
:10309000008908807047000030000020FEFF0760B4
:1030A000024B9A1C1880118070470000FEFF0760D9
:1030B00008B500900548018BC08A491E8BB2401E9E
:1030C00082B20021084600F033F808BDC00100209C
:1030D00007490A464875938812889BB292B220B17C
:1030E000012801D1CA820B837047CB820A837047C3
:1030F000C0010020F0B50C4C95B2DFF830C023467B
:10310000677D1E7DDA691B685CF8266027B103FBCA
:1031100001004243B552F0BD6468201A401E03FB13
:10312000001050433552F0BDC001002018000020AF
:103130002DE9F047274D0027DDF820A06C7D14B164
:103140000446164606E01E466B680C46991A1B1A82
:10315000491E5B1E2868DFF88090321B861A95F89E
:1031600014C000FB0144591AD9F80030DFF8708010
:10317000761EED69194858F82C8043F4000C05FBC5
:103180000484B3B2C9F800C04FF44036066002258B
:1031900045630364ED030368491C05EB02421143D8
:1031A00023F001020260C4634164C0F838A00268E1
:1031B000690142F00102026002E07F1C8F4202D2EC
:1031C00042689207F9D5816841F002018160BDE84B
:1031D000F0870000C00100203038024000B00240FB
:1031E000180000202DE9F0438DB0144D1446002244
:1031F000DDE916C7DDE91498009202924FEA0C2C23
:103200002E6801964FEA08286D68CDE904430395BE
:103210004B460B95CDE9091606AE694686E80811BE
:103220008DF832208DF83120024605488DF8307037
:10323000FDF7E4FF0DB0BDE8F0830000C001002001
:10324000180100200149087570470000C0010020E6
:103250002DE9FE4F81460068882493468D888C2294
:1032600004EBCB178A46C3689421BE46C459C3F306
:103270000B432B4404F470441F04019702EBCB1260
:1032800040F80E4001EBCB13DAF800709C214FF0B0
:10329000AC0C01EBCB1440F2077102910CEBCB119B
:1032A000D9F800C098250020CDF800C0A02605EB75
:1032B000CB15DCF80CC006EBCB16CCF30B4C0CF1A9
:1032C000010C07EB0C08DDF800C0019F48EA070875
:1032D0004CF80E80D9F80070BAF80CC0B846FF68F8
:1032E000C7F30A0767444FEA074E58F8027007F41D
:1032F000704C48F802C0D9F800C0DAF80870DCF861
:103300000C80C8F30A0808F10108B84448EA0E081E
:103310004CF80280D9F80020D75827F00707D7507B
:10332000D9F80070DAF81020FA509AF831209AF89B
:1033300018304FEA022C9AF83220120442EA036253
:10334000D9F800301F5918519AF8303043EA0C036D
:103350001343D9F800201351D9F80020535923F012
:10336000FF035351D9F80020DAF814305351D9F83B
:1033700000209359029CA3439351D9F80030DAE915
:10338000072422439A51D9F8002053585050D9F8B5
:103390000020DAF824005050DAF81000C8B30128F1
:1033A0003AD004283AD0022838D0032836D007284B
:1033B00034D00120D9F80030B02505EBCB11B42270
:1033C00084245D5802EBCB1205F0E0255D50DAE96C
:1033D000003504EBCB14EB1ABAF8285043434543AD
:1033E000D9F80000DB1C43EA05434350D9F800003C
:1033F00081586FF30A018150D9F80000DAF82C10D7
:103400008150D9F80000015941F001010151BDE896
:10341000FE8FFFE70420CDE70320CBE70220C9E7BA
:10342000104802220E4B002110B50360C0E90112C2
:10343000C160C0E90E12016441648164C164FDF79A
:10344000ABF908B1FDF7A0F806480121FDF748F9EE
:10345000002803D0BDE81040FDF796B810BD00006D
:1034600000B0024040000020F0B587B01C21684643
:10347000FCF7E8FF164800250822144F01264FF0FC
:10348000400E0221C0E90075C0E902621024046107
:103490000C03C0F814E04FF4C07CC0E906C58F02ED
:1034A0000762CE020623C0E909648DE80E000425F8
:1034B0000393CDE9045106916946FEF70BFE0028FF
:1034C00001D0FDF761F807B0F0BD0000400100A099
:1034D00098000020F0B587B014216846FCF7B2FFD1
:1034E0003F48016841F004010160016801F00401F6
:1034F0000591016841F480710160016801F48071F7
:103500000591016841F020010160016801F020018E
:103510000591016841F080010160016801F08001BE
:103520000591016841F001010160016801F00101AC
:103530000591016841F002010160016801F002019A
:103540000591016841F040010160016801F040010E
:103550000591016841F010010160016801F010015E
:103560000591016841F008010160006801221D4FCA
:10357000032100F0080005903846FDF750FB0022BB
:1035800038462021FDF74BFB0025694601240294B3
:103590006003CDE900051448FDF710FA0226134830
:1035A0008DE870006946FDF709FA0C206946CDE9FF
:1035B00000050F480294FDF701FA23206946CDE982
:1035C0000004CDE902463846FDF7F8F920036946C4
:1035D000CDE9000538460294FDF7F0F907B0F0BDDB
:1035E000303802400004024000080240000002405F
:1035F000001C02401348002110B5114C0123124A4F
:103600000460C0E90121C0E9033141618161C16108
:103610000162FDF765FB08B1FCF7B6FF0948002120
:10362000FDF708FB08B1FCF7AFFF06480021FDF7E6
:103630002DFB002803D0BDE81040FCF7A5BF10BD4E
:1036400000580040CC0000202B1E2060F0B59BB03D
:1036500034216846FCF7F6FE34210DA8FCF7F2FE93
:1036600034480024324B2F21022540F2A73687220E
:1036700040F2022703602223446040F2CF3C846082
:1036800040F20F2E8561C460C0E9044100F11C01C5
:1036900081E8CC5080F8344080F8354080F83640DE
:1036A000FDF7D6FD08B1FCF76FFF4FF448700495A5
:1036B0004FF4F071FF22CDE90040CDE90A0107A8DF
:1036C000CDE9024107264F066946CDE905244FF4AE
:1036D000C06380E8C8008DF8304000228DF831408A
:1036E00014488DF83240FDF789FD08B1FCF74CFF16
:1036F0004FF480600D94CDE910450E9405210F9490
:1037000001221294CDE91340CDE915148DF86440DF
:103710000DA98DF865400748179418948DF86640F8
:10372000FDF76CFD002801D0FCF72EFF1BB0F0BDAB
:1037300000680140E00100200D48002110B50B4C4D
:103740000C224FF4E1330460C0E90131C160C0E9EB
:1037500004128161C16101624162FEF773FE0028BB
:1037600003D0BDE81040FCF70FBF10BD00100140B2
:1037700088020020FEE7FEE706480A2240214FF0BB
:10378000FF3310B5FDF708FB0446FF2000F034F8C6
:10379000204610BDCC00002010B5044600F008F80B
:1037A0000121A140014201D0012010BD002010BD27
:1037B0001CB500204FF47A718DF8040001230448F1
:1037C00001AA00914121FDF77FFB9DF804001CBD7B
:1037D000CC00002070B50D460446FFF7E9FF01223A
:1037E00002FA04F22DB10243D0B2BDE8704000F0FD
:1037F00003B89043F9E7000001B582B04FF47A7046
:10380000012300904021024802AAFDF7EFFB0EBD04
:10381000CC0000207047000000230122184611460A
:1038200010B500F01FF80120FDF75EF8002301221B
:103830001846022100F016F800230822184603213A
:1038400000F010F80122042100204FF40C7300F066
:1038500009F8BDE81040024840F23731FEF75DBC80
:10386000980000201FB54FF0000410B1012802D0CD
:1038700002E0102400E008240748CDE902234FF4B9
:103880008052CDE900146946FEF75EFC002800D0A6
:10389000012004B010BD0000980000207047FDF723
:1038A00079BC000030B593B034216846FCF7CAFDFE
:1038B00014210DA8FCF7C6FDFDF7B0FE20480168F5
:1038C00041F080510160006800F0805012901D4866
:1038D000016841F44041016000680224192300F4AA
:1038E00040401290012008934FF4D87582050104DE
:1038F000CDE90642CDE909540B94CDE900016846B3
:103900000C94FEF71BFA08B172B6FEE7FDF750FE05
:1039100008B172B6FEE70FAD00214FF4A0524FF48C
:10392000805385E80E000F20CDE90D0407210DA876
:10393000FEF71AF9002801D072B6FEE713B030BDC9
:1039400040380240007000400248016841F47001B4
:103950000160704788ED00E090F82410C90706D098
:103960000168836A4A6822F400321A434A6090F878
:103970002410890706D50168C36A4A6822F4803298
:103980001A434A6090F82410490706D50168036B72
:103990004A6822F480221A434A6090F824100907EA
:1039A00006D50168436B4A6822F400421A434A6014
:1039B00090F82410C90606D50168836B8A6822F442
:1039C00080521A438A6090F82410890606D501684F
:1039D000C36B8A6822F400521A438A6090F824105C
:1039E000490611D50168036C4A6822F480121A4313
:1039F0004A60016CB1F5801F06D10168436C4A68CA
:103A000022F4C0021A434A6090F82410090606D531
:103A10000168826C486820F40020104348607047B9
:103A2000F8B500260446C0F88060FDF7FDF80546AD
:103A300020686FF07E470068000708D500222B46FB
:103A40004FF400112046009700F060F960B920683B
:103A5000006840070AD500222B464FF4800120461B
:103A6000009700F053F908B10320F8BD2020A067AB
:103A7000E0672666002084F87460F8BD10B5806B9E
:103A80000021A0F85A10A0F85210FEF790FB10BDCC
:103A9000016851E8002F22F4907241E80023002BC6
:103AA000F6D10168083151E8002F22F0010241E807
:103AB0000023002BF5D1016E012908D1026852E8DC
:103AC000001F21F0100142E80013002BF6D1002165
:103AD0002022C26701664166704700002DE9F0416F
:103AE00004460368C2698168D4E90450DFF8F0C174
:103AF0007C4E29431F68002510437B4A014307EA97
:103B00000C070F431F604FF400402168E7684B68C3
:103B100023F440533B434B602768A369216AD7F8DD
:103B200008C019432CF430630B43BB602168B142D9
:103B30000AD1116811F0030152D001297CD0022969
:103B400071D003296ED184E0684B99420AD1116883
:103B500011F00C0167D0042965D0082975D00C2913
:103B600060D176E0624B99420AD1116811F03001C0
:103B700059D010296BD0202967D0302952D168E064
:103B80005C4B99420AD1116811F0C0014BD0402919
:103B90005DD0802959D0C02944D15AE0564B994272
:103BA0000DD1116811F440713DD0B1F5807F4ED038
:103BB000B1F5007F49D0B1F5407F33D149E04F4B9B
:103BC00099420FD1116811F4406109D0B1F5806FAD
:103BD0003DD0B1F5006F38D0B1F5406F22D138E05B
:103BE000012120E0464B99420DD1116811F440515A
:103BF00019D0B1F5805F2AD0B1F5005F25D0B1F5BD
:103C0000405F0FD125E03F4B99420BD1116811F471
:103C1000404108D0B1F5804F19D0814215D0B1F59F
:103C2000404F16D01021E369374A4FF6EF768342B2
:103C30002ED1092949D201E009E006E0DFE801F0D0
:103C40000B0E11451345454516000221EBE70421F3
:103C5000E9E70821E7E7FEF71FF806E0FEF72CF892
:103C600003E0104602E0FEF737F878B361684000E1
:103C700000EB5100B0FBF1F0A0F11001B14224D8EB
:103C80004FF6F0732168C0F342021840104320E061
:103C900009291AD2DFE801F005080B190D191919C5
:103CA0001000FDF7F9FF06E0FEF706F803E0104606
:103CB00002E0FEF711F848B1616800EB5100B0FB7B
:103CC000F1F0A0F11001B14201D9012502E0216813
:103CD00080B2C86000206066A0662846BDE8F0811A
:103CE000F369FFEF001001409038024000440040AB
:103CF00000480040004C00400050004000140140CB
:103D000000780040007C00400024F4002DE9F047DA
:103D10009A4617460E460446089D4FF000094FF09C
:103D200020084CE0681C4AD0FCF77EFFA0EB0A009C
:103D3000A8422AD84DB32068016849073FD5C06919
:103D4000C04300053BD421684FF40060086221683D
:103D500051E8000F20F4D07041E80002002AF6D1AB
:103D60002068083050E8001F21F0010140E80012EF
:103D7000002AF5D1C4F8788084F87490C4F87C8067
:103D8000C4F880800320BDE8F087206850E8001F59
:103D900021F4D07140E80012002AF6D120680830E2
:103DA00050E8001F21F0010140E80012002AF5D17F
:103DB000C4F8788084F87490C4F87C80E2E72068C6
:103DC000C06936EA000004D00020B842AAD0002022
:103DD000D9E70120F9E700000148FEF7E9B9000042
:103DE00088020020FEE7090700284FEA116104DB82
:103DF00000F1E02080F80014704700F00F0000F19F
:103E0000E02080F8141D7047704700000349CA691C
:103E10005206FCD5C2B28A62704700000010014011
:103E200000251CB52E46FDF7BDF9FFF73BFDFFF75A
:103E300051FBFFF7F5FAFFF717FBFFF707FCFFF75A
:103E40007BFCFFF7D7FBFFF70FFB4B48FFF7E4FCCA
:103E5000FFF7FCFBFEF780FE48A0FCF7B5FA4A4FDF
:103E60004AA110244FF478402346C82238601E200F
:103E7000CDE900413221FFF7C7F849A01023C8223D
:103E8000CDE9004046211E20FFF7BEF848A01023D0
:103E9000C822CDE900405A211E20FFF7B5F848A0FE
:103EA0001023C822CDE9004082211E20FFF7ACF884
:103EB00048A01023C822CDE9004096211E20FFF71C
:103EC000A3F8DFF820814FF4FA791BE046A0102315
:103ED000C822CDE90040AA211E20FFF795F84846E8
:103EE000FCF702FD46A01023C822CDE90040AA211C
:103EF0001E20FFF789F84846FCF7F6FC02214046F1
:103F0000FCF785FEFFF738FC0028DFD141A0102325
:103F1000C822CDE90040AA211E20FFF775F81F2016
:103F200038604FF4805447460020FEF78FFC01288C
:103F300005D156B1002600203146FFF74BFC214643
:103F40003846FCF75FFE10B109E00126F3E70420D4
:103F5000FFF722FC18B901213846FCF758FE6D1C0A
:103F6000ADB20A20FCF7C0FC142DDDD10221384689
:103F7000FCF74DFE0025D7E798000020B3F5CABC3A
:103F8000BBAFCDEAB1CF00000000002041706F6CE4
:103F90006C6F2053544D333246342F4637000000A7
:103FA0005043463835373420544553540000000000
:103FB00041544F4D40414C49454E54454B00000043
:103FC0004B4559303A42454550204F4E2F4F4646BB
:103FD000000000004558494F3A445331204F4E2FBE
:103FE0004F464600000402405043463835373420DF
:103FF000436865636B204661696C6564210000005D
:10400000506C6561736520436865636B21202020D7
:1040100020202000504346383537342052656164F3
:10402000792100004FF04070E1EE100A7047000067
:1040300000000000000000000000000000003F4001
:104040000000000000000000300040003000400090
:10405000000009000BC03D000BC03D00090018C066
:1040600024407FE0224031800000180024C01B0063
:104070000D803240018003801C4027401C80074097
:104080000040100060000000000000000000000080
:10409000000000001F802040402000004020204001
:1040A0001F8000000000090006001F8006000900B4
:1040B0000000040004003F80040004000000001021
:1040C0000060000000000000000004000400040084
:1040D0000400040000000000004000000000000098
:1040E0000000002001C006003800400000001F80D2
:1040F0002040204020401F800000000010403FC0B2
:1041000000400000000018C0214022402440184018
:10411000000010802040244024401B80000002004A
:104120000D0011003FC0014000003C8024402440AD
:104130002440238000001F8024402440344003801A
:1041400000003000200027C03800200000001B8045
:104150002440244024401B8000001C0022C0224038
:1041600022401F8000000000000008400000000006
:1041700000000000000004600000000000000000DB
:1041800004000A00110020804040090009000900D5
:1041900009000900000000004040208011000A00D2
:1041A00004001800200023402400180000001F8095
:1041B0002040274029401F400000004007C0390030
:1041C0000F0001C0004020403FC0244024401B801D
:1041D00000001F8020402040204030800000204010
:1041E0003FC0204020401F80000020403FC02440AE
:1041F0002E4030C0000020403FC024402E00300040
:1042000000000F0010802040224033800200204038
:104210003FC0040004003FC02040204020403FC079
:104220002040204000000060202020203FC02000CF
:10423000200020403FC024400B0030C020402040E0
:104240003FC020400040004000C03FC03C0003C0D1
:104250003C003FC0000020403FC00C4023003FC056
:1042600020001F802040204020401F800000204070
:104270003FC024402400180000001F80214021403E
:1042800020E01FA0000020403FC02440260019C0AD
:10429000004018C0244024402240318000003000FB
:1042A00020403FC020403000000020003F80004000
:1042B00000403F80200020003E0001C00700380081
:1042C0002000380007C03C0007C038000000204034
:1042D00039C0060039C0204000002000384007C027
:1042E000384020000000304021C02640384020C027
:1042F0000000000000007FE040204020000000009F
:1043000070000C00038000400000000040204020AE
:104310007FE00000000000002000400020000000BE
:10432000000000100010001000100010001000002D
:104330000000400000000000000000000280054076
:10434000054003C0004020003FC0044004400380FB
:10435000000000000380044004400640000000000C
:104360000380044024403FC000400000038005401B
:10437000054003400000000004401FC024402440CA
:104380002000000002E005500550065004202040A7
:104390003FC00440040003C000400000044027C0A8
:1043A00000400000000000100010041027E0000092
:1043B000000020403FC00140070004C004402040EE
:1043C00020403FC000400040000007C0040007C07C
:1043D000040003C00000044007C00440040003C000
:1043E00000400000038004400440038000000410EB
:1043F00007F00450044003800000000003800440E4
:10440000045007F00010044007C0024004000400FC
:104410000000000006400540054004C00000000008
:1044200004001F800440004000000400078000409A
:10443000044007C000400400070004C001800600DB
:104440000400060001C0070001C00600000004408F
:1044500006C0010006C0044000000410071004E07C
:104460000180060004000000044005C0064004402E
:1044700000000000000004007BE04020000000007D
:1044800000000000FFF000000000000040207BE082
:1044900004000000000040008000400020002000D8
:1044A00040000000000000000000000000000000CC
:1044B00000000000000000001FCC000C0000000005
:1044C00000000000080030006000080030006000BC
:1044D0000000022003FC1E20022003FC1E200220FC
:1044E000000000000E1811043FFF10840C7800003B
:1044F00000000F0010840F3800C00778188400787F
:10450000000000780F8410C411240E9800E4008489
:1045100000080800680070000000000000000000B3
:10452000000000000000000007E01818200440020E
:104530000000000040022004181807E000000000FE
:1045400000000240024001800FF001800240024062
:1045500000000080008000800FF800800080008054
:1045600000000001000D000E00000000000000002F
:10457000000000000080008000800080008000803B
:1045800000800000000C000C000000000000000093
:1045900000000000000600180060018006001800FE
:1045A0002000000007F0080810041004080807F0B5
:1045B00000000000080408041FFC000400040000C0
:1045C000000000000E0C10141024104411840E0C76
:1045D000000000000C1810041104110412880C7063
:1045E0000000000000E00320042408241FFC002435
:1045F000000000001F98108411041104108810702E
:104600000000000007F008881104110418880070E9
:10461000000000001C00100010FC13001C00100023
:10462000000000000E3811441084108411440E382C
:10463000000000000700088C10441044088807F0B0
:104640000000000000000000030C030C000000004C
:104650000000000000000001010600000000000052
:10466000000000000080014002200410080810042F
:10467000000002200220022002200220022002204C
:10468000000000001004080804100220014000800F
:10469000000000000E001200100C106C10800F00C3
:1046A000000003E00C1813E4142417C4082807D0F2
:1046B00000000004003C03C41C40074000E4001C50
:1046C000000410041FFC1104110411040E88007072
:1046D000000003E00C1810041004100410081C1053
:1046E000000010041FFC100410041004080807F058
:1046F000000010041FFC1104110417C41004081852
:10470000000010041FFC1104110017C01000080065
:10471000000003E00C181004100410441C78004042
:10472000000010041FFC10840080008010841FFC17
:1047300010040000100410041FFC100410040000FA
:10474000000000030001100110011FFE1000100006
:10475000000010041FFC110403801464181C1004D2
:10476000000010041FFC1004000400040004000CEE
:10477000000010041FFC1F0000FC1F001FFC1004A1
:10478000000010041FFC0C04030000E010181FFCC4
:10479000100007F00808100410041004080807F0BF
:1047A000000010041FFC10841080108010800F0087
:1047B000000007F0081810241024101C080A07F243
:1047C000000010041FFC1104110011C011300E0C68
:1047D000000400000E1C11041084108410441C38C6
:1047E00000001800100010041FFC10041000180036
:1047F000000010001FF810040004000410041FF84B
:10480000100010001E0011E0001C007013801C003E
:1048100010001FC0103C00E01F0000E0103C1FC053
:1048200000001004180C163401C001C01634180C16
:10483000100410001C00130400FC13041C001000E2
:1048400000000804101C1064108413041C041018C9
:1048500000000000000000007FFE40024002400215
:104860000000000030000C0003800060001C00030A
:10487000000000004002400240027FFE00000000F5
:104880000000000000002000400040004000200028
:104890000000000100010001000100010001000111
:1048A0000001000040004000200000000000000067
:1048B000000000000098012401440144014400FC70
:1048C000000410001FFC008801040104008800702F
:1048D0000000000000700088010401040104008849
:1048E00000000000007000880104010411081FFC92
:1048F0000004000000F8014401440144014400C8E0
:1049000000000000010401040FFC11041104110057
:104910001800000000D601290129012901C901065A
:10492000000010041FFC008401000100010400FCD1
:10493000000400000104190419FC00040004000034
:1049400000000000000300010101190119FE000030
:10495000000010041FFC0024004001B4010C0104FD
:1049600000000000100410041FFC000400040000FC
:104970000000010401FC0104010001FC010401002C
:1049800000FC010401FC008401000100010400FCA2
:104990000004000000F8010401040104010400F80F
:1049A0000000010101FF008501040104008800707E
:1049B000000000000070008801040104010501FFEF
:1049C00000010104010401FC0084010401000180D4
:1049D0000000000000CC01240124012401240198DE
:1049E000000000000100010007F8010401040000BC
:1049F0000000010001F8000400040004010801FCAB
:104A00000004010001800170000C001001600180B1
:104A1000010001F0010C003001C00030010C01F078
:104A2000010000000104018C00740170018C01047C
:104A30000000010101810171000E00180160018078
:104A4000010000000184010C013401440184010CC7
:104A50000000000000000000000001003EFC4002D9
:104A600040020000000000000000FFFF0000000006
:104A700000000000400240023EFC01000000000077
:104A80000000000060008000800040004000200026
:104A900020000000000000000000000000000000F6
:104AA0000000000000000000000000000000000006
:104AB00000000000000000000000000000000000F6
:104AC00000000000000F80380FFE380F8038000013
:104AD00000000000000000000000000000000000D6
:104AE0000100000600000C00003800003100000644
:104AF00000000C0000380000300000000000000042
:104B0000000061800067F807F98000618000618023
:104B10000061800061800067F807F9800061800013
:104B2000000000000000000001C0E003E0F00630DB
:104B3000080418081FFFFE040E080787F00381E031
:104B400000000000000001F000060C00040408064C
:104B50000C7001F9C0000E00003BE000EC180708E3
:104B600008040C180003E00000000001E00007F05A
:104B700003F818041C0804170807E1D003C0E0007C
:104B800023B0003C080020080000100000000000D6
:104B9000000100003100003200001C000000000095
:104BA0000000000000000000000000000000000005
:104BB00000000000000000000000000000000000F5
:104BC00000007F0001FFC00780F00C0018100004F7
:104BD0002000020000000000002000021000040C71
:104BE00000180780F001FFC0007F000000000000F7
:104BF0000000000000000000000000000000420073
:104C0000006600006600003C0000180003FFC000C2
:104C10001800003C00006600006600004200000032
:104C2000000008000008000008000008000008005C
:104C300001FFC00008000008000008000008000094
:104C400008000000000000010000310000320000F8
:104C50001C00000000000000000000000000000038
:104C60000000000000000000000008000008000034
:104C70000800000800000800000800000800000804
:104C80000000080000080000000000000000000014
:104C9000000038000038000038000000000000006C
:104CA0000000000000000000000000000000000004
:104CB0000000000600001C000070000180000E00D3
:104CC00000380000C0000700001C00003000000099
:104CD0000000000000007F8001FFE00380700600FC
:104CE0001804000804000806001803807001FFE0A3
:104CF000007F8000000000000000000001000801AB
:104D0000000801000803FFF807FFF8000008000092
:104D10000800000800000000000000000001C0388A
:104D200002C058040098040118040218040418066C
:104D30001C1803F81801E0F8000000000000000053
:104D40000001C0E003C0F0040008040808040808DB
:104D500006180803F41801E7F00001E00000000065
:104D60000000000000000300000D000011000061C1
:104D70000000810803010807FFF80FFFF800010891
:104D80000001080000000000000000E007FCD00661
:104D90000808061008061008061008061838060F3E
:104DA000F00607C0000000000000000000003F8087
:104DB00001FFE003843002081804100804100804FE
:104DC0001008071810030FF00007C00000000000D3
:104DD0000000000003C0000700000600000600F805
:104DE0000607F806180006E00007000006000000AD
:104DF000000000000001E1E003F7F00634100418A1
:104E000008041808040C08040C0806161803F3F02C
:104E100001C1E000000000000000F80003FC3003C6
:104E200006380402080402080402080404100308F7
:104E3000F001FFC0007F0000000000000000000043
:104E40000000000000000000000070380070380012
:104E500070380000000000000000000000000000AA
:104E60000000000000000000000000000000301AF8
:104E700000301C00000000000000000000000000E6
:104E800000000000000000000008000014000022E4
:104E9000000041000080800100400200200400105A
:104EA00008000800000000000000210000210000B0
:104EB000210000210000210000210000210000212C
:104EC00000002100002100000000000000000000A0
:104ED000080008040010020020010040008080004B
:104EE0004100002200001400000800000000000043
:104EF0000003C00004C000040000080038080F3898
:104F00000808380810000C300007E00003C000005B
:104F10000000000000003F8000FFE0038070020FEF
:104F20001006708804C088048308047F8802C0903B
:104F300003012000FE400000080000180001F800F6
:104F40003E0801C20007020007E20000FE00001F49
:104F5000C80001F800003800000804000807FFF846
:104F600007FFF804080804080804080804080806ED
:104F7000180803F41801E7F00001E0000000000049
:104F800000003F8001FFE003807002001804000869
:104F90000400080400080400100600200780C00078
:104FA000000004000807FFF807FFF80400080400E9
:104FB0000804000804001802001003807001FFE0DC
:104FC000007F8000000004000807FFF807FFF804D6
:104FD0000808040808040808040808043E08040037
:104FE0000806001801006000000004000807FFF830
:104FF00007FFF80408080408000408000408000477
:105000003E000600000600000180000000000000D5
:1050100000003F8001FFE0038070060018040008D4
:105020000402080402080203F00783F000020000F3
:10503000020004000807FFF807FFF804080800084A
:105040000000080000080000080004080807FFF836
:1050500007FFF80400080000000000000400080436
:10506000000804000807FFF807FFF8040008040020
:105070000804000800000000000000000000000616
:105080000000070000010400010400010400030700
:10509000FFFE07FFFC040000040000040000040001
:1050A0000807FFF807FFF8040C08001800003E008E
:1050B00004C7800503C80600F8040038040018007F
:1050C000000804000807FFF807FFF80400080000C4
:1050D0000800000800000800000800000800001890
:1050E00000006000000004000807FFF807800807C0
:1050F000FC00007FC00003F80007C00078000780B4
:105100000807FFF807FFF804000804000807FFF885
:1051100007000803C00000E000003800001E000087
:1051200007000001C00400F007FFF80400000000C1
:1051300000007F8001FFE003807006001804000873
:1051400004000806001803003001FFE0007F800023
:10515000000004000807FFF807FFF804040804042F
:1051600000040400040400040400060C0003F8001A
:1051700001F000000000000000007F8001FFE0035C
:1051800080700600880400880400C806003C030004
:105190003E01FFE6007F8400000004000807FFF8DE
:1051A00007FFF8040808040800040C00040F0004BA
:1051B0000BC00610F003F03801E008000008000002
:1051C0000001E0F803F03006301004180804180855
:1051D000040C08040C080206180207F00781E0001E
:1051E000000001800006000004000004000004002C
:1051F0000807FFF807FFF804000804000004000097
:1052000006000001800004000007FFE007FFF00433
:105210000018000008000008000008000008000056
:105220000804001007FFE00400000400000600006E
:1052300007E00007FE00041FE00001F8000038004E
:1052400001E0043E0007C000060000040000040066
:105250000007E00007FFC0041FF80007C007F800C0
:1052600007FF80043FF80007C004F80007000004AF
:10527000000000000004000806001807C07805F1CF
:10528000C8003E00001F800463E80780F80600188D
:10529000040008000000040000060000078000076A
:1052A000E008047C08001FF80007F800180804E074
:1052B00008070000060000040000000000010008CC
:1052C0000600380400F80403E8040F08047C08050D
:1052D000F00807C008070018040060000000000084
:1052E000000000000000000000000000003FFFFE82
:1052F0002000022000022000022000022000020004
:10530000000000000000000008000007000000C0CE
:10531000000038000006000001C000003000000E50
:10532000000001000000000000000000200002203A
:1053300000022000022000022000023FFFFE0000C9
:10534000000000000000000000000000000000005D
:1053500000000008000010000030000020000030B5
:105360000000100000080000000000000000000025
:105370000100000100000100000100000100000127
:105380000000010000010000010000010000010018
:1053900000010000000000000000002000002000CC
:1053A00000100000100000000000000000000000DD
:1053B0000000000000000000000000F00019F800EC
:1053C0001B18002208002608002408002410003FB3
:1053D000F8001FF80000080000180000000400009A
:1053E00007FFF80FFFF00018180010080020080051
:1053F0002008003018001FF0000FC000000000005F
:10540000000007C0001FF00018300020080020082E
:10541000002008003C08001C100000600000000094
:1054200000000000000007C0001FF0003818002036
:105430000800200800200804101007FFF80FFFF0F4
:105440000000100000000000000000000007C00085
:105450001FF000123000221800220800220800323B
:1054600008001E10000E20000000000000002000B8
:1054700000200800200801FFF803FFF806200804B8
:10548000200804200807200003000000000000009E
:105490000000000E000E6E001FF30031B10020B1BD
:1054A0000020B1003191001F13002E1E00200E00BD
:1054B000300000000004000807FFF80FFFF800109C
:1054C00008002000002000002008003FF8001FF81E
:1054D000000008000000000000000000002008009C
:1054E0002008002008063FF8063FF80000080000EA
:1054F000080000080000000000000000000000009C
:10550000000003000003002001002001002003062A
:105510003FFE063FFC00000000000000000000000D
:105520000004000807FFF80FFFF8000188000300DF
:10553000002FC00038F800203800200800000800C4
:10554000000000000000000004000804000804003F
:105550000807FFF80FFFF800000800000800000827
:10556000000000000000002008003FF8003FF800A5
:105570001008002000003FF8003FF800100800204D
:1055800000003FF8003FF80000080000000020087D
:10559000003FF8003FF80010080010000020000055
:1055A0002008003FF8001FF800000800000000007D
:1055B000000007C0000FF00018300030080020087D
:1055C000002008003008001830000FF00007C0006D
:1055D0000000000000002001003FFF003FFF00101E
:1055E00011002009002008002008003038001FF0BA
:1055F000000FC00000000000000007C0001FF00006
:105600003818002008002008002009001011001F91
:10561000FF003FFF000001000000002008002008FC
:10562000002008003FF8003FF800080800100800BC
:1056300020080020000030000030000000000000C2
:1056400000000000000C78001E180033080023083A
:105650000021080021880021980030F00038600007
:10566000000000000000200000200000200000FFDB
:10567000F003FFF800200800200800200800003098
:10568000000000000000000000002000003FF000CB
:105690007FF8000018000008000008002010003FFC
:1056A000F8007FF000001000000000000000200063
:1056B000003000003C00003F800023F00000780034
:1056C0000070002380003C0000300000200000201B
:1056D00000003C00003FE00023F80000E00027004D
:1056E000003E00003FE00021F80001E0003E000025
:1056F0002000000000002008002008003838003E8C
:10570000680027800003C8002CF8003838002018F3
:10571000002008000000000000002000003003000E
:105720003C01003F830023EC000070002380003C1C
:105730000000200000200000000000000000000029
:105740000038080020380020F80023E8002F8800E7
:105750003E0800380800201800007000000000001B
:105760000000000000000000000000000000080031
:105770000014001FF7FC30000620000200000000AB
:105780000000000000000000000000000000000019
:1057900000000000FFFFFF0000000000000000000C
:1057A00000000000000000000000000020000230A7
:1057B00000061FF7FC0014000008000000000000B5
:1057C00000000000000000000000000000180000C1
:1057D00060000040000040000020000010000008B1
:1057E00000000400000400000C0000100000000095
:1057F00000000000000000000000000000000000A9
:105800000000000000000000000000000000000098
:105810000000000000000000000000000000000088
:105820000000000000000000000000000000000078
:105830000000000000000000000000000000000068
:105840000000000000000000000000000000000058
:105850000000000000000000000000000000000048
:105860000000000000000000000000000000000038
:105870000000000000000000000000000000000028
:1058800000000000000007F000C007FFE1E007F0A3
:1058900001E0000000C00000000000000000000067
:1058A00000000000000000000000000000000000F8
:1058B00000000000000000000000000000000000E8
:1058C00000000000000000000000000000000000D8
:1058D00000000000000000000000000000000000C8
:1058E00000000000000000000000000000000000B8
:1058F0000000000000000020000001C00000078040
:1059000000001F0000001E0000001C20000001C05D
:105910000000078000001F0000001E0000001C00A7
:105920000000000000000000000000000000000077
:105930000000000000000000000000000000000067
:105940000000000000000000000000000000000057
:105950000000000000000000000000000000000047
:105960000000000000000000000000000000000037
:10597000000000180C0000180C0000180FE0001FB9
:10598000FC0003F80C0000180C0000180C000018B4
:105990000C0000180C0000180FE0001FFC0003F8BA
:1059A0000C0000180C0000180C00000000000000A3
:1059B00000000000000000000000000000000000E7
:1059C00000000000000000000000000000000000D7
:1059D00000000000000000000000000000000000C7
:1059E00000000000000000000000000000000000B7
:1059F00000000000000000000780007807C000FCE5
:105A00000640010E002003070020020380200FFF44
:105A1000FFFC0201C0200200E0600130704001F094
:105A20003F8000F01F0000000000000000000000A8
:105A30000000000000000000000000000000000066
:105A40000000000000000000000000000000000056
:105A50000000000000000000000000000000000046
:105A6000000000000000000000000000000000FE38
:105A7000000001FF000003018000020080600301BC
:105A800081C001FF070000FE18000000E0000003D5
:105A9000BF00000CFFC00071806001C10020030145
:105AA00080600000FFC000003F0000000000000018
:105AB00000000000000000000000000000000000E6
:105AC00000000000000000000000000000000000D6
:105AD00000000000000000000000000000000000C6
