:020000040800F2
:10000000580B0220F90200081D0300081F03000816
:100010003D4B0008230300082503000800000000F2
:10002000000000000000000000000000270300089E
:1000300029030008000000002B0300082D0300081E
:100040002F0300082F0300082F0300082F030008C8
:100050002F0300082F0300082F0300082F030008B8
:100060002F0300082F0300082F0300082F030008A8
:100070002F0300082F0300082F0300082F03000898
:100080002F0300082F0300082F0300082F03000888
:100090002F0300082F0300082F0300082F03000878
:1000A0002F0300082F0300082F0300082F03000868
:1000B0002F0300082F030008255100082F03000814
:1000C0002F0300082F0300082F0300082F03000848
:1000D0002F030008B15100082F0300082F03000868
:1000E0002F0300082F0300082F0300082F03000828
:1000F0002F0300082F0300082F0300082F03000818
:100100002F0300082F0300082F0300082F03000807
:100110002F0300082F0300082F0300082F030008F7
:100120002F0300082F0300082F0300082F030008E7
:100130002F0300082F0300082F0300082F030008D7
:100140002F0300082F0300082F0300082F030008C7
:100150002F0300082F0300082F0300082F030008B7
:100160002F0300082F0300082F0300082F030008A7
:100170002F0300082F0300082F03000800000000D1
:100180002F0300082F0300082F0300082F03000887
:100190002F0300082F0300082F0300082F03000877
:1001A0002F0300082F0300082F0300082F03000867
:1001B0002F0300082F0300082F0300082F03000857
:1001C0002F0300082F030008000000002F03000881
:1001D0002F0300082F0300082F0300082F03000837
:1001E0002F0300082F0300082F0300082F03000827
:1001F0002F0300082F03000800F002F800F06DF84C
:100200000AA090E8000C82448344AAF10107DA4571
:1002100001D100F062F8AFF2090EBAE80F0013F056
:10022000010F18BFFB1A43F00103184714B0000078
:1002300034B000000A444FF0000C10F8013B13F0FA
:10024000070408BF10F8014B1D1108BF10F8015B2F
:10025000641E05D010F8016B641E01F8016BF9D122
:1002600013F0080F1EBF10F8014BAD1C0C1B09D179
:100270006D1E58BF01F801CBFAD505E014F8016BEB
:1002800001F8016B6D1EF9D59142D6D3704700007D
:100290000023002400250026103A28BF78C1FBD88F
:1002A000520728BF30C148BF0B607047642900F077
:1002B000AF80752900F0AC80782900F0E5806329D3
:1002C00000F03982732900F03E82002070471FB58C
:1002D00006F0C2F91FBD10B510BD00F067FA114657
:1002E000FFF7F5FF05F03AF800F085FA03B4FFF7E1
:1002F000F2FF03BC04F0A3FFDFF84000016841F403
:1003000070010160BFF34F8FDFF83400016821F006
:1003100040410160BFF36F8F0A480047FEE7FEE7E8
:10032000FEE7FEE7FEE7FEE7FEE7FEE7FEE7FEE7A5
:1003300005480649044A064B7047000088ED00E076
:1003400034EF00E0F901000858030220580B0220A6
:1003500058030220704700000FB4044910B503AAE7
:10036000029800F0F5F910BC5DF814FB04000220BF
:1003700070B5044685690068C10601D5302600E0E5
:100380002026C00707D070BDD4E901213046904730
:10039000206A401C20626D1EF6D570BD70B5044603
:1003A00085690078C00707D170BDD4E901212020FC
:1003B0009047206A401C20626D1EF6D570BD70B556
:1003C0000C460546012A05D02878800600D5EA6942
:1003D000002302E0012305E05B1C934202D2E05CB3
:1003E0000028F9D1A869E618C01AA861286A18443B
:1003F00028622846FFF7BCFF04E0D5E9012114F884
:10040000010B9047B442F8D32846FFF7C7FF70BDF1
:100410002DE9F0410646002410687529314616A5DD
:1004200010D0AFF30080002802DA404213A507E0A5
:1004300031688A0701D512A502E0490704D511A544
:10044000012401E0AFF3008000210A2206F1240715
:1004500009E0B0FBF2FCB0FBF2F302FB1C00303011
:1004600078541846491C0028F3D123462A463046C2
:10047000BDE8F04100F0FCB8000000002D000000D5
:100480002B0000002000000070B504460D462146F8
:100490001068AFF300802188090502D50F4A7A441D
:1004A00002E00E4A7A440E32002104F1240305E0F2
:1004B00000F00F060009965D5E54491C0028F7D134
:1004C00020780023000704D5702D02D009B1022343
:1004D00011322046BDE8704000F0CAB800A9000003
:1004E0002DE9F05F894604464FF0000ADFF874B149
:1004F000FB44C0F820A02046E1688847002874D05B
:10050000252806D0D4E901219047206A401C2062AA
:10051000F1E700265F462046E16888472028054627
:1005200007DB312D05D2781910F8200C08B10643ED
:10053000F1E7B00701D526F00406C4F81CA0002797
:10054000C4F818A02A2D09D0284604F071FE38B34B
:1005500004EB8708303DC8F8185019E059F8041B1F
:10056000204604EB87029161E1688847012F054628
:1005700018D1E069002820DA26F020061DE0D8F81E
:10058000180000EB800005EB40003038C8F8180078
:100590002046E1688847054604F04AFE0028EED16F
:1005A000012F0AD02E2D08D12046E16888477F1CF4
:1005B0000546022F46F02006C4DBA069002803DAB6
:1005C000404246F00106A061F00701D026F0100677
:1005D0006C2D0BD0682D09D04C2D39D06A2D35D01B
:1005E000742D35D07A2D33D016E038E0E1682F46EF
:1005F00020468847B842054609D16C2F26D04FF4D3
:100600008060E168064320468847054604E06C2F79
:100610001AD04FF4807006430DB3A5F1410019289C
:1006200002D8203546F400664A4629462046266010
:100630004E46FFF73BFE80B101280BD0F61D26F099
:10064000070000F1080956E74020E4E78020D8E7DA
:100650000020D6E706F104094DE7284652E7206A54
:10066000BDE8F09FD6A800007047704770477047FC
:100670002DE9F0470D4699469246044600F12408BC
:100680000168880604D5E06921F01001216000E0CE
:100690000120A84201DD471B00E00027A1697A196B
:1006A00002EB0900081AA0612078C00602D4204697
:1006B000FFF75EFE002608E0D4E901211AF80600E3
:1006C0009047206A401C761C20624E45F4DB20785F
:1006D000C0060AD52046FFF74BFE06E0D4E901210B
:1006E00030209047206A401C2062381EA7F1010785
:1006F000F4DC07E0D4E9012118F805009047206AEE
:10070000401C2062281EA5F10105F3DC2046FFF7FE
:1007100045FE2078000602D50220BDE8F0870120C2
:10072000FBE710B5436913B1AFF3008001E0FFF7B9
:1007300046FE012010BD127800F124010A7000224B
:100740004A700122EDE711684FF0FF32E9E700003F
:10075000074B70B50D467B4400F011F8044628465F
:1007600000F020F810B14FF0FF3070BD204670BD92
:10077000D34B000001694A1C02610878704700B53C
:100780008FB0CDE901310021059105497944CDE9CA
:10079000031011466846FFF7A3FE0FB000BD00002E
:1007A000E5FFFFFF007B00F080007047754600F01A
:1007B0002BF8AE4605006946534620F007008546F3
:1007C00018B020B5FFF7B4FDBDE820404FF000069B
:1007D0004FF000074FF000084FF0000B21F0070129
:1007E000AC46ACE8C009ACE8C009ACE8C009ACE86C
:1007F000C0098D46704710B50446AFF3008020460F
:10080000BDE81040FFF772BD00487047F4020220B7
:1008100010B500BF00BF00BF00BF00BFBFF34F8FC8
:1008200000BF00BF00BF00BF00BF00BFBFF36F8F9E
:1008300000BF00BF00BF00201149086011480068D8
:1008400040F400300F49086000BF00BF00BFBFF395
:100850004F8F00BF00BF00BF00BF00BF00BFBFF38E
:100860006F8F00BF00BF00BF00BF04F097F90448BE
:100870004C30006840F0040001494C31086010BD64
:1008800050EF00E014ED00E030B5CC1000F1200393
:1008900053F824304C07E50E0F24AC40A343CD1091
:1008A00000F1200444F82530CC1000F1200353F867
:1008B00024304C07E40E02FA04F42343CD1000F177
:1008C000200444F8253030BD02461069084008B1C4
:1008D000012070470020FCE702F001030BB18161A9
:1008E00001E00B04836170472DE9F0470C46DDE918
:1008F0000867002100258C4600BF60E04FF001082A
:1009000008FA01F504EA050CAC4557D1D0F800808F
:100910004FEA410A4FF0030909FA0AF928EA0908DF
:10092000C0F80080D0F800804FEA410902FA09F9C6
:1009300048EA0908C0F80080012A01D0022A27D11C
:10094000D0F808804FEA410A4FF0030909FA0AF982
:1009500028EA0908C0F80880D0F808804FEA410961
:1009600006FA09F948EA0908C0F80880D0F80490A6
:100970004FF0010808FA01F829EA0809C0F80490C4
:10098000D0F8048003FA01F948EA0908C0F80480A5
:10099000D0F80C804FEA410A4FF0030909FA0AF92E
:1009A00028EA0908C0F80C80D0F80C804FEA410909
:1009B00007FA09F948EA0908C0F80C80491C10290F
:1009C0009CD3BDE8F087000070B5044600260D48B2
:1009D00005880D48006818B1204603F0E3FA0FE0DF
:1009E0000848408845430021084603F075F803F0A5
:1009F000A7FA002602E005490C80761CAE42FAD325
:100A000070BD0000C4020220D40202200000086071
:100A100010B50446624884716248006850B12046AF
:100A200003F01EFB5F48C08A5D4908805D48008B6B
:100A3000488010BD002C57D1F020594908804FF450
:100A4000A07048800846808849F2413188420BD026
:100A50005348808845F21031884205D0504880883C
:100A600047F28971884214D12C204D4908812A20EF
:100A700048812B2088810846808845F210318842C1
:100A800006D14FF4A070464908804FF4F0704880BA
:100A900081E04348808845F21051884210D14FF4DC
:100AA00030503F4908814FF4285048814FF42C5072
:100AB00088814FF4F07008804FF4487048806AE0F5
:100AC0003748808841F66311884264D12C2034492C
:100AD00008812B2048812A2088814FF4F0700880FB
:100AE0004FF44870488056E04FF4A0702C490880BD
:100AF000F02048800846808849F2413188420BD076
:100B00002748808845F21031884205D024488088E3
:100B100047F28971884207D12C20214908812A2077
:100B200048812B20888129E01D48808845F210519A
:100B3000884210D14FF43050194908814FF42850A1
:100B400048814FF42C5088814FF4487008804FF44E
:100B5000F070488012E01248808841F663118842A4
:100B60000CD12C200E4908812A2048812B20888115
:100B70004FF4487008804FF4F0704880084880882F
:100B800045F21031884206D14FF4F07004490880D4
:100B90004FF4A0704880002002F05EFE00BF48E7DE
:100BA000C4020220D40202202DE9FF4F85B0814605
:100BB0008A460020049003900798A0EB0905089846
:100BC000A0EB0A06CDF80890CDF804A0002D01DDB9
:100BD000012705E00DB9002702E04FF0FF376D4215
:100BE000002E02DD4FF0010806E016B94FF00008B4
:100BF00002E04FF0FF387642B54201DD2C4600E0BE
:100C000034464FF0000B21E0019A91B2029A90B263
:100C100000F022F80498284404900398304403908C
:100C20000498A04205DD0498001B04900298384403
:100C300002900398A04205DD0398001B03900198E1
:100C4000404401900BF101001FFA80FB601C8345BA
:100C5000DADD09B0BDE8F08F70B504460D460A48EC
:100C6000006830B1094829460268204603F00EFAB0
:100C700009E02946204602F02FFF03F061F90348FE
:100C800000880349088070BDD40202200C000220B5
:100C9000000008602DE9F04104460D4616461F4647
:100CA0002B46324629462046FFF77EFF3B4622462A
:100CB00029462046FFF778FF3B4632463946204614
:100CC000FFF772FF3B46324629463046FFF76CFF7E
:100CD000BDE8F0812DE9F04706460F469046002416
:100CE00045460320A0EB48093CE07A1B91B232193B
:100CF00090B2FFF7B1FF3A1B91B2721990B2FFF7B1
:100D0000ABFF3A1991B2721990B2FFF7A5FF7A19A9
:100D100091B2321990B2FFF79FFF7A1991B2321B4C
:100D200090B2FFF799FF3A1991B2721B90B2FFF798
:100D300093FF7A1B91B2321B90B2FFF78DFF3A1BE3
:100D400091B2721B90B2FFF787FF641CB9F1000FDC
:100D500003DAA000801D814404E0601B80000A309B
:100D600081446D1EAC42C0DDBDE8F08770B504461D
:100D70000D4616464648006828B1324629462046A8
:100D800003F084F970BD4348808849F241318842BC
:100D90000BD04048808845F21031884205D03D484C
:100DA000808847F28971884214D13A49488903F012
:100DB000BBF8201203F0ACF8E0B203F0A9F8354913
:100DC000888903F0B1F8281203F0A2F8E8B203F022
:100DD0009FF854E02F48808845F21051884220D176
:100DE0002C49488903F0A0F8201203F091F8294912
:100DF0004989491C88B203F097F8E0B203F088F8FB
:100E00002449888903F090F8281203F081F82149D9
:100E10008989491C88B203F087F8E8B203F078F8B2
:100E20002DE01C48808841F66311884227D119487B
:100E3000807920B917480088401E001B84B21549EC
:100E4000488903F071F8201203F062F8E0B203F071
:100E50005FF8201203F05CF8E0B203F059F80D4996
:100E6000888903F061F8281203F052F8E8B203F021
:100E70004FF8281203F04CF8E8B203F049F805489F
:100E8000008905490880891C0E8000BF7AE70000B0
:100E9000D4020220C4020220FEFF07602DE9F84FB1
:100EA00005460E4617469846DDF828904FF0000B91
:100EB0001448006840B143463A4631462846CDF8CA
:100EC000009003F00BF91BE0781B401C1FFA80FB1D
:100ED000344613E02146284602F0FEFD03F030F8C8
:100EE0004FF0000A06E00849A1F800900AF101005D
:100EF0001FFA80FADA45F6DB601C84B24445E9DD6E
:100F0000BDE8F88FD4020220000008601CB503F091
:100F100099FCFE4988800846808840B1084681884F
:100F2000FBA0FFF719FA03F07DF902F096BBFC482D
:100F3000006840F00200FA4908600846006840F086
:100F400018000860F6480830006840F00100F449D5
:100F5000083108600120022100230246CDE900107B
:100F60002021F048FFF7C0FC0120032100230222CA
:100F7000CDE900104EF2B371EB48FFF7B5FC01204C
:100F8000032100230222CDE900104FF68071E748CB
:100F9000FFF7AAFC0C220021E348FFF775FC0C22A6
:100FA0000121E148FFF770FC0C220421DE48FFF725
:100FB0006BFC0C220521DC48FFF766FC0C220721A4
:100FC000D948FFF761FC0C220821D748FFF75CFCE9
:100FD0000C220921D448FFF757FC0C220A21D248E1
:100FE000FFF752FC0C220D21CF48FFF74DFC0C22DD
:100FF0000E21CD48FFF748FC0C220F21CA48FFF70D
:1010000043FC0C220721C948FFF73EFC0C220821B3
:10101000C648FFF739FC0C220921C448FFF734FC0D
:101020000C220A21C148FFF72FFC0C220B21BF48DC
:10103000FFF72AFC0C221146BC48FFF725FC0C22C6
:101040000D21BA48FFF720FC0C220E21B748FFF70C
:101050001BFC0C220F21B548FFF716FC00204FF0B7
:10106000204108604860B24908604FF020400068A5
:1010700040F480504FF0204108600846006840F47A
:10108000804008600846006840F01000086008468C
:10109000406848600846406840F00F0048600846D5
:1010A000406840F4A0404860A1480068C1F80401CD
:1010B0000846D0F8040140F00F00C1F804010846CA
:1010C000D0F8040140F47060C1F8040108460068DB
:1010D00040F001000860322004F0D0F8D32002F084
:1010E00023FF02F01BFB8949888002F017FB874928
:1010F000888002F013FB85498880084680884FF677
:10110000FF7101EA00208149888002F007FB7F49D6
:10111000898808437D4988800846808849F24131A2
:1011200088427DD0042002F0FFFE02F0F7FA7749F2
:10113000888002F0F3FA7549888002F0EFFA73496B
:101140008880084680884FF6FF7101EA00206F49C9
:10115000888002F0E3FA6D49898808436B498880EA
:101160000846808848F25251884203D147F289707C
:10117000664988806548808847F289718842D0D066
:10118000D42002F0D1FE02F0C9FA6049888002F052
:10119000C5FA5E49888002F0C1FA5C498880084639
:1011A00080884FF6FF7101EA00205849888002F0DC
:1011B000B5FA56498988084354498880084680888A
:1011C00045F2103188426BD055214FF4704002F047
:1011D000C1FEAA214FF2010002F0BCFE52214FF2E3
:1011E000020002F0B7FE08214FF2030002F0B2FE47
:1011F00001214FF2040002F0ADFE4FF4454002F031
:1012000093FE02F08BFA41498880084680884FF6A9
:10121000FF7101EA00203D4988804CF2015000E056
:101220003EE002F081FE02F079FA384989880843ED
:1012300036498880052004F021F834488088B0F5CC
:10124000004F03D145F21050304988802F488088E4
:1012500045F21051884223D0A12002F065FE02F031
:101260005DFA2A49888002F059FA284988800846A0
:1012700080884FF6FF7101EA00202449888002F03F
:101280004DFA224989880843204988800846808889
:1012900045F26171884203D141F663101B49888091
:1012A0001A4881881AA0FFF757F81848808849F231
:1012B000413188427ED1CF2002F036FE002002F07C
:1012C00027FEC12002F024FE302002F021FEED2096
:1012D00002F02AFE642002F01BFE032002F018FE3A
:1012E000122002F015FE812002F012FEE82002F02A
:1012F0001BFE852002F00CFE102002F009FE7A2071
:1013000002F006FECB2002F00FFE13E0C402022022
:10131000204C43442049443A25780D0A000000003F
:101320003038024000040240000C0240001002402D
:10133000040100A0392002F0EBFD2C2002F0E8FDB2
:10134000002002F0E5FD342002F0E2FD022002F070
:10135000DFFDF72002F0E8FD202002F0D9FDEA20B1
:1013600002F0E2FD002002F0D3FD002002F0D0FDEB
:10137000C02002F0D9FD1B2002F0CAFDC12002F0FE
:10138000D3FD012002F0C4FDC52002F0CDFD3020C8
:1013900002F0BEFD302002F0BBFDC72002F0C4FD0C
:1013A000B72002F0B5FD362002F0BEFD482002F065
:1013B000AFFD00E0ABE03A2002F0B6FD552002F0B0
:1013C000A7FDB12002F0B0FD002002F0A1FD1A201F
:1013D00002F09EFDB62002F0A7FD0A2002F098FD63
:1013E000A22002F095FDF22002F09EFD002002F006
:1013F0008FFD262002F098FD012002F089FDE020FB
:1014000002F092FD0F2002F083FD2A2002F080FD01
:10141000282002F07DFD082002F07AFD0E2002F067
:1014200077FD082002F074FD542002F071FDA92020
:1014300002F06EFD432002F06BFD0A2002F068FD11
:101440000F2002F065FD002002F062FD002002F096
:101450005FFD002002F05CFD002002F059FDE1205C
:1014600002F062FD002002F053FD152002F050FD55
:10147000172002F04DFD072002F04AFD112002F076
:1014800047FD062002F044FD2B2002F041FD5620CE
:1014900002F03EFD3C2002F03BFD052002F038FD4D
:1014A000102002F035FD0F2002F032FD3F2002F047
:1014B0002FFD3F2002F02CFD0F2002F029FD2B20F4
:1014C00002F032FD002002F023FD002002F020FD9A
:1014D000012002F01DFD3F2002F01AFD2A2002F03B
:1014E00023FD002002F014FD002002F011FD002079
:1014F00002F00EFDEF2002F00BFD112002F014FDB2
:10150000782003F0BBFE292002F00EFD0DE5FE4819
:10151000808847F2897188427ED1112002F004FD53
:10152000782003F0ABFE362002F0FEFC002002F033
:10153000EFFC3A2002F0F8FC052002F0E9FCB220B2
:1015400002F0F2FC0C2002F0E3FC0C2002F0E0FCC4
:10155000002002F0DDFC332002F0DAFC332002F040
:10156000D7FCB72002F0E0FC352002F0D1FCBB2014
:1015700002F0DAFC322002F0CBFCC02002F0D4FCF6
:101580000C2002F0C5FCC22002F0CEFC012002F0CB
:10159000BFFCC32002F0C8FC102002F0B9FCC4203C
:1015A00002F0C2FC202002F0B3FCC62002F0BCFC1A
:1015B0000F2002F0ADFCD02002F0B6FCA42002F017
:1015C000A7FCA12002F0A4FCE02002F0ADFCD0209A
:1015D00002F09EFC002002F09BFC022002F098FC2E
:1015E000072002F095FC0A2002F092FC282002F06D
:1015F0008FFC322002F08CFC442002F089FC422057
:1016000002F086FC062002F083FC0E2002F080FC33
:10161000122002F07DFC00E054E0142002F078FC7F
:10162000172002F075FCE12002F07EFCD02002F0D1
:101630006FFC002002F06CFC022002F069FC072025
:1016400002F066FC0A2002F063FC282002F060FC35
:10165000312002F05DFC542002F05AFC472002F0D9
:1016600057FC0E2002F054FC1C2002F051FC172005
:1016700002F04EFC1B2002F04BFC1E2002F048FC46
:101680002A2002F051FC002002F042FC002002F06F
:101690003FFC002002F03CFCEF2002F039FC2B2044
:1016A00002F042FC002002F033FC002002F030FC8B
:1016B000012002F02DFC3F2002F02AFC292002F03C
:1016C00033FC32E49048808845F21031884240F083
:1016D0007C87ED2002F028FC012002F019FCFE209E
:1016E00002F016FCEE2002F01FFCDE2002F010FCDF
:1016F000212002F00DFCF12002F016FC012002F086
:1017000007FCDF2002F010FC102002F001FCC420D6
:1017100002F00AFC8F2002F0FBFBC62002F004FC62
:10172000002002F0F5FBE22002F0F2FBE22002F0E2
:10173000EFFBE22002F0ECFBBF2002F0F5FBAA2059
:1017400002F0E6FBB02002F0EFFB0D2002F0E0FB20
:10175000002002F0DDFB0D2002F0DAFB002002F099
:10176000D7FB112002F0D4FB002002F0D1FB19209E
:1017700002F0CEFB002002F0CBFB212002F0C8FBE0
:10178000002002F0C5FB2D2002F0C2FB002002F079
:10179000BFFB3D2002F0BCFB002002F0B9FB5D2046
:1017A00002F0B6FB002002F0B3FB5D2002F0B0FBBC
:1017B000002002F0ADFBB12002F0B6FB802002F069
:1017C000A7FB002002F0A4FB8B2002F0A1FB00206D
:1017D00002F09EFB962002F09BFB002002F098FB9B
:1017E000B22002F0A1FB002002F092FB002002F0E8
:1017F0008FFB022002F08CFB002002F089FB03200B
:1018000002F086FB002002F083FBB32002F08CFB89
:10181000002002F07DFB002002F07AFB002002F0A5
:1018200077FB002002F074FB002002F071FB002027
:1018300002F06EFB002002F06BFB002002F068FB60
:10184000002002F065FB002002F062FB002002F0A5
:101850005FFB002002F05CFB002002F059FB00203F
:1018600002F056FB002002F053FB002002F050FB78
:10187000002002F04DFB002002F04AFB002002F0A5
:1018800047FB002002F044FB002002F041FB002057
:1018900002F03EFB002002F03BFB002002F038FB90
:1018A000B42002F041FB8B2002F032FB002002F05A
:1018B0002FFB962002F02CFB002002F029FBA12038
:1018C00002F026FB002002F023FBB52002F02CFBE7
:1018D000022002F01DFB002002F01AFB032002F0A0
:1018E00017FB002002F014FB042002F011FB002083
:1018F00002F00EFBB62002F017FB002002F008FBFE
:10190000002002F005FB01E0C4020220B72002F033
:101910000BFB002002F0FCFA002002F0F9FA3F2055
:1019200002F0F6FA002002F0F3FA5E2002F0F0FA7C
:10193000002002F0EDFA642002F0EAFA002002F042
:10194000E7FA8C2002F0E4FA002002F0E1FAAC2081
:1019500002F0DEFA002002F0DBFADC2002F0D8FA16
:10196000002002F0D5FA702002F0D2FA002002F036
:10197000CFFA902002F0CCFA002002F0C9FAEB2056
:1019800002F0C6FA002002F0C3FADC2002F0C0FA2E
:10199000002002F0BDFAB82002F0C6FA002002F0E2
:1019A000B7FA002002F0B4FA002002F0B1FA0020E9
:1019B00002F0AEFA002002F0ABFA002002F0A8FA22
:1019C000002002F0A5FA002002F0A2FABA2002F0EC
:1019D000ABFA242002F09CFA002002F099FA0020D1
:1019E00002F096FA002002F093FAC12002F09CFA6D
:1019F000202002F08DFA002002F08AFA542002F032
:101A000087FA002002F084FAFF2002F081FA002019
:101A100002F07EFAC22002F087FA0A2002F078FA79
:101A2000002002F075FA042002F072FA002002F0A1
:101A30006FFAC32002F078FA3C2002F069FA002025
:101A400002F066FA3A2002F063FA002002F060FA2F
:101A5000392002F05DFA002002F05AFA372002F035
:101A600057FA002002F054FA3C2002F051FA00200C
:101A700002F04EFA362002F04BFA002002F048FA4B
:101A8000322002F045FA002002F042FA2F2002F044
:101A90003FFA002002F03CFA2C2002F039FA002034
:101AA00002F036FA292002F033FA002002F030FA70
:101AB000262002F02DFA002002F02AFA242002F05B
:101AC00027FA002002F024FA242002F021FA002054
:101AD00002F01EFA232002F01BFA002002F018FA8E
:101AE0003C2002F015FA002002F012FA362002F033
:101AF0000FFA002002F00CFA322002F009FA00205E
:101B000002F006FA2F2002F003FA002002F000FA99
:101B10002C2002F0FDF9002002F0FAF9292002F051
:101B2000F7F9002002F0F4F9262002F0F1F9002084
:101B300002F0EEF9242002F0EBF9002002F0E8F9BF
:101B4000242002F0E5F9002002F0E2F9232002F05F
:101B5000DFF9002002F0DCF9C42002F0E5F9622090
:101B600002F0D6F9002002F0D3F9052002F0D0F9F6
:101B7000002002F0CDF9842002F0CAF9002002F022
:101B8000C7F9F02002F0C4F9002002F0C1F91820D2
:101B900002F0BEF9002002F0BBF9A42002F0B8F96F
:101BA000002002F0B5F9182002F0B2F9002002F08E
:101BB000AFF9502002F0ACF9002002F0A9F90C2096
:101BC00002F0A6F9002002F0A3F9172002F0A0F914
:101BD000002002F09DF9952002F09AF9002002F011
:101BE00097F9F32002F094F9002002F091F9E62031
:101BF00002F08EF9002002F08BF9C52002F094F972
:101C0000322002F085F9002002F082F9442002F02F
:101C10007FF9002002F07CF9652002F079F90020BC
:101C200002F076F9762002F073F9002002F070F9E4
:101C3000882002F06DF9002002F06AF9C62002F057
:101C400073F9202002F064F9002002F061F91720F6
:101C500002F05EF9002002F05BF9012002F058F971
:101C6000002002F055F9C72002F05EF9002002F0D2
:101C70004FF9002002F04CF9002002F049F9002051
:101C800002F046F9C82002F04FF9002002F040F9B6
:101C9000002002F03DF9002002F03AF9002002F0A5
:101CA00037F9C92002F040F9002002F031F9002094
:101CB00002F02EF9002002F02BF9002002F028F9A2
:101CC000002002F025F9002002F022F9002002F0A5
:101CD0001FF9002002F01CF9002002F019F9002081
:101CE00002F016F9002002F013F9002002F010F9BA
:101CF000002002F00DF9002002F00AF9002002F0A5
:101D000007F9002002F004F9E02002F00DF9162096
:101D100002F0FEF8002002F0FBF81C2002F0F8F8B8
:101D2000002002F0F5F8212002F0F2F8002002F085
:101D3000EFF8362002F0ECF8002002F0E9F8462037
:101D400002F0E6F8002002F0E3F8522002F0E0F89A
:101D5000002002F0DDF8642002F0DAF8002002F042
:101D6000D7F87A2002F0D4F8002002F0D1F88B20C6
:101D700002F0CEF8002002F0CBF8992002F0C8F86B
:101D8000002002F0C5F8A82002F0C2F8002002F0FE
:101D9000BFF8B92002F0BCF8002002F0B9F8C42066
:101DA00002F0B6F8002002F0B3F8CA2002F0B0F852
:101DB000002002F0ADF8D22002F0AAF8002002F0D4
:101DC000A7F8D92002F0A4F8002002F0A1F8E02042
:101DD00002F09EF8002002F09BF8F32002F098F841
:101DE000002002F095F8E12002F09EF8162002F0A3
:101DF0008FF8002002F08CF81C2002F089F80020F7
:101E000002F086F8222002F083F8002002F080F829
:101E1000362002F07DF8002002F07AF8452002F02A
:101E200077F8002002F074F8522002F071F80020D8
:101E300002F06EF8642002F06BF8002002F068F8FF
:101E40007A2002F065F8002002F062F88B2002F0A0
:101E50005FF8002002F05CF8992002F059F80020A9
:101E600002F056F8A82002F053F8002002F050F8D3
:101E7000B92002F04DF8002002F04AF8C42002F028
:101E800047F8002002F044F8CA2002F041F8002090
:101E900002F03EF8D22002F03BF8002002F038F8C1
:101EA000D82002F035F8002002F032F8E02002F0ED
:101EB0002FF8002002F02CF8F32002F029F800207F
:101EC00002F026F8E22002F02FF8052002F020F8B8
:101ED000002002F01DF80B2002F01AF8002002F09A
:101EE00017F81B2002F014F8002002F011F834203B
:101EF00002F00EF8002002F00BF8442002F008F87F
:101F0000002002F005F84F2002F002F8002001F056
:101F1000FFFF612001F0FCFF002001F0F9FF7920B4
:101F200001F0F6FF002001F0F3FF882001F0F0FF40
:101F3000002001F0EDFF972001F0EAFF002001F002
:101F4000E7FFA62001F0E4FF002001F0E1FFB72049
:101F500001F0DEFF002001F0DBFFC22001F0D8FF1E
:101F6000002001F0D5FFC72001F0D2FF002001F0D2
:101F7000CFFFD12001F0CCFF002001F0C9FFD62017
:101F800001F0C6FF002001F0C3FFDD2001F0C0FF1B
:101F9000002001F0BDFFF32001F0BAFF002001F0A6
:101FA000B7FFE32001F0C0FF052001F0B1FF0020E2
:101FB00001F0AEFF0A2001F0ABFF002001F0A8FF06
:101FC0001C2001F0A5FF002001F0A2FF332001F04A
:101FD0009FFF002001F09CFF442001F099FF0020AA
:101FE00001F096FF502001F093FF002001F090FFD8
:101FF000622001F08DFF002001F08AFF782001F0BF
:1020000087FF002001F084FF882001F081FF00207D
:1020100001F07EFF972001F07BFF002001F078FFA8
:10202000A62001F075FF002001F072FFB72001F03B
:102030006FFF002001F06CFFC22001F069FF00205B
:1020400001F066FFC72001F063FF002001F060FF90
:10205000D12001F05DFF002001F05AFFD52001F0F2
:1020600057FF002001F054FFDD2001F051FF002058
:1020700001F04EFFF32001F04BFF002001F048FF7C
:10208000E42001F051FF012001F042FF002001F0A7
:102090003FFF012001F03CFF002001F039FF02204A
:1020A00001F036FF002001F033FF2A2001F030FF5D
:1020B000002001F02DFF3C2001F02AFF002001F05C
:1020C00027FF4B2001F024FF002001F021FF5D20BD
:1020D00001F01EFF002001F01BFF742001F018FF2B
:1020E000002001F015FF842001F012FF002001F014
:1020F0000FFF932001F00CFF002001F009FFA22048
:1021000001F006FF002001F003FFB32001F000FF03
:10211000002001F0FDFEBE2001F0FAFE002001F0DB
:10212000F7FEC42001F0F4FE002001F0F1FECD2006
:1021300001F0EEFE002001F0EBFED32001F0E8FEFE
:10214000002001F0E5FEDD2001F0E2FE002001F0BC
:10215000DFFEF32001F0DCFE002001F0D9FEE520D7
:1021600001F0E2FE002001F0D3FE002001F0D0FEDD
:10217000002001F0CDFE002001F0CAFE022001F097
:10218000C7FE002001F0C4FE292001F0C1FE00209E
:1021900001F0BEFE3C2001F0BBFE002001F0B8FEC5
:1021A0004B2001F0B5FE002001F0B2FE5D2001F0F1
:1021B000AFFE002001F0ACFE742001F0A9FE00206B
:1021C00001F0A6FE842001F0A3FE002001F0A0FE95
:1021D000932001F09DFE002001F09AFEA22001F064
:1021E00097FE002001F094FEB32001F091FE002044
:1021F00001F08EFEBE2001F08BFE002001F088FE73
:10220000C42001F085FE002001F082FECD2001F007
:102210007FFE002001F07CFED32001F079FE00203B
:1022200001F076FEDC2001F073FE002001F070FE6C
:10223000F32001F06DFE002001F06AFEE62001F0BF
:1022400073FE112001F064FE002001F061FE3420D5
:1022500001F05EFE002001F05BFE562001F058FE0A
:10226000002001F055FE762001F052FE002001F022
:102270004FFE772001F04CFE002001F049FE662061
:1022800001F046FE002001F043FE882001F040FEF0
:10229000002001F03DFE992001F03AFE002001F0FF
:1022A00037FEBB2001F034FE002001F031FE992002
:1022B00001F02EFE002001F02BFE662001F028FE2A
:1022C000002001F025FE552001F022FE002001F043
:1022D0001FFE552001F01CFE002001F019FE4520D4
:1022E00001F016FE002001F013FE432001F010FE65
:1022F000002001F00DFE442001F00AFE002001F054
:1023000007FEE72001F010FE322001F001FE002060
:1023100001F0FEFD552001F0FBFD002001F0F8FD6D
:10232000762001F0F5FD002001F0F2FD662001F0BD
:10233000EFFD002001F0ECFD672001F0E9FD002039
:1023400001F0E6FD672001F0E3FD002001F0E0FD73
:10235000872001F0DDFD002001F0DAFD992001F079
:10236000D7FD002001F0D4FDBB2001F0D1FD0020FD
:1023700001F0CEFD992001F0CBFD002001F0C8FD59
:10238000772001F0C5FD002001F0C2FD442001F0DE
:10239000BFFD002001F0BCFD562001F0B9FD00207A
:1023A00001F0B6FD232001F0B3FD002001F0B0FDE7
:1023B000332001F0ADFD002001F0AAFD452001F021
:1023C000A7FD002001F0A4FDE82001F0ADFD0020F4
:1023D00001F09EFD002001F09BFD992001F098FD89
:1023E000002001F095FD872001F092FD002001F012
:1023F0008FFD882001F08CFD002001F089FD772001
:1024000001F086FD002001F083FD662001F080FDD3
:10241000002001F07DFD882001F07AFD002001F010
:1024200077FDAA2001F074FD002001F071FDBB20B2
:1024300001F06EFD002001F06BFD992001F068FDB8
:10244000002001F065FD662001F062FD002001F032
:102450005FFD552001F05CFD002001F059FD552085
:1024600001F056FD002001F053FD442001F050FD25
:10247000002001F04DFD442001F04AFD002001F054
:1024800047FD552001F044FD002001F041FDE92009
:1024900001F04AFDAA2001F03BFD002001F038FDCB
:1024A000002001F035FD002001F032FD002001F098
:1024B0003BFDAA2001F02CFDCF2001F035FD0020CE
:1024C00001F026FD002001F023FD002001F020FD99
:1024D000002001F01DFD002001F01AFD002001F098
:1024E00017FD002001F014FD002001F011FD002077
:1024F00001F00EFD002001F00BFD002001F008FDB1
:10250000002001F005FD002001F002FD002001F097
:10251000FFFC002001F0FCFC002001F0F9FC002091
:1025200001F0F6FCF02001F0FFFC002001F0F0FCCF
:10253000502001F0EDFC002001F0EAFC002001F049
:10254000E7FC002001F0E4FCF32001F0EDFC0020AA
:1025500001F0DEFCF92001F0E7FC062001F0D8FCD8
:10256000102001F0D5FC292001F0D2FC002001F060
:10257000CFFC3A2001F0D8FC552001F0C9FC112015
:1025800001F0D2FC642002F079FE292001F0CCFC9D
:10259000352001F0C9FC002001F0BAFC512001F007
:1025A000C3FCFF2001F0B4FC532001F0BDFC2C2043
:1025B00001F0AEFC552001F0B7FC822001F0A8FC30
:1025C0002C2001F0B1FC01F048B8FE48808845F2AB
:1025D000105188427ED155214FF4704001F0BAFC71
:1025E000AA214FF2010001F0B5FC52214FF2020086
:1025F00001F0B0FC08214FF2030001F0ABFC012117
:102600004FF2040001F0A6FC0D214FF4304001F020
:10261000A1FC0D214BF2010001F09CFC0D214BF2BD
:10262000020001F097FC34214FF4364001F092FC97
:1026300034214BF2016001F08DFC34214BF2026039
:1026400001F088FC0D214FF4314001F083FC0D2195
:102650004BF2011001F07EFC0D214BF2021001F053
:1026600079FC34214FF4374001F074FC34214BF2F3
:10267000017001F06FFC34214BF2027001F06AFC32
:1026800000214FF4324001F065FC00214BF20120A3
:1026900001F060FC00214BF2022001F05BFC2421E0
:1026A0004FF4384001F056FC24214BF6010001F0B4
:1026B00051FC24214BF6020001F04CFC01214FF4A7
:1026C0003F4001F047FC0F214FF4334001F042FC42
:1026D0000F2100E0FEE34BF2013001F03BFC0F2143
:1026E0004BF2023001F036FC34214FF4394001F056
:1026F00031FC34214BF6011001F02CFC34214BF657
:10270000021001F027FC08214FF4354001F022FCB3
:1027100008214BF2015001F01DFC08214BF2025040
:1027200001F018FC03214FF4424001F013FC242176
:102730004FF43A4001F00EFC24214BF6012001F049
:1027400009FC24214BF6022001F004FC00214FF487
:102750003C4001F0FFFB78214BF6014001F0FAFB11
:1027600000214BF6024001F0F5FB00214FF43D4003
:1027700001F0F0FB78214BF6015001F0EBFB00215A
:102780004BF6025001F0E6FB00214FF43E4001F011
:10279000E1FB64214BF6016001F0DCFB00214FF40A
:1027A000514001F0D7FB33214DF2011001F0D2FB73
:1027B00000214DF2021001F0CDFB34214DF2031047
:1027C00001F0C8FB00214DF2041001F0C3FB3A21D7
:1027D0004DF2051001F0BEFB00214DF2061001F094
:1027E000B9FB4A214DF2071001F0B4FB00214DF274
:1027F000081001F0AFFB5C214DF2091001F0AAFBBB
:1028000000214DF20A1001F0A5FB81214DF20B10C1
:1028100001F0A0FB00214DF20C1001F09BFBA62162
:102820004DF20D1001F096FB00214DF20E1001F05B
:1028300091FBE5214DF20F1001F08CFB01214DF2CF
:10284000101001F087FB13214DF2111001F082FBF3
:1028500001214DF2121001F07DFB54214DF21310B5
:1028600001F078FB01214DF2141001F073FB82217D
:102870004DF2151001F06EFB01214DF2161001F022
:1028800069FBCA214DF2171001F064FB02214DF2E1
:10289000181001F05FFB00214DF2191001F05AFBF6
:1028A00002214DF21A1001F055FB01214DF21B10CF
:1028B00001F050FB02214DF21C1001F04BFB3421C2
:1028C0004DF21D1001F046FB02214DF21E1001F0E9
:1028D00041FB67214DF21F1001F03CFB02214DF23C
:1028E000201001F037FB84214DF2211001F032FB62
:1028F00002214DF2221001F02DFBA4214DF22310F4
:1029000001F028FB02214DF2241001F023FBB72136
:102910004DF2251001F01EFB02214DF2261001F0B0
:1029200019FBCF214DF2271001F014FB02214DF2CB
:10293000281001F00FFBDE214DF2291001F00AFBF7
:1029400002214DF22A1001F005FBF2214DF22B106D
:1029500001F000FB02214DF22C1001F0FBFAFE21E8
:102960004DF22D1001F0F6FA03214DF22E1001F078
:10297000F1FA10214DF22F1001F0ECFA03214DF283
:10298000301001F0E7FA33214DF2311001F0E2FA94
:1029900003214DF2321001F0DDFA6D214DF23310BA
:1029A00001F0D8FA00214FF4524001F0D3FA33215C
:1029B0004DF2012001F0CEFA00214DF2022001F08B
:1029C000C9FA01E0C402022034214DF2032001F0D3
:1029D000C1FA00214DF2042001F0BCFA3A214DF277
:1029E000052001F0B7FA00214DF2062001F0B2FAFD
:1029F0004A214DF2072001F0ADFA00214DF20820E6
:102A000001F0A8FA5C214DF2092001F0A3FA00219F
:102A10004DF20A2001F09EFA81214DF20B2001F0C7
:102A200099FA00214DF20C2001F094FAA6214DF202
:102A30000D2001F08FFA00214DF20E2001F08AFAEC
:102A4000E5214DF20F2001F085FA01214DF2102011
:102A500001F080FA13214DF2112001F07BFA0121DF
:102A60004DF2122001F076FA54214DF2132001F0BC
:102A700071FA01214DF2142001F06CFA82214DF21D
:102A8000152001F067FA01214DF2162001F062FADB
:102A9000CA214DF2172001F05DFA02214DF21820F3
:102AA00001F058FA00214DF2192001F053FA0221E9
:102AB0004DF21A2001F04EFA01214DF21B2001F0D7
:102AC00049FA02214DF21C2001F044FA34214DF262
:102AD0001D2001F03FFA02214DF21E2001F03AFACA
:102AE00067214DF21F2001F035FA02214DF220201E
:102AF00001F030FA84214DF2212001F02BFA02215D
:102B00004DF2222001F026FAA4214DF2232001F0FB
:102B100021FA02214DF2242001F01CFAB7214DF2D6
:102B2000252001F017FA02214DF2262001F012FAB9
:102B3000CF214DF2272001F00DFA02214DF228207D
:102B400001F008FADE214DF2292001F003FA0221FA
:102B50004DF22A2001F0FEF9F2214DF22B2001F076
:102B6000F9F902214DF22C2001F0F4F9FE214DF289
:102B70002D2001F0EFF903214DF22E2001F0EAF9AA
:102B800010214DF22F2001F0E5F903214DF2302004
:102B900001F0E0F933214DF2312001F0DBF903219E
:102BA0004DF2322001F0D6F96D214DF2332001F0C3
:102BB000D1F900214FF4534001F0CCF933214DF20B
:102BC000013001F0C7F900214DF2023001F0C2F9E5
:102BD00034214DF2033001F0BDF900214DF20430F3
:102BE00001F0B8F93A214DF2053001F0B3F90021B6
:102BF0004DF2063001F0AEF94A214DF2073001F0F6
:102C0000A9F900214DF2083001F0A4F95C214DF240
:102C1000093001F09FF900214DF20A3001F09AF9D4
:102C200081214DF20B3001F095F900214DF20C306D
:102C300001F090F9A6214DF20D3001F08BF9002141
:102C40004DF20E3001F086F9E5214DF20F3001F022
:102C500081F901214DF2103001F07CF913214DF280
:102C6000113001F077F901214DF2123001F072F9C3
:102C700054214DF2133001F06DF901214DF2143061
:102C800001F068F982214DF2153001F063F901215C
:102C90004DF2163001F05EF9CA214DF2173001F005
:102CA00059F902214DF2183001F054F900214DF28A
:102CB000193001F04FF902214DF21A3001F04AF9B2
:102CC00001214DF21B3001F045F902214DF21C307B
:102CD00001F040F934214DF21D3001F03BF90221A1
:102CE0004DF21E3001F036F967214DF21F3001F030
:102CF00031F902214DF2203001F02CF984214DF2FE
:102D0000213001F027F902214DF2223001F022F9A1
:102D1000A4214DF2233001F01DF902214DF224309F
:102D200001F018F9B7214DF2253001F013F9022115
:102D30004DF2263001F00EF9CF214DF2273001F08F
:102D400009F902214DF2283001F004F9DE214DF29B
:102D5000293001F0FFF802214DF22A3001F0FAF893
:102D6000F2214DF22B3001F0F5F802214DF22C301A
:102D700001F0F0F8FE214DF22D3001F0EBF80321C7
:102D80004DF22E3001F0E6F810214DF22F3001F017
:102D9000E1F803214DF2303001F0DCF833214DF23F
:102DA000313001F0D7F803214DF2323001F0D2F882
:102DB0006D214DF2333001F0CDF800214FF4544035
:102DC00001F0C8F833214DF2014001F0C3F80021B1
:102DD0004DF2024001F0BEF834214DF2034001F003
:102DE000B9F800214DF2044001F0B4F83A214DF257
:102DF000054001F0AFF800214DF2064001F0AAF8BD
:102E00004A214DF2074001F0A5F800214DF208409B
:102E100001F0A0F85C214DF2094001F09BF800217F
:102E20004DF20A4001F096F881214DF20B4001F07D
:102E300091F800214DF20C4001F08CF8A6214DF2E2
:102E40000D4001F087F800214DF20E4001F082F8AC
:102E5000E5214DF20F4001F07DF801214DF21040C7
:102E600001F078F813214DF2114001F073F80121BF
:102E70004DF2124001F06EF854214DF2134001F072
:102E800069F801214DF2144001F064F882214DF2FD
:102E9000154001F05FF801214DF2164001F05AF89B
:102EA000CA214DF2174001F055F802214DF21840A9
:102EB00001F050F800214DF2194001F04BF80221C9
:102EC0004DF21A4001F046F801214DF21B4001F08D
:102ED00041F800E003E302214DF21C4001F03AF812
:102EE00034214DF21D4001F035F802214DF21E4013
:102EF00001F030F867214DF21F4001F02BF802215C
:102F00004DF2204001F026F884214DF2214001F0DD
:102F100021F802214DF2224001F01CF8A4214DF2CB
:102F2000234001F017F802214DF2244001F012F87D
:102F3000B7214DF2254001F00DF802214DF2264057
:102F400001F008F8CF214DF2274001F003F80221EB
:102F50004DF2284000F0FEFFDE214DF2294000F046
:102F6000F9FF02214DF22A4000F0F4FFF2214DF268
:102F70002B4000F0EFFF02214DF22C4000F0EAFF61
:102F8000FE214DF22D4000F0E5FF03214DF22E40D1
:102F900000F0E0FF10214DF22F4000F0DBFF032195
:102FA0004DF2304000F0D6FF33214DF2314000F0B9
:102FB000D1FF03214DF2324000F0CCFF6D214DF2E4
:102FC000334000F0C7FF00214FF4554000F0C2FF2E
:102FD00033214DF2015000F0BDFF00214DF20250AF
:102FE00000F0B8FF34214DF2035000F0B3FF002190
:102FF0004DF2045000F0AEFF3A214DF2055000F0C2
:10300000A9FF00214DF2065000F0A4FF4A214DF225
:10301000075000F09FFF00214DF2085000F09AFF8A
:103020005C214DF2095000F095FF00214DF20A504D
:1030300000F090FF81214DF20B5000F08BFF00213A
:103040004DF20C5000F086FFA6214DF20D5000F01D
:1030500081FF00214DF20E5000F07CFFE5214DF282
:103060000F5000F077FF01214DF2105000F072FF79
:1030700013214DF2115000F06DFF01214DF212505D
:1030800000F068FF54214DF2135000F063FF01215E
:103090004DF2145000F05EFF82214DF2155000F009
:1030A00059FF01214DF2165000F054FFCA214DF294
:1030B000175000F04FFF02214DF2185000F04AFF68
:1030C00000214DF2195000F045FF02214DF21A5037
:1030D00000F040FF01214DF21B5000F03BFF0221A8
:1030E0004DF21C5000F036FF34214DF21D5000F01F
:1030F00031FF02214DF21E5000F02CFF67214DF2EE
:103100001F5000F027FF02214DF2205000F022FF57
:1031100084214DF2215000F01DFF02214DF222507A
:1031200000F018FFA4214DF2235000F013FF0221FC
:103130004DF2245000F00EFFB7214DF2255000F063
:1031400009FF02214DF2265000F004FFCF214DF27D
:10315000275000F0FFFE02214DF2285000F0FAFE49
:10316000DE214DF2295000F0F5FE02214DF22A50E9
:1031700000F0F0FEF2214DF22B5000F0EBFE0221A8
:103180004DF22C5000F0E6FEFE214DF22D5000F0E5
:10319000E1FE03214DF22E5000F0DCFE10214DF235
:1031A0002F5000F0D7FE03214DF2305000F0D2FE38
:1031B00033214DF2315000F0CDFE03214DF232505B
:1031C00000F0C8FE6D214DF2335000F0C3FE002127
:1031D0004FF4564000F0BEFE33214DF2016000F086
:1031E000B9FE00214DF2026000F0B4FE34214DF230
:1031F000036000F0AFFE00214DF2046000F0AAFE73
:103200003A214DF2056000F0A5FE00214DF2066066
:1032100000F0A0FE4A214DF2076000F09BFE002165
:103220004DF2086000F096FE5C214DF2096000F05E
:1032300091FE00214DF20A6000F08CFE81214DF2DA
:103240000B6000F087FE00214DF20C6000F082FE62
:10325000A6214DF20D6000F07DFE00214DF20E60C2
:1032600000F078FEE5214DF20F6000F073FE0121C1
:103270004DF2106000F06EFE13214DF2116000F06F
:1032800069FE01214DF2126000F064FE54214DF2FE
:10329000136000F05FFE01214DF2146000F05AFE51
:1032A00082214DF2156000F055FE01214DF21660AD
:1032B00000F050FECA214DF2176000F04BFE0221D3
:1032C0004DF2186000F046FE00214DF2196000F04A
:1032D00041FE02214DF21A6000F03CFE01214DF248
:1032E0001B6000F037FE02214DF21C6000F032FE40
:1032F00034214DF21D6000F02DFE02214DF21E60C2
:1033000000F028FE67214DF21F6000F023FE02212D
:103310004DF2206000F01EFE84214DF2216000F08D
:1033200019FE02214DF2226000F014FEA4214DF29C
:10333000236000F00FFE02214DF2246000F00AFE2F
:10334000B7214DF2256000F005FE02214DF2266006
:1033500000F000FECF214DF2276000F0FBFD0221BE
:103360004DF2286000F0F6FDDE214DF2296000F0FC
:10337000F1FD02214DF22A6000F0ECFDF2214DF248
:103380002B6000F0E7FD02214DF22C6000F0E2FD21
:10339000FE214DF22D6000F0DDFD03214DF22E6087
:1033A00000F0D8FD10214DF22F6000F0D3FD032175
:1033B0004DF2306000F0CEFD33214DF2316000F06F
:1033C000C9FD03214DF2326000F0C4FD6D214DF2C4
:1033D000336000F0BFFD55214FF4704000F0BAFD9E
:1033E000AA214FF2010000F0B5FD52214FF2020078
:1033F00000F0B0FD08214FF2030000F0ABFD00210A
:103400004FF2040000F0A6FDCC214FF4314000F053
:10341000A1FD00214BF2011000F09CFD05214FF4AD
:10342000364000F097FD70214FF4374000F092FDD8
:1034300070214BF2017000F08DFD01214FF43840F6
:1034400000F088FD03214BF6010000F083FD03210D
:103450004BF6020000F07EFD03214BF6030000F066
:1034600079FD02214FF43C4000F074FD00214BF641
:10347000014000F06FFD00214BF6024000F06AFDB4
:10348000D0214FF4494000F065FD02214CF60110B7
:1034900000F060FD50214CF6021000F05BFD502161
:1034A0004CF6031000F056FD50214CF6041000F0CD
:1034B00051FD00214FF4545000F04CFD55214FF4C4
:1034C000685000F047FD4FF4885000F02DFD782043
:1034D00001F0F0FE4FF4245000F026FDBDE08648D8
:1034E000808841F663118842F8D1E22000F01CFD8B
:1034F0001D2000F00DFD022000F00AFD042000F068
:1035000007FD642001F0D6FEE02000F00DFD012053
:1035100000F0FEFC0A2001F0B1FEE02000F004FD06
:10352000032000F0F5FC0C2001F0A8FE012000F0C3
:10353000FBFC0A2001F0A2FEE62000F0F5FC2F20A3
:1035400000F0E6FCFF2000F0E3FCFF2000F0E0FCD0
:10355000B02000F0E9FC202000F0DAFC002000F0B0
:10356000D7FC032000F0D4FC40F21F3000F0D0FC68
:10357000012000F0CDFC40F2DF1000F0C9FC00207B
:1035800000F0C6FCB42000F0CFFC042000F0C0FC2A
:1035900040F21F4000F0BCFC002000F0B9FC2E20DF
:1035A00000F0B6FC002000F0B3FC002000F0B0FCFE
:1035B000002000F0ADFC002000F0AAFCB62000F0D6
:1035C000B3FC022000F0A4FC4FF4037000F0A0FC58
:1035D000002000F09DFC172000F09AFC152000F060
:1035E00097FC002000F094FC002000F091FCF020FB
:1035F00000F09AFC032000F08BFC292000F094FCE2
:10360000D02000F091FC002000F082FCBE2000F0F1
:103610008BFC052000F07CFCFE2000F079FC0120F2
:1036200000F076FC002000F073FC002000F070FC3D
:10363000002000F06DFCB82000F076FC032000F0C4
:1036400067FC012000F064FCBA2000F06DFC012052
:1036500000F05EFC642000F0D7F82748808849F22B
:10366000413188421DD02448808847F289718842C0
:1036700017D02148808845F21031884211D01E4869
:10368000808845F2105188420BD01B48808841F653
:103690006311884205D01848808847F289718842B2
:1036A0001CD11648006820F00F004FF02041C1F8EF
:1036B00004010846D0F8040120F47060C1F8040148
:1036C0000846D0F8040140F00500C1F8040108469E
:1036D000D0F8040140F4A060C1F804010020FDF717
:1036E00097F9012220210648FDF7F6F84FF6FF7002
:1036F000FDF76AF91CBD0000C4020220040100A00D
:103700000004024010B50246012000E050430B1EA9
:10371000A1F10104E1B2F9D110BD000008B50348E0
:1037200000880090BDF8000008BD0000000008609F
:103730002DE9F04105460E4600240027A0463048FA
:103740000088A84203DD2E484088B04202DC0020F9
:10375000BDE8F0812B48006820B13146284601F0D1
:10376000C5F8F5E73146284600F0B6F924488088C8
:1037700049F24131884211D02148808845F2103108
:1037800088420BD01E48808841F66311884205D0DC
:103790001B48808847F28971884203D12E2000F0AF
:1037A000C3FB09E01648808845F21051884203D1D6
:1037B0004FF4385000F0B8FBFFF7B0FF0446104854
:1037C000808841F66311884201D12046C0E702207B
:1037D00001F02EFEFFF7A2FF0446022001F028FEB2
:1037E000FFF79CFF8046E7B24FF6FF7000EA07271D
:1037F000E012C002B91240EA411040EAE820A7E70F
:10380000C4020220D402022000B50246BE2000F00D
:103810008BFB052000F07CFB00EE102AB8EE400B7D
:103820009FED0B1B20EE010BBCEEC00B10EE101A2F
:1038300088B200F06DFB012000F06AFBFF2000F071
:1038400067FB002000F064FB002000F061FB00BD7E
:103850006666666666660440F0B505460024002785
:103860009C488079012805D19A48808841F66311E7
:10387000884208D197488079F0B99648808841F607
:103880006311884218D1082D15D2DFE805F004062F
:10389000080A0C0E101206250DE007250BE0042582
:1038A00009E0052507E0012505E0002503E00325E3
:1038B00001E0022500BF00BF8648808849F24131FF
:1038C000884217D08348808845F21031884211D051
:1038D0008048808845F2105188420BD07D4880880E
:1038E00041F66311884205D07A48808847F2897191
:1038F00088427DD1082D1CD2DFE805F00406090CB2
:103900000F12151800BF14E044F0800411E044F0D9
:1039100040040EE044F0C0040BE044F0200408E052
:1039200044F0600405E044F0A00402E044F0E00448
:1039300000BF00BF6748808845F21051884202D11D
:103940004FF4585700E036276248808845F210311E
:1039500088420DD05F48808845F21051884207D0D8
:103960005C48808841F66311884201D044F0080425
:103970002146384600F0EEFA5648808841F6631139
:1039800088421DD004F0200068B152480088514997
:103990004988884214DA4F48068840884D49088093
:1039A000084646800CE04B4800884A4949888842CE
:1039B00006DD484806884088464908800846468013
:1039C0004448808845F21051884254D14149488981
:1039D00000F0AAFA002000F09BFA3E494989491CF0
:1039E00088B200F0A1FA002000F092FA394900E014
:1039F0006FE04989891C88B200F096FA3549098838
:103A0000491EC1F30F2000F083FA32494989C91CCD
:103A100088B200F089FA2F490978491EC8B200F02F
:103A200077FA2C49888900F07FFA002000F070FABC
:103A300028498989491C88B200F076FA002000F0F4
:103A400067FA24498989891C88B200F06DFA2149F6
:103A50004988491EC1F30F2000F05AFA1D4989898F
:103A6000C91C88B200F060FA1A498978491EC8B2A8
:103A700000F04EFA2DE01749488900F055FA002071
:103A800000F046FA002000F043FA12490988491E66
:103A9000C1F30F2000F03CFA0E490978491EC8B264
:103AA00000F036FA0B49888900F03EFA002000F059
:103AB0002FFA002000F02CFA06494988491EC1F36C
:103AC0000F2000F025FA03498978491EC8B200F09A
:103AD0001FFAF0BDC402022010B502460C464E4843
:103AE000808849F2413188420BD04B48808845F2AA
:103AF0001031884205D04848808847F28971884251
:103B000014D14549488900F00FFA101200F000FA6C
:103B1000D0B200F0FDF94049888900F005FA201282
:103B200000F0F6F9E0B200F0F3F973E03A4880886B
:103B300041F66311884247D137488079A8B93648A1
:103B40000088401E801A82B23349488900F0ECF99F
:103B5000002000F0DDF9002000F0DAF9101200F08A
:103B6000D7F9D0B200F0D4F916E02B49488900F01B
:103B7000DBF9101200F0CCF9D0B200F0C9F92649F7
:103B80000988491EC1F30F2000F0C2F922490978C3
:103B9000491EC8B200F0BCF91F49888900F0C4F979
:103BA000201200F0B5F9E0B200F0B2F91A494988E4
:103BB000491EC1F30F2000F0ABF917498978491E5F
:103BC000C8B200F0A5F925E01348808845F21051ED
:103BD00088421FD11049488900F0A6F9101200F060
:103BE00097F90D494989491C88B200F09DF9D0B276
:103BF00000F08EF90849888900F096F9201200F04B
:103C000087F905498989491C88B200F08DF9E0B22D
:103C100000F07EF910BD0000C40202202DE9F84F2B
:103C200080460F4616461C46BB462046E31704EB6B
:103C30005373DB1021464FEAE47C04EB5C7C4FEAD3
:103C4000EC0CA4EBCC0CBCF1000F02D04FF0010C3B
:103C500001E04FF0000C6344224604EBD27C4FEAB3
:103C60006C0C03FB0CF3DBB20093A6F12000C6B290
:103C700000255EE00C2C07D106EB46002F4901EB36
:103C8000800010F805901BE0102C05D12C4800EBAB
:103C9000061010F8059013E0182C07D106EBC600AB
:103CA000284901EB800010F8059009E0202C05D18F
:103CB000254800EBC61010F8059001E0BDE8F88F2C
:103CC0004FF0000A2FE009F0800030B11F4839465C
:103CD00002684046FDF74AF807E00A9828B91C48F0
:103CE000394602684046FDF741F84FEA49604FEA1D
:103CF0001069781C87B217484088B84200DCDDE7BD
:103D0000A7EB0B00A0420AD15F4608F101001FFAA1
:103D100080F810480088404500DCCFE706E00AF153
:103D2000010000F0FF0ABAF1080FCCDB00BF681CED
:103D3000C5B2009885429DDB00BFBFE76266000800
:103D4000D66A0008C6700008227E00080C00022017
:103D500010000220C40202202DE9FF4F81B0074667
:103D600091461E460E9D4FF0000A002439E0301B9C
:103D7000401EC1B20A20FFF7C5FCB9FBF0F00A21D2
:103D8000B0FBF1F201FB1208BAF1000F16D1701E60
:103D9000A04213DDB8F1000F0ED10020AB4605EBB9
:103DA000DB71491001FB0471009088B22B46202280
:103DB0000299FFF733FF12E04FF0010A0020AB46F3
:103DC00005EBDB71491001FB0471009088B208F12A
:103DD0003001CAB22B460299FFF720FF00BF601CDA
:103DE000C4B2B442C3DB05B0BDE8F08F2DE9F84F93
:103DF00004460D4690469946DDE90A6704F0FF0A3D
:103E000008EB04001FFA80F809EB05001FFA80F99F
:103E100016E0444502DB5446A81985B24D4500DB47
:103E200014E0002000903A78334629462046FFF7F8
:103E3000F5FE304606EBD07104EB61018CB27F1CBD
:103E400038787E2802DC38782028E2DA00BFBDE826
:103E5000F88F2DE9FF4F83B0064692461F46DDE9F5
:103E600010480020029000254DE0781B401EC1B292
:103E70000A20FFF747FCBAFBF0F00A21B0FBF1F291
:103E800001FB1209029850BB781EA84227DDB9F148
:103E9000000F22D108F0800078B108F00100A3469D
:103EA00004EBDB71491001FB0561009088B22346E9
:103EB00030220499FFF7B2FE0EE008F00100A3469D
:103EC00004EBDB71491001FB0561009088B22346C9
:103ED00020220499FFF7A2FE13E00120029008F0CF
:103EE0000100A34604EBDB71491001FB0561009062
:103EF00088B209F13001CAB223460499FFF78EFE59
:103F000000BF681CC5B2BD42AFDB07B0BDE8F08F93
:103F100001B5BDF800000090BDF80000014908801F
:103F200008BD00000000086001B5BDF80000009069
:103F3000BDF800000149088008BD0000FEFF0760D1
:103F4000024800890249088070470000C40202202C
:103F5000FEFF0760024A1080921C1180704700002B
:103F6000FEFF07601CB50D48006840F002000B49D9
:103F700008600120032100230246CDE90010084813
:103F8000FCF7B2FC012202210548FCF7A5FC012246
:103F900011460348FCF7A0FC1CBD0000303802406D
:103FA0000004024018B5044606480094008B401EE9
:103FB00083B20448C08A401E82B20021084600F045
:103FC0008DF818BDD4020220F0B503460C46154604
:103FD000002100200022214E366826F080561F4F17
:103FE0003E6001E04E1CB1B21C4E366806F0005631
:103FF0001EB141F6FF76B142F4DB41F6FF76B142E5
:1040000001D1012029E042EA831242EA0472134EF0
:1040100088363260361D366826F440360F4F8C37AE
:104020003E603E46366846EA05463E600B4E3668C0
:1040300046F08056094F3E6001E04E1CB1B2074E7B
:10404000366806F000561EB941F6FF76B142F4DB41
:1040500041F6FF76B14200D10220F0BD00380240A7
:104060000949487530B98988074AD18211460988BB
:10407000118308E0012806D103490988024AD18248
:104080001146898811837047D402022070B5114B04
:104090005B7D6BB10F4BDB690E4D2D6805FB010598
:1040A0006B430C4D2D7D0C4E56F82550EA520FE017
:1040B000084B1D685B681B1A5B1E05FB0313054D4F
:1040C000ED696B43034D2D7D034E56F82550EA52A2
:1040D00070BD0000D4020220140002202DE9F04F30
:1040E00004460D4616464FF0000CDFF8289199F86B
:1040F0001590B9F1000F04D02046294632461F46DC
:1041000011E02846DFF80C91D9F80490A9EB0609D4
:10411000A9F101011A46DFF8FC90D9F80490A9EB47
:104120000409A9F10107DFF8EC90B9F80090A2EBBF
:10413000000A0AF1010AA9EB0A091FFA89F8DFF857
:10414000D49099F81490DFF8D0A05AF82990DFF8AD
:10415000C4A0DAF81CA0DFF8BCB0DBF800B00BFBA1
:10416000010B0AFB0B9EDFF8B490D9F8009049F4DC
:104170000009DFF8A8A0CAF80090DFF8A490D9F8E9
:10418000009029F00109DFF898A0CAF800904FF4D8
:104190004039CAF800904FF00209CAF83490D1466D
:1041A000C9F84080C9F83CE0A7EB010909F1010911
:1041B000A2EB000A0AF1010A49EA0A49DFF860A005
:1041C000CAF84490DDF82490CAF83890D146D9F85E
:1041D000009049F00109CAF8009005E00CF1010CCB
:1041E000BCF5001F00D308E0DFF83490D9F8049044
:1041F00009F00209B9F1000FF0D000BFDFF82090FC
:10420000D9F8089049F00209DFF814A0CAF808901C
:10421000BDE8F08FD40202201400022030380240A2
:1042200000B002407FB50024002500F00BFB0546DE
:1042300005B97FBD00F066FEEF48006840F0806081
:10424000ED490860EC481438006840F00200EA4983
:10425000143908600846006840F4F07008600120D6
:10426000022100230246CDE900102021E348FCF79B
:104270003BFB0120032100230222CDE90010810233
:10428000DF48FCF731FB0120032100230222CDE9A6
:1042900000104FF40C61DB48FCF726FB01200321E2
:1042A00000230222CDE900104FF47E41D648FCF7EE
:1042B0001BFB0120032100230222CDE9001040F264
:1042C000F761D248FCF710FB0E220A21CC48FCF71C
:1042D000DBFA0E220621CB48FCF7D6FA0E22072184
:1042E000C848FCF7D1FA0E220B21C648FCF7CCFADD
:1042F0000E220921C448FCF7C7FA0E220A21C2483F
:10430000FCF7C2FA0E220B21BF48FCF7BDFA0E22C1
:104310000C21BD48FCF7B8FA0E220D21BA48FCF773
:10432000B3FA0E221146B848FCF7AEFA0E220F215E
:10433000B548FCF7A9FA0E220021B448FCF7A4FA0C
:104340000E220121B148FCF79FFA0E220221AF484C
:10435000FCF79AFA0E220421AC48FCF795FA0E22DB
:104360000521AA48FCF790FA0E220621A748FCF77F
:104370008BFA0E220721A548FCF786FA0E220921A6
:10438000A248FCF781FA0E220A21A048FCF77CFA29
:1043900044F24230854218D14FF4F0709C490860D5
:1043A0004FF4887048600120088148812820888166
:1043B0000820C881052008820820488202220421A2
:1043C0004FF49070FFF700FE7EE047F284008542D4
:1043D00018D14FF448708E4908604FF4F07048606F
:1043E0000120088148812E2088811720C881D22091
:1043F000088216204882012203214FF4C670FFF77D
:10440000E3FD61E047F21600854219D14FF4806068
:104410007F4908604FF4167048601420088103201B
:1044200048818C2088811420C881A02008820C201B
:104430004882012202214FF4B470FFF7C5FD43E02A
:1044400047F21800854207D14FF4A0607049086018
:104450004FF44870486037E044F28430854219D107
:104460004FF448706A4908604FF4F0704860582073
:10447000888128200882302008812020C8810D20D2
:10448000488203204881012203214FF4C670FFF7C0
:104490009BFD19E041F21800854215D14FF4A06050
:1044A0005B4908604FF4487048608C2088810A207E
:1044B00008820881C88148820320488100220321A4
:1044C0004FF49670FFF780FD002441F218008542FA
:1044D00001D14FF0805400BF00BF00BF4D480460C1
:1044E0004B484089441E4A480089401E44EA004423
:1044F000484810380460464840894549C9890844FD
:10450000441E43480089424989890844401E44EAC0
:10451000004440480C3804603D4840893C49C98902
:1045200008443B4949680844441E394800893849D1
:1045300089890844364909880844401E44EA0044F1
:10454000344808380460324840893149C9890844F0
:104550002F49496808442E49498A0844441E2C487A
:1045600000892B4989890844294909880844284930
:10457000098A0844401E44EA00442648001F04609B
:104580000020244914310860012000F0DDF92248A0
:104590002249086002201E49C86100200721062226
:1045A000CDE90002CDE902101C48FF230222016878
:1045B000002000F037F81648808880B20090144838
:1045C000008883B200221146104600F09FF8104880
:1045D0000088134908800E4880884880002000F039
:1045E000ADF9012220210548FCF776F94FF0FF30A4
:1045F000FFF7D8FC00BF1CE644380240000402402C
:104600000014024000180240001C0240002002403A
:10461000D402022018680140000000C014000220EB
:10462000C40202202DE9F04106ACF0CCE0B9DFF87D
:1046300078C0CCF80010DFF870C0ACF1180CCCF8E2
:1046400000200CF1040CCCF8003047EA046CDFF8D1
:104650005880A8F11008C8F800C046EA052C08F1F7
:104660000408C8F800C01DE0DFF83CC00CF1800C65
:10467000CCF80010DFF830C00CF1680CCCF800204A
:104680000CF1040CCCF8003047EA046CDFF8188019
:1046900008F17008C8F800C046EA052C08F10408C3
:1046A000C8F800C0BDE8F081AC680140012910D114
:1046B00030B9154A126842F00102134B1A6019E032
:1046C000114A8032126842F001020F4B80331A60A7
:1046D00010E079B930B90C4A126822F001020A4B95
:1046E0001A6007E0084A8032126822F00102064B85
:1046F00080331A60044A603A126842F00102024BA9
:10470000603B1A6070470000846801402DE9F04763
:1047100082460F4690461E46DDF820900025BAF1ED
:10472000000F43D1B81945490968C1F30B4108444A
:10473000040442480068C0F30B403844401C204346
:104740003E497C31086008EB09003C490968C1F327
:104750000A010844040439480068C0F30A004044D0
:10476000401C204335498031086034488830006857
:1047700000F007050DB904240AE0012D01D103243E
:1047800006E0052D01D0062D01D1012400E0022410
:1047900006FB04F0C01C06FB04F140EA0140274977
:1047A000A4310860081DC0F8009041E0B819234901
:1047B0000968C1F30B410844040420480068C0F3B1
:1047C0000B403844401C20431C49FC31086008EB76
:1047D00009001A490968C1F30A010844040417488A
:1047E0000068C0F30A004044401C2043144908609C
:1047F00013480830006800F007050DB904240AE0EA
:10480000012D01D1032406E0052D01D0062D01D193
:10481000012400E0022406FB04F0C01C06FB04F1A6
:1048200040EA0140064924310860081DC0F80090A4
:1048300001215046FFF73AFFBDE8F0870C680140C0
:104840000C6901401CB500242548006840F4A070A4
:1048500023490860012000210B460A46CDE90010DB
:1048600040212048FCF740F8012000210B460A4671
:10487000CDE9001084211C48FCF736F8322000F006
:10488000FDFC40211748FCF71FF804460421164898
:10489000FCF71AF844EA4000C4B280211248FCF741
:1048A00013F844EA8000C4B2062C16D2DFE804F004
:1048B0000306090C0F1244F242301CBD47F284007B
:1048C000FBE747F21600F8E747F21800F5E744F275
:1048D0008430F2E741F21800EFE70020EDE7000036
:1048E00030380240001802400020024010B5024655
:1048F0001048407D68B10F48C0690E4B1B6803FB30
:10490000012358430B4B1B7D0B4C54F82330185A92
:1049100010BD084803684068801A401E03FB001061
:10492000044BDB695843034B1B7D034C54F8233085
:10493000185AEDE7D402022014000220014908753C
:1049400070470000D4020220012806D107490968F7
:1049500041F00101054A116006E028B903490968E0
:1049600021F00101014A1160704700001868014000
:104970000146002002E04908421CD0B20129FAD1C8
:10498000704700000748006820F48030054908603F
:1049900004487030006820F001000249703108605E
:1049A0007047000024ED00E0052005490860044838
:1049B0007038006840F480300149703908607047F1
:1049C00094ED00E00EB50020009001900323024614
:1049D0004FF080610290580700F022F80120002279
:1049E000CDE9002003230246C1040290400700F0F5
:1049F00017F801200022CDE90020032302224106FE
:104A00000290980700F00CF800200090019003231A
:104A10001A464FF080510290C80000F001F80EBD18
:104A20002DE9F04F05460C4616461F46DDE90A9A69
:104A3000DDF8248000239B4604F01F0000B914B960
:104A40000120BDE8F08F2046FFF792FF401E00F0E6
:104A5000FF0BFFF797FF0C480660001D056000BFC5
:104A600043EA076300BF43EA884343EA494343EA12
:104A70000A4300BF43EA4B0343F00103001D0360F8
:104A8000FFF792FF0020DCE798ED00E02DE9F04110
:104A90000746884614461D46284600F033F8C5F1FF
:104AA000040007FA00F60F20284100EA0800064338
:104AB00006F00F06E21704EBD2625211920002F1E7
:104AC000E022D2F800212146E31704EBD3635B1107
:104AD000A4EB431C012303FA0CF31A432046E3170B
:104AE00004EBD3635B119B0003F1E023C3F80021C7
:104AF0000348005D40EA061001490855BDE8F08111
:104B000000E400E00146072323EA01021202054BFC
:104B100018684FF6FF031840034B18431043014B2E
:104B2000186070470CED00E00000FA054A0A5202D6
:104B30000243014B1A60704708ED00E010B50022F7
:104B400001210A48FBF7C8FE09A0FBF705FC4FF45A
:104B50007A7000F093FB0CA0FBF7FEFB4FF47A7029
:104B600000F08CFB00F0D6FA10BD000000040240FB
:104B70004D656D20416363657373204572726F727A
:104B800021210D0A00000000536F667420526573E6
:104B90006574696E672E2E2E0D0A000010B5002375
:104BA000234C236000BF00BF00BFBFF34F8F00BF87
:104BB00000BF00BF231F1868C0F34E3100BFC0F311
:104BC000C90200BF43F6E07303EA41134FF04044CB
:104BD00004EA82742343174C236000BF00BF131EF6
:104BE000A2F10102EED10B1EA1F10101E7D100BF3C
:104BF00000BF00BFBFF34F8F00BF00BF00BF0C4B13
:104C0000703B1B6843F48033094C703C236000BF49
:104C100000BF00BFBFF34F8F00BF00BF00BF00BF8A
:104C200000BF00BFBFF36F8F00BF00BF00BF10BD4C
:104C300084ED00E060EF00E07CB500240025002654
:104C4000A948006840F00100A7490860A648083854
:104C5000006840F07C00A449083908600120032165
:104C600000230222CDE900100D21A048FBF73CFEF5
:104C70000120032100230222CDE900104CF2037130
:104C80009B48FBF731FE0120032100230222CDE9DE
:104C900000104FF683719748FBF726FE0120032191
:104CA00000230222CDE900104FF63F019248FBF7A6
:104CB0001BFE0120032100230222CDE9001048F24F
:104CC00037118E48FBF710FE0C2200218748FBF7B6
:104CD000DBFD0C2202218548FBF7D6FD0C220321C7
:104CE0008248FBF7D1FD0C2200218148FBF7CCFD67
:104CF0000C2201217E48FBF7C7FD0C2208217C48CD
:104D0000FBF7C2FD0C2209217948FBF7BDFD0C22FF
:104D10000A217748FBF7B8FD0C220E217448FBF7F7
:104D2000B3FD0C220F217248FBF7AEFD0C220021CF
:104D30007048FBF7A9FD0C2201216E48FBF7A4FD8A
:104D40000C2207216B48FBF79FFD0C2208216948C4
:104D5000FBF79AFD0C2209216648FBF795FD0C2212
:104D60000A216448FBF790FD0C220B216148FBF7F8
:104D70008BFD0C2211465F48FBF786FD0C220D21AE
:104D80005C48FBF781FD0C220E215A48FBF77CFDA5
:104D90000C220F215748FBF777FD0C2200215648C3
:104DA000FBF772FD0C2201215348FBF76DFD0C222D
:104DB00002215148FBF768FD0C2203214E48FBF706
:104DC00063FD0C2204214C48FBF75EFD0C220521FB
:104DD0004948FBF759FD0C220B214748FBF754FDCE
:104DE0000C2211464448FBF74FFD0C220D2142488E
:104DF000FBF74AFD0C220E213F48FBF745FD0C2234
:104E00000F213D48FBF740FD0C2200213B48FBF7FA
:104E10003BFD0C2201213948FBF736FD0C22022113
:104E20003648FBF731FD0C2204213448FBF72CFDFA
:104E30000C2205213148FBF727FD0C2208212F48C1
:104E4000FBF722FD0C220F212C48FBF71DFD44F03F
:104E5000010444F0080444F0100444F0400444F415
:104E6000C07400BF44F4006444F4805400BF24487C
:104E7000046045F0010545F0700545F4C06545F452
:104E8000C04545F4803545F4801545F08075C00572
:104E9000C0F8485100231A460121184600F054F882
:104EA0004FF4FA7000F006FA00231A460221184661
:104EB00000F04AF8002308220321184600F044F8C5
:104EC00046F0030600BF46F0300600BF46F4007609
:104ED000334600220421104600F036F84FF4CE602D
:104EE0000749143108607CBD383802400008024090
:104EF000000C024000100240001402400018024062
:104F0000400100A010B500240E48006820F4C070D5
:104F10004FF02041C1F840010846D0F8400100F4AC
:104F20008070C1F8400144F0030400BF44F0200445
:104F300000BF44F40074234600220421104600F010
:104F400003F810BD400100A0F0B504460D46002650
:104F500000212943C4F104070120B840014341EA7C
:104F6000421141EA43210948016005E0761CB6F58B
:104F7000001F01D30120F0BD04480830006800F094
:104F800020000028F2D100BFF5E70000500100A08A
:104F90002DE9F04104460D4616461F4615480068A7
:104FA00040F00100134908600020124908310860F0
:104FB00010480068104908400E4908600F48091D54
:104FC0000860081F006820F48020091F0860002086
:104FD00008490C310860FBF71BFC3B46324629466A
:104FE000204600F00DF800214FF00060FFF79EFD15
:104FF000BDE8F08100380240FFFFF6FE10300024CB
:10500000F0B504460D46002100203F4E366846F4B8
:1050100080363D4F3E6001E04E1CB1B23A4E3668DC
:1050200006F400361EB941F6FF76B142F4DB41F6D4
:10503000FF76B14201D1012065E0334E403636683B
:1050400046F08056304F40373E60304E366846F46A
:1050500040462E4F3E603E46366846F480363E60FF
:105060003E46366846F400363E60274E08363668BF
:1050700046F41446244F08373E60234E366826F027
:105080008076214F3E6045EA84160127C7EB520720
:1050900046EA074646EA036646F480061A4F3F1D75
:1050A0003E603E1F366846F080763F1F3E6000BF80
:1050B000154E366806F00076002EF9D0144E36688C
:1050C00046F48076124F3E603E46366846F40076DF
:1050D0003E603E46366846F007063E600A4E083699
:1050E000366826F00306084F08373E603E463668AD
:1050F00046F002063E6000BF034E0836366806F0F2
:105100000C06082EF8D1F0BD0038024000700040B7
:10511000003C024001480249086070470400FA055B
:105120000CED00E010B50C48006800F0010058B12B
:105130000A490869804700200749143108604FF484
:105140007A7005491C3108600348006820F00100AE
:105150000149086010BD000010080040080102204D
:1051600070B505460C461048006840F004000E4932
:1051700008600E480560001F04600C482038006875
:1051800040F0010009492039086008482C380068BF
:1051900040F0010005492C39086002231E2203213A
:1051A0000846FFF773FC70BD403802402C080040F1
:1051B0001C49C96901F0200109B31A49496AC8B2FA
:1051C0001949098801F40041C9B91749098801F44E
:1051D000804161B10A2803D00021134A118020E0E8
:1051E0001149098841F400410F4A118019E00D2846
:1051F00006D10D49098841F480410B4A118010E025
:1052000009490988C1F30D01084A50540649098823
:10521000491C054A118011460988C72901DD002172
:10522000118070470010014008000220FC0102209C
:1052300030380A2801D2012070470020704700BF93
:10524000704700004FF0E021096921F004014FF0A0
:10525000E0221161C21700EB5272C2F3C702054B84
:105260001A704FF47A714143C1F3CF01024A1180A1
:1052700070470000000002200200022070B50446C2
:105280004FF4077094FBF0F0C6B24FF4077094FB34
:10529000F0F100FB114085B205E04FF4077000F01B
:1052A00027F8701EC6B2002EF7D115B1284600F0BF
:1052B0001FF870BD01460D4A12784A434FF0E023B3
:1052C0005A6100229A6101221A6100BF4FF0E02268
:1052D000106900F001021AB100F48032002AF5D002
:1052E00000224FF0E0231A619A617047000002200B
:1052F00001460D4A12884A434FF0E0235A610022CA
:105300009A6101221A6100BF4FF0E022106900F09B
:1053100001021AB100F48032002AF5D000224FF0C9
:10532000E0231A619A6170470200022000BF054A1B
:10533000D26902F04002002AF9D0C2B2014B9A624F
:10534000704700000010014010B5044622460121BC
:105350000148FBF7C1FA10BD000402401CB501244E
:105360000923022219214FF4D870FFF711FED8202B
:10537000FFF768FF4FF4E1316C2000F069F81E4838
:1053800041686C208847FEF7EDFDFFF71BFBFFF738
:1053900053FCFBF7BBFD4FF478401849086018A098
:1053A00010210B46C822CDE9001032211E20FEF745
:1053B0001DFD18A010210B46C822CDE90010462182
:1053C0001E20FEF713FD16A010210B46C822CDE9C2
:1053D00000106E211E20FEF709FD0BE084F0010095
:1053E0000446024602211148FBF776FA4FF4FA70A0
:1053F000FFF744FFF2E70000080102200C00022042
:1054000041706F6C6C6F2053544D333246342F46CD
:105410003700000055534D41525420544553540019
:10542000323032322F30372F323800000004024041
:1054300000BF011EA0F10102D0B2FAD170470146AF
:105440000868704770B505460C462046A84770BDF1
:105450007CB505460C462948684300EB5400B0FB78
:10546000F4F62748006840F0010025490860244808
:105470001430006840F01000214914310860012008
:10548000022100230A46CDE900104FF4C0611D48F7
:10549000FBF72AFA072209211A48FBF7F5F9072238
:1054A0000A211848FBF7F0F91748C6600020164992
:1054B00008600846006808600846006808600846FA
:1054C000006808600846006840F008000860084668
:1054D000006840F0040008600846006840F02000C2
:1054E00008600223252203210846FFF7CFFA064869
:1054F000006840F00100044908607CBD40420F0094
:1055000030380240000002400010014030B595B034
:10551000054613AB12AA09A9284600F03FFA044633
:1055200014B1204615B030BD0020149026E0224969
:1055300009689DF8502001EBC20113AB11AA48681D
:1055400001A900F02BFA04460CB12046EAE709A9AC
:1055500001A800F0DDFC60B99DF844009DF84810FA
:10556000884201DD0220DDE79DF850001249887570
:105570000AE09DF85000401CC0B214900E48007D17
:105580009DF850108842D2DC00BF0B48007D9DF88A
:105590005010884201D10420C4E714A9284600F025
:1055A000DDFA04460CB12046BCE79DF850000249E4
:1055B00048750020B6E70000080102202DE9F041FF
:1055C0009AB09C48847D007DA04202DC1AB0BDE800
:1055D000F0819849096801EBC40106AB07AA486845
:1055E00008A900F0DBF908A993A0FAF7B5FE002698
:1055F00044E09048008B0121B1400840D8B12221FD
:105600008FA0FAF7A9FE304600F02EFB894924311D
:10561000471839468BA0FAF79FFE222188A0FAF797
:105620009BFE304600F020FB82492431084410A93B
:1056300041F8260018E0304600F016FB7D49243181
:10564000085810A941F826007A48C07D30B910A842
:1056500050F826107CA0FAF77FFE05E010A850F85D
:1056600026107AA0FAF778FE9DF81C00401EB04282
:1056700002D078A0FAF770FE701CC6B29DF81C002C
:105680008642B6DB74A0FAF767FE00F03DFB69487E
:10569000407D0B280DD2DFE800F0060D151E2732E5
:1056A0003F4E5F7287006349096851F834008047B4
:1056B000054690E05F4A126852F834101098884707
:1056C000054688E05B4B1B6853F83420DDE9100188
:1056D000904705467FE0574F3F6857F8343010A891
:1056E00007C89847054676E0DFF848C1DCF800C0F7
:1056F0005CF8347010A80FC8B84705466BE01498E2
:10570000DFF830C10090DCF800C05CF8347010A8FD
:105710000FC8B84705465EE0DDE91401DFF814C1A3
:10572000CDE90001DCF800C05CF8347010A80FC8A7
:10573000B84705464FE0DDE914121698DFF8F4C0CB
:10574000CDE900120290DCF800C05CF8347010A8BB
:105750000FC8B84705463EE0DDE91423DDE9161021
:10576000DFF8D0C0CDE90023CDE90210DCF800C09D
:105770005CF8347010A80FC8B84705462BE0DDE987
:105780001523DDE91710CDE90123CDE903101498A5
:10579000DFF8A0C00090DCF800C05CF8347010A8FE
:1057A0000FC8B847054616E0DDE91623DDE91810F5
:1057B000CDE90223CDE90410DDE91401DFF874C05E
:1057C000CDE90001DCF800C05CF8347010A80FC807
:1057D000B847054600BF00BF00F056FA9DF8180014
:1057E00001280CD11348C07D20B929461BA0FAF727
:1057F000B3FD07E029461BA0FAF7AEFD02E018A0B2
:10580000FAF7AAFD0B4890F8EC0088B10948D0F8E7
:10581000F0000A21B0FBF1F201FB12070548D0F8B5
:10582000F000B0FBF1F83A46414611A0FAF794FDBA
:1058300000BFCBE6080102200D0A257328000000F6
:105840002563000025730000256C6400305825583E
:10585000000000002C000000290000003D256C75B0
:105860003B0D0A003D305825583B0D0A0000000052
:1058700046756E6374696F6E2052756E2054696D43
:10588000653A25642E2531646D730D0A0000000011
:10589000F0B50346154600200022002600245BE0F8
:1058A0001F782C2F01D104B901221F78292F01D094
:1058B0001F780FB904B950E0002E3AD11F78302F6D
:1058C00002DB1F78392F17DD1F782D2F14D01F789A
:1058D0002B2F11D01F78612F02DB1F78662F0BDD75
:1058E0001F78412F02DB1F78462F05DD1F78582FC8
:1058F00002D01F78782F0CD102B12EE01F78612FD3
:1059000003DB1F78203F0F7001E01F780F70491CE8
:105910001FE01F78222F04D102B11EE001260124CE
:1059200017E01F78202F14D01F782C2F11D0FF26BE
:1059300013E01F78222F00D1002402B10DE044B102
:105940001F785C2F02D15B1C471CF8B21F780F70C8
:10595000491C471CF8B25B1CA2E700BF00270F7070
:105960002E70F0BD10B50446002010700BE02078BA
:105970000870641C491C1078401C10701078984204
:1059800001DB012010BD2078202802D020780028DB
:10599000EDD10020087000BFF4E700002DE9FF4FB3
:1059A00085B080468946002700200490039001209E
:1059B00002904FF0000B002544461DE0207820287F
:1059C00016D005F07F00052812DA0DB945F08005E4
:1059D00005F07F00042803D120782A2800D00EE0AB
:1059E000207805F07F010DF80100681CC5B202E0C7
:1059F000852D00D103E0641C20780028DED100BF93
:105A00008DB1002005F07F010DF8010051A168461D
:105A100000F07EFA18B900210898017002E0012117
:105A20000898017000254FF0000A444614E0641CF9
:105A30000AF1010000F0FF0A2078202802D0207827
:105A40002A2809D1204600F0D5F90646282E03D091
:105A50002A2E01D0CDF810A02078282802D0207856
:105A60000028E4D14446049810B10498401C044432
:105A70004FF0000A002654E0207810B94FF0010AD8
:105A800050E02078282803D116B9781CC7B213E05B
:105A90002078292808D13EB917B1781EC7B201E095
:105AA0004FF0010A47B93DE02078222804D10EB911
:105AB000012000E00020064647B9207820282FD09A
:105AC000207889F8000009F1010929E020782C28C4
:105AD00004D101200290681CC5B214E0207820286F
