:020000040800F2
:100000006808022099020008BD020008BF0200082B
:10001000C1020008C3020008C50200080000000079
:10002000000000000000000000000000C7020008FF
:10003000C902000800000000CB020008CD02000841
:10004000E9070008CF020008CF020008CF0200082D
:10005000CF020008CF020008CF020008CF0200083C
:10006000CF020008CF020008CF020008CF0200082C
:10007000CF020008CF020008CF020008CF0200081C
:10008000CF020008CF020008CF020008CF0200080C
:10009000CF020008CF020008CF020008CF020008FC
:1000A000CF020008CF020008CF020008CF020008EC
:1000B000CF020008CF020008CF020008CF020008DC
:1000C000CF020008CF020008CF020008CF020008CC
:1000D000CF020008CF020008CF020008CF020008BC
:1000E000CF020008CF020008CF020008CF020008AC
:1000F000CF020008CF020008CF020008CF0200089C
:10010000CF020008CF020008CF020008CF0200088B
:10011000CF020008CF020008CF020008CF0200087B
:10012000CF020008CF020008CF020008CF0200086B
:10013000CF020008CF020008CF020008CF0200085B
:10014000CF020008CF020008CF020008CF0200084B
:10015000CF020008CF020008CF020008CF0200083B
:10016000CF020008CF020008CF020008CF0200082B
:10017000CF020008CF020008CF02000800000000F4
:10018000CF020008CF020008CF020008CF0200080B
:10019000CF020008CF020008CF020008CF020008FB
:1001A000CF020008CF020008CF020008CF020008EB
:1001B000CF020008CF020008CF020008CF020008DB
:1001C000CF020008CF02000800000000CF020008A4
:1001D000CF020008CF020008CF020008CF020008BB
:1001E000CF020008CF020008CF020008CF020008AB
:1001F000CF020008CF02000800F002F800F03CF83F
:100200000AA090E8000C82448344AAF10107DA4571
:1002100001D100F031F8AFF2090EBAE80F0013F087
:10022000010F18BFFB1A43F001031847980700009D
:10023000B8070000103A24BF78C878C1FAD852072E
:1002400024BF30C830C144BF04680C607047000050
:100250000023002400250026103A28BF78C1FBD8CF
:10026000520728BF30C148BF0B6070471FB500F070
:10027000A3FB1FBD10B510BD00F03FF81146FFF7FE
:10028000F5FF00F075FB00F05DF803B4FFF7F2FF37
:1002900003BC00F065F80000DFF84000016841F49D
:1002A00070010160BFF34F8FDFF83400016821F067
:1002B00040410160BFF36F8F0A480047FEE7FEE749
:1002C000FEE7FEE7FEE7FEE7FEE7FEE7FEE7FEE706
:1002D00005480649044A064B7047000088ED00E0D7
:1002E00034EF00E0F90100086800022068080220ED
:1002F00068000220704770477047754600F02CF880
:10030000AE4605006946534620F00700854618B002
:1003100020B5FFF7DDFFBDE820404FF000064FF0AD
:1003200000074FF000084FF0000B21F00701AC462A
:10033000ACE8C009ACE8C009ACE8C009ACE8C00949
:100340008D46704710B50446AFF300802046BDE8E7
:100350001040FFF79ABF00000048704708000220D5
:1003600001491820ABBEFEE72600020070470000DE
:1003700010B500BF00BF00BF00BF00BFBFF34F8F6D
:1003800000BF00BF00BF00BF00BF00BFBFF36F8F43
:1003900000BF00BF00BF002011490860114800687D
:1003A00040F400300F49086000BF00BF00BFBFF33A
:1003B0004F8F00BF00BF00BF00BF00BF00BFBFF333
:1003C0006F8F00BF00BF00BF00BF00F0FDF8044802
:1003D0004C30006840F0040001494C31086010BD09
:1003E00050EF00E014ED00E002F001030BB1816179
:1003F00001E00B04836170472DE9F0470C46DDE90D
:100400000867002100258C4600BF60E04FF001081E
:1004100008FA01F504EA050CAC4557D1D0F8008084
:100420004FEA410A4FF0030909FA0AF928EA0908D4
:10043000C0F80080D0F800804FEA410902FA09F9BB
:1004400048EA0908C0F80080012A01D0022A27D111
:10045000D0F808804FEA410A4FF0030909FA0AF977
:1004600028EA0908C0F80880D0F808804FEA410956
:1004700006FA09F948EA0908C0F80880D0F804909B
:100480004FF0010808FA01F829EA0809C0F80490B9
:10049000D0F8048003FA01F948EA0908C0F804809A
:1004A000D0F80C804FEA410A4FF0030909FA0AF923
:1004B00028EA0908C0F80C80D0F80C804FEA4109FE
:1004C00007FA09F948EA0908C0F80C80491C102904
:1004D0009CD3BDE8F08700001CB50D48006840F0D3
:1004E00002000B4908600120032100230246CDE9E8
:1004F00000100848FFF780FF012202210548FFF79E
:1005000073FF012211460348FFF76EFF1CBD000078
:1005100030380240000402402DE9F0410746884689
:1005200014461D46284600F033F8C5F1040007FACA
:1005300000F60F20284100EA0800064306F00F06E7
:10054000E21704EBD2625211920002F1E022D2F8DB
:1005500000212146E31704EBD3635B11A4EB431C9A
:10056000012303FA0CF31A432046E31704EBD36389
:100570005B119B0003F1E023C3F800210348005DF9
:1005800040EA061001490855BDE8F08100E400E0AA
:100590000146072323EA01021202054B18684FF6B1
:1005A000FF031840034B18431043014B186070477A
:1005B0000CED00E00000FA054A0A52020243014B2A
:1005C0001A60704708ED00E010B50023234C23604B
:1005D00000BF00BF00BFBFF34F8F00BF00BF00BF11
:1005E000231F1868C0F34E3100BFC0F3C90200BF1B
:1005F00043F6E07303EA41134FF0404404EA827487
:100600002343174C236000BF00BF131EA2F1010259
:10061000EED10B1EA1F10101E7D100BF00BF00BF69
:10062000BFF34F8F00BF00BF00BF0C4B703B1B6878
:1006300043F48033094C703C236000BF00BF00BF0F
:10064000BFF34F8F00BF00BF00BF00BF00BF00BFA0
:10065000BFF36F8F00BF00BF00BF10BD84ED00E08F
:1006600060EF00E02DE9F04104460D4616461F46B6
:100670001548006840F00100134908600020124945
:100680000831086010480068104908400E490860A9
:100690000F48091D0860081F006820F48020091F0A
:1006A0000860002008490C310860FFF761FE3B46F6
:1006B00032462946204600F00DF800214FF0006038
:1006C000FFF77AFFBDE8F08100380240FFFFF6FE39
:1006D00010300024F0B504460D46002100203F4EA6
:1006E000366846F480363D4F3E6001E04E1CB1B2A4
:1006F0003A4E366806F400361EB941F6FF76B1422E
:10070000F4DB41F6FF76B14201D1012065E0334EC2
:100710004036366846F08056304F40373E60304EA7
:10072000366846F440462E4F3E603E46366846F4F4
:1007300080363E603E46366846F400363E60274EC0
:100740000836366846F41446244F08373E60234E78
:10075000366826F08076214F3E6045EA84160127F0
:10076000C7EB520746EA074646EA036646F48006A8
:100770001A4F3F1D3E603E1F366846F080763F1F91
:100780003E6000BF154E366806F00076002EF9D0A8
:10079000144E366846F48076124F3E603E46366808
:1007A00046F400763E603E46366846F007063E60F8
:1007B0000A4E0836366826F00306084F08373E60B2
:1007C0003E46366846F002063E6000BF034E0836DD
:1007D000366806F00C06082EF8D1F0BD003802404D
:1007E00000700040003C024010B50C48006800F06A
:1007F000010088B10020094908600948007800F02C
:1008000059F80848007880F001000649087002464F
:1008100001210548FFF7E8FD10BD0000082C00404D
:1008200004000220050002200004024070B50646C4
:100830000C4615461C48006840F400601A490860E0
:100840001A4800783040194908701948006840EA91
:10085000C51017490860084600684FF680710840C7
:10086000134908600846006820430860081F0068B4
:100870000E49097808430E49091F086008460068B8
:1008800040F0800008600223002203211846FFF791
:1008900043FE00200649091D0860081F006840F457
:1008A0000070091F086070BD40380240040002203B
:1008B000042C004000F07F01014A116070470000E5
:1008C000002C00404FF0E021096921F004014FF0B5
:1008D000E0221161C21700EB5272C2F3C702054B4E
:1008E0001A704FF47A714143C1F3CF01024A11806B
:1008F00070470000000002200200022070B504468C
:100900004FF4077094FBF0F0C6B24FF4077094FBFD
:10091000F0F100FB114085B205E04FF4077000F0E4
:1009200009F8701EC6B2002EF7D115B1284600F0A6
:1009300001F870BD01460D4A12884A434FF0E0238A
:100940005A6100229A6101221A6100BF4FF0E02231
:10095000106900F001021AB100F48032002AF5D0CB
:1009600000224FF0E0231A619A61704702000220D2
:100970000923022219214FF4D870FFF773FED82003
:10098000FFF7A0FFFFF7A8FD002202210948FFF7AB
:100990002BFD4FF49670FFF7B1FF03225F217F20FC
:1009A000FFF744FF04E0012202210248FFF71CFD8B
:1009B000F9E70000000402404FF04070E1EE100A39
:1009C00070470000E4090008000002200800000051
:1009D00034020008EC09000808000220600800004A
:0C09E00050020008000000007F01000031
:04000005080001F9F5
:00000001FF
