:020000040800F2
:10000000B809002099020008C3380008A328000896
:10001000C1380008BD060008F541000800000000D6
:100020000000000000000000000000004D39000842
:10003000BF06000800000000C53800084F3900085E
:10004000B3020008B3020008B3020008B3020008BC
:10005000B3020008B3020008B3020008B3020008AC
:10006000B3020008B3020008B3020008B30200089C
:10007000B3020008B3020008B3020008B30200088C
:10008000B3020008B3020008B3020008B30200087C
:10009000B3020008B3020008B3020008B30200086C
:1000A000B3020008B3020008B3020008B30200085C
:1000B000B3020008B3020008B3020008B30200084C
:1000C000B3020008B3020008B3020008B30200083C
:1000D000B3020008E9410008B3020008B3020008B7
:1000E000B3020008B3020008B3020008B30200081C
:1000F000B3020008B3020008B3020008B30200080C
:10010000B3020008B3020008B3020008B3020008FB
:10011000B3020008B3020008B3020008B3020008EB
:10012000B3020008B3020008B3020008B3020008DB
:10013000B3020008B3020008B3020008B3020008CB
:10014000B3020008B3020008B3020008B3020008BB
:10015000B3020008B3020008B3020008B3020008AB
:10016000B3020008B3020008B3020008B30200089B
:10017000B3020008B3020008B30200080000000048
:10018000B3020008B3020008B3020008B30200087B
:10019000B3020008B3020008B3020008B30200086B
:1001A000B3020008B3020008B3020008B30200085B
:1001B000B3020008B3020008B3020008B30200084B
:1001C000B3020008B302000800000000B3020008F8
:1001D000B3020008B3020008B3020008B30200082B
:1001E000B3020008B3020008B3020008B30200081B
:1001F000B3020008B302000800F002F800F03CF877
:100200000AA090E8000C82448344AAF10107DA4571
:1002100001D100F031F8AFF2090EBAE80F0013F087
:10022000010F18BFFB1A43F001031847248A00008E
:10023000448A0000103A24BF78C878C1FAD852071F
:1002400024BF30C830C144BF04680C607047000050
:100250000023002400250026103A28BF78C1FBD8CF
:10026000520728BF30C148BF0B6070471FB504F06C
:100270003DF91FBD10B510BD00F03EF91146FFF766
:10028000F5FF03F0D5FF00F070F903B4FFF7F2FFBC
:1002900003BC03F0C1FF000009488047094800473C
:1002A000FEE7FEE7FEE7FEE7FEE7FEE7FEE7FEE726
:1002B000FEE7FEE704480549054A064B7047000083
:1002C000F9390008F9010008B8030020B809002036
:1002D000B8050020B8050020704753EA020C00F072
:1002E00069802DE9F04B4FF00006002B1FBFB3FAD9
:1002F00083F503FA05F424FA05F65E4012BF1643AF
:10030000B2FA82F502FA05F4C5F120051EBF22FA01
:1003100005FC44EA0C04203556EA044C4FEA144428
:1003200018BF641C4FF000084FF00009904271EBB9
:10033000030C39D3002919BFB1FA81F701FA07F686
:10034000B0FA80F700FA07F6C7F120071EBF20FABF
:1003500007FC46EA0C062037B6FBF4FCA7EB0507C2
:10036000103F07F01F0BCBF120060CFA0BFB2CFA09
:1003700006F644BFB3460026202FA4BF5E464FF0CA
:10038000000B5BEA060C08BF4FF0010B19EB0B09E1
:10039000ABFB027C48EB0608C01B06FB02CC0BFB48
:1003A00003CC71EB0C01C1E70B46024641464846BF
:1003B000BDE8F08B13B54FF000004FF00001AFF334
:1003C0000080BDE81C4070470FB4044910B503AA73
:1003D000029800F063F810BC5DF814FB08000020E0
:1003E00010B5203AC0F00B80B1E81850203AA0E8D0
:1003F0001850B1E81850A0E81850BFF4F5AF5FEA04
:10040000027C24BFB1E81850A0E8185044BF18C9B6
:1004100018C0BDE810405FEA827C24BF51F8043B5D
:1004200040F8043B08BF7047D20728BF31F8023BB1
:1004300048BF11F8012B28BF20F8023B48BF00F845
:10044000012B70474FF0000200B5134694469646C4
:10045000203922BFA0E80C50A0E80C50B1F12001D7
:10046000BFF4F7AF090728BFA0E80C5048BF0CC085
:100470005DF804EB890028BF40F8042B08BF7047E3
:1004800048BF20F8022B11F0804F18BF00F8012B55
:10049000704770477047704770470000074B70B552
:1004A0000D467B4400F011F80446284600F020F881
:1004B00010B14FF0FF3070BD204670BD773D000099
:1004C00001694A1C02610878704700B58FB0CDE918
:1004D00001310021059105497944CDE90310114608
:1004E000684600F02EF80FB000BD0000E5FFFFFFEA
:1004F000007B00F080007047754600F03FF8AE4684
:1005000005006946534620F00700854618B020B51F
:10051000FFF7D0FEBDE820404FF000064FF0000787
:100520004FF000084FF0000B21F00701AC46ACE89B
:10053000C009ACE8C009ACE8C009ACE8C0098D4608
:1005400070472DE9F04106460024D6E90170F568B0
:100550008046304603E04146B847641C3046A84711
:100560000028F8D12046BDE8F08110B50446AFF36D
:1005700000802046BDE81040FFF787BE0048704766
:10058000540300204A496FF0706210B5D1F804336B
:1005900023F44033C1F80433D1F8043344682343CF
:1005A000C1F8043301684B6823F480734B60016821
:1005B00003694C6844EA03234B6001684B6823F0ED
:1005C00040734B60016884684B6823434B6001684B
:1005D0008B6823F400638B600168C4688B682343D5
:1005E0008B60816AD14201688A6822F070628A60F9
:1005F00001680DD0836A8A681A438A6001688A6834
:1006000022F040528A600168C36A8A681A4302E095
:100610008A6822F040528A6001688A6822F00202E9
:100620008A60016882698B6843EA42028A6090F8B6
:1006300020100029016811D01E4A4B6843F4006362
:100640004B6001684B6823F460434B600168446A67
:100650004B6802EB443213434B6003E04A6822F4D8
:1006600000624A600168144BCA6A22F47002CA62CE
:100670000168848BCA6A03EB04531A43CA62016897
:100680008A6822F400728A60016890F830208B68D2
:1006900043EA42228A6001688A6822F480628A60A2
:1006A000016840698A6842EA8020886010BD0000C5
:1006B0000020014000E0FFFF0000F0FFFEE7704770
:1006C00072B6FEE7F0B5D1E90843CD690A68C2B158
:1006D0000268254322F4F84213431D430560D1E923
:1006E0000125D1E903364C692A43456833438969BA
:1006F0001A43EB0B2243DB030A431A4342600020F8
:10070000F0BDD1E9012ED1E9036CD1E9057142EACE
:100710000E0246EA0C0632433A430A4301682A4372
:1007200022431A436FF30E010A430260E7E742696E
:1007300043F6FE739A4342EA41014161002070474B
:1007400070B591E81C00C9686FF01F0506691A436F
:1007500005EB441444EA41210A4306EA45431A439F
:100760000261002070BD00002DE9F04F8B8A6FF010
:100770000F05264C4FF07F4BD1F80C9004EB035340
:100780006FF0FF044FEA042A1AB386684FEA093271
:100790001F4FA2F580521A433E4032438260D1E996
:1007A00000278E68521E05EB07150F8A2A43C5687D
:1007B00004EB06240E7E0AEB074322431A430BEB9D
:1007C00006610A4305F070431A43C2600020BDE889
:1007D000F08F91E804110F4E521E0F8A05EB081599
:1007E0002A4304EB0C2C06EB09350E7E42EA0C0280
:1007F0002A4385680AEB074422431A430BEB066140
:100800000A4305F070431A438260DFE70000F0FFFF
:10081000FF0F0FFF00F0FFFF064810B500F0B2F920
:1008200004480A2100F05AF9024800F0F9F880B2B1
:1008300010BD00004000002070B5002506462C4683
:1008400008E000BFFFF7E8FF0544052000F018FBB3
:10085000641CE4B2B442F5D3B5FBF6F080B270BDCF
:10086000F8B50025009590F83C20012A1DD0012202
:1008700080F83C20664C0723D6070A68092A22D94B
:10088000B24220D007680A3A02EB420CFA6803FA37
:100890000CF39A43FA600A68A24208D102680B7A04
:1008A000D76847EA0363D36022E00220F8BD0768F7
:1008B0000A3A8B6802EB4202D7F80CC0934043EA35
:1008C0000C03FB6014E0076802EB4202D7F810C08B
:1008D00093402CEA030CC7F810C003680F788A68AD
:1008E000D3F810C007EB4707BA4042EA0C021A617E
:1008F0004A681F23072A16D20768521E02EB820C91
:100900007A6B03FA0CF39A437A6303680F790A88C7
:100910007F1ED3F834C092B207EB8707BA4042EA91
:100920000C025A632DE007680D2A15D2D21F02EB84
:10093000820C3A6B03FA0CF39A433A6302680F791C
:100940000B88FF1FD2F830C09BB207EB8707BB4074
:1009500043EA0C03136314E00D3A02EB820CFA6ACB
:1009600003FA0CF39A43FA6203680F790A880D3F81
:10097000D3F82CC092B207EB8707BA4042EA0C02C8
:10098000DA62244A0368934208D10B68B34205D166
:10099000D2F8043323F44003C2F8043303689342CB
:1009A0000ED10B68122B0BD1D2F8043323F40003C1
:1009B000C2F80433D2F8043343F48003C2F804339A
:1009C0000368934220D10B68A34201D0112B1BD1A5
:1009D000D2F8043323F48003C2F80433D2F804338A
:1009E00043F40003C2F804330968A1420CD10A4958
:1009F0000A4A0968B1FBF2F101EB8101490000E00C
:100A0000491E00910029FBD180F83C500020F8BD20
:100A100012000010002001402C00002040420F0076
:100A20000068C06C704770B504004FF0000503D03B
:100A3000206C002610B107E0012070BD204600F0B8
:100A40001DF8666484F83C60206CC00610D4206CED
:100A500020F4885040F0020020642046FFF792FD09
:100A60006664206C20F0020040F00100206400E089
:100A7000012584F83C60284670BD000010B586B0A2
:100A8000044614216846FFF7DDFC114920688842BE
:100A90001BD11048016841F480710160006800F4C6
:100AA000807005900B481438016841F00101016025
:100AB00000680321002200F00100059020208DE84D
:100AC00007000548694600F045FA06B010BD000071
:100AD0000020014044380240000002402DE9F0416E
:100AE000044600680D460027816849050BD58068DB
:100AF000C00508D5206C84F83C7040F020002064CC
:100B00000120BDE8F08100F05BFB064613E0681CA5
:100B100011D025B100F054FB801BA8420BD92068EE
:100B20000068800707D4206C84F83C7040F0040013
:100B300020640320E5E7206800688007E7D5216886
:100B40006FF012000860206C40F400702064206890
:100B5000816811F0405F13D1A16989B9C16A11F4AC
:100B6000700F02D0806840050AD4206C20F4807099
:100B70002064206CC00403D4206C40F00100206489
:100B80000020BEE718B50021009190F83C20012A12
:100B900007D0012280F83C2002689368DB0702D06E
:100BA00011E0022018BD94682F4B44F001049460BA
:100BB0002E4A1268B2FBF3F202EB420200E0521E30
:100BC0000092002AFBD103689A68D20741D0026CD8
:100BD00040F20164A24342F4807202645A685205F2
:100BE00005D5026C22F4005242F480520264026C79
:100BF000D20404D5426C22F00602426400E0416453
:100C00006FF022041A4A80F83C101C60D2F80413DA
:100C1000C90607D0016891420AD18B6813F0405F82
:100C200002D005E000680BE08B6843F080438B60E6
:100C3000D2F80413C90614D400680E49884210D1B2
:100C4000816811F0405F0CD1816841F08041816082
:100C500007E0016C41F010010164416C41F00101B9
:100C60004164002018BD000040420F002C0000200D
:100C70000020014000220140F0B590F85020012AE8
:100C80002ED001EB4102012580F85050022380F85C
:100C9000513000EBC202254C178E168DB2F834C0CD
:100CA000536A3F05203243EA064647EA4C570A2B6F
:100CB00046EA070616D0092B14D0137B46EA0363D5
:100CC0000029016813D0CE69A6431E43CE61016896
:100CD00013680B6151680A291BD0092919D01DE03E
:100CE0000220F0BDD36803F07F433343E8E74E6A48
:100CF000A6431E434E62016813688B6151680A293E
:100D000001D009290AD1D168026821F07F4191629E
:100D100004E0D168026821F07F411162002180F86F
:100D2000515080F850100846F0BD00000F0033FF0E
:100D300070B5040004D094F85100002510B106E00D
:100D4000012070BD204684F8505000F029F80220A0
:100D500084F85100D4E900030121026822F44032F2
:100D60001A4302602068A368426B22F007021A430C
:100D700042632068E368026C6FF30D021A43026459
:100D80002068228AA38A466B120542EA435226F45F
:100D900040131A434263656584F85110002070BD0A
:100DA00008B500680649884208D10648016841F440
:100DB00000010160006800F40000009008BD000020
:100DC00000B00240303802402DE9F041876D044602
:100DD00000F0F6F9064694F835000025022806D002
:100DE00080206065012084F83450BDE8F0812068DF
:100DF000016821F0160101602068416921F080013D
:100E00004161206C08B9A06C20B12068016821F014
:100E1000080101602068016821F0010101600CE017
:100E200000F0CEF9801B052807D920216165032039
:100E300084F8350084F83450D7E720680068C0078C
:100E4000EED194F85C203F2001219040B86084F8F6
:100E50003510002084F83450C7E790F83510022987
:100E600003D08021416501207047052180F83510AD
:100E70000068016821F00101016000207047000056
:100E800070B5044600F09CF90546601C02D0044889
:100E90000078044400F094F9401BA042FAD370BDDE
:100EA0002000002070B586B014216846FFF7CAFA0A
:100EB0002148016800293DD1012505601F480168CE
:100EC00041F001010160006802240C26694600F02F
:100ED000010005904FF63F008DE831001848CDE93C
:100EE000034600F037F80D2069468DE831001548BB
:100EF000CDE9034600F02EF848F2371069468DE838
:100F000031001148CDE9034600F024F84FF6837014
:100F100069468DE831000D48CDE9034600F01AF826
:100F20004CF2037069468DE831000948CDE903466B
:100F300000F010F806B070BD1000002038380240F4
:100F40000014024000080240001802400010024055
:100F5000000C02402DE9F84FDFF80CB20124032504
:100F60004FF00F0A00220BF1040E00BF0B6804FAC9
:100F700002F63340B34278D10F7907F00307012F0F
:100F800001D0022F1AD187684FEA4209D1F80CC06C
:100F900005FA09F827EA08070CFA09FC4CEA070CDD
:100FA000C0F808C0476891F804C0B743CCF3001CF0
:100FB0000CFA02FC4CEA070CC0F804C00E79F643A8
:100FC000B6070BD0C6684FEA420C8F6805FA0CF8DA
:100FD00026EA080607FA0CF73743C7600E7906F0D1
:100FE0000306022E12D1D6084FEA427800EB86069D
:100FF00000960F69D6F820904FEAD8660AFA06FCE8
:10100000B74029EA0C063743009E37620F7906681D
:101010004FEA420C07F0030705FA0CF807FA0CF741
:1010200026EA0806374307604E6816F4403F1CD096
:101030004E4E376847F480473760366822F0030821
:10104000970706F480460096494E3F0F4644B14646
:10105000D6F80868DFF81C810AFA07FC404526EA42
:101060000C0603D14FF0000C41E076E0DFF808C138
:10107000604502D14FF0010C39E0DFF800C1604556
:1010800002D14FF0020C32E0DFF8F4C0604502D12B
:101090004FF0030C2BE0DFF8ECC0604502D14FF0BD
:1010A000040C24E0DFF8E0C0604502D14FF0050CED
:1010B0001DE0DFF8D8C0604502D14FF0060C16E005
:1010C000DFF8CCC0604502D14FF0070C0FE0DFF82D
:1010D000C4C0604502D14FF0080C08E0DFF8B8C08A
:1010E000604502D14FF0090C01E04FF00A0C0CFAF8
:1010F00007FC4CEA060CC9F808C84F68DBF800602A
:10110000FF0226EA030600D51E437746CBF80060AF
:10111000D1F804C0DEF800605FEA8C2C26EA0306F2
:1011200000D51E43DFF840C03E60ACF1040C4F68B0
:10113000DCF80060BF0326EA030600D51E430A4F11
:10114000CCF80060083FD1F804C03E685FEACC3CB0
:1011500026EA030600D51E433E60521C102AFFF407
:1011600005AFBDE8F88F0000083C0140443802405C
:10117000003001400000024000040240000802402C
:10118000000C02400010024000140240001802400F
:10119000001C024000200240002402400069084078
:1011A00000D001207047426921EA02030A4043EA65
:1011B0000241816170470AB1816170470904FBE710
:1011C00001488068704700002000002002488168C4
:1011D000027811448160704720000020032010B580
:1011E00000F0EEF90F2000F005F800F0A3F9002060
:1011F00010BD000070B50D4D04464FF47A700C4AD6
:1012000029781268B0FBF1F0B2FBF0F000F0D4FFE7
:1012100048B9102C07D200222146501E00F0B0F928
:1012200000206C6070BD012070BD00002000002017
:101230002C0000202DE9F041044690F8A00016464D
:101240000F4601281DD0012584F8A050022084F803
:10125000A10006EB860000EBC600342204EB800000
:101260003830FFF7BDF832463946204602F068F8BC
:10127000216800204D6284F8A15084F8A000BDE8E8
:10128000F0810220FBE700002DE9F041040004D0CA
:1012900094F8A100002518B107E00120BDE8F08115
:1012A000204684F8A05000F06BF83448022184F8FE
:1012B000A110012202CC8B6923F070438B6194E86A
:1012C0004A001943E3681E4354F8043D31439E69C4
:1012D0003143996121688B6803408B602168A68A3D
:1012E000A7698B683B4343EA06438B602168CB6860
:1012F0000340CB602168A38B276ACE683E4346EA51
:101300000346CE6021680B6903400B612368A68CFD
:10131000A76A1969394341EA0641196121684B6995
:1013200003404B612068A38D266B4169314341EA3C
:1013300003414161236894F8351094F83600DE6A61
:10134000000406F07F46DE62236840EA012094F83C
:101350003460D96A31430143D9622068416B41F05E
:10136000060141632068816941F001018161C4F88F
:10137000A45084F8A120002090E7000000F800F0BD
:1013800070B5AAB00446142124A8FFF75BF8902199
:101390006846FFF757F837492068884268D1022429
:1013A000082000900025460368464FF4C6710322CA
:1013B000CDE905140123CDE90725CDE90A3600F072
:1013C0004FF908B1FFF77CF92B48016841F08061C3
:1013D0000160006800F08060299027481438016897
:1013E00041F480710160016801F480712991016804
:1013F00041F020010160016801F02001299101689C
:1014000041F080010160016801F0800129910168CB
:1014100041F040010160006824A90E2600F0400060
:10142000299040F2F76081E831001448CDE9274661
:10143000FFF790FD24A94FF4806081E83100104847
:10144000CDE92746FFF786FD24A94FF47E4081E8C9
:1014500031000C48CDE92746FFF77CFD24A94FF465
:101460000C6081E831000848CDE92746FFF772FD9E
:101470002AB070BD0068014044380240002002409C
:1014800000140240001C02400018024070B50446DF
:1014900090F8A0000E46012820D003EB830000EB5B
:1014A000C301012584F8A050022084F8A10004EBB8
:1014B00081018E63086E3044C1E90F02486E10440A
:1014C000486438311A46204601F03AFF216800206E
:1014D0004D6284F8A15084F8A00070BD022070BD58
:1014E00070B5044690F8A0000E46012820D003EB0A
:1014F000830000EBC301012584F8A050022084F88A
:10150000A10004EB8101886B3044C863086C10446F
:101510004864C1E9186238311A46204601F010FFCC
:10152000216800204D6284F8A15084F8A00070BDAD
:10153000022070BD0A4808B5016841F08051016081
:10154000006800F0805000900548001D016841F4DB
:1015500080410160006800F48040009008BD0000F8
:1015600040380240002809DB410900F01F028900D1
:10157000012001F1E0219040C1F800017047000016
:101580000E4BF0B41B680D46C3F30223C3F10706EC
:10159000042E00D90426191D072901D2002300E0DA
:1015A000DB1E012404FA06F19C40491E2940641EFA
:1015B000994014402143F0BC02F01DBE0CED00E048
:1015C000064900F0070210B54FF6FF040868044B07
:1015D000204040EA02201843086010BD0CED00E0F6
:1015E0000000FA051848F8B5016841F08051016023
:1015F0000068164C00F080500090206840F4803065
:101600002060FFF7DDFD4FF47A76054605E000BF68
:10161000FFF7D6FD401BB0420FD86068C003F7D576
:10162000206840F400302060FFF7CAFD054606E060
:10163000FFF7C6FD401BB04201D90320F8BD60682A
:101640008003F5D50020F8BD40380240007000400E
:101650000248016841F480710160704700700040E9
:101660002DE9F84F04460078DFF824944FF0000687
:101670003746C0070ED0D9F8001021F40001C9F890
:101680000010D9F80010626B1143C9F80010606BAC
:1016900000B90126FE4D2068843500030ED5E16BAC
:1016A000286820F4401008432860E06BB0F5801FE4
:1016B00001D010B102E0012600E0012720684FF4BC
:1016C000800BC0020CD5216C286820F44000084330
:1016D0002860206C584501D1012601E000B901279E
:1016E0002068C10100D50126800666D5E84838305B
:1016F000016841F0805101600068DFF898A300F0B4
:1017000080500090DAF8001041F48071CAF800109F
:10171000FFF756FD804605E0FFF752FDA0EB0800FD
:1017200064287DD8DAF80000C005F5D5DFF86083BD
:1017300008F16808D8F8000010F440702AD0218E13
:1017400001F44071814225D0D8F80010D8F800206B
:1017500021F4407142F48032C8F80020D8F800200B
:1017600022F48032C8F80020C8F80010D8F8000031
:10177000C0070FD0FFF724FD824607E0FFF720FDEA
:10178000A0EB0A0141F288308142CAD8D8F80000A3
:101790008007F3D5206BC0F3012103297ED0D9F84F
:1017A000001021F4F811C9F80010228ED8F80010AA
:1017B000C2F30B021143C8F800102078C00607D509
:1017C000286820F0807028602868A16B0843286092
:1017D0002188AF488830490405D5626E016821F43C
:1017E0004031114301602188090405D5A26E0168CA
:1017F00021F44021114301602168C90305D5E26E3F
:10180000016821F44011114301602168890305D565
:10181000226F016821F4400111430160217800E04A
:1018200034E1490605D5626C016821F003011143DA
:1018300001602178090605D5A26C016821F00C0130
:10184000114301602188C90505D5E26C016821F0CA
:101850003001114301602188890505D5226D016899
:1018600021F0C001114301602188490505D5626D51
:10187000016821F44071114301602188090505D5F3
:10188000A26D016821F44061114301602188C904FF
:1018900007D5E26D016821F4405100E068E0114392
:1018A00001602188890405D5226E016821F4404138
:1018B000114301602168490205D5A26F016821F03A
:1018C00080611143016021684FF0006A890209D5E7
:1018D000E26F016821F0006111430160E16F514541
:1018E00000D1012721680A0700D50127490305D542
:1018F000626F016821F040711143016021680902A3
:1019000006D5D4F88020016821F080511143016090
:101910002168490106D5D4F88420016821F00051DE
:10192000114301602068000106D5D4F888102868AA
:1019300020F00070084328602068C00006D5D4F865
:101940008C10286820F0806008432860DFF84891F8
:10195000012E02D0206880017ED5D9F800004E46C5
:1019600020F08060C9F80000FFF72AFC80460FE0F5
:101970004A4AD9F80030104023F4F8120243C9F85B
:10198000002012E7FFF71CFCA0EB080064287DD8BC
:1019900030680001F6D421783D487C30C90712D068
:1019A000616B81B9237A62680168D0F800C0920146
:1019B000C1F3014142EA0142CCF3036142EA016111
:1019C00041EA0371016021680A0303D5E26BB2F5B5
:1019D000801F04D0C9021AD5216C594517D16368FC
:1019E000016894F80CC002689B01C1F3014143EA0D
:1019F0000141C2F3027241EA0C6141EA02710160E5
:101A00002968626A21F01F01521E11432960216872
:101A1000C90110D5238A62680168D0F800C092011C
:101A2000C1F3036142EA034242EA0162CCF302716C
:101A300042EA01710160216889010CD56168228A3E
:101A4000237B94F808C0890141EA024141EA03611D
:101A500041EA0C71016000E011E03168B04641F0EC
:101A600080613160FFF7ACFB064604E0FFF7A8FB9E
:101A7000801B64280AD8D8F800000001F6D5E7B327
:101A8000D9F800004E4620F0805009E07BE00000CD
:101A9000083802400070004000380240FFFCFF0F91
:101AA000C9F80000FFF78CFB074604E0FFF788FB4E
:101AB000C01B642867D83068C0438000F6D5216811
:101AC00035480A0301D5E26B1AB1C9021DD5216C54
:101AD000D9B963690168277E02689B01C1F301419E
:101AE00043EA0143C2F3027143EA076242EA017129
:101AF000016029686FF0FF0300E04BE0A26A21F467
:101B0000F85103EB0222114329602168890212D5A2
:101B1000E16F51450FD1238C62690168076892011A
:101B2000C1F3036142EA034242EA0162C7F3027170
:101B300042EA017101602178090716D561690268DE
:101B4000D0F800C08B01277FC2F30362CCF30141C0
:101B500043EA014141EA026141EA077101602868F4
:101B6000E16A20F4403008432860306840F080503B
:101B70003060FFF725FB044608E000BFFFF720FBBD
:101B8000001B642802D90320BDE8F88F3068C043E9
:101B90008000F3D40020F7E7883802402DE9F047B1
:101BA00005000F4663D0444E306800F00F00B84285
:101BB00009D2306820F00F0038433060306800F000
:101BC0000F00B84253D128683C4C810712D540071A
:101BD00003D5206840F4E05020602878000703D542
:101BE000206840F460402060A968206820F0F00080
:101BF000084320602878C0072AD03049686808392F
:101C0000012810D00968022810D0890700292EDA8F
:101C1000216821F0030101432160FFF7D1FA8046DA
:101C200041F288390DE009688903EFE78901EDE7A2
:101C3000FFF7C6FAA0EB0801494502D90320BDE829
:101C4000F0876868216801F00C01B1EB800FEFD1DB
:101C5000306800F00F00B8420BD9306820F00F0058
:101C600038433060306800F00F00B84201D00120E6
:101C7000E5E72878400705D5E968206820F4E050BA
:101C8000084320602878000706D52869216821F4D8
:101C9000604141EAC000206000F038F82168084A3D
:101CA000C1F30311515CC84006490860064800684A
:101CB000FFF7A0FA0020C2E7003C024008380240CB
:101CC000368C00082C000020240000200449054820
:101CD00009680068044AC1F38221515CC84070471A
:101CE000083802402C000020468C000804490548B2
:101CF00009680068044AC1F34231515CC84070472A
:101D0000083802402C000020468C0008154910B508
:101D10001548096811F00C0213D01449042A0FD099
:101D2000082A0ED10F4C241F2268236802F03F02BC
:101D30005B0207D52068C0F38810A0FB010106E014
:101D4000084610BD2168C1F38811A1FB00010023E2
:101D5000FEF7C3FA2168C1F30141491C4900B0FBF9
:101D6000F1F010BD083802400024F40040787D01F5
:101D70002DE9F84F04004FF000076ED02078DFF80F
:101D80007CA3AAF10408C007A8F104054CD0DAF836
:101D900000105046C1F38101012908D00068C0F34A
:101DA000810002280AD1D8F80000400206D5286830
:101DB000800339D560680028DFD035E06068B0F571
:101DC000803F0BD010B1B0F5A02F11D0286820F4BF
:101DD00080302860286820F4802002E0286840F4E1
:101DE00080302860606890B1FFF7EAF906460AE0A3
:101DF000286840F480202860F0E700BFFFF7E0F992
:101E0000801B642872D828688003F7D50CE0FFF7A0
:101E1000D7F9064605E000BFFFF7D2F9801B64281A
:101E2000F0D828688003F7D42078800742D5DAF804
:101E30000010504611F00C0F08D00068C0F381006C
:101E400002280BD1D8F80000400207D42868800788
:101E500018D5E068012800D114E04AE1E0680028C4
:101E6000286817D040F001002860FFF7A9F906465E
:101E700005E000BFFFF7A4F9801B0228C2D828683C
:101E80008007F7D52069296821F0F80141EAC000F0
:101E900028600FE020F001002860FFF791F9064666
:101EA00005E000BFFFF78CF9801B02281ED82868C8
:101EB0008007F7D42078000729D5904861696C30F5
:101EC00000298146016812D041F001010160FFF74D
:101ED00077F9064605E000BFFFF772F9801B02287C
:101EE00004D8D9F800008007F6D510E089E021F089
:101EF00001010160FFF764F9064604E0FFF760F9AD
:101F0000801B02287DD8D9F800008007F6D42078FD
:101F100040076BD5DFF8E49109F13809D9F80000E2
:101F2000C0000BD4D9F8001041F08051C9F800105E
:101F3000D9F80000012700F0805000907048016837
:101F4000C90512D40168834641F480710160FFF72E
:101F500037F9064605E000BFFFF732F9801B642819
:101F60004FD8DBF80000C005F6D5644EA06868368F
:101F700001280AD008B1052811D0306820F00100EE
:101F80003060306820F0040002E0306840F001006A
:101F90003060A068A0B1FFF713F983460CE0306809
:101FA00040F004003060F0E7FFF70AF9A0EB0B0106
:101FB00041F28830814268D830688007F4D50EE05D
:101FC000FFF7FEF8834607E0FFF7FAF8A0EB0B01F6
:101FD00041F28830814258D830688007F4D42FB15C
:101FE000D9F8001021F08051C9F80010A069E0B3C1
:101FF000DAF80010C1F3810102294DD002282868C7
:1020000000E042E020F08070286003D0FFF7D8F8AD
:1020100004463DE0FFF7D4F8064604E0FFF7D0F8A9
:10202000801B022831D828688001F7D4D4E909211F
:10203000DFF8D0C0D4E9070694F830304F0894F8A0
:102040002C1030430CEB074444EA8212104340EA60
:10205000016040EA0370C8F80000286840F0807012
:102060002860FFF7ADF8044605E044E0FFF7A8F864
:10207000001B022809D828688001F7D53BE000BF83
:10208000FFF79EF8001B022802D90320BDE8F88F55
:1020900028688001F4D42EE00128D8F8000028D068
:1020A000E16900F480028A4223D1216A00F03F02F4
:1020B0008A421ED1626A47F6C0710140B1EB821FAD
:1020C00017D1A16A4FF0FF3200F4403302EB510107
:1020D000B3EB014F0DD194F82C1000F07062B2EB0D
:1020E000016F06D194F8301000F0E040B0EB017FB2
:1020F00001D00120CAE70020C8E7000008380240EC
:10210000007000400000FFFF70B504000D4603D0D2
:1021100094F82C0010B107E0012070BD002084F875
:102120002D00204600F011F8022084F82C002068D1
:10213000211DFEF7C7FAD4E900022946FEF714FB79
:10214000012084F82C00002070BDFEF7ABBE10B556
:10215000044690F82C00022804D094F82C000128A2
:1021600001D0012010BD022084F82C002068FEF769
:10217000DEFA012084F82C00002010BD70B5044662
:1021800090F82C000D46022804D0012803D0052821
:1021900001D0012070BD022084F82C002068FEF7D9
:1021A000CFFA2868022805D05FF0010084F82C00DF
:1021B000002070BD0520F9E7401EB0F1807F10B50A
:1021C00001D3012010BD4FF0E02460610F216017A2
:1021D00002F011F80020A0610721216110BD00006C
:1021E00010B586B0044614216846FEF72BF90E4957
:1021F0002068884215D10D48016841F00101016055
:1022000000680821012200F001000590022003234C
:102210000493CDE90010CDE9022005486946FEF798
:1022200099FE06B010BD0000004001403038024069
:102230000000024070B5044690F83C0000260D46B0
:1022400001280BD0012084F83C000C2A4AD007DC7E
:1022500082B1042A20D0082A06D131E0022070BDC4
:10226000102A53D0142A63D00126002084F83C00A1
:10227000304670BD206801F03BFC2068816941F068
:10228000080181612068816921F004018161206871
:102290002A698169114311E0206801F063FC20681C
:1022A000816941F4006181612068816921F4806164
:1022B000816120682969826942EA01218161D4E74C
:1022C000206801F08BFC2068C16941F00801C16100
:1022D0002068C16921F00401C16120682A69C169CF
:1022E000114311E0206801F0B5FC2068C16941F498
:1022F0000061C1612068C16921F48061C161206809
:102300002969C26942EA0121C161AEE7206801F092
:10231000CDFC2068416D41F0080141652068416DA8
:1023200021F00401416520682A69416D114311E0E3
:10233000206801F0E7FC2068416D41F400614165CF
:102340002068416D21F48061416520682969426DF2
:1023500042EA0121416588E710B5040003D094F8F2
:102360003D0010B107E0012010BD002084F83C00C2
:10237000204600F023F8022084F83D002068211D4B
:1023800001F042FB012084F8480084F83E0084F804
:102390003F0084F8400084F8410084F8420084F84B
:1023A000430084F8440084F8450084F8460084F82B
:1023B000470084F83D00002010BD000008B500680B
:1023C0000649884208D10648016841F4803101601D
:1023D000006800F48030009008BD0000004001401B
:1023E0004438024010B504464FF0020269B1042996
:1023F00012D0082917D00C291CD0102921D094F80C
:102400004300012824D0012010BD94F83E0001288B
:10241000F9D184F83E201DE094F83F000128F2D164
:1024200084F83F2016E094F840000128EBD184F8AE
:1024300040200FE094F841000128E4D184F84120C5
:1024400008E094F842000128DDD184F8422001E040
:1024500084F843200122206801F03CFB17492068E2
:10246000174A884201D0904203D1436C43F40043A1
:1024700043642068884213D0B0F1804F10D01149D6
:1024800088420DD0104988420AD01049884207D0AE
:10249000904205D00E49884202D00E49884207D1A9
:1024A00081680D4A1140062906D0B1F5803F03D05E
:1024B000016841F001010160002010BD00000140F1
:1024C000000401400004004000080040000C0040EF
:1024D00000400140001800400700010002464FF094
:1024E000000041B1042909D008290AD00C2901D1E2
:1024F0001068006C70471068406B70471068806B04
:1025000070471068C06B7047704770477047000095
:102510002DE9F04102680446002540F60F06D06917
:1025200011689368304205D186067DD58E067BD52D
:10253000616E1CE1994F03F001060F40374373D0E1
:10254000C70709D0CF0507D501271762D4F8802027
:1025500042F00102C4F8802082070AD5DA0708D0C9
:10256000276802223A62D4F8802042F00402C4F8BC
:10257000802042070AD5DA0708D0236804221A62AD
:10258000D4F8802042F00202C4F8802002070CD563
:1025900001F02002324308D0236808221A62D4F8DE
:1025A000802042F00802C4F8802002050BD54A01C1
:1025B00009D523684FF400621A62D4F8802042F0F3
:1025C0002002C4F88020D4F88020002A36D080066B
:1025D00005D5880603D5616E09B120468847216874
:1025E000D4F880008968490602D410F0280F27D05B
:1025F000204601F055FC2068806840061BD5206805
:10260000083050E8001F21F0400140E80012002A85
:10261000F5D1206F78B162490165206FFEF71DFC8E
:1026200000280BD0206F00E010E0016D00E0204694
:10263000BDE8F04108472046FFF768FFBDE8F0819C
:102640002046FFF763FFC4F88050F7E7276E202687
:10265000012F7CD1C7067AD5CF0678D5102010621D
:1026600020688068400641D5216F086840680004F2
:10267000000CE3D0B4F858208242DFD9A4F85A0005
:10268000C869B0F5807F2AD0216851E8000F20F496
:10269000807041E80002002AF6D12068083050E836
:1026A000001F21F0010140E80012002AF5D1206846
:1026B000083050E8001F21F0400140E80012002AD5
:1026C000F5D1E6672566216851E8000F20F010007B
:1026D00041E80002002AF6D1206FFEF775FBB4F83E
:1026E0005800B4F85A10401A81B22BE0B4F85800E0
:1026F000B4F85A10B4F85A20401A81B2002A9DD07A
:1027000000299BD0206850E8002F22F4907240E806
:102710000023002BF6D1206800F1080050E8002FBC
:1027200022F0010240E80023002BF4D1E667256681
:102730006566206850E8002F22F0100240E8002370
:10274000002BF6D12046FFF7DFFE77E7FFE7C70251
:1027500008D55B0206D54FF4801010622046FFF7C3
:10276000D4FE6BE7020606D50A0604D5A16E002941
:102770007FF45DAF62E74006E7D54806E5D5204621
:10278000026852E8001F21F0400142E80013002BCC
:10279000F6D18667856600F083F84FE720010004D4
:1027A0008D3E000810B5040002D0A06F10B107E004
:1027B000012010BD002084F87400204600F026F8A7
:1027C0002420A0672068016821F0010101602046F3
:1027D00001F08CFB0128ECD0606A10B1204601F0BA
:1027E000C3FA2068416821F4904141602068816803
:1027F00021F02A0181602068016841F00101016037
:102800002046BDE8104001F013BB000010B5AAB08F
:102810000446142124A8FDF715FE90216846FDF713
:1028200011FE1C492068884232D1402000900021CE
:1028300068461191FEF714FF08B1FDF741FF1648F5
:10284000016841F010010160006800F0100029905B
:1028500011481438016841F001010160006801224B
:102860004FF4C06100F00100299002200723289353
:10287000CDE92410CDE92620084824A9FEF76AFBFB
:10288000002225201146FEF77BFE2520FEF76AFE7A
:102890002AB010BD00100140443802400000024040
:1028A0007047FEE72DE9F047314C0128DFF8C4807E
:1028B0004FF40057DFF8C0904FF001062F4D1DD0A8
:1028C0002078A0B108212846FEF768FCC0B1042199
:1028D0002846FEF763FC98B139464046FEF75EFC99
:1028E00070B101214846FEF759FC012808D00821A3
:1028F0002846FEF753FC012826D037E02670E1E792
:102900000A20FEF7BDFA0020207008212846FEF7B5
:1029100045FC80B104212846FEF740FC70B13946E1
:102920004046FEF73BFC58B101214846FEF736FC15
:10293000012807D01AE00120BDE8F0870220FBE75C
:102940000320F9E70420F7E704212846FEF726FCD8
:1029500001280BD139464046FEF720FC012805D15D
:1029600001214846FEF71AFC00B926700020E3E773
:102970000C0000200008024000000240001C024041
:1029800070B506460E480D4900240268088822B139
:102990003046BDE8704000F003BC4D88002145433F
:1029A000084600F071FA00F0E9FBB0B2054901E019
:1029B0000880641CAC42FBD370BD000030000020D6
:1029C000BC010020000008602DE9F05F394C3A4D51
:1029D000A071296839B100F0F3FBE88A2080288BC8
:1029E0006080BDE8F09F002832484FF4305E4FF021
:1029F000F00C4FF4487649F241384FF4A0774FF08D
:102A00002C0280884FF4F0714FF02A034FF02B0511
:102A100045F2105B45F210390BD027804045BA468D
:102A2000A4F802C001D0484527D122816381A58145
:102A300035E0A4F800C04045678001D0484507D183
:102A4000228148456381A5812ED1278061802BE0BA
:102A5000584508D1A4F808E04FF4285363814FF497
:102A60002C50A08106E0A0F5C857633F1CD12281FD
:102A70006581A3812180668016E0584506D14FF418
:102A80002853A4F808E04FF42C5504E0A0F5C857EB
:102A9000633F04D122816381A581268061804845FE
:102AA00002D12180A4F802A00020BDE8F05F00F070
:102AB0000FB9000030000020BC0100202DE9F041DA
:102AC000044638480E46006820B12046BDE8F04173
:102AD00000F088BB344D270A4FEA16282846A988FB
:102AE0004089A1F51343413B0BD0A1F5A643103B10
:102AF00007D0B3F5007310D0A1F5C853633B25D0C0
:102B000048E000F02FFB384600F020FBE0B200F078
:102B10001DFBA88900F026FB36E000F023FB3846B9
:102B200000F014FB6889401C80B200F01BFBE0B28F
:102B300000F00CFBA88900F015FB404600F006FBF6
:102B4000A889401C80B200F00DFB20E0A97919B9DA
:102B50002988091B491E8CB200F004FB270A38465D
:102B600000F0F4FAE0B200F0F1FA384600F0EEFAC4
:102B7000E0B200F0EBFAA88900F0F4FA404600F069
:102B8000E5FAF0B200F0E2FA404600F0DFFAF0B207
:102B900000F0DCFA054928898B1C08801A80BDE802
:102BA000F0810000BC01002030000020FEFF076023
:102BB0002DE9FF473B4C4FF4F0734FF44872DFF8B8
:102BC000F0903025DFF8E0C05827DFF8EC80C4E94A
:102BD00000232581032565812025A7812826334FE1
:102BE0000D21E58102202682002561822F26E061E9
:102BF00087213A8022227B802E4F2F4BC9F800700C
:102C00002D4FC3F800C040F2A733DFF8ACC07D60A1
:102C1000BD60FD6040F20227CCF8105040F2CF3C7E
:102C2000C8F8146040F20F26C8F818004046C16189
:102C3000026243628762C0F82CC0066380F8365097
:102C400080F8355080F83450FEF71EFB062007212F
:102C5000CDE90215CDE90050D9F80010FF2302227A
:102C6000002000F037FB002340461A461946FEF7C5
:102C70000DFC00234046D4E90012FEF731FC002091
:102C8000FFF7A2FE002000F055FB0C480122202196
:102C9000FEF791FA04B04FF6FF70BDE8F047FFF77A
:102CA0006FBE0000BC010020006801403000002021
:102CB00018000020000000C01401002000040240A1
:102CC0000246012000E050434B1ED9B2FBD27047B0
:102CD000F0B56C4C002541F663172146A27989882E
:102CE000012A01D01AB11BE0B94202D118E0B94261
:102CF00016D1082814D2DFE800F00406080A0C0EEA
:102D0000101206200CE007200AE0042008E005204D
:102D100006E0012004E0002002E0032000E00220A1
:102D200045F21032A1F5134345F21056413B05D050
:102D3000914203D0B14201D0B94277D1082812D2D2
:102D4000DFE800F0110406080A0C0E1080250AE0E6
:102D5000402508E0C02506E0202504E0602502E0CB
:102D6000A02500E0E025B14202D14FF4585000E028
:102D70003620914205D0B14203D0B94201D045F08E
:102D80000805294600F004FAA188B9420AD06288F1
:102D9000A806208802D5904202D303E0904201D9D0
:102DA00022806080B142608941D100F0DBF90020CF
:102DB00000F0CCF96089401C80B200F0D3F900200B
:102DC00000F0C4F96089801C80B200F0CBF9208843
:102DD000401EC0F30F2000F0B9F96089C01C80B21A
:102DE00000F0C0F92078401EC0B200F0AFF9A08911
:102DF00000F0B8F9002000F0A9F9A089401C80B2C9
:102E000000F0B0F9002000F0A1F9A089801C80B288
:102E100000F0A8F96088401EC0F30F2000F096F97A
:102E2000A089C01C80B200F09DF922E028E000F0EB
:102E300099F9002000F08AF9002000F087F9208835
:102E4000401EC0F30F2000F081F92078401EC0B270
:102E500000F07CF9A08900F085F9002000F076F9F7
:102E6000002000F073F96088401EC0F30F2000F0CE
:102E70006DF9A078BDE8F040401EC0B200F066B920
:102E8000F0BD000030000020F0B53F4A060A0446BD
:102E90000D4610460F0A91884089A1F51343413B26
:102EA00028D0A1F5A643103B24D0A1F5C853633B1D
:102EB0002FD0A1F5AA43103B64D100F053F930465E
:102EC00000F044F95089401C80B200F04BF9E0B2A8
:102ED00000F03CF9908900F045F9384600F036F9E9
:102EE0009089401C80B200F03DF9E8B2BDE8F040A6
:102EF00000F02CB900F036F9304600F027F9E0B2C6
:102F000000F024F9908900F02DF9384600F01EF900
:102F1000EBE7917929B300F025F9304600F016F976
:102F2000E0B200F013F91088401EC0F30F2000F04B
:102F30000DF91078401EC0B200F008F9908900F039
:102F400011F9384600F002F9E8B200F0FFF85088B5
:102F5000401EC0F30F2000F0F9F89078401EC0B278
:102F6000C4E71188091B491E8CB200F0FBF8002051
:102F700000F0ECF8002000F0E9F8200A00F0E6F894
:102F8000E0B2D9E7F0BD0000300000202DE9FF5F7E
:102F900058071D460C468A4600D00120DFF8B8B01D
:102FA000690800EBD500002610FB01F1203A01F082
:102FB000FF09D0B202904BE00C2D11D0102D14D08F
:102FC000182D17D0202D45D10298244901EBC010AF
:102FD0004FF00008875D380613D52148026814E0D9
:102FE0000298204900EB400008E002981E4901EBDE
:102FF0000010EDE702981D4900EBC00001EB8000D6
:10300000E6E70E9828B91648426821460098FFF76F
:1030100055FD7906BBF80200641CA4B20F0EA04255
:1030200018D9A4EB0A00A84209D100985446BBF86D
:103030000010401C80B2009081420BD906E008F1DC
:10304000010000F0FF08B8F1080FC4D3761CF6B2F7
:103050004E45B1D3BDE8FF9F30000020B65C0008AC
:1030600000000020F64400086A4900085A4F000892
:103070002DE9F84F0D46044658194FF0000A111972
:1030800087B21FFA81F8DDE90AB604F0FF0912E001
:10309000444503D305EB0B004C4685B2BD420FD22D
:1030A0005B4629462046CDF800A0FFF76FFF04EBF2
:1030B0005B0084B2761C3278A2F120005E28E7D94A
:1030C000BDE8F88F2DE9FF4F81B04FF000081E4694
:1030D00081464446DDE90EBA0AF001054FEA5B0776
:1030E0002CE0301B401EC1B20A20FFF7E9FD039916
:1030F0000A22B8F1000FB1FBF0F1B1FBF2F302FBD1
:10310000131005D1711E8C4202DA48B14FF001084C
:103110005B4607FB049130300095C2B288B208E0EC
:103120005FEA0A605B4607FB0490009580B20AD50F
:1031300030220299FFF72AFF641CE4B2B442D0D3D4
:1031400005B0BDE8F08F2022F3E7000001B5BDF81F
:1031500000100348ADF80010BDF80010018008BD54
:103160000000086001B5BDF800100348ADF800107C
:10317000BDF80010018008BDFEFF0760024803494A
:10318000008908807047000030000020FEFF0760C3
:10319000024B9A1C1880118070470000FEFF0760E8
:1031A00008B500900548018BC08A491E8BB2401EAD
:1031B00082B20021084600F033F808BDBC010020AF
:1031C00007490A464875938812889BB292B220B18B
:1031D000012801D1CA820B837047CB820A837047D2
:1031E000BC010020F0B50C4C95B2DFF830C023468E
:1031F000677D1E7DDA691B685CF8266027B103FBDA
:1032000001004243B552F0BD6468201A401E03FB22
:10321000001050433552F0BDBC01002018000020C2
:103220002DE9F047274D0027DDF820A06C7D14B173
:103230000446164606E01E466B680C46991A1B1A91
:10324000491E5B1E2868DFF88090321B861A95F8AD
:1032500014C000FB0144591AD9F80030DFF870801F
:10326000761EED69194858F82C8043F4000C05FBD4
:103270000484B3B2C9F800C04FF44036066002259A
:1032800045630364ED030368491C05EB02421143E7
:1032900023F001020260C4634164C0F838A00268F0
:1032A000690142F00102026002E07F1C8F4202D2FB
:1032B00042689207F9D5816841F002018160BDE85A
:1032C000F0870000BC0100203038024000B002400E
:1032D000180000202DE9F0438DB0144D1446002253
:1032E000DDE916C7DDE91498009202924FEA0C2C32
:1032F0002E6801964FEA08286D68CDE904430395CE
:103300004B460B95CDE9091606AE694686E80811CD
:103310008DF832208DF83120024605488DF8307046
:10332000FDF788FF0DB0BDE8F0830000BC01002070
:10333000140100200149087570470000BC010020FD
:103340002DE9FE4F81460068882493468D888C22A3
:1033500004EBCB178A46C3689421BE46C459C3F315
:103360000B432B4404F470441F04019702EBCB126F
:1033700040F80E4001EBCB13DAF800709C214FF0BF
:10338000AC0C01EBCB1440F2077102910CEBCB11AA
:10339000D9F800C098250020CDF800C0A02605EB84
:1033A000CB15DCF80CC006EBCB16CCF30B4C0CF1B8
:1033B000010C07EB0C08DDF800C0019F48EA070884
:1033C0004CF80E80D9F80070BAF80CC0B846FF6807
:1033D000C7F30A0767444FEA074E58F8027007F42C
:1033E000704C48F802C0D9F800C0DAF80870DCF870
:1033F0000C80C8F30A0808F10108B84448EA0E082E
:103400004CF80280D9F80020D75827F00707D7508A
:10341000D9F80070DAF81020FA509AF831209AF8AA
:1034200018304FEA022C9AF83220120442EA036262
:10343000D9F800301F5918519AF8303043EA0C037C
:103440001343D9F800201351D9F80020535923F021
:10345000FF035351D9F80020DAF814305351D9F84A
:1034600000209359029CA3439351D9F80030DAE924
:10347000072422439A51D9F8002053585050D9F8C4
:103480000020DAF824005050DAF81000C8B3012800
:103490003AD004283AD0022838D0032836D007285A
:1034A00034D00120D9F80030B02505EBCB11B4227F
:1034B00084245D5802EBCB1205F0E0255D50DAE97B
:1034C000003504EBCB14EB1ABAF8285043434543BC
:1034D000D9F80000DB1C43EA05434350D9F800004B
:1034E00081586FF30A018150D9F80000DAF82C10E6
:1034F0008150D9F80000015941F001010151BDE8A6
:10350000FE8FFFE70420CDE70320CBE70220C9E7C9
:103510001FB516480021144A01240091019123048B
:10352000029103910260C0E9013101618161104A99
:1035300080F82010C0E90A21C461C16080F8301011
:103540004461FDF770FA08B1FDF7BAF807210520CC
:1035500000900648CDE901416946FDF781F9002850
:1035600001D0FDF7ADF81FBD002001404000002054
:103570000100000F104802220E4B002110B503601D
:10358000C0E90112C160C0E90E12016441648164A6
:10359000C164FDF7CDFB08B1FDF792F806480121A3
:1035A000FDF76AFB002803D0BDE81040FDF788B89E
:1035B00010BD000000B0024088000020F0B587B0C8
:1035C0001C216846FCF73EFF164800250822144FD0
:1035D00001264FF0400E0221C0E90075C0E90262E9
:1035E000102404610C03C0F814E04FF4C07CC0E95F
:1035F00006C58F020762CE020623C0E909648DE882
:103600000E0004250393CDE9045106916946FEF7A7
:103610007BFD002801D0FDF753F807B0F0BD000096
:10362000400100A0E0000020F0B587B014216846FA
:10363000FCF708FF3B48016841F0040101600168A4
:1036400001F004010591016841F480710160016895
:1036500001F480710591016841F020010160016869
:1036600001F020010591016841F0800101600168CD
:1036700001F080010591016841F0010101600168DC
:1036800001F001010591016841F00201016001684A
:1036900001F002010591016841F0400101600168FB
:1036A00001F040010591016841F0100101600168DD
:1036B00001F010010591016841F008010160006806
:1036C0000122194F032100F0080005903846FDF74C
:1036D00072FD002238462021FDF76DFD0025694668
:1036E000012402946003CDE900051048FDF732FC87
:1036F00002260F488DE870006946FDF72BFC0C2070
:103700006946CDE900050B480294FDF723FC232010
:103710006946CDE90004CDE902463846FDF71AFCBA
:1037200007B0F0BD303802400004024000080240FB
:1037300000000240001C0240F0B59BB034216846F6
:10374000FCF780FE34210DA8FCF77CFE34480024F1
:10375000324B2F21022540F2A736872240F2022762
:1037600003602223446040F2CF3C846040F20F2E7D
:103770008561C460C0E9044100F11C0181E8CC50BE
:1037800080F8344080F8354080F83640FDF77CFD05
:1037900008B1FCF795FF4FF4487004954FF4F071B1
:1037A000FF22CDE90040CDE90A0107A8CDE9024199
:1037B00007264F066946CDE905244FF4C06380E82B
:1037C000C8008DF8304000228DF8314014488DF843
:1037D0003240FDF72FFD08B1FCF772FF4FF4806017
:1037E0000D94CDE910450E9405210F9401221294F9
:1037F000CDE91340CDE915148DF864400DA98DF87D
:1038000065400748179418948DF86640FDF712FD3F
:10381000002801D0FCF754FF1BB0F0BD0068014048
:10382000DC01002010B588B01C216846FCF70AFEB8
:103830001348FF210024114B0122C0E90241046119
:103840008461C0E90032FEF787FD08B1FCF738FF5C
:1038500060207F218DE81300094804226946049402
:10386000FEF7E8FC08B1FCF72BFF05480421FEF742
:10387000B9FD0348FEF7B4FC08B010BD004001409C
:10388000840200200D48002110B50B4C0C224FF48F
:10389000E1330460C0E90131C160C0E90412816113
:1038A000C16101624162FEF77DFF002803D0BDE8DF
:1038B0001040FCF705BF10BD00100140D0020020F1
:1038C000FEE7FEE77047000000230122184611467C
:1038D00010B500F01FF80120FDF7D2FA00230122F5
:1038E0001846022100F016F800230822184603218A
:1038F00000F010F80122042100204FF40C7300F0B6
:1039000009F8BDE81040024840F23731FEF71FBC0D
:10391000E00000201FB54FF0000410B1012802D0D4
:1039200002E0102400E008240748CDE902234FF408
:103930008052CDE900146946FEF720FC002800D033
:10394000012004B010BD0000E00000207047FDF72A
:103950003DBC000030B593B034216846FCF772FDE1
:1039600014210DA8FCF76EFDFDF772FE20480168DA
:1039700041F080510160006800F0805012901D48B5
:10398000016841F44041016000680224192300F4F9
:1039900040401290012008934FF4D875820501042D
:1039A000CDE90642CDE909540B94CDE90001684602
:1039B0000C94FEF7DDF908B172B6FEE7FDF712FED2
:1039C00008B172B6FEE70FAD00214FF4A0524FF4DC
:1039D000805385E80E000F20CDE90D0407210DA8C6
:1039E000FEF7DCF8002801D072B6FEE713B030BD58
:1039F00040380240007000400248016841F4700104
:103A00000160704788ED00E0F0B5274B4FF0804E25
:103A1000264D02689842264E264F274C09D0704505
:103A200007D0A84205D0B04203D0B84201D0A0428E
:103A300005D1D1F804C022F070024CEA020298428B
:103A40001BD0704519D0A84217D0B04215D0B8424B
:103A500013D0A04211D0194DA8420ED0184DA84243
:103A60000BD0184DA84208D0174DA84205D0174DCD
:103A7000A84202D0164DA84203D1CD6822F440726C
:103A80002A434D6922F080022A43026098428A68E4
:103A9000C2620A68826201D0A04201D10969016351
:103AA00001214161F0BD0000000001400004004020
:103AB00000080040000C00400004014000400140AC
:103AC000004401400048014000180040001C004034
:103AD0000020004010B5046A012301F01F018B4053
:103AE0009C4304628A40016A1143016210BD0000D8
:103AF000F0B5026ADFF860C0184F22F00102DFF86B
:103B000060E00262066A4268836926F002060D6878
:103B1000B8428C6803EA0C0323F0030344EA06046A
:103B200045EA030501D0704505D1CB6824F00804AF
:103B3000234323F00404B84201D0704505D122F498
:103B40004076D1E9053233431A43426085614968C2
:103B500041630462F0BD00008FFFFEFF00000140E2
:103B600000040140F0B5026A194E1A4C22F010020E
:103B7000DFF864E00262056A4368826925F0200587
:103B8000D1F808C0A0420F6802EA060222F440728F
:103B900045EA0C1542EA072201D0704506D1CE68ED
:103BA00025F0800545EA061525F04005A04201D024
:103BB000704507D1D1E9054623F4406343EA840305
:103BC00043EA860343608261496881630562F0BD10
:103BD000FF8FFFFE0000014000040140F0B5026AC3
:103BE000194F1A4E22F48072DFF864E00262056A0F
:103BF0004368C26925F40075D1F808C0B0420C686A
:103C000002EA070222F0030245EA0C2544EA020414
:103C100001D0704506D1CF6825F4006242EA072240
:103C200022F48065B04201D0704507D123F44052A0
:103C3000D1E9053642EA031242EA06134360C46141
:103C40004968C1630562F0BD8FFFFEFF00000140BF
:103C500000040140F0B5026A124B114F22F4805269
:103C600098420262046A4268C36924F400548E6870
:103C70000D6803EA070323F4407344EA063443EA79
:103C8000052302D0084DA84204D14D6922F4804298
:103C900042EA85124260C361496801640462F0BD72
:103CA000FF8FFFFE0000014000040140F0B5026AF2
:103CB000DFF844C022F480320262056A4268446D33
:103CC00025F400350E8960450C4F0B6804EA0704A3
:103CD00045EA064543EA040302D0094CA04204D158
:103CE0004C6922F4803242EA04224260436549680A
:103CF00081650562F0BD0000000001408FFFFEFFFE
:103D000000040140F0B5026ADFF844C022F48012DA
:103D10000262046A4268436D24F400140E8960450F
:103D20000C4F0D6803EA070344EA065443EA0523EF
:103D300002D0094DA84204D14D6922F4802242EA02
:103D40008522426043654968C1650462F0BD000098
:103D500000000140FF8FFFFE00040140014988631D
:103D6000704700000040014090F82410C90706D0B9
:103D70000168836A4A6822F400321A434A6090F864
:103D80002410890706D50168C36A4A6822F4803284
:103D90001A434A6090F82410490706D50168036B5E
:103DA0004A6822F480221A434A6090F824100907D6
:103DB00006D50168436B4A6822F400421A434A6000
:103DC00090F82410C90606D50168836B8A6822F42E
:103DD00080521A438A6090F82410890606D501683B
:103DE000C36B8A6822F400521A438A6090F8241048
:103DF000490611D50168036C4A6822F480121A43FF
:103E00004A60016CB1F5801F06D10168436C4A68B5
:103E100022F4C0021A434A6090F82410090606D51D
:103E20000168826C486820F40020104348607047A5
:103E3000F8B500260446C0F88060FDF7C1F90546D4
:103E400020686FF07E470068000708D500222B46E7
:103E50004FF400112046009700F060F960B9206827
:103E6000006840070AD500222B464FF48001204607
:103E7000009700F053F908B10320F8BD2020A06797
:103E8000E0672666002084F87460F8BD10B5806B8A
:103E90000021A0F85A10A0F85210FEF737FB10BD11
:103EA000016851E8002F22F4907241E80023002BB2
:103EB000F6D10168083151E8002F22F0010241E8F3
:103EC0000023002BF5D1016E012908D1026852E8C8
:103ED000001F21F0100142E80013002BF6D1002151
:103EE0002022C26701664166704700002DE9F0415B
:103EF00004460368C2698168D4E90450DFF8F0C160
:103F00007C4E29431F68002510437B4A014307EA82
:103F10000C070F431F604FF400402168E7684B68AF
:103F200023F440533B434B602768A369216AD7F8C9
:103F300008C019432CF430630B43BB602168B142C5
:103F40000AD1116811F0030152D001297CD0022955
:103F500071D003296ED184E0684B99420AD111686F
:103F600011F00C0167D0042965D0082975D00C29FF
:103F700060D176E0624B99420AD1116811F03001AC
:103F800059D010296BD0202967D0302952D168E050
:103F90005C4B99420AD1116811F0C0014BD0402905
:103FA0005DD0802959D0C02944D15AE0564B99425E
:103FB0000DD1116811F440713DD0B1F5807F4ED024
:103FC000B1F5007F49D0B1F5407F33D149E04F4B87
:103FD00099420FD1116811F4406109D0B1F5806F99
:103FE0003DD0B1F5006F38D0B1F5406F22D138E047
:103FF000012120E0464B99420DD1116811F4405146
:1040000019D0B1F5805F2AD0B1F5005F25D0B1F5A8
:10401000405F0FD125E03F4B99420BD1116811F45D
:10402000404108D0B1F5804F19D0814215D0B1F58B
:10403000404F16D01021E369374A4FF6EF7683429E
:104040002ED1092949D201E009E006E0DFE801F0BC
:104050000B0E11451345454516000221EBE70421DF
:10406000E9E70821E7E7FDF731FE06E0FDF73EFE50
:1040700003E0104602E0FDF749FE78B361684000B6
:1040800000EB5100B0FBF1F0A0F11001B14224D8D7
:104090004FF6F0732168C0F342021840104320E04D
:1040A00009291AD2DFE801F005080B190D191919B1
:1040B0001000FDF70BFE06E0FDF718FE03E01046CA
:1040C00002E0FDF723FE48B1616800EB5100B0FB50
:1040D000F1F0A0F11001B14201D9012502E02168FF
:1040E00080B2C86000206066A0662846BDE8F08106
:1040F000F369FFEF00100140903802400044004097
:1041000000480040004C00400050004000140140B6
:1041100000780040007C00400024F4002DE9F047C6
:104120009A4617460E460446089D4FF000094FF088
:1041300020084CE0681C4AD0FDF742F8A0EB0A00CA
:10414000A8422AD84DB32068016849073FD5C06905
:10415000C04300053BD421684FF400600862216829
:1041600051E8000F20F4D07041E80002002AF6D197
:104170002068083050E8001F21F0010140E80012DB
:10418000002AF5D1C4F8788084F87490C4F87C8053
:10419000C4F880800320BDE8F087206850E8001F45
:1041A00021F4D07140E80012002AF6D120680830CE
:1041B00050E8001F21F0010140E80012002AF5D16B
:1041C000C4F8788084F87490C4F87C80E2E72068B2
:1041D000C06936EA000004D00020B842AAD000200E
:1041E000D9E70120F9E700000148FEF791B9000086
:1041F000D0020020FEE7090700284FEA116104DB26
:1042000000F1E02080F80014704700F00F0000F18A
:10421000E02080F8141D7047704700000349CA6908
:104220005206FCD5C2B28A627047000000100140FD
:1042300000262DED028B82B03546FCF7CFFFFFF74D
:1042400089FBFFF7F1F9FFF795F9FFF7B7F9FFF7EA
:1042500073FAFFF717FBFFF75BF9FFF7E3FAFFF7D6
:10426000ADF97748FFF730FBFFF766FAFEF7A0FCE1
:1042700074A0FCF7A9F8764F76A110244FF478408B
:104280002346C82238601E20CDE900413221FEF7C6
:10429000EFFE75A01023C822CDE9004046211E2064
:1042A000FEF7E6FE74A01023C822CDE900405A2193
:1042B0001E20FEF7DDFE74A01023C822CDE90040C9
:1042C0006E211E20FEF7D4FE72A01023C822CDE975
:1042D000004082211E20FEF7CBFE72A11F20386015
:1042E0001023CDE90041C82296211E20FEF7C0FE12
:1042F0006FA01023C822CDE90040AA211E20FEF79E
:10430000B7FE6FA01023C822CDE90040BE211E20B9
:10431000FEF7AEFE2846FFF721FD761C0020F6B220
:10432000FEF7C0FA0428074602D0022F04D00CE0A2
:10433000FA2D07D20A3502E00A2D02D90A3DADB2A4
:1043400000E000252846FFF709FD0A2E03D0022FC2
:1043500001D0042F6FD15E480421FEF7BFF800267C
:1043600087B203233A4696215E20CDE90046FEF748
:10437000A9FE00EE107A9FED571B0123B8EE400B0B
:10438000AA21CDE9004620EE010BB7EEC08BBCEEB2
:10439000C80A10EE100A10EE102A87B25E20FEF74F
:1043A00091FE00EE107ADFED4D8A8027B8EE400ACC
:1043B0000323AA216E2038EE400ACDE9004720EE03
:1043C000280ABCEEC00A10EE102AFEF77BFE14206D
:1043D000FCF732FA00EE100A9FED411B3146B8EEB1
:1043E000400B0123CDE90041BE2120EE010BB7EEC9
:1043F000C08BBCEEC80A10EE100A10EE102A86B26E
:104400005E20FEF75FFE00EE106A0323BE21B8EEC9
:10441000400A6E20CDE9004738EE400A20EE280A17
:10442000BCEEC00A10EE102AFEF74CFE2E48002605
:104430000221FCF7B8FE0A20FCF722FD6DE7000020
:10444000E0000020B3F5CABCBBAFCDEAB1CF00009D
:104450000000002041706F6C6C6F2053544D33325C
:1044600046342F463700000050574D20414443202A
:10447000544553540000000041544F4D40414C49B5
:10448000454E54454B000000323032322F382F3920
:1044900000000000574B5F55503A2B20204B4559E8
:1044A000313A2D004441432056414C3A000000006F
:1044B00044414320564F4C3A302E303030560000A5
:1044C00041444320564F4C3A302E30303056000095
:1044D000840200206666666666668A3F00007A444B
:1044E0006666666666664A3F000402404FF04070AA
:1044F000E1EE100A7047000000000000000000001C
:104500000000000000003F4000000000000000002C
:104510003000400030004000000009000BC03D00AA
:104520000BC03D00090018C024407FE022403180CC
:104530000000180024C01B000D8032400180038061
:104540001C4027401C800740004010006000000015
:104550000000000000000000000000001F8020405C
:1045600040200000402020401F8000000000090083
:1045700006001F80060009000000040004003F80C0
:1045800004000400000000100060000000000000B3
:104590000000040004000400040004000000000007
:1045A00000400000000000000000002001C00600E4
:1045B0003800400000001F802040204020401F8025
:1045C0000000000010403FC000400000000018C084
:1045D0002140224024401840000010802040244008
:1045E00024401B80000002000D0011003FC001406C
:1045F00000003C80244024402440238000001F8091
:10460000244024403440038000003000200027C0B4
:104610003800200000001B802440244024401B80E0
:1046200000001C0022C0224022401F800000000029
:1046300000000840000000000000000000000460CE
:10464000000000000000000004000A0011002080AB
:1046500040400900090009000900090000000000AD
:104660004040208011000A00040018002000234070
:104670002400180000001F802040274029401F40D0
:104680000000004007C039000F0001C0004020407A
:104690003FC0244024401B8000001F802040204059
:1046A00020403080000020403FC0204020401F803C
:1046B000000020403FC024402E4030C00000204079
:1046C0003FC024402E00300000000F00108020402A
:1046D00022403380020020403FC0040004003FC05D
:1046E0002040204020403FC020402040000000608B
:1046F000202020203FC02000200020403FC0244038
:104700000B0030C0204020403FC02040004000400F
:1047100000C03FC03C0003C03C003FC00000204040
:104720003FC00C4023003FC020001F80204020409D
:1047300020401F80000020403FC02440240018007B
:1047400000001F802140214020E01FA000002040E9
:104750003FC02440260019C0004018C02440244017
:10476000224031800000300020403FC02040300017
:10477000000020003F80004000403F8020002000DB
:104780003E0001C0070038002000380007C03C0090
:1047900007C038000000204039C0060039C0204062
:1047A00000002000384007C03840200000003040A2
:1047B00021C02640384020C00000000000007FE0FB
:1047C000402040200000000070000C0003800040EA
:1047D00000000000402040207FE0000000000000BA
:1047E0002000400020000000000000100010001019
:1047F0000010001000100000000040000000000049
:104800000000000002800540054003C00040200079
:104810003FC00440044003800000000003800440C7
:1048200004400640000000000380044024403FC0D4
:1048300000400000038005400540034000000000E8
:1048400004401FC0244024402000000002E0055026
:1048500005500650042020403FC00440040003C01F
:1048600000400000044027C000400000000000108D
:104870000010041027E00000000020403FC001406D
:10488000070004C00440204020403FC000400040DA
:10489000000007C0040007C0040003C0000004407B
:1048A00007C00440040003C000400000038004402F
:1048B000044003800000041007F00450044003800B
:1048C0000000000003800440045007F00010044082
:1048D00007C002400400040000000000064005403C
:1048E000054004C00000000004001F800440004098
:1048F0000000040007800040044007C0004004009E
:10490000070004C0018006000400060001C0070083
:1049100001C006000000044006C0010006C00440BB
:1049200000000410071004E00180060004000000ED
:10493000044005C0064004400000000000000400E0
:104940007BE040200000000000000000FFF00000BD
:104950000000000040207BE0040000000000400058
:104960008000400020002000400000000000000007
:104970000000000000000000000000000000000037
:104980001FCC000C000000000000000008003000F8
:1049900060000800300060000000022003FC1E20C0
:1049A000022003FC1E200220000000000E1811044B
:1049B0003FFF10840C78000000000F0010840F38B7
:1049C00000C0077818840078000000780F8410C4B5
:1049D00011240E9800E400840008080068007000AC
:1049E00000000000000000000000000000000000C7
:1049F00007E01818200440020000000040022004D4
:104A0000181807E00000000000000240024001808A
:104A10000FF0018002400240000000800080008012
:104A20000FF800800080008000000001000D000EE3
:104A30000000000000000000000000000080008076
:104A4000008000800080008000800000000C000CCE
:104A50000000000000000000000000000006001838
:104A600000600180060018002000000007F0080820
:104A700010041004080807F00000000008040804EF
:104A80001FFC000400040000000000000E0C1014C5
:104A90001024104411840E0C000000000C181004A7
:104AA0001104110412880C700000000000E00320C3
:104AB000042408241FFC0024000000001F98108418
:104AC00011041104108810700000000007F008881D
:104AD0001104110418880070000000001C00100070
:104AE00010FC13001C001000000000000E381144E0
:104AF0001084108411440E38000000000700088C58
:104B000010441044088807F0000000000000000076
:104B1000030C030C00000000000000000000000176
:104B200001060000000000000000000000800140BD
:104B300002200410080810040000022002200220B5
:104B400002200220022002200000000010040808B9
:104B50000410022001400080000000000E0012003E
:104B6000100C106C10800F00000003E00C1813E410
:104B7000142417C4082807D000000004003C03C414
:104B80001C40074000E4001C000410041FFC11043A
:104B9000110411040E880070000003E00C181004CA
:104BA0001004100410081C10000010041FFC100456
:104BB00010041004080807F0000010041FFC110482
:104BC000110417C410040818000010041FFC11047D
:104BD000110017C010000800000003E00C181004BA
:104BE000100410441C780040000010041FFC1084C6
:104BF0000080008010841FFC1004000010041004CA
:104C00001FFC10041004000000000003000110014C
:104C100010011FFE10001000000010041FFC110402
:104C200003801464181C1004000010041FFC1004FE
:104C3000000400040004000C000010041FFC1F000E
:104C400000FC1F001FFC1004000010041FFC0C04DB
:104C5000030000E010181FFC100007F00808100403
:104C600010041004080807F0000010041FFC108452
:104C70001080108010800F00000007F0081810242A
:104C80001024101C080A07F2000010041FFC110475
:104C9000110011C011300E0C000400000E1C110494
:104CA0001084108410441C380000180010001004F8
:104CB0001FFC100410001800000010001FF8100462
:104CC0000004000410041FF8100010001E0011E082
:104CD000001C007013801C0010001FC0103C00E07E
:104CE0001F0000E0103C1FC000001004180C163418
:104CF00001C001C01634180C100410001C0013046D
:104D000000FC13041C00100000000804101C1064B8
:104D1000108413041C0410180000000000000000A0
:104D20007FFE4002400240020000000030000C0004
:104D300003800060001C00030000000040024002ED
:104D400040027FFE00000000000000000000200084
:104D50004000400040002000000000010001000170
:104D600000010001000100010001000040004000BE
:104D70002000000000000000000000000098012456
:104D800001440144014400FC000410001FFC0088A1
:104D90000104010400880070000000000070008819
:104DA0000104010401040088000000000070008874
:104DB0000104010411081FFC0004000000F8014474
:104DC00001440144014400C8000000000104010442
:104DD0000FFC1104110411001800000000D6012975
:104DE0000129012901C90106000010041FFC0084EB
:104DF00001000100010400FC00040000010419048A
:104E000019FC000400040000000000000003000181
:104E10000101190119FE0000000010041FFC00240C
:104E2000004001B4010C0104000000001004100453
:104E30001FFC0004000400000000010401FC010448
:104E4000010001FC0104010000FC010401FC0084DC
:104E500001000100010400FC0004000000F801044E
:104E600001040104010400F80000010101FF0085B4
:104E70000104010400880070000000000070008838
:104E800001040104010501FF00010104010401FC0A
:104E900000840104010001800000000000CC012416
:104EA00001240124012401980000000001000100F8
:104EB00007F80104010400000000010001F80004EB
:104EC00000040004010801FC0004010001800170DD
:104ED000000C001001600180010001F0010C0030A5
:104EE00001C00030010C01F0010000000104018C40
:104EF00000740170018C0104000001010181017145
:104F0000000E001801600180010000000184010C06
:104F1000013401440184010C000000000000000085
:104F2000000001003EFC40024002000000000000C2
:104F30000000FFFF000000000000000040024002EF
:104F40003EFC010000000000000000006000800046
:104F50008000400040002000200000000000000011
:104F60000000000000000000000000000000000041
:104F70000000000000000000000000000000000031
:104F8000000000000000000000000000000F80385A
:104F90000FFE380F80380000000000000000000005
:104FA00000000000000000000100000600000C00EE
:104FB000003800003100000600000C00003800003E
:104FC0003000000000000000000061800067F8076A
:104FD000F98000618000618000618000618000676D
:104FE000F807F98000618000000000000000000068
:104FF00001C0E003E0F00630080418081FFFFE04BB
:105000000E080787F00381E000000000000001F0B7
:1050100000060C00040408060C7001F9C0000E0024
:10502000003BE000EC18070808040C180003E0003F
:1050300000000001E00007F003F818041C08041742
:105040000807E1D003C0E00023B0003C08002008BE
:1050500000001000000000000001000031000032DC
:1050600000001C0000000000000000000000000024
:105070000000000000000000000000000000000030
:10508000000000000000000000007F0001FFC007DA
:1050900080F00C0018100004200002000000000046
:1050A000002000021000040C00180780F001FFC06F
:1050B000007F000000000000000000000000000071
:1050C0000000000000004200006600006600003C96
:1050D0000000180003FFC0001800003C000066003C
:1050E0000066000042000000000008000008000008
:1050F000080000080000080001FFC00008000008C8
:105100000000080000080000080000000000000186
:1051100000003100003200001C0000000000000010
:10512000000000000000000000000000000000007F
:105130000000080000080000080000080000080047
:105140000008000008000008000008000008000037
:1051500000000000000000000000380000380000DF
:105160003800000000000000000000000000000007
:1051700000000000000000000000000600001C000D
:105180000070000180000E0000380000C000070021
:10519000001C0000300000000000000000007F80C4
:1051A00001FFE003807006001804000804000806F0
:1051B000001803807001FFE0007F80000000000005
:1051C0000000000001000801000801000803FFF8CA
:1051D00007FFF800000800000800000800000000B9
:1051E000000000000001C03802C05804009804010B
:1051F00018040218040418061C1803F81801E0F833
:1052000000000000000000000001C0E003C0F00446
:10521000000804080804080806180803F41801E741
:10522000F00001E0000000000000000000000300AA
:10523000000D000011000061000081080301080753
:10524000FFF80FFFF800010800010800000000004F
:10525000000000E007FCD006080806100806100849
:10526000061008061838060FF00607C000000000F8
:105270000000000000003F8001FFE00384300208CE
:1052800018041008041008041008071810030FF081
:105290000007C000000000000000000003C000077D
:1052A00000000600000600F80607F806180006E0F1
:1052B0000007000006000000000000000001E1E01F
:1052C00003F7F0063410041808041808040C080446
:1052D0000C0806161803F3F001C1E00000000000FE
:1052E0000000F80003FC300306380402080402083A
:1052F0000402080404100308F001FFC0007F00004E
:10530000000000000000000000000000000000009D
:105310000000703800703800703800000000000095
:10532000000000000000000000000000000000007D
:10533000000000000000301A00301C0000000000D7
:10534000000000000000000000000000000000005D
:1053500000080000140000220000410000808001CD
:1053600000400200200400100800080000000000B7
:105370000000210000210000210000210000210088
:105380000021000021000021000021000021000078
:1053900000000000000000000800080400100200E7
:1053A0002001004000808000410000220000140025
:1053B00000080000000000000003C00004C000045A
:1053C0000000080038080F380808380810000C30B2
:1053D0000007E00003C000000000000000003F8064
:1053E00000FFE0038070020F1006708804C088047C
:1053F0008308047F8802C09003012000FE40000063
:10540000080000180001F8003E0801C20007020071
:1054100007E20000FE00001FC80001F8000038008D
:10542000000804000807FFF807FFF804080804084C
:105430000804080804080806180803F41801E7F02F
:105440000001E0000000000000003F8001FFE003D9
:10545000807002001804000804000804000804001A
:10546000100600200780C000000004000807FFF8B5
:1054700007FFF804000804000804000804001802EC
:10548000001003807001FFE0007F80000000040036
:105490000807FFF807FFF8040808040808040808CC
:1054A000040808043E080400080600180100600013
:1054B000000004000807FFF807FFF80408080408C4
:1054C00000040800040800043E0006000006000076
:1054D000018000000000000000003F8001FFE003A9
:1054E0008070060018040008040208040208020381
:1054F000F00783F000020000020004000807FFF834
:1055000007FFF80408080008000008000008000071
:10551000080004080807FFF807FFF8040008000067
:105520000000000004000804000804000807FFF859
:1055300007FFF80400080400080400080000000049
:105540000000000000000006000007000001040049
:105550000104000104000307FFFE07FFFC04000034
:1055600004000004000004000807FFF807FFF80427
:105570000C08001800003E0004C7800503C80600A0
:10558000F804003804001800000804000807FFF8B9
:1055900007FFF804000800000800000800000800E9
:1055A000000800000800001800006000000004006F
:1055B0000807FFF807800807FC00007FC00003F819
:1055C0000007C000780007800807FFF807FFF8040D
:1055D000000804000807FFF807000803C00000E007
:1055E00000003800001E000007000001C00400F0A9
:1055F00007FFF8040000000000007F8001FFE003C7
:105600008070060018040008040008060018030053
:105610003001FFE0007F8000000004000807FFF871
:1056200007FFF80404080404000404000404000450
:105630000400060C0003F80001F000000000000068
:1056400000007F8001FFE00380700600880400886E
:105650000400C806003C03003E01FFE6007F840012
:10566000000004000807FFF807FFF8040808040812
:1056700000040C00040F00040BC00610F003F03807
:1056800001E00800000800000001E0F803F0300627
:105690003010041808041808040C08040C0802064A
:1056A000180207F00781E0000000018000060000FA
:1056B00004000004000004000807FFF807FFF804D6
:1056C000000804000004000006000001800004003F
:1056D0000007FFE007FFF0040018000008000008C2
:1056E00000000800000800000804001007FFE004A4
:1056F000000004000006000007E00007FE00041F91
:10570000E00001F80000380001E0043E0007C0009E
:1057100006000004000004000007E00007FFC004CA
:105720001FF80007C007F80007FF80043FF80007D4
:10573000C004F80007000004000000000004000896
:1057400006001807C07805F1C8003E00001F80045D
:1057500063E80780F8060018040008000000040051
:105760000006000007800007E008047C08001FF81E
:105770000007F800180804E008070000060000040D
:1057800000000000000100080600380400F80403CF
:10579000E8040F08047C0805F00807C00807001893
:1057A0000400600000000000000000000000000095
:1057B00000000000003FFFFE200002200002200049
:1057C0000220000220000200000000000000000093
:1057D00008000007000000C00000380000060000BC
:1057E00001C000003000000E0000010000000000B9
:1057F0000000000020000220000220000220000221
:105800002000023FFFFE000000000000000000003A
:105810000000000000000000000000080000100070
:1058200000300000200000300000100000080000E0
:105830000000000000000000010000010000010065
:105840000001000001000001000001000001000053
:105850000100000100000100000100000000000044
:1058600000000020000020000010000010000000D8
:105870000000000000000000000000000000000028
:10588000000000F00019F8001B180022080026088C
:10589000002408002410003FF8001FF80000080052
:1058A000001800000004000007FFF80FFFF00018C8
:1058B00018001008002008002008003018001FF011
:1058C000000FC00000000000000007C0001FF00033
:1058D0001830002008002008002008003C08001CA8
:1058E000100000600000000000000000000007C081
:1058F000001FF000381800200800200800200804CD
:10590000101007FFF80FFFF000001000000000006B
:10591000000000000007C0001FF000123000221835
:10592000002208002208003208001E10000E20008D
:10593000000000000000200000200800200801FFF7
:10594000F803FFF8062008042008042008072000B8
:1059500003000000000000000000000E000E6E00BA
:105960001FF30031B10020B10020B1003191001FC0
:1059700013002E1E00200E0030000000000400085E
:1059800007FFF80FFFF800100800200000200000BB
:105990002008003FF8001FF8000008000000000089
:1059A00000000000002008002008002008063FF842
:1059B000063FF80000080000080000080000000092
:1059C00000000000000000000000030000030020B1
:1059D00001002001002003063FFE063FFC000000FE
:1059E00000000000000000000004000807FFF80F9E
:1059F000FFF8000188000300002FC00038F80020E5
:105A0000380020080000080000000000000000002E
:105A100004000804000804000807FFF80FFFF8005E
:105A2000000800000800000800000000000000203E
:105A300008003FF8003FF8001008002000003FF881
:105A4000003FF8001008002000003FF8003FF80079
:105A50000008000000002008003FF8003FF8001098
:105A600008001000002000002008003FF8001FF888
:105A70000000080000000000000007C0000FF00058
:105A800018300030080020080020080030080018F6
:105A900030000FF00007C0000000000000002001EF
:105AA000003FFF003FFF0010110020090020080008
:105AB0002008003038001FF0000FC0000000000078
:105AC000000007C0001FF000381800200800200860
:105AD000002009001011001FFF003FFF000001001F
