:020000040800F2
:1000000040090220AD020008D1020008D302000816
:10001000D5020008D7020008D9020008000000003D
:10002000000000000000000000000000DB020008EB
:10003000DD02000800000000DF020008E102000805
:10004000E3020008E3020008E3020008E3020008FC
:10005000E3020008E3020008E3020008E3020008EC
:10006000E3020008E3020008E3020008E3020008DC
:10007000E3020008E3020008E3020008E3020008CC
:10008000E3020008E3020008E3020008E3020008BC
:10009000E3020008E3020008E3020008E3020008AC
:1000A000E3020008E3020008E3020008E30200089C
:1000B000E3020008150B0008E3020008E302000851
:1000C000E3020008E3020008E3020008E30200087C
:1000D000E3020008A10D0008E3020008E3020008A3
:1000E000E3020008E3020008E3020008E30200085C
:1000F000E3020008E3020008E3020008E30200084C
:10010000E3020008E3020008B90C0008E30200085B
:10011000E3020008E3020008E3020008E30200082B
:10012000E3020008E3020008E3020008E30200081B
:10013000E3020008E3020008E3020008E30200080B
:10014000E3020008E3020008E3020008E3020008FB
:10015000E3020008E3020008E3020008E3020008EB
:10016000E3020008E3020008E3020008E3020008DB
:10017000E3020008E3020008E302000800000000B8
:10018000E3020008E3020008E3020008E3020008BB
:10019000E3020008E3020008E3020008E3020008AB
:1001A000E3020008E3020008E3020008E30200089B
:1001B000E3020008E3020008E3020008E30200088B
:1001C000E3020008E302000800000000E302000868
:1001D000E3020008E3020008E3020008E30200086B
:1001E000E3020008E3020008E3020008E30200085B
:1001F000E3020008E302000800F002F800F046F80D
:100200000AA090E8000C82448344AAF10107DA4571
:1002100001D100F03BF8AFF2090EBAE80F0013F07D
:10022000010F18BFFB1A43F001031847440E0000EA
:10023000640E0000103A24BF78C878C1FAD852077B
:1002400024BF30C830C144BF04680C607047000050
:100250000023002400250026103A28BF78C1FBD8CF
:10026000520728BF30C148BF0B60704703681B0AA4
:1002700028BF41F08001E42900F05480002070473D
:100280001FB500F0EFFE1FBD10B510BD00F0B4F9B2
:100290001146FFF7F5FF00F029FE00F0D2F903B494
:1002A000FFF7F2FF03BC00F0BBFD0000DFF84000E9
:1002B000016841F470010160BFF34F8FDFF8340033
:1002C000016821F040410160BFF36F8F0A48004789
:1002D000FEE7FEE7FEE7FEE7FEE7FEE7FEE7FEE7F6
:1002E000FEE7FEE705480649044A064B7047000052
:1002F00088ED00E034EF00E0F90100084001022041
:100300004009022040010220704700000FB4044958
:1003100010B503AA029800F041F910BC5DF814FB77
:10032000040002202DE9F0418046D21D22F0070290
:100330000025D2E90002F52915A614D0011E72F19C
:10034000000106DA0023D0EB030063EB020211A6E2
:1003500008E0D8F800108B0701D50FA602E0490786
:1003600001D50EA601251146002408F1240704E05A
:1003700000F076F830323A55641C50EA0102F7D1A9
:100380002B46324621464046BDE8F04100F0ADB86C
:10039000000000002D0000002B00000020000000E5
:1003A0002DE9F0410F460546002028622846E968FD
:1003B000884770B3252805D0D5E901219047286AE0
:1003C000401CF2E7E9682846002688476C28044666
:1003D0000AD0682C08D04C2C35D06A2C31D0742C23
:1003E00031D07A2C2FD016E0E96806462846884797
:1003F000B042044608D16C2E23D04FF480662846C4
:10040000E9688847044606E06C2E03D04FF48076F6
:1004100001E01EE04026E4B1A4F14100192802D811
:10042000203446F400663A46214628462E60FFF7FF
:100430001DFF60B1012808D0FF1D27F0070708370E
:10044000B4E78026DBE70026D9E73F1DAEE720466C
:10045000B2E7286ABDE8F08170477047704770477F
:1004600030B5B0F10A024FEA900E71F100034EEA86
:10047000817EB0EB0E0061EB91014FEA101E4EEA57
:10048000017E10EB0E0041EB11114FEA102E4EEAE7
:10049000016E10EB0E0041EB11214FEA104E4EEAB7
:1004A000014E10EB0E0041EB1141401841F10001EB
:1004B0004FEAD00040EA41704FEAD10110EB8005CD
:1004C0004FEA810444EA907444EB01046D1944EB53
:1004D0000404521BA3414FF0000348BF0A3200D569
:1004E00030BD401C41F1000130BD2DE9F0470D4603
:1004F00099469246044600F124080168880604D50E
:10050000E06921F01001216000E00120A84201DD36
:10051000471B00E00027A1697A1902EB0900081ABD
:10052000A0612078C00602D42046AFF300800026E8
:1005300008E0D4E901211AF806009047206A401C1F
:10054000761C20624E45F4DB2078C0060AD5204692
:10055000AFF3008006E0D4E9012130209047206A03
:10056000401C2062381EA7F10107F4DC07E0D4E943
:10057000012118F805009047206A401C2062281EBF
:10058000A5F10105F3DC2046AFF3008020780006DA
:1005900002D50220BDE8F0870120FBE7074B70B5CC
:1005A0000D467B4400F011F80446284600F020F880
:1005B00010B14FF0FF3070BD204670BD2B09000018
:1005C00001694A1C02610878704700B58FB0CDE917
:1005D00001310021059105497944CDE90310114607
:1005E0006846FFF7DDFE0FB000BD0000E5FFFFFF2E
:1005F000007B00F080007047754600F02BF8AE4697
:1006000005006946534620F00700854618B020B51E
:10061000FFF768FEBDE820404FF000064FF00007EE
:100620004FF000084FF0000B21F00701AC46ACE89A
:10063000C009ACE8C009ACE8C009ACE8C0098D4607
:10064000704710B50446AFF300802046BDE8104067
:10065000FFF725BE00487047E000022010B500BF3C
:1006600000BF00BF00BF00BFBFF34F8F00BF00BF80
:1006700000BF00BF00BF00BFBFF36F8F00BF00BF50
:1006800000BF0020114908601148006840F40030A4
:100690000F49086000BF00BF00BFBFF34F8F00BF0E
:1006A00000BF00BF00BF00BF00BFBFF36F8F00BF20
:1006B00000BF00BF00BF00F01DF904484C300068C7
:1006C00040F0040001494C31086010BD50EF00E0DB
:1006D00014ED00E030B5CC1000F1200353F82430C5
:1006E0004C07E50E0F24AC40A343CD1000F12004CD
:1006F00044F82530CC1000F1200353F824304C0787
:10070000E40E02FA04F42343CD1000F1200444F86F
:10071000253030BD02F001030BB1816101E00B0413
:10072000836170472DE9F0470C46DDE90867002139
:1007300000258C4600BF60E04FF0010808FA01F583
:1007400004EA050CAC4557D1D0F800804FEA410AC5
:100750004FF0030909FA0AF928EA0908C0F80080ED
:10076000D0F800804FEA410902FA09F948EA09087D
:10077000C0F80080012A01D0022A27D1D0F80880D1
:100780004FEA410A4FF0030909FA0AF928EA090871
:10079000C0F80880D0F808804FEA410906FA09F944
:1007A00048EA0908C0F80880D0F804904FF0010822
:1007B00008FA01F829EA0809C0F80490D0F8048082
:1007C00003FA01F948EA0908C0F80480D0F80C805F
:1007D0004FEA410A4FF0030909FA0AF928EA090821
:1007E000C0F80C80D0F80C804FEA410907FA09F9EB
:1007F00048EA0908C0F80C80491C10299CD3BDE8C0
:10080000F08700001CB50D48006840F002000B495D
:1008100008600120032100230246CDE900100848AA
:10082000FFF780FF012202210548FFF773FF012235
:1008300011460348FFF76EFF1CBD00003038024030
:10084000000402402DE9F0410746884614461D4643
:10085000284600F033F8C5F1040007FA00F60F202F
:10086000284100EA0800064306F00F06E21704EBF1
:10087000D2625211920002F1E022D2F80021214608
:10088000E31704EBD3635B11A4EB431C012303FACE
:100890000CF31A432046E31704EBD3635B119B0070
:1008A00003F1E023C3F800210348005D40EA06108D
:1008B00001490855BDE8F08100E400E00146072346
:1008C00023EA01021202054B18684FF6FF03184095
:1008D000034B18431043014B186070470CED00E0C8
:1008E0000000FA054A0A52020243014B1A6070479F
:1008F00008ED00E010B50023234C236000BF00BFCB
:1009000000BFBFF34F8F00BF00BF00BF231F186899
:10091000C0F34E3100BFC0F3C90200BF43F6E0731D
:1009200003EA41134FF0404404EA82742343174C16
:10093000236000BF00BF131EA2F10102EED10B1E07
:10094000A1F10101E7D100BF00BF00BFBFF34F8F8E
:1009500000BF00BF00BF0C4B703B1B6843F48033EB
:10096000094C703C236000BF00BF00BFBFF34F8F36
:1009700000BF00BF00BF00BF00BF00BFBFF36F8F4D
:1009800000BF00BF00BF10BD84ED00E060EF00E0DD
:100990002DE9F04104460D4616461F4615480068ED
:1009A00040F0010013490860002012490831086036
:1009B00010480068104908400E4908600F48091D9A
:1009C0000860081F006820F48020091F08600020CC
:1009D00008490C310860FFF741FE3B463246294684
:1009E000204600F00DF800214FF00060FFF77AFF7D
:1009F000BDE8F08100380240FFFFF6FE1030002411
:100A0000F0B504460D46002100203F4E366846F4FE
:100A100080363D4F3E6001E04E1CB1B23A4E366822
:100A200006F400361EB941F6FF76B142F4DB41F61A
:100A3000FF76B14201D1012065E0334E4036366881
:100A400046F08056304F40373E60304E366846F4B0
:100A500040462E4F3E603E46366846F480363E6045
:100A60003E46366846F400363E60274E0836366805
:100A700046F41446244F08373E60234E366826F06D
:100A80008076214F3E6045EA84160127C7EB520766
:100A900046EA074646EA036646F480061A4F3F1DBB
:100AA0003E603E1F366846F080763F1F3E6000BFC6
:100AB000154E366806F00076002EF9D0144E3668D2
:100AC00046F48076124F3E603E46366846F4007625
:100AD0003E603E46366846F007063E600A4E0836DF
:100AE000366826F00306084F08373E603E463668F3
:100AF00046F002063E6000BF034E0836366806F038
:100B00000C06082EF8D1F0BD0038024000700040FD
:100B1000003C024010B50B48006800F0010050B1E5
:100B20000948007880F00100074908700246012159
:100B30000648FFF7EFFD0348006820F00100014977
:100B4000086010BD100400401400022000040240A0
:100B50007CB505460C462348006840F00200214958
:100B6000086020481038006840F004001D49103922
:100B700008600120032100230222CDE90010114664
:100B80001948FFF7CFFD022201211748FFF7A2FD08
:100B900016480560001F046014481038006840F4CF
:100BA000C0401249103908600846006840F40060EF
:100BB0000860081D006840F48050091D0860084660
:100BC000006840F40050086008482C38006840F085
:100BD000800006492C3908600846006840F0010092
:100BE00008607CBD40380240000402402C040040F4
:100BF0007CB504460D462D48006840F008002B499E
:100C000008602A481038006840F001002749103970
:100C100008600220032100230246CDE900100121D3
:100C20002348FFF77FFD022200212148FFF752FDF4
:100C300020480460001F05601E481438006840F01A
:100C400001001C491439086008460068086008461D
:100C50000068086017480C38006816490C390860AD
:100C60000846006840F00100086001201149183969
:100C7000086010482038006840F002000D49203913
:100C800008600846006840F00100086009482C38F8
:100C9000006840F0010007492C3908600223322225
:100CA00000211846FFF7CEFD7CBD00004038024011
:100CB000000002402C0C00403649096888B23649D1
:100CC000097801F08001002960D100F00101D1B163
:100CD0003149097801F04001A9B12F49097801F0A3
:100CE0003F013F290AD12C49097841F080012A4A65
:100CF00011704FF0FF31294A116004E0264909784C
:100D0000491C254A117000F00201E9B32249097813
:100D100001F0400199B12049097841F080011E4A53
:100D200011701C49243109681C4A1160194910319D
:100D3000096821F00201174A1032116026E00021F3
:100D4000154A1170154A11601349097841F04001A4
:100D5000114A11700F491039096821F001010D4A3B
:100D6000103A116000210B4A14321160111F0968FA
:100D700041F00201121F116006491039096841F063
:100D80000101044A103A00E000E011600021014A2C
:100D900011607047100C00400C000220100002206F
:100DA0001C49C96901F0200109B31A49496AC8B24E
:100DB0001949098801F40041C9B91749098801F4A2
:100DC000804161B10A2803D00021134A118020E03C
:100DD0001149098841F400410F4A118019E00D289A
:100DE00006D10D49098841F480410B4A118010E079
:100DF00009490988C1F30D01084A50540649098878
:100E0000491C054A118011460988C72901DD0021C6
:100E100011807047001001400800022018000220D5
:100E200000BF70474FF0E021096921F004014FF045
:100E3000E0221161C21700EB5272C2F3C702054BE8
:100E40001A704FF47A714143C1F3CF01024A118005
:100E500070470000000002200200022070B5044626
:100E60004FF4077094FBF0F0C6B24FF4077094FB98
:100E7000F0F100FB114085B205E04FF4077000F07F
:100E800009F8701EC6B2002EF7D115B1284600F041
:100E900001F870BD01460D4A12884A434FF0E02325
:100EA0005A6100229A6101221A6100BF4FF0E022CC
:100EB000106900F001021AB100F48032002AF5D066
:100EC00000224FF0E0231A619A617047020002206D
:100ED00000BF054AD26902F04002002AF9D0C2B22E
:100EE000014B9A62704700000010014000BF0923C7
:100EF000022219214FF4D870FFF74AFDD820FFF7DE
:100F000091FF4FF4E1316C2000F04EF8FFF77AFCCE
:100F10006B2140F2F310FFF71BFE6B214FF0FF3007
:100F2000FFF766FE31E00A20FFF798FF17480068D8
:100F3000401C1649086008460068B0F5967F01D14C
:100F4000002008601248007800F08000E8B11048E6
:100F5000007800F03F00C51704464FF0FF3300262D
:100F60002146A1FB030705FB037204FB062504468B
:100F700008480068241845F1000522462B4606A0C3
:100F8000FFF7C4F9002002490870CCE74004004094
:100F90000C00022010000220484947483A20256CE6
:100FA0006C642075730D0A007CB505460C46294813
:100FB000684300EB5400B0FBF4F62748006840F0AB
:100FC00001002549086024481430006840F01000F2
:100FD0002149143108600120022100230A46CDE98D
:100FE00000104FF4C0611D48FFF79CFB0722092148
:100FF0001A48FFF76FFB07220A211848FFF76AFB20
:101000001748C66000201649086008460068086056
:1010100008460068086008460068086008460068DE
:1010200040F0080008600846006840F004000860CE
:101030000846006840F020000860022325220321B2
:101040000846FFF7FFFB0648006840F0010004492E
:1010500008607CBD40420F00303802400000024072
:10106000001001404FF04070E1EE100A70470000A0
:101070009010000800000220180000003402000850
:10108000A8100008180002202809000050020008DB
:101090000000000000000000000000000000000050
:0810A000000000000100000047
:04000005080001F9F5
:00000001FF
